{
  "_format": "hh-sol-artifact-1",
  "contractName": "NodeType",
  "sourceName": "contracts/NodeType.sol",
  "abi": [
    {
      "inputs": [
        {
          "internalType": "string",
          "name": "_name",
          "type": "string"
        },
        {
          "internalType": "uint256[]",
          "name": "values",
          "type": "uint256[]"
        },
        {
          "internalType": "address",
          "name": "_handler",
          "type": "address"
        },
        {
          "internalType": "address",
          "name": "_old",
          "type": "address"
        }
      ],
      "stateMutability": "nonpayable",
      "type": "constructor"
    },
    {
      "inputs": [
        {
          "internalType": "string",
          "name": "_name",
          "type": "string"
        },
        {
          "internalType": "uint256",
          "name": "_rate",
          "type": "uint256"
        }
      ],
      "name": "addFeature",
      "outputs": [],
      "stateMutability": "nonpayable",
      "type": "function"
    },
    {
      "inputs": [
        {
          "internalType": "address",
          "name": "_new",
          "type": "address"
        },
        {
          "internalType": "bool",
          "name": "_change",
          "type": "bool"
        }
      ],
      "name": "addOwner",
      "outputs": [],
      "stateMutability": "nonpayable",
      "type": "function"
    },
    {
      "inputs": [
        {
          "internalType": "address",
          "name": "from",
          "type": "address"
        },
        {
          "internalType": "uint256[]",
          "name": "tokenIds",
          "type": "uint256[]"
        }
      ],
      "name": "burnFrom",
      "outputs": [
        {
          "internalType": "uint256",
          "name": "",
          "type": "uint256"
        }
      ],
      "stateMutability": "nonpayable",
      "type": "function"
    },
    {
      "inputs": [
        {
          "internalType": "address",
          "name": "user",
          "type": "address"
        }
      ],
      "name": "calculateUserRewards",
      "outputs": [
        {
          "internalType": "uint256",
          "name": "",
          "type": "uint256"
        },
        {
          "internalType": "uint256",
          "name": "",
          "type": "uint256"
        }
      ],
      "stateMutability": "view",
      "type": "function"
    },
    {
      "inputs": [
        {
          "internalType": "address",
          "name": "user",
          "type": "address"
        },
        {
          "internalType": "uint256[]",
          "name": "tokenIds",
          "type": "uint256[]"
        }
      ],
      "name": "calculateUserRewardsBatch",
      "outputs": [
        {
          "internalType": "uint256",
          "name": "",
          "type": "uint256"
        },
        {
          "internalType": "uint256",
          "name": "",
          "type": "uint256"
        }
      ],
      "stateMutability": "view",
      "type": "function"
    },
    {
      "inputs": [],
      "name": "canBeBoostedNftLevelUp",
      "outputs": [
        {
          "internalType": "bool",
          "name": "",
          "type": "bool"
        }
      ],
      "stateMutability": "view",
      "type": "function"
    },
    {
      "inputs": [],
      "name": "canBeBoostedNftLucky",
      "outputs": [
        {
          "internalType": "bool",
          "name": "",
          "type": "bool"
        }
      ],
      "stateMutability": "view",
      "type": "function"
    },
    {
      "inputs": [],
      "name": "canBeBoostedNftMigration",
      "outputs": [
        {
          "internalType": "bool",
          "name": "",
          "type": "bool"
        }
      ],
      "stateMutability": "view",
      "type": "function"
    },
    {
      "inputs": [],
      "name": "canBeBoostedNftPending",
      "outputs": [
        {
          "internalType": "bool",
          "name": "",
          "type": "bool"
        }
      ],
      "stateMutability": "view",
      "type": "function"
    },
    {
      "inputs": [],
      "name": "canBeBoostedNftToken",
      "outputs": [
        {
          "internalType": "bool",
          "name": "",
          "type": "bool"
        }
      ],
      "stateMutability": "view",
      "type": "function"
    },
    {
      "inputs": [
        {
          "internalType": "address",
          "name": "user",
          "type": "address"
        }
      ],
      "name": "claimRewardsAll",
      "outputs": [
        {
          "internalType": "uint256",
          "name": "",
          "type": "uint256"
        },
        {
          "internalType": "uint256",
          "name": "",
          "type": "uint256"
        }
      ],
      "stateMutability": "nonpayable",
      "type": "function"
    },
    {
      "inputs": [
        {
          "internalType": "address",
          "name": "user",
          "type": "address"
        },
        {
          "internalType": "uint256[]",
          "name": "tokenIds",
          "type": "uint256[]"
        }
      ],
      "name": "claimRewardsBatch",
      "outputs": [
        {
          "internalType": "uint256",
          "name": "",
          "type": "uint256"
        },
        {
          "internalType": "uint256",
          "name": "",
          "type": "uint256"
        }
      ],
      "stateMutability": "nonpayable",
      "type": "function"
    },
    {
      "inputs": [],
      "name": "claimTaxRoi",
      "outputs": [
        {
          "internalType": "uint256",
          "name": "",
          "type": "uint256"
        }
      ],
      "stateMutability": "view",
      "type": "function"
    },
    {
      "inputs": [],
      "name": "claimTime",
      "outputs": [
        {
          "internalType": "uint256",
          "name": "",
          "type": "uint256"
        }
      ],
      "stateMutability": "view",
      "type": "function"
    },
    {
      "inputs": [],
      "name": "claimTimeRate",
      "outputs": [
        {
          "internalType": "uint256",
          "name": "",
          "type": "uint256"
        }
      ],
      "stateMutability": "view",
      "type": "function"
    },
    {
      "inputs": [],
      "name": "claimTimeReference",
      "outputs": [
        {
          "internalType": "uint256",
          "name": "",
          "type": "uint256"
        }
      ],
      "stateMutability": "view",
      "type": "function"
    },
    {
      "inputs": [
        {
          "internalType": "address",
          "name": "user",
          "type": "address"
        },
        {
          "internalType": "uint256",
          "name": "isBoostedAirDropRate",
          "type": "uint256"
        },
        {
          "internalType": "uint256[]",
          "name": "tokenIds",
          "type": "uint256[]"
        },
        {
          "internalType": "bool[]",
          "name": "areBoostedNft",
          "type": "bool[]"
        },
        {
          "internalType": "bool",
          "name": "isBoostedToken",
          "type": "bool"
        },
        {
          "internalType": "string",
          "name": "feature",
          "type": "string"
        }
      ],
      "name": "createNodeCustom",
      "outputs": [],
      "stateMutability": "nonpayable",
      "type": "function"
    },
    {
      "inputs": [
        {
          "internalType": "address",
          "name": "user",
          "type": "address"
        },
        {
          "internalType": "uint256[]",
          "name": "tokenIds",
          "type": "uint256[]"
        },
        {
          "internalType": "string",
          "name": "feature",
          "type": "string"
        }
      ],
      "name": "createNodeWithLuckyBox",
      "outputs": [],
      "stateMutability": "nonpayable",
      "type": "function"
    },
    {
      "inputs": [
        {
          "internalType": "address",
          "name": "user",
          "type": "address"
        },
        {
          "internalType": "uint256[]",
          "name": "tokenIds",
          "type": "uint256[]"
        }
      ],
      "name": "createNodesLevelUp",
      "outputs": [
        {
          "internalType": "uint256",
          "name": "",
          "type": "uint256"
        }
      ],
      "stateMutability": "nonpayable",
      "type": "function"
    },
    {
      "inputs": [
        {
          "internalType": "address",
          "name": "user",
          "type": "address"
        },
        {
          "internalType": "uint256[]",
          "name": "tokenIds",
          "type": "uint256[]"
        }
      ],
      "name": "createNodesMigration",
      "outputs": [],
      "stateMutability": "nonpayable",
      "type": "function"
    },
    {
      "inputs": [
        {
          "internalType": "address",
          "name": "user",
          "type": "address"
        },
        {
          "internalType": "uint256[]",
          "name": "tokenIds",
          "type": "uint256[]"
        }
      ],
      "name": "createNodesWithPendings",
      "outputs": [
        {
          "internalType": "uint256",
          "name": "",
          "type": "uint256"
        }
      ],
      "stateMutability": "nonpayable",
      "type": "function"
    },
    {
      "inputs": [
        {
          "internalType": "address",
          "name": "user",
          "type": "address"
        },
        {
          "internalType": "uint256[]",
          "name": "tokenIds",
          "type": "uint256[]"
        }
      ],
      "name": "createNodesWithTokens",
      "outputs": [
        {
          "internalType": "uint256",
          "name": "",
          "type": "uint256"
        }
      ],
      "stateMutability": "nonpayable",
      "type": "function"
    },
    {
      "inputs": [
        {
          "internalType": "string",
          "name": "",
          "type": "string"
        }
      ],
      "name": "featureCount",
      "outputs": [
        {
          "internalType": "uint256",
          "name": "",
          "type": "uint256"
        }
      ],
      "stateMutability": "view",
      "type": "function"
    },
    {
      "inputs": [
        {
          "internalType": "string",
          "name": "",
          "type": "string"
        }
      ],
      "name": "featureToBoostRate",
      "outputs": [
        {
          "internalType": "uint256",
          "name": "",
          "type": "uint256"
        }
      ],
      "stateMutability": "view",
      "type": "function"
    },
    {
      "inputs": [
        {
          "internalType": "uint256",
          "name": "iStart",
          "type": "uint256"
        },
        {
          "internalType": "uint256",
          "name": "iEnd",
          "type": "uint256"
        }
      ],
      "name": "getFeaturesBetweenIndexes",
      "outputs": [
        {
          "internalType": "string[]",
          "name": "",
          "type": "string[]"
        }
      ],
      "stateMutability": "view",
      "type": "function"
    },
    {
      "inputs": [],
      "name": "getFeaturesSize",
      "outputs": [
        {
          "internalType": "uint256",
          "name": "",
          "type": "uint256"
        }
      ],
      "stateMutability": "view",
      "type": "function"
    },
    {
      "inputs": [
        {
          "internalType": "uint256",
          "name": "tokenId",
          "type": "uint256"
        }
      ],
      "name": "getNodeFromTokenId",
      "outputs": [
        {
          "components": [
            {
              "internalType": "address",
              "name": "owner",
              "type": "address"
            },
            {
              "internalType": "uint256",
              "name": "creationTime",
              "type": "uint256"
            },
            {
              "internalType": "uint256",
              "name": "lastClaimTime",
              "type": "uint256"
            },
            {
              "internalType": "uint256",
              "name": "obtainingTime",
              "type": "uint256"
            },
            {
              "internalType": "uint256",
              "name": "isBoostedAirDropRate",
              "type": "uint256"
            },
            {
              "internalType": "bool",
              "name": "isBoostedNft",
              "type": "bool"
            },
            {
              "internalType": "bool",
              "name": "isBoostedToken",
              "type": "bool"
            },
            {
              "internalType": "string",
              "name": "feature",
              "type": "string"
            }
          ],
          "internalType": "struct NodeType.Node",
          "name": "",
          "type": "tuple"
        }
      ],
      "stateMutability": "view",
      "type": "function"
    },
    {
      "inputs": [
        {
          "internalType": "uint256",
          "name": "iStart",
          "type": "uint256"
        },
        {
          "internalType": "uint256",
          "name": "iEnd",
          "type": "uint256"
        }
      ],
      "name": "getNodeOwnersBetweenIndexes",
      "outputs": [
        {
          "internalType": "address[]",
          "name": "",
          "type": "address[]"
        }
      ],
      "stateMutability": "view",
      "type": "function"
    },
    {
      "inputs": [],
      "name": "getNodeOwnersSize",
      "outputs": [
        {
          "internalType": "uint256",
          "name": "",
          "type": "uint256"
        }
      ],
      "stateMutability": "view",
      "type": "function"
    },
    {
      "inputs": [
        {
          "internalType": "address",
          "name": "user",
          "type": "address"
        }
      ],
      "name": "getNodesCountLevelUpOf",
      "outputs": [
        {
          "internalType": "uint256",
          "name": "",
          "type": "uint256"
        }
      ],
      "stateMutability": "view",
      "type": "function"
    },
    {
      "inputs": [
        {
          "internalType": "address",
          "name": "user",
          "type": "address"
        }
      ],
      "name": "getNodesCountPendingOf",
      "outputs": [
        {
          "internalType": "uint256",
          "name": "",
          "type": "uint256"
        }
      ],
      "stateMutability": "view",
      "type": "function"
    },
    {
      "inputs": [
        {
          "internalType": "address",
          "name": "user",
          "type": "address"
        },
        {
          "internalType": "uint256",
          "name": "iStart",
          "type": "uint256"
        },
        {
          "internalType": "uint256",
          "name": "iEnd",
          "type": "uint256"
        }
      ],
      "name": "getNodesOfBetweenIndexes",
      "outputs": [
        {
          "components": [
            {
              "internalType": "address",
              "name": "owner",
              "type": "address"
            },
            {
              "internalType": "uint256",
              "name": "creationTime",
              "type": "uint256"
            },
            {
              "internalType": "uint256",
              "name": "lastClaimTime",
              "type": "uint256"
            },
            {
              "internalType": "uint256",
              "name": "obtainingTime",
              "type": "uint256"
            },
            {
              "internalType": "uint256",
              "name": "isBoostedAirDropRate",
              "type": "uint256"
            },
            {
              "internalType": "bool",
              "name": "isBoostedNft",
              "type": "bool"
            },
            {
              "internalType": "bool",
              "name": "isBoostedToken",
              "type": "bool"
            },
            {
              "internalType": "string",
              "name": "feature",
              "type": "string"
            }
          ],
          "internalType": "struct NodeType.Node[]",
          "name": "",
          "type": "tuple[]"
        }
      ],
      "stateMutability": "view",
      "type": "function"
    },
    {
      "inputs": [],
      "name": "getOwnersSize",
      "outputs": [
        {
          "internalType": "uint256",
          "name": "",
          "type": "uint256"
        }
      ],
      "stateMutability": "view",
      "type": "function"
    },
    {
      "inputs": [
        {
          "internalType": "address",
          "name": "user",
          "type": "address"
        },
        {
          "internalType": "uint256",
          "name": "iStart",
          "type": "uint256"
        },
        {
          "internalType": "uint256",
          "name": "iEnd",
          "type": "uint256"
        }
      ],
      "name": "getTimeRoiOfBetweenIndexes",
      "outputs": [
        {
          "internalType": "uint256[]",
          "name": "",
          "type": "uint256[]"
        }
      ],
      "stateMutability": "view",
      "type": "function"
    },
    {
      "inputs": [
        {
          "internalType": "address",
          "name": "user",
          "type": "address"
        },
        {
          "internalType": "uint256",
          "name": "iStart",
          "type": "uint256"
        },
        {
          "internalType": "uint256",
          "name": "iEnd",
          "type": "uint256"
        }
      ],
      "name": "getTimesBeforeNoClaimRewardOfBetweenIndexes",
      "outputs": [
        {
          "internalType": "uint256[]",
          "name": "",
          "type": "uint256[]"
        }
      ],
      "stateMutability": "view",
      "type": "function"
    },
    {
      "inputs": [
        {
          "internalType": "address",
          "name": "user",
          "type": "address"
        },
        {
          "internalType": "uint256",
          "name": "iStart",
          "type": "uint256"
        },
        {
          "internalType": "uint256",
          "name": "iEnd",
          "type": "uint256"
        }
      ],
      "name": "getTokenIdsOfBetweenIndexes",
      "outputs": [
        {
          "internalType": "uint256[]",
          "name": "",
          "type": "uint256[]"
        }
      ],
      "stateMutability": "view",
      "type": "function"
    },
    {
      "inputs": [
        {
          "internalType": "address",
          "name": "user",
          "type": "address"
        }
      ],
      "name": "getTotalNodesNumberOf",
      "outputs": [
        {
          "internalType": "uint256",
          "name": "",
          "type": "uint256"
        }
      ],
      "stateMutability": "view",
      "type": "function"
    },
    {
      "inputs": [],
      "name": "globalTax",
      "outputs": [
        {
          "internalType": "uint256",
          "name": "",
          "type": "uint256"
        }
      ],
      "stateMutability": "view",
      "type": "function"
    },
    {
      "inputs": [],
      "name": "handler",
      "outputs": [
        {
          "internalType": "address",
          "name": "",
          "type": "address"
        }
      ],
      "stateMutability": "view",
      "type": "function"
    },
    {
      "inputs": [],
      "name": "isBoostedNftProbability",
      "outputs": [
        {
          "internalType": "uint256",
          "name": "",
          "type": "uint256"
        }
      ],
      "stateMutability": "view",
      "type": "function"
    },
    {
      "inputs": [],
      "name": "isBoostedNftRate",
      "outputs": [
        {
          "internalType": "uint256",
          "name": "",
          "type": "uint256"
        }
      ],
      "stateMutability": "view",
      "type": "function"
    },
    {
      "inputs": [],
      "name": "isBoostedTokenLevelUp",
      "outputs": [
        {
          "internalType": "bool",
          "name": "",
          "type": "bool"
        }
      ],
      "stateMutability": "view",
      "type": "function"
    },
    {
      "inputs": [],
      "name": "isBoostedTokenLucky",
      "outputs": [
        {
          "internalType": "bool",
          "name": "",
          "type": "bool"
        }
      ],
      "stateMutability": "view",
      "type": "function"
    },
    {
      "inputs": [],
      "name": "isBoostedTokenMigration",
      "outputs": [
        {
          "internalType": "bool",
          "name": "",
          "type": "bool"
        }
      ],
      "stateMutability": "view",
      "type": "function"
    },
    {
      "inputs": [],
      "name": "isBoostedTokenPending",
      "outputs": [
        {
          "internalType": "bool",
          "name": "",
          "type": "bool"
        }
      ],
      "stateMutability": "view",
      "type": "function"
    },
    {
      "inputs": [],
      "name": "isBoostedTokenRate",
      "outputs": [
        {
          "internalType": "uint256",
          "name": "",
          "type": "uint256"
        }
      ],
      "stateMutability": "view",
      "type": "function"
    },
    {
      "inputs": [],
      "name": "isBoostedTokenToken",
      "outputs": [
        {
          "internalType": "bool",
          "name": "",
          "type": "bool"
        }
      ],
      "stateMutability": "view",
      "type": "function"
    },
    {
      "inputs": [
        {
          "internalType": "address",
          "name": "",
          "type": "address"
        }
      ],
      "name": "isOwner",
      "outputs": [
        {
          "internalType": "bool",
          "name": "",
          "type": "bool"
        }
      ],
      "stateMutability": "view",
      "type": "function"
    },
    {
      "inputs": [],
      "name": "maxCount",
      "outputs": [
        {
          "internalType": "uint256",
          "name": "",
          "type": "uint256"
        }
      ],
      "stateMutability": "view",
      "type": "function"
    },
    {
      "inputs": [],
      "name": "maxCreationPendingTotal",
      "outputs": [
        {
          "internalType": "uint256",
          "name": "",
          "type": "uint256"
        }
      ],
      "stateMutability": "view",
      "type": "function"
    },
    {
      "inputs": [],
      "name": "maxCreationPendingUser",
      "outputs": [
        {
          "internalType": "uint256",
          "name": "",
          "type": "uint256"
        }
      ],
      "stateMutability": "view",
      "type": "function"
    },
    {
      "inputs": [],
      "name": "maxLevelUpTotal",
      "outputs": [
        {
          "internalType": "uint256",
          "name": "",
          "type": "uint256"
        }
      ],
      "stateMutability": "view",
      "type": "function"
    },
    {
      "inputs": [],
      "name": "maxLevelUpUser",
      "outputs": [
        {
          "internalType": "uint256",
          "name": "",
          "type": "uint256"
        }
      ],
      "stateMutability": "view",
      "type": "function"
    },
    {
      "inputs": [],
      "name": "maxMultiClaim",
      "outputs": [
        {
          "internalType": "uint256",
          "name": "",
          "type": "uint256"
        }
      ],
      "stateMutability": "view",
      "type": "function"
    },
    {
      "inputs": [],
      "name": "maxMultiObtaining",
      "outputs": [
        {
          "internalType": "uint256",
          "name": "",
          "type": "uint256"
        }
      ],
      "stateMutability": "view",
      "type": "function"
    },
    {
      "inputs": [],
      "name": "maxUser",
      "outputs": [
        {
          "internalType": "uint256",
          "name": "",
          "type": "uint256"
        }
      ],
      "stateMutability": "view",
      "type": "function"
    },
    {
      "inputs": [],
      "name": "name",
      "outputs": [
        {
          "internalType": "string",
          "name": "",
          "type": "string"
        }
      ],
      "stateMutability": "view",
      "type": "function"
    },
    {
      "inputs": [],
      "name": "noClaimRewardAmount",
      "outputs": [
        {
          "internalType": "uint256",
          "name": "",
          "type": "uint256"
        }
      ],
      "stateMutability": "view",
      "type": "function"
    },
    {
      "inputs": [],
      "name": "noClaimTimeReference",
      "outputs": [
        {
          "internalType": "uint256",
          "name": "",
          "type": "uint256"
        }
      ],
      "stateMutability": "view",
      "type": "function"
    },
    {
      "inputs": [
        {
          "internalType": "uint256",
          "name": "",
          "type": "uint256"
        }
      ],
      "name": "nodeOwners",
      "outputs": [
        {
          "internalType": "address",
          "name": "",
          "type": "address"
        }
      ],
      "stateMutability": "view",
      "type": "function"
    },
    {
      "inputs": [
        {
          "internalType": "address",
          "name": "",
          "type": "address"
        }
      ],
      "name": "nodeOwnersInserted",
      "outputs": [
        {
          "internalType": "bool",
          "name": "",
          "type": "bool"
        }
      ],
      "stateMutability": "view",
      "type": "function"
    },
    {
      "inputs": [],
      "name": "obtainingTimeRate",
      "outputs": [
        {
          "internalType": "uint256",
          "name": "",
          "type": "uint256"
        }
      ],
      "stateMutability": "view",
      "type": "function"
    },
    {
      "inputs": [],
      "name": "obtainingTimeReference",
      "outputs": [
        {
          "internalType": "uint256",
          "name": "",
          "type": "uint256"
        }
      ],
      "stateMutability": "view",
      "type": "function"
    },
    {
      "inputs": [],
      "name": "old",
      "outputs": [
        {
          "internalType": "address",
          "name": "",
          "type": "address"
        }
      ],
      "stateMutability": "view",
      "type": "function"
    },
    {
      "inputs": [],
      "name": "openCreateNodesLevelUp",
      "outputs": [
        {
          "internalType": "bool",
          "name": "",
          "type": "bool"
        }
      ],
      "stateMutability": "view",
      "type": "function"
    },
    {
      "inputs": [],
      "name": "openCreateNodesMigration",
      "outputs": [
        {
          "internalType": "bool",
          "name": "",
          "type": "bool"
        }
      ],
      "stateMutability": "view",
      "type": "function"
    },
    {
      "inputs": [],
      "name": "openCreateNodesWithLuckyBoxes",
      "outputs": [
        {
          "internalType": "bool",
          "name": "",
          "type": "bool"
        }
      ],
      "stateMutability": "view",
      "type": "function"
    },
    {
      "inputs": [],
      "name": "openCreateNodesWithPending",
      "outputs": [
        {
          "internalType": "bool",
          "name": "",
          "type": "bool"
        }
      ],
      "stateMutability": "view",
      "type": "function"
    },
    {
      "inputs": [],
      "name": "openCreateNodesWithTokens",
      "outputs": [
        {
          "internalType": "bool",
          "name": "",
          "type": "bool"
        }
      ],
      "stateMutability": "view",
      "type": "function"
    },
    {
      "inputs": [
        {
          "internalType": "uint256",
          "name": "",
          "type": "uint256"
        }
      ],
      "name": "owners",
      "outputs": [
        {
          "internalType": "address",
          "name": "",
          "type": "address"
        }
      ],
      "stateMutability": "view",
      "type": "function"
    },
    {
      "inputs": [
        {
          "internalType": "address",
          "name": "",
          "type": "address"
        }
      ],
      "name": "ownersMigrated",
      "outputs": [
        {
          "internalType": "uint256",
          "name": "",
          "type": "uint256"
        }
      ],
      "stateMutability": "view",
      "type": "function"
    },
    {
      "inputs": [],
      "name": "price",
      "outputs": [
        {
          "internalType": "uint256",
          "name": "",
          "type": "uint256"
        }
      ],
      "stateMutability": "view",
      "type": "function"
    },
    {
      "inputs": [
        {
          "internalType": "address",
          "name": "_new",
          "type": "address"
        }
      ],
      "name": "removeOwner",
      "outputs": [],
      "stateMutability": "nonpayable",
      "type": "function"
    },
    {
      "inputs": [],
      "name": "rewardAmount",
      "outputs": [
        {
          "internalType": "uint256",
          "name": "",
          "type": "uint256"
        }
      ],
      "stateMutability": "view",
      "type": "function"
    },
    {
      "inputs": [
        {
          "internalType": "bool",
          "name": "_new",
          "type": "bool"
        }
      ],
      "name": "setCanBeBoostedNftLevelUp",
      "outputs": [],
      "stateMutability": "nonpayable",
      "type": "function"
    },
    {
      "inputs": [
        {
          "internalType": "bool",
          "name": "_new",
          "type": "bool"
        }
      ],
      "name": "setCanBeBoostedNftLucky",
      "outputs": [],
      "stateMutability": "nonpayable",
      "type": "function"
    },
    {
      "inputs": [
        {
          "internalType": "bool",
          "name": "_new",
          "type": "bool"
        }
      ],
      "name": "setCanBeBoostedNftMigration",
      "outputs": [],
      "stateMutability": "nonpayable",
      "type": "function"
    },
    {
      "inputs": [
        {
          "internalType": "bool",
          "name": "_new",
          "type": "bool"
        }
      ],
      "name": "setCanBeBoostedNftPending",
      "outputs": [],
      "stateMutability": "nonpayable",
      "type": "function"
    },
    {
      "inputs": [
        {
          "internalType": "bool",
          "name": "_new",
          "type": "bool"
        }
      ],
      "name": "setCanBeBoostedNftToken",
      "outputs": [],
      "stateMutability": "nonpayable",
      "type": "function"
    },
    {
      "inputs": [
        {
          "internalType": "uint256",
          "name": "_new",
          "type": "uint256"
        }
      ],
      "name": "setClaimTaxRoi",
      "outputs": [],
      "stateMutability": "nonpayable",
      "type": "function"
    },
    {
      "inputs": [
        {
          "internalType": "uint256",
          "name": "_new",
          "type": "uint256"
        }
      ],
      "name": "setClaimTime",
      "outputs": [],
      "stateMutability": "nonpayable",
      "type": "function"
    },
    {
      "inputs": [
        {
          "internalType": "uint256",
          "name": "_new",
          "type": "uint256"
        }
      ],
      "name": "setClaimTimeRate",
      "outputs": [],
      "stateMutability": "nonpayable",
      "type": "function"
    },
    {
      "inputs": [
        {
          "internalType": "uint256",
          "name": "_new",
          "type": "uint256"
        }
      ],
      "name": "setClaimTimeReference",
      "outputs": [],
      "stateMutability": "nonpayable",
      "type": "function"
    },
    {
      "inputs": [
        {
          "internalType": "uint256",
          "name": "_new",
          "type": "uint256"
        }
      ],
      "name": "setGlobalTax",
      "outputs": [],
      "stateMutability": "nonpayable",
      "type": "function"
    },
    {
      "inputs": [
        {
          "internalType": "address",
          "name": "_new",
          "type": "address"
        }
      ],
      "name": "setHandler",
      "outputs": [],
      "stateMutability": "nonpayable",
      "type": "function"
    },
    {
      "inputs": [
        {
          "internalType": "uint256",
          "name": "_new",
          "type": "uint256"
        }
      ],
      "name": "setIsBoostedNftProbability",
      "outputs": [],
      "stateMutability": "nonpayable",
      "type": "function"
    },
    {
      "inputs": [
        {
          "internalType": "uint256",
          "name": "_new",
          "type": "uint256"
        }
      ],
      "name": "setIsBoostedNftRate",
      "outputs": [],
      "stateMutability": "nonpayable",
      "type": "function"
    },
    {
      "inputs": [
        {
          "internalType": "bool",
          "name": "_new",
          "type": "bool"
        }
      ],
      "name": "setIsBoostedTokenLevelUp",
      "outputs": [],
      "stateMutability": "nonpayable",
      "type": "function"
    },
    {
      "inputs": [
        {
          "internalType": "bool",
          "name": "_new",
          "type": "bool"
        }
      ],
      "name": "setIsBoostedTokenLucky",
      "outputs": [],
      "stateMutability": "nonpayable",
      "type": "function"
    },
    {
      "inputs": [
        {
          "internalType": "bool",
          "name": "_new",
          "type": "bool"
        }
      ],
      "name": "setIsBoostedTokenMigration",
      "outputs": [],
      "stateMutability": "nonpayable",
      "type": "function"
    },
    {
      "inputs": [
        {
          "internalType": "bool",
          "name": "_new",
          "type": "bool"
        }
      ],
      "name": "setIsBoostedTokenPending",
      "outputs": [],
      "stateMutability": "nonpayable",
      "type": "function"
    },
    {
      "inputs": [
        {
          "internalType": "uint256",
          "name": "_new",
          "type": "uint256"
        }
      ],
      "name": "setIsBoostedTokenRate",
      "outputs": [],
      "stateMutability": "nonpayable",
      "type": "function"
    },
    {
      "inputs": [
        {
          "internalType": "bool",
          "name": "_new",
          "type": "bool"
        }
      ],
      "name": "setIsBoostedTokenToken",
      "outputs": [],
      "stateMutability": "nonpayable",
      "type": "function"
    },
    {
      "inputs": [
        {
          "internalType": "uint256",
          "name": "_new",
          "type": "uint256"
        }
      ],
      "name": "setMaxCount",
      "outputs": [],
      "stateMutability": "nonpayable",
      "type": "function"
    },
    {
      "inputs": [
        {
          "internalType": "uint256",
          "name": "_new",
          "type": "uint256"
        }
      ],
      "name": "setMaxCreationPendingTotal",
      "outputs": [],
      "stateMutability": "nonpayable",
      "type": "function"
    },
    {
      "inputs": [
        {
          "internalType": "uint256",
          "name": "_new",
          "type": "uint256"
        }
      ],
      "name": "setMaxCreationPendingUser",
      "outputs": [],
      "stateMutability": "nonpayable",
      "type": "function"
    },
    {
      "inputs": [
        {
          "internalType": "uint256",
          "name": "_new",
          "type": "uint256"
        }
      ],
      "name": "setMaxLevelUpTotal",
      "outputs": [],
      "stateMutability": "nonpayable",
      "type": "function"
    },
    {
      "inputs": [
        {
          "internalType": "uint256",
          "name": "_new",
          "type": "uint256"
        }
      ],
      "name": "setMaxLevelUpUser",
      "outputs": [],
      "stateMutability": "nonpayable",
      "type": "function"
    },
    {
      "inputs": [
        {
          "internalType": "uint256",
          "name": "_new",
          "type": "uint256"
        }
      ],
      "name": "setMaxMultiClaim",
      "outputs": [],
      "stateMutability": "nonpayable",
      "type": "function"
    },
    {
      "inputs": [
        {
          "internalType": "uint256",
          "name": "_new",
          "type": "uint256"
        }
      ],
      "name": "setMaxMultiObtaining",
      "outputs": [],
      "stateMutability": "nonpayable",
      "type": "function"
    },
    {
      "inputs": [
        {
          "internalType": "uint256",
          "name": "_new",
          "type": "uint256"
        }
      ],
      "name": "setMaxUser",
      "outputs": [],
      "stateMutability": "nonpayable",
      "type": "function"
    },
    {
      "inputs": [
        {
          "internalType": "uint256",
          "name": "_new",
          "type": "uint256"
        }
      ],
      "name": "setNoClaimRewardAmount",
      "outputs": [],
      "stateMutability": "nonpayable",
      "type": "function"
    },
    {
      "inputs": [
        {
          "internalType": "uint256",
          "name": "_new",
          "type": "uint256"
        }
      ],
      "name": "setNoClaimTimeReference",
      "outputs": [],
      "stateMutability": "nonpayable",
      "type": "function"
    },
    {
      "inputs": [
        {
          "internalType": "uint256",
          "name": "_new",
          "type": "uint256"
        }
      ],
      "name": "setObtainingTimeRate",
      "outputs": [],
      "stateMutability": "nonpayable",
      "type": "function"
    },
    {
      "inputs": [
        {
          "internalType": "uint256",
          "name": "_new",
          "type": "uint256"
        }
      ],
      "name": "setObtainingTimeReference",
      "outputs": [],
      "stateMutability": "nonpayable",
      "type": "function"
    },
    {
      "inputs": [
        {
          "internalType": "address",
          "name": "_new",
          "type": "address"
        }
      ],
      "name": "setOld",
      "outputs": [],
      "stateMutability": "nonpayable",
      "type": "function"
    },
    {
      "inputs": [
        {
          "internalType": "bool",
          "name": "_new",
          "type": "bool"
        }
      ],
      "name": "setOpenCreateNodesLevelUp",
      "outputs": [],
      "stateMutability": "nonpayable",
      "type": "function"
    },
    {
      "inputs": [
        {
          "internalType": "bool",
          "name": "_new",
          "type": "bool"
        }
      ],
      "name": "setOpenCreateNodesMigration",
      "outputs": [],
      "stateMutability": "nonpayable",
      "type": "function"
    },
    {
      "inputs": [
        {
          "internalType": "bool",
          "name": "_new",
          "type": "bool"
        }
      ],
      "name": "setOpenCreateNodesWithLuckyBoxes",
      "outputs": [],
      "stateMutability": "nonpayable",
      "type": "function"
    },
    {
      "inputs": [
        {
          "internalType": "bool",
          "name": "_new",
          "type": "bool"
        }
      ],
      "name": "setOpenCreateNodesWithPending",
      "outputs": [],
      "stateMutability": "nonpayable",
      "type": "function"
    },
    {
      "inputs": [
        {
          "internalType": "bool",
          "name": "_new",
          "type": "bool"
        }
      ],
      "name": "setOpenCreateNodesWithTokens",
      "outputs": [],
      "stateMutability": "nonpayable",
      "type": "function"
    },
    {
      "inputs": [
        {
          "internalType": "uint256",
          "name": "_new",
          "type": "uint256"
        }
      ],
      "name": "setPrice",
      "outputs": [],
      "stateMutability": "nonpayable",
      "type": "function"
    },
    {
      "inputs": [
        {
          "internalType": "uint256",
          "name": "_new",
          "type": "uint256"
        }
      ],
      "name": "setRewardAmount",
      "outputs": [],
      "stateMutability": "nonpayable",
      "type": "function"
    },
    {
      "inputs": [
        {
          "internalType": "uint256",
          "name": "tokenId",
          "type": "uint256"
        },
        {
          "internalType": "string",
          "name": "_new",
          "type": "string"
        }
      ],
      "name": "setTokenIdFeature",
      "outputs": [],
      "stateMutability": "nonpayable",
      "type": "function"
    },
    {
      "inputs": [
        {
          "internalType": "uint256",
          "name": "tokenId",
          "type": "uint256"
        },
        {
          "internalType": "uint256",
          "name": "_rate",
          "type": "uint256"
        }
      ],
      "name": "setTokenIdIsBoostedAirDropRate",
      "outputs": [],
      "stateMutability": "nonpayable",
      "type": "function"
    },
    {
      "inputs": [
        {
          "internalType": "uint256",
          "name": "tokenId",
          "type": "uint256"
        },
        {
          "internalType": "bool",
          "name": "_new",
          "type": "bool"
        }
      ],
      "name": "setTokenIdIsBoostedNft",
      "outputs": [],
      "stateMutability": "nonpayable",
      "type": "function"
    },
    {
      "inputs": [
        {
          "internalType": "uint256",
          "name": "tokenId",
          "type": "uint256"
        },
        {
          "internalType": "bool",
          "name": "_new",
          "type": "bool"
        }
      ],
      "name": "setTokenIdIsBoostedToken",
      "outputs": [],
      "stateMutability": "nonpayable",
      "type": "function"
    },
    {
      "inputs": [
        {
          "internalType": "uint256",
          "name": "",
          "type": "uint256"
        }
      ],
      "name": "tokenIdToOwner",
      "outputs": [
        {
          "internalType": "address",
          "name": "",
          "type": "address"
        }
      ],
      "stateMutability": "view",
      "type": "function"
    },
    {
      "inputs": [],
      "name": "totalCreatedNodes",
      "outputs": [
        {
          "internalType": "uint256",
          "name": "",
          "type": "uint256"
        }
      ],
      "stateMutability": "view",
      "type": "function"
    },
    {
      "inputs": [
        {
          "internalType": "address",
          "name": "from",
          "type": "address"
        },
        {
          "internalType": "address",
          "name": "to",
          "type": "address"
        },
        {
          "internalType": "uint256",
          "name": "tokenId",
          "type": "uint256"
        }
      ],
      "name": "transferFrom",
      "outputs": [],
      "stateMutability": "nonpayable",
      "type": "function"
    },
    {
      "inputs": [
        {
          "internalType": "string",
          "name": "_name",
          "type": "string"
        },
        {
          "internalType": "uint256",
          "name": "_rate",
          "type": "uint256"
        }
      ],
      "name": "updateFeature",
      "outputs": [],
      "stateMutability": "nonpayable",
      "type": "function"
    }
  ],
  "bytecode": "0x6080604052601c8054600160301b600160781b031965ffffffffff001960ff199092166001179190911665010000000000171690553480156200004157600080fd5b50604051620067c1380380620067c18339810160408190526200006491620008f3565b60008054600181810183557f290decd9548b62a8d60345a988386fc84ba6bc95484008f6362f93160ef3e56390910180546001600160a01b03191633908117909155825260208190526040909120805460ff191690911790558351620001115760405162461bcd60e51b815260206004820152601e60248201527f4e6f6465547970653a204e616d652063616e6e6f7420626520656d707479000060448201526064015b60405180910390fd5b835162000126906004906020870190620007a6565b5082516016146200017a5760405162461bcd60e51b815260206004820181905260248201527f4e6f6465547970653a2056616c7565732e6c656e677468206d69736d61746368604482015260640162000108565b826000815181106200019c57634e487b7160e01b600052603260045260246000fd5b602002602001015160068190555082600181518110620001cc57634e487b7160e01b600052603260045260246000fd5b602002602001015160078190555082600281518110620001fc57634e487b7160e01b600052603260045260246000fd5b6020026020010151600881905550826003815181106200022c57634e487b7160e01b600052603260045260246000fd5b6020026020010151600981905550612710836004815181106200025f57634e487b7160e01b600052603260045260246000fd5b602002602001015110620002cd5760405162461bcd60e51b815260206004820152602e60248201527f4e6f6465547970653a20436c61696d546178526f69206d757374206265206c6f60448201526d0776572207468616e2031303030360941b606482015260840162000108565b82600481518110620002ef57634e487b7160e01b600052603260045260246000fd5b6020026020010151600a81905550826005815181106200031f57634e487b7160e01b600052603260045260246000fd5b6020026020010151600b81905550826006815181106200034f57634e487b7160e01b600052603260045260246000fd5b6020026020010151600c81905550826007815181106200037f57634e487b7160e01b600052603260045260246000fd5b6020026020010151600d8190555082600881518110620003af57634e487b7160e01b600052603260045260246000fd5b6020026020010151600e8190555082600981518110620003df57634e487b7160e01b600052603260045260246000fd5b6020026020010151600f8190555082600a815181106200040f57634e487b7160e01b600052603260045260246000fd5b602002602001015160108190555061271083600b815181106200044257634e487b7160e01b600052603260045260246000fd5b602002602001015110620004bf5760405162461bcd60e51b815260206004820152603a60248201527f4e6f6465547970653a204973426f6f737465644e667450726f626162696c697460448201527f79206d757374206265206c6f776572207468616e203130303030000000000000606482015260840162000108565b82600b81518110620004e157634e487b7160e01b600052603260045260246000fd5b602002602001015160118190555082600c815181106200051157634e487b7160e01b600052603260045260246000fd5b602002602001015160128190555082600d815181106200054157634e487b7160e01b600052603260045260246000fd5b602002602001015160138190555061271083600e815181106200057457634e487b7160e01b600052603260045260246000fd5b602002602001015110620005f15760405162461bcd60e51b815260206004820152603560248201527f4e6f6465547970653a204973426f6f73746564546f6b656e52617465206d757360448201527f74206265206c6f776572207468616e2031303030300000000000000000000000606482015260840162000108565b82600e815181106200061357634e487b7160e01b600052603260045260246000fd5b602002602001015160148190555082600f815181106200064357634e487b7160e01b600052603260045260246000fd5b6020026020010151601681905550826010815181106200067357634e487b7160e01b600052603260045260246000fd5b602002602001015160158190555082601181518110620006a357634e487b7160e01b600052603260045260246000fd5b602002602001015160178190555082601281518110620006d357634e487b7160e01b600052603260045260246000fd5b6020026020010151601881905550826013815181106200070357634e487b7160e01b600052603260045260246000fd5b6020026020010151601981905550826014815181106200073357634e487b7160e01b600052603260045260246000fd5b6020026020010151601a81905550826014815181106200076357634e487b7160e01b600052603260045260246000fd5b6020908102919091010151601b55602380546001600160a01b039384166001600160a01b031991821617909155602480549290931691161790555062000a7c9050565b828054620007b49062000a29565b90600052602060002090601f016020900481019282620007d8576000855562000823565b82601f10620007f357805160ff191683800117855562000823565b8280016001018555821562000823579182015b828111156200082357825182559160200191906001019062000806565b506200083192915062000835565b5090565b5b8082111562000831576000815560010162000836565b80516001600160a01b03811681146200086457600080fd5b919050565b600082601f8301126200087a578081fd5b815160206001600160401b0382111562000898576200089862000a66565b808202620008a8828201620009f6565b838152828101908684018388018501891015620008c3578687fd5b8693505b85841015620008e7578051835260019390930192918401918401620008c7565b50979650505050505050565b6000806000806080858703121562000909578384fd5b84516001600160401b038082111562000920578586fd5b818701915087601f83011262000934578586fd5b81518181111562000949576200094962000a66565b60206200095f601f8301601f19168201620009f6565b8281528a8284870101111562000973578889fd5b885b838110156200099257858101830151828201840152820162000975565b83811115620009a357898385840101525b509089015190975092505080821115620009bb578485fd5b50620009ca8782880162000869565b935050620009db604086016200084c565b9150620009eb606086016200084c565b905092959194509250565b604051601f8201601f191681016001600160401b038111828210171562000a215762000a2162000a66565b604052919050565b60028104600182168062000a3e57607f821691505b6020821081141562000a6057634e487b7160e01b600052602260045260246000fd5b50919050565b634e487b7160e01b600052604160045260246000fd5b615d358062000a8c6000396000f3fe608060405234801561001057600080fd5b50600436106107435760003560e01c806389af6107116103be578063c23e6f93116101ff578063e361199611610125578063f123fb5c116100b8578063f5bcb7a911610087578063f5bcb7a91461102f578063f7b2a7be14611042578063fbaa07921461104b578063fd3845041461105e57610743565b8063f123fb5c14610fec578063f1aaf1e814610fff578063f3efece314611013578063f5239c991461102657610743565b8063ee08c0b6116100f4578063ee08c0b614610fbc578063eebd68b914610fd0578063ef22627b14610858578063ef9e79ea14610fd957610743565b8063e361199614610f6f578063e4d8af2f14610f83578063e7cbc79214610f96578063ea8de2ee14610fa957610743565b8063d1f18b491161019d578063d95de9a01161016c578063d95de9a014610f22578063daf73bbd14610f35578063de23b0d614610f48578063df22510e14610f5b57610743565b8063d1f18b4914610eea578063d271fac014610efd578063d597522114610f06578063d759948614610f0f57610743565b8063c80916d4116101d9578063c80916d414610ea7578063cd9f3b6e14610eba578063ce82805814610ecd578063d04b30b214610ed657610743565b8063c23e6f9314610e61578063c4273b1614610e81578063c674fab614610e9457610743565b8063a35e617f116102e4578063b48426bc11610282578063bac426d011610251578063bac426d014610e07578063bc2c21b714610e1a578063bca2f4a014610e22578063c090316614610e3657610743565b8063b48426bc14610858578063b6982afd14610dd8578063b83f866314610deb578063b88d345314610dfe57610743565b8063abace280116102be578063abace28014610d8c578063af79900114610d9f578063b018fc6f14610db2578063b0dc989f14610dc557610743565b8063a35e617f14610d54578063a7b8c64d14610d67578063a8a65a7814610d7957610743565b806398def01f1161035c5780639ef2d87a1161032b5780639ef2d87a14610d19578063a00ce4bb14610d22578063a035b1fe14610d38578063a051dc8b14610d4157610743565b806398def01f14610ccd57806398e556da14610ce05780639d695c6014610cf35780639dec96b514610d0657610743565b806391d2348f1161039857806391d2348f14610c8b57806391f3658c14610c9e5780639463c80314610cb157806396cfa23e14610cba57610743565b806389af610714610c525780638c1ddded14610c6557806391b7f5ed14610c7857610743565b806343a9ac39116105885780635f7dabbb116104ae578063754030f41161044c578063848327a51161041b578063848327a514610bf757806385db32ca14610c0a57806387e2fded14610c135780638890a31514610c3f57610743565b8063754030f414610b8c5780637914207f14610b9f578063804a306b14610bbf578063842e766914610bd457610743565b8063632203bc11610488578063632203bc14610b2a57806364c27ad414610b3d5780636de8e15414610b505780636e9e48ef14610b6357610743565b80635f7dabbb14610aed5780635fd1021614610b1857806361c2f15b14610b2157610743565b8063518e32d311610526578063583109b9116104f5578063583109b914610a8957806359a68c7a14610a9d5780635c7b05b114610aaa5780635ca3797b14610ac157610743565b8063518e32d314610a45578063526cfed814610a5857806355128f7d14610a78578063551a6d9314610a8157610743565b80634946e485116105625780634946e48514610a025780634be3e9d014610a165780634d4c74e714610a1f5780635139839c14610a3257610743565b806343a9ac39146109b357806345945a56146109dc57806348c09c5d146109ef57610743565b8063242d81f01161066d5780632aea89b91161060b57806332187768116105da578063321877681461097b57806332a49e301461098457806335b99b671461098d578063421cc337146109a057610743565b80632aea89b91461090f5780632d22a3e7146109185780632f54bf6e146109385780633108614c1461095b57610743565b80632614c0f8116106475780632614c0f8146108c057806327b3bf11146108e057806329e38e5b146108e95780632a9f270e146108fc57610743565b8063242d81f014610891578063246c55a6146108a45780632496b5c0146108b757610743565b80630fa81815116106e5578063179ec2da116106b4578063179ec2da1461084f5780631b1f264c146108585780632158abb31461086b57806323b872dd1461087e57610743565b80630fa818151461080d578063129d7f8c1461081657806312c9fd7414610829578063173825d91461083c57610743565b806304b78e201161072157806304b78e20146107b757806306fdde03146107cc578063079129ba146107e15780630c7b1d7b1461080557610743565b8063025e7c27146107485780630297a4c11461077857806303eba5071461078f575b600080fd5b61075b61075636600461564d565b611071565b6040516001600160a01b0390911681526020015b60405180910390f35b61078160125481565b60405190815260200161076f565b6107a261079d36600461533e565b61109b565b6040805192835260208301919091520161076f565b6107ca6107c53660046155bf565b61124f565b005b6107d46112a5565b60405161076f919061595a565b601c546107f590600160701b900460ff1681565b604051901515815260200161076f565b600054610781565b61078160165481565b6107ca610824366004615480565b611333565b6107ca61083736600461564d565b6113b9565b6107ca61084a36600461533e565b6113ed565b61078160155481565b6107ca6108663660046155bf565b6116bd565b6107ca61087936600461567d565b6116ff565b6107ca61088c366004615358565b61177c565b6107ca61089f36600461533e565b611a47565b6107ca6108b236600461564d565b611afa565b61078160145481565b6107816108ce36600461533e565b60226020526000908152604090205481565b61078160085481565b6107ca6108f736600461560b565b611b2e565b6107ca61090a36600461569f565b611c86565b610781600e5481565b61092b6109263660046156d9565b611d3c565b60405161076f919061586f565b6107f561094636600461533e565b60016020526000908152604090205460ff1681565b61096e61096936600461564d565b611eb4565b60405161076f9190615b48565b610781600a5481565b61078160195481565b6107ca61099b36600461564d565b611fe7565b6107ca6109ae36600461564d565b61201b565b6107816109c136600461533e565b6001600160a01b031660009081526002602052604090205490565b6107ca6109ea36600461564d565b6120ab565b6107ca6109fd3660046155bf565b6120df565b601c546107f5906301000000900460ff1681565b61078160135481565b6107ca610a2d36600461560b565b612132565b61075b610a4036600461564d565b6121b2565b6107ca610a5336600461544e565b6121c2565b610a6b610a6636600461558d565b6123d8565b60405161076f9190615922565b61078160175481565b602054610781565b601c546107f590600160381b900460ff1681565b601c546107f59060ff1681565b601c546107f5906601000000000000900460ff1681565b610781610acf36600461533e565b6001600160a01b031660009081526002602052604090206004015490565b610781610afb3660046155d9565b8051602081830181018051601e8252928201919093012091525481565b61078160105481565b610781600c5481565b6107a2610b3836600461533e565b6124db565b610781610b4b366004615393565b612638565b6107ca610b5e36600461564d565b6128e9565b61075b610b7136600461564d565b6003602052600090815260409020546001600160a01b031681565b6107ca610b9a36600461564d565b61291d565b610bb2610bad36600461558d565b612951565b60405161076f91906158cf565b601c546107f590640100000000900460ff1681565b6107f5610be236600461533e565b60216020526000908152604090205460ff1681565b6107ca610c053660046155bf565b612b6e565b610781601a5481565b610781610c2136600461533e565b6001600160a01b031660009081526002602052604090206005015490565b6107ca610c4d36600461564d565b612bbb565b610781610c60366004615393565b612c59565b6107ca610c7336600461564d565b612ff6565b6107ca610c8636600461564d565b61302a565b6107ca610c993660046155bf565b6130ae565b6107ca610cac36600461564d565b613100565b610781600b5481565b601c546107f59062010000900460ff1681565b6107ca610cdb36600461564d565b6131ab565b6107a2610cee366004615393565b6131df565b610781610d01366004615393565b6133f6565b6107ca610d143660046156d9565b6135d2565b61078160065481565b601c546107f59065010000000000900460ff1681565b61078160075481565b6107ca610d4f3660046155bf565b613639565b6107ca610d6236600461564d565b61368c565b601c546107f590610100900460ff1681565b6107ca610d8736600461564d565b6136c0565b6107ca610d9a3660046155bf565b613753565b6107ca610dad36600461564d565b6137a4565b610781610dc0366004615393565b6137d8565b6107ca610dd336600461564d565b613874565b610a6b610de636600461558d565b6138a8565b60245461075b906001600160a01b031681565b61078160055481565b6107ca610e1536600461533e565b6139c3565b601d54610781565b601c546107f590600160601b900460ff1681565b610781610e443660046155d9565b8051602081830181018051601f8252928201919093012091525481565b610e74610e6f3660046156d9565b613a7b565b60405161076f9190615822565b6107ca610e8f36600461564d565b613b6d565b6107ca610ea23660046155bf565b613c07565b60235461075b906001600160a01b031681565b6107ca610ec83660046155bf565b613c58565b610781600f5481565b601c546107f590600160681b900460ff1681565b6107ca610ef836600461564d565b613ca5565b61078160115481565b610781600d5481565b610a6b610f1d36600461558d565b613cd9565b6107ca610f30366004615393565b613e0e565b6107a2610f43366004615393565b614182565b6107ca610f5636600461564d565b61433d565b601c546107f590600160481b900460ff1681565b601c546107f590600160401b900460ff1681565b6107ca610f9136600461564d565b6143db565b6107ca610fa436600461564d565b61440f565b6107ca610fb736600461567d565b6144b9565b601c546107f590600160501b900460ff1681565b61078160185481565b6107ca610fe73660046155bf565b61452e565b6107ca610ffa3660046155bf565b61457b565b601c546107f590600160581b900460ff1681565b6107ca61102136600461564d565b6145c8565b610781601b5481565b6107ca61103d3660046155bf565b6145fc565b61078160095481565b6107ca6110593660046155bf565b614649565b6107ca61106c3660046153de565b614698565b6000818154811061108157600080fd5b6000918252602090912001546001600160a01b0316905081565b6001600160a01b0381166000908152600260205260408120819081908190815b8154811015611243576000806112118460010160008660000186815481106110f357634e487b7160e01b600052603260045260246000fd5b6000918252602080832090910154835282810193909352604091820190208151610100808201845282546001600160a01b031682526001830154948201949094526002820154928101929092526003810154606083015260048101546080830152600581015460ff808216151560a0850152939004909216151560c082015260068201805491929160e08401919061118a90615c53565b80601f01602080910402602001604051908101604052809291908181526020018280546111b690615c53565b80156112035780601f106111d857610100808354040283529160200191611203565b820191906000526020600020905b8154815290600101906020018083116111e657829003601f168201915b505050505081525050614728565b90925090506112208287615bae565b955061122c8186615bae565b94505050808061123b90615c8e565b9150506110bb565b50919350915050915091565b3360009081526001602052604090205460ff166112875760405162461bcd60e51b815260040161127e90615a3b565b60405180910390fd5b601c805491151563010000000263ff00000019909216919091179055565b600480546112b290615c53565b80601f01602080910402602001604051908101604052809291908181526020018280546112de90615c53565b801561132b5780601f106113005761010080835404028352916020019161132b565b820191906000526020600020905b81548152906001019060200180831161130e57829003601f168201915b505050505081565b6023546001600160a01b0316331461135d5760405162461bcd60e51b815260040161127e90615aa9565b8051156113a357601e816040516113749190615797565b908152602001604051809103902054600014156113a35760405162461bcd60e51b815260040161127e90615a04565b6113b186858585858a614a14565b505050505050565b3360009081526001602052604090205460ff166113e85760405162461bcd60e51b815260040161127e90615a3b565b601055565b336001600160a01b03166000808154811061141857634e487b7160e01b600052603260045260246000fd5b6000918252602090912001546001600160a01b0316146114755760405162461bcd60e51b815260206004820152601860248201527727bbb732b9399d1027b7363c9029bab832b91027bbb732b960411b604482015260640161127e565b6001600160a01b03811660009081526001602052604090205460ff166114d15760405162461bcd60e51b815260206004820152601160248201527027bbb732b9399d102737ba1037bbb732b960791b604482015260640161127e565b600080815481106114f257634e487b7160e01b600052603260045260246000fd5b6000918252602090912001546001600160a01b03828116911614156115635760405162461bcd60e51b815260206004820152602160248201527f4f776e6572733a2043616e6e6f742072656d6f7665207375706572206f776e656044820152603960f91b606482015260840161127e565b60015b60005481101561169b57816001600160a01b03166000828154811061159b57634e487b7160e01b600052603260045260246000fd5b6000918252602090912001546001600160a01b0316141561168957600080546115c690600190615bf9565b815481106115e457634e487b7160e01b600052603260045260246000fd5b600091825260208220015481546001600160a01b0390911691908390811061161c57634e487b7160e01b600052603260045260246000fd5b6000918252602082200180546001600160a01b0319166001600160a01b03939093169290921790915580548061166257634e487b7160e01b600052603160045260246000fd5b600082815260209020810160001990810180546001600160a01b031916905501905561169b565b8061169381615c8e565b915050611566565b506001600160a01b03166000908152600160205260409020805460ff19169055565b3360009081526001602052604090205460ff166116ec5760405162461bcd60e51b815260040161127e90615a3b565b601c805460ff1916911515919091179055565b3360009081526001602052604090205460ff1661172e5760405162461bcd60e51b815260040161127e90615a3b565b6000828152600360209081526040808320546001600160a01b031683526002825280832094835260019490940190529190912060050180549115156101000261ff0019909216919091179055565b6023546001600160a01b031633146117a65760405162461bcd60e51b815260040161127e90615aa9565b6001600160a01b038316600090815260026020908152604080832084845260030190915290205460ff1661181c5760405162461bcd60e51b815260206004820152601a60248201527f4e6f6465547970653a205472616e73666572206661696c757265000000000000604482015260640161127e565b6001600160a01b03821660009081526021602052604090205460ff166118a25760208054600180820183557fc97bfaf2f8ee708c303a06d134f5ecd8389ae0432af62dc132a24118292866bb90910180546001600160a01b0319166001600160a01b038616908117909155600090815260219092526040909120805460ff191690911790555b6001600160a01b038381166000908152600260208181526040808420868552600180820180855283872080546001600160a01b0319168b8a169081178083554260038401819055918a52888852868a20998c90529287528551610100808201885293909a168a5292810154958901959095529484015492870192909252606086019190915260048201546080860152600582015460ff808216151560a0880152939004909216151560c085015260068101805492946119f594938793919260e084019161196e90615c53565b80601f016020809104026020016040519081016040528092919081815260200182805461199a90615c53565b80156119e75780601f106119bc576101008083540402835291602001916119e7565b820191906000526020600020905b8154815290600101906020018083116119ca57829003601f168201915b505050505081525050614c88565b6001600160a01b0384166000908152600260205260409020611a179083614e38565b50600090815260036020526040902080546001600160a01b0319166001600160a01b039290921691909117905550565b3360009081526001602052604090205460ff16611a765760405162461bcd60e51b815260040161127e90615a3b565b6001600160a01b038116611ad85760405162461bcd60e51b8152602060048201526024808201527f4e6f6465547970653a204f6c642063616e6e6f742062652061646472657373206044820152637a65726f60e01b606482015260840161127e565b602480546001600160a01b0319166001600160a01b0392909216919091179055565b3360009081526001602052604090205460ff16611b295760405162461bcd60e51b815260040161127e90615a3b565b601455565b3360009081526001602052604090205460ff16611b5d5760405162461bcd60e51b815260040161127e90615a3b565b601e6004604051611b6e91906157b3565b908152602001604051809103902054600014611bcc5760405162461bcd60e51b815260206004820152601f60248201527f4e6f6465547970653a204665617475726520616c726561647920657869737400604482015260640161127e565b6000825111611c1d5760405162461bcd60e51b815260206004820152601e60248201527f4e6f6465547970653a204e616d652063616e6e6f7420626520656d7074790000604482015260640161127e565b601d80546001810182556000919091528251611c60917f6d4407e7be21f808e6509aa9fa9143369579dd7d760fe20a2c09680fc146134f01906020850190615117565b5080601e83604051611c729190615797565b908152604051908190036020019020555050565b3360009081526001602052604090205460ff16611cb55760405162461bcd60e51b815260040161127e90615a3b565b601e81604051611cc59190615797565b90815260200160405180910390205460001415611cf45760405162461bcd60e51b815260040161127e90615a04565b6000828152600360209081526040808320546001600160a01b031683526002825280832085845260010182529091208251611d3792600690920191840190615117565b505050565b60606000611d4a8484615bf9565b6001600160401b03811115611d6f57634e487b7160e01b600052604160045260246000fd5b604051908082528060200260200182016040528015611da257816020015b6060815260200190600190039081611d8d5790505b509050835b83811015611eac57601d8181548110611dd057634e487b7160e01b600052603260045260246000fd5b906000526020600020018054611de590615c53565b80601f0160208091040260200160405190810160405280929190818152602001828054611e1190615c53565b8015611e5e5780601f10611e3357610100808354040283529160200191611e5e565b820191906000526020600020905b815481529060010190602001808311611e4157829003601f168201915b5050505050828683611e709190615bf9565b81518110611e8e57634e487b7160e01b600052603260045260246000fd5b60200260200101819052508080611ea490615c8e565b915050611da7565b509392505050565b611ebc61519b565b6000828152600360208181526040808420546001600160a01b03908116855260028084528286208887526001908101855295839020835161010081810186528254909416815296810154948701949094528301549185019190915291810154606084015260048101546080840152600581015460ff808216151560a0860152929004909116151560c083015260068101805460e084019190611f5d90615c53565b80601f0160208091040260200160405190810160405280929190818152602001828054611f8990615c53565b8015611fd65780601f10611fab57610100808354040283529160200191611fd6565b820191906000526020600020905b815481529060010190602001808311611fb957829003601f168201915b50505050508152505090505b919050565b3360009081526001602052604090205460ff166120165760405162461bcd60e51b815260040161127e90615a3b565b601a55565b3360009081526001602052604090205460ff1661204a5760405162461bcd60e51b815260040161127e90615a3b565b600081116120a65760405162461bcd60e51b815260206004820152602360248201527f4e6f6465547970653a20436c61696d2054696d652063616e6e6f74206265207a60448201526265726f60e81b606482015260840161127e565b600855565b3360009081526001602052604090205460ff166120da5760405162461bcd60e51b815260040161127e90615a3b565b600c55565b3360009081526001602052604090205460ff1661210e5760405162461bcd60e51b815260040161127e90615a3b565b601c8054911515600160481b0269ff00000000000000000019909216919091179055565b3360009081526001602052604090205460ff166121615760405162461bcd60e51b815260040161127e90615a3b565b601e600460405161217291906157b3565b908152602001604051809103902054600014156121a15760405162461bcd60e51b815260040161127e90615a04565b80601e83604051611c729190615797565b6020818154811061108157600080fd5b336001600160a01b0316600080815481106121ed57634e487b7160e01b600052603260045260246000fd5b6000918252602090912001546001600160a01b03161461224a5760405162461bcd60e51b815260206004820152601860248201527727bbb732b9399d1027b7363c9029bab832b91027bbb732b960411b604482015260640161127e565b6001600160a01b03821660009081526001602052604090205460ff16156122ab5760405162461bcd60e51b815260206004820152601560248201527427bbb732b9399d1020b63932b0b23c9037bbb732b960591b604482015260640161127e565b6001600160a01b0382166000908152600160208190526040909120805460ff19169091179055801561238b576000806000815481106122fa57634e487b7160e01b600052603260045260246000fd5b6000918252602080832090910154835460018101855593835290822090920180546001600160a01b0319166001600160a01b03909316929092179091558054839190819061235857634e487b7160e01b600052603260045260246000fd5b9060005260206000200160006101000a8154816001600160a01b0302191690836001600160a01b031602179055506123d4565b600080546001810182559080527f290decd9548b62a8d60345a988386fc84ba6bc95484008f6362f93160ef3e5630180546001600160a01b0319166001600160a01b0384161790555b5050565b606060006123e68484615bf9565b6001600160401b0381111561240b57634e487b7160e01b600052604160045260246000fd5b604051908082528060200260200182016040528015612434578160200160208202803683370190505b506001600160a01b0386166000908152600260205260409020909150845b848110156124d05781600001818154811061247d57634e487b7160e01b600052603260045260246000fd5b90600052602060002001548387836124959190615bf9565b815181106124b357634e487b7160e01b600052603260045260246000fd5b6020908102919091010152806124c881615c8e565b915050612452565b509095945050505050565b60235460009081906001600160a01b0316331461250a5760405162461bcd60e51b815260040161127e90615aa9565b6001600160a01b03831660009081526002602052604081208190815b815481101561124357600082600101600084600001848154811061255a57634e487b7160e01b600052603260045260246000fd5b6000918252602080832090910154835282810193909352604091820181208251610100808201855282546001600160a01b031682526001830154958201959095526002820154938101939093526003810154606084015260048101546080840152600581015460ff808216151560a0860152949004909316151560c0830152600683018054939450909283926125fc929091869160e084019161118a90615c53565b909250905061260b8288615bae565b96506126178187615bae565b9550428360020181905550505050808061263090615c8e565b915050612526565b6023546000906001600160a01b031633146126655760405162461bcd60e51b815260040161127e90615aa9565b601c54600160601b900460ff1661268e5760405162461bcd60e51b815260040161127e90615b1c565b8151600e5410156126ff5760405162461bcd60e51b815260206004820152603560248201527f4e6f6465547970653a204e6f7420656e6f756768206372656174696f6e2077696044820152741d1a081c195b991a5b99c81cdc1bdd1cc81b19599d605a1b606482015260840161127e565b8151600e60008282546127129190615bf9565b909155505081516001600160a01b03841660009081526002602052604081206005018054909190612744908490615bae565b9091555050600d546001600160a01b03841660009081526002602052604090206005015411156127e85760405162461bcd60e51b815260206004820152604360248201527f4e6f6465547970653a204e6f7420656e6f756768206372656174696f6e20776960448201527f74682070656e64696e672073706f7473206c65667420666f722074686973207560648201526239b2b960e91b608482015260a40161127e565b6000612805848451601c60029054906101000a900460ff16614fa8565b9050612834848483601c60079054906101000a900460ff16604051806020016040528060008152506000614a14565b60065460055411156128585760405162461bcd60e51b815260040161127e90615a67565b600f546001600160a01b03851660009081526002602052604090205411156128d25760405162461bcd60e51b815260206004820152602760248201527f4e6f6465547970653a205573657220746f6f206d616e79206e6f6465732072656044820152661c5d595cdd195960ca1b606482015260840161127e565b60075483516128e19190615bda565b949350505050565b3360009081526001602052604090205460ff166129185760405162461bcd60e51b815260040161127e90615a3b565b600d55565b3360009081526001602052604090205460ff1661294c5760405162461bcd60e51b815260040161127e90615a3b565b601555565b6060600061295f8484615bf9565b6001600160401b0381111561298457634e487b7160e01b600052604160045260246000fd5b6040519080825280602002602001820160405280156129bd57816020015b6129aa61519b565b8152602001906001900390816129a25790505b506001600160a01b0386166000908152600260205260409020909150845b848110156124d057816001016000836000018381548110612a0c57634e487b7160e01b600052603260045260246000fd5b6000918252602080832090910154835282810193909352604091820190208151610100808201845282546001600160a01b031682526001830154948201949094526002820154928101929092526003810154606083015260048101546080830152600581015460ff808216151560a0850152939004909216151560c082015260068201805491929160e084019190612aa390615c53565b80601f0160208091040260200160405190810160405280929190818152602001828054612acf90615c53565b8015612b1c5780601f10612af157610100808354040283529160200191612b1c565b820191906000526020600020905b815481529060010190602001808311612aff57829003601f168201915b505050505081525050838783612b329190615bf9565b81518110612b5057634e487b7160e01b600052603260045260246000fd5b60200260200101819052508080612b6690615c8e565b9150506129db565b3360009081526001602052604090205460ff16612b9d5760405162461bcd60e51b815260040161127e90615a3b565b601c8054911515600160701b0260ff60701b19909216919091179055565b3360009081526001602052604090205460ff16612bea5760405162461bcd60e51b815260040161127e90615a3b565b60008111612c545760405162461bcd60e51b815260206004820152603160248201527f4e6f6465547970653a204f627461696e696e672054696d65205265666572656e60448201527063652063616e6e6f74206265207a65726f60781b606482015260840161127e565b601255565b6023546000906001600160a01b03163314612c865760405162461bcd60e51b815260040161127e90615aa9565b60005b8251811015612fc75760026000856001600160a01b03166001600160a01b031681526020019081526020016000206003016000848381518110612cdc57634e487b7160e01b600052603260045260246000fd5b60209081029190910181015182528101919091526040016000205460ff16612d3f5760405162461bcd60e51b81526020600482015260166024820152754e6f6465547970653a204275726e206661696c75726560501b604482015260640161127e565b600060026000866001600160a01b03166001600160a01b031681526020019081526020016000206001016000858481518110612d8b57634e487b7160e01b600052603260045260246000fd5b60209081029190910181015182528181019290925260409081016000208151610100808201845282546001600160a01b031682526001830154948201949094526002820154928101929092526003810154606083015260048101546080830152600581015460ff808216151560a0850152939004909216151560c082015260068201805491929160e084019190612e2190615c53565b80601f0160208091040260200160405190810160405280929190818152602001828054612e4d90615c53565b8015612e9a5780601f10612e6f57610100808354040283529160200191612e9a565b820191906000526020600020905b815481529060010190602001808311612e7d57829003601f168201915b50505050508152505090506000601f8260e00151604051612ebb9190615797565b9081526020016040518091039020541115612f0757601f8160e00151604051612ee49190615797565b9081526040519081900360200190208054906000612f0183615c3c565b91905055505b6001600160a01b03851660009081526002602052604090208451612f539190869085908110612f4657634e487b7160e01b600052603260045260246000fd5b6020026020010151614e38565b600060036000868581518110612f7957634e487b7160e01b600052603260045260246000fd5b6020026020010151815260200190815260200160002060006101000a8154816001600160a01b0302191690836001600160a01b03160217905550508080612fbf90615c8e565b915050612c89565b50815160056000828254612fdb9190615bf9565b90915550508151600754612fef9190615bda565b9392505050565b3360009081526001602052604090205460ff166130255760405162461bcd60e51b815260040161127e90615a3b565b600f55565b3360009081526001602052604090205460ff166130595760405162461bcd60e51b815260040161127e90615a3b565b600081116130a95760405162461bcd60e51b815260206004820152601e60248201527f4e6f6465547970653a2050726963652063616e6e6f74206265207a65726f0000604482015260640161127e565b600755565b3360009081526001602052604090205460ff166130dd5760405162461bcd60e51b815260040161127e90615a3b565b601c8054911515600160401b0268ff000000000000000019909216919091179055565b3360009081526001602052604090205460ff1661312f5760405162461bcd60e51b815260040161127e90615a3b565b61271081106131a65760405162461bcd60e51b815260206004820152603c60248201527f4e6f6465547970653a20497320426f6f737465644e66742050726f626162696c60448201527f697479206d757374206265206c6f776572207468616e20313030303000000000606482015260840161127e565b601155565b3360009081526001602052604090205460ff166131da5760405162461bcd60e51b815260040161127e90615a3b565b601355565b6001600160a01b0382166000908152600260205260408120819081908190815b86518110156133e95781600301600088838151811061322e57634e487b7160e01b600052603260045260246000fd5b60209081029190910181015182528101919091526040016000205460ff166132685760405162461bcd60e51b815260040161127e90615ad9565b600082600101600089848151811061329057634e487b7160e01b600052603260045260246000fd5b60209081029190910181015182528181019290925260409081016000208151610100808201845282546001600160a01b031682526001830154948201949094526002820154928101929092526003810154606083015260048101546080830152600581015460ff808216151560a0850152939004909216151560c082015260068201805491929160e08401919061332690615c53565b80601f016020809104026020016040519081016040528092919081815260200182805461335290615c53565b801561339f5780601f106133745761010080835404028352916020019161339f565b820191906000526020600020905b81548152906001019060200180831161338257829003601f168201915b50505050508152505090506000806133b683614728565b90925090506133c58288615bae565b96506133d18187615bae565b955050505080806133e190615c8e565b9150506131ff565b5091969095509350505050565b6023546000906001600160a01b031633146134235760405162461bcd60e51b815260040161127e90615aa9565b601c54600160581b900460ff1661344c5760405162461bcd60e51b815260040161127e90615b1c565b8151600c5410156134b05760405162461bcd60e51b815260206004820152602860248201527f4e6f6465547970653a204e6f7420656e6f756768206c6576656c2075702073706044820152671bdd1cc81b19599d60c21b606482015260840161127e565b8151600c60008282546134c39190615bf9565b909155505081516001600160a01b038416600090815260026020526040812060040180549091906134f5908490615bae565b9091555050600b546001600160a01b03841660009081526002602052604090206004015411156135865760405162461bcd60e51b815260206004820152603660248201527f4e6f6465547970653a204e6f7420656e6f756768206c6576656c20757020737060448201527537ba39903632b33a103337b9103a3434b9903ab9b2b960511b606482015260840161127e565b60006135a3848451601c60019054906101000a900460ff16614fa8565b9050612834848483601c60069054906101000a900460ff16604051806020016040528060008152506000614a14565b3360009081526001602052604090205460ff166136015760405162461bcd60e51b815260040161127e90615a3b565b6000828152600360209081526040808320546001600160a01b0316835260028252808320948352600190940190529190912060040155565b3360009081526001602052604090205460ff166136685760405162461bcd60e51b815260040161127e90615a3b565b601c805491151566010000000000000266ff00000000000019909216919091179055565b3360009081526001602052604090205460ff166136bb5760405162461bcd60e51b815260040161127e90615a3b565b600655565b3360009081526001602052604090205460ff166136ef5760405162461bcd60e51b815260040161127e90615a3b565b6000811161374e5760405162461bcd60e51b815260206004820152602660248201527f4e6f6465547970653a2052657761726420416d6f756e742063616e6e6f74206260448201526565207a65726f60d01b606482015260840161127e565b600955565b3360009081526001602052604090205460ff166137825760405162461bcd60e51b815260040161127e90615a3b565b601c8054911515650100000000000265ff000000000019909216919091179055565b3360009081526001602052604090205460ff166137d35760405162461bcd60e51b815260040161127e90615a3b565b601955565b6023546000906001600160a01b031633146138055760405162461bcd60e51b815260040161127e90615aa9565b601c54600160501b900460ff1661382e5760405162461bcd60e51b815260040161127e90615b1c565b8151601c546000916138459186919060ff16614fa8565b9050612834848483601c60059054906101000a900460ff16604051806020016040528060008152506000614a14565b3360009081526001602052604090205460ff166138a35760405162461bcd60e51b815260040161127e90615a3b565b601755565b606060006138b68484615bf9565b6001600160401b038111156138db57634e487b7160e01b600052604160045260246000fd5b604051908082528060200260200182016040528015613904578160200160208202803683370190505b506001600160a01b0386166000908152600260205260409020909150845b848110156124d05760165482600101600084600001848154811061395657634e487b7160e01b600052603260045260246000fd5b906000526020600020015481526020019081526020016000206002015461397d9190615bae565b836139888884615bf9565b815181106139a657634e487b7160e01b600052603260045260246000fd5b6020908102919091010152806139bb81615c8e565b915050613922565b3360009081526001602052604090205460ff166139f25760405162461bcd60e51b815260040161127e90615a3b565b6001600160a01b038116613a595760405162461bcd60e51b815260206004820152602860248201527f4e6f6465547970653a2048616e646c65722063616e6e6f742062652061646472604482015267657373207a65726f60c01b606482015260840161127e565b602380546001600160a01b0319166001600160a01b0392909216919091179055565b60606000613a898484615bf9565b6001600160401b03811115613aae57634e487b7160e01b600052604160045260246000fd5b604051908082528060200260200182016040528015613ad7578160200160208202803683370190505b509050835b83811015611eac5760208181548110613b0557634e487b7160e01b600052603260045260246000fd5b6000918252602090912001546001600160a01b031682613b258784615bf9565b81518110613b4357634e487b7160e01b600052603260045260246000fd5b6001600160a01b039092166020928302919091019091015280613b6581615c8e565b915050613adc565b3360009081526001602052604090205460ff16613b9c5760405162461bcd60e51b815260040161127e90615a3b565b60008111613c025760405162461bcd60e51b815260206004820152602d60248201527f4e6f6465547970653a20436c61696d2054696d65205265666572656e6365206360448201526c616e6e6f74206265207a65726f60981b606482015260840161127e565b601855565b3360009081526001602052604090205460ff16613c365760405162461bcd60e51b815260040161127e90615a3b565b601c8054911515600160381b0267ff0000000000000019909216919091179055565b3360009081526001602052604090205460ff16613c875760405162461bcd60e51b815260040161127e90615a3b565b601c8054911515600160601b0260ff60601b19909216919091179055565b3360009081526001602052604090205460ff16613cd45760405162461bcd60e51b815260040161127e90615a3b565b600e55565b60606000613ce78484615bf9565b6001600160401b03811115613d0c57634e487b7160e01b600052604160045260246000fd5b604051908082528060200260200182016040528015613d35578160200160208202803683370190505b506001600160a01b0386166000908152600260205260409020909150845b848110156124d057816001016000836000018381548110613d8457634e487b7160e01b600052603260045260246000fd5b9060005260206000200154815260200190815260200160002060010154600954600854600754613db49190615bda565b613dbe9190615bc6565b613dc89190615bae565b83613dd38884615bf9565b81518110613df157634e487b7160e01b600052603260045260246000fd5b602090810291909101015280613e0681615c8e565b915050613d53565b6023546001600160a01b03163314613e385760405162461bcd60e51b815260040161127e90615aa9565b601c54600160701b900460ff16613e615760405162461bcd60e51b815260040161127e90615b1c565b6001600160a01b038216600090815260226020526040902054613ff557602454604051631ff9e19560e01b81526000916001600160a01b031690631ff9e19590613eb1906004908790820161596d565b602060405180830381600087803b158015613ecb57600080fd5b505af1158015613edf573d6000803e3d6000fd5b505050506040513d601f19601f82011682018060405250810190613f039190615665565b602454604051633d80733d60e01b81529192506000916001600160a01b0390911690633d80733d90613f3b906004908890820161596d565b602060405180830381600087803b158015613f5557600080fd5b505af1158015613f69573d6000803e3d6000fd5b505050506040513d601f19601f82011682018060405250810190613f8d9190615665565b6001600160a01b038516600090815260026020526040812060050180549293508492909190613fbd908490615bae565b90915550506001600160a01b03841660009081526002602052604081206004018054839290613fed908490615bae565b909155505050505b60245460405163d8a911d960e01b81526000916001600160a01b03169063d8a911d990614028906004908790820161596d565b602060405180830381600087803b15801561404257600080fd5b505af1158015614056573d6000803e3d6000fd5b505050506040513d601f19601f8201168201806040525081019061407a9190615665565b82516001600160a01b0385166000908152602260205260408120805493945091926140a6908490615bae565b9091555050806140f85760405162461bcd60e51b815260206004820152601c60248201527f4e6f6465547970653a204e6f7468696e6720746f206d69677261746500000000604482015260640161127e565b6001600160a01b0383166000908152602260205260409020548110156141305760405162461bcd60e51b815260040161127e90615a67565b600061414d848451601c60049054906101000a900460ff16614fa8565b905061417c848483601c60099054906101000a900460ff16604051806020016040528060008152506000614a14565b50505050565b60235460009081906001600160a01b031633146141b15760405162461bcd60e51b815260040161127e90615aa9565b6001600160a01b03841660009081526002602052604081208190815b86518110156133e9578160030160008883815181106141fc57634e487b7160e01b600052603260045260246000fd5b60209081029190910181015182528101919091526040016000205460ff166142365760405162461bcd60e51b815260040161127e90615ad9565b600082600101600089848151811061425e57634e487b7160e01b600052603260045260246000fd5b602090810291909101810151825281810192909252604090810160009081208251610100808201855282546001600160a01b031682526001830154958201959095526002820154938101939093526003810154606084015260048101546080840152600581015460ff808216151560a0860152949004909316151560c083015260068301805493945090928392614301929091869160e084019161118a90615c53565b90925090506143108288615bae565b965061431c8187615bae565b9550428360020181905550505050808061433590615c8e565b9150506141cd565b3360009081526001602052604090205460ff1661436c5760405162461bcd60e51b815260040161127e90615a3b565b61271081106143d65760405162461bcd60e51b815260206004820152603060248201527f4e6f6465547970653a20436c61696d2054617820526f69206d7573742062652060448201526f06c6f776572207468616e2031303030360841b606482015260840161127e565b600a55565b3360009081526001602052604090205460ff1661440a5760405162461bcd60e51b815260040161127e90615a3b565b600b55565b3360009081526001602052604090205460ff1661443e5760405162461bcd60e51b815260040161127e90615a3b565b600081116144b45760405162461bcd60e51b815260206004820152603860248201527f4e6f6465547970653a204e6f436c61696d54696d655265666572656e6365206d60448201527f7573742062652067726561746572207468616e207a65726f0000000000000000606482015260840161127e565b601655565b3360009081526001602052604090205460ff166144e85760405162461bcd60e51b815260040161127e90615a3b565b6000828152600360209081526040808320546001600160a01b03168352600282528083209483526001909401905291909120600501805460ff1916911515919091179055565b3360009081526001602052604090205460ff1661455d5760405162461bcd60e51b815260040161127e90615a3b565b601c8054911515600160581b0260ff60581b19909216919091179055565b3360009081526001602052604090205460ff166145aa5760405162461bcd60e51b815260040161127e90615a3b565b601c8054911515600160681b0260ff60681b19909216919091179055565b3360009081526001602052604090205460ff166145f75760405162461bcd60e51b815260040161127e90615a3b565b601b55565b3360009081526001602052604090205460ff1661462b5760405162461bcd60e51b815260040161127e90615a3b565b601c8054911515600160501b0260ff60501b19909216919091179055565b3360009081526001602052604090205460ff166146785760405162461bcd60e51b815260040161127e90615a3b565b601c80549115156401000000000264ff0000000019909216919091179055565b6023546001600160a01b031633146146c25760405162461bcd60e51b815260040161127e90615aa9565b601c54600160681b900460ff166146eb5760405162461bcd60e51b815260040161127e90615b1c565b6000614708848451601c60039054906101000a900460ff16614fa8565b905061417c848483601c60089054906101000a900460ff16866000614a14565b6000806000806008548560400151426147419190615bf9565b60095461474e9190615bda565b6147589190615bc6565b9150600060125486606001514261476f9190615bf9565b6147799190615bc6565b905080156147cb57601a5481111561479357601a54614795565b805b9050612710816013546147a89190615bda565b6147b490612710615bae565b6147be9085615bda565b6147c89190615bc6565b92505b60185460408701516147dd9042615bf9565b6147e79190615bc6565b9050801561483957601b5481111561480157601b54614803565b805b9050612710816019546148169190615bda565b61482290612710615bae565b61482c9085615bda565b6148369190615bc6565b92505b60808601511561486f5761271086608001516127106148589190615bae565b6148629085615bda565b61486c9190615bc6565b92505b8560a00151156148a35761271060105461271061488c9190615bae565b6148969085615bda565b6148a09190615bc6565b92505b8560c00151156148d7576127106014546127106148c09190615bae565b6148ca9085615bda565b6148d49190615bc6565b92505b6000601e8760e001516040516148ed9190615797565b908152602001604051809103902054111561494c57612710601e8760e001516040516149199190615797565b9081526020016040518091039020546127106149359190615bae565b61493f9085615bda565b6149499190615bc6565b92505b601654604087015161495e9042615bf9565b1115614974576015546149719084615bae565b92505b60075460085460208801516149899042615bf9565b6009546149969190615bda565b6149a09190615bc6565b10156149ce57612710600a54846149b79190615bda565b6149c19190615bc6565b6149cb9083615bae565b91505b601754156149fe57612710601754846149e79190615bda565b6149f19190615bc6565b6149fb9083615bae565b91505b614a088284615bf9565b94509092505050915091565b6000855111614a655760405162461bcd60e51b815260206004820152601b60248201527f4e6f6465547970653a204e6f7468696e6720746f206372656174650000000000604482015260640161127e565b6001600160a01b03861660009081526021602052604090205460ff16614aeb5760208054600180820183557fc97bfaf2f8ee708c303a06d134f5ecd8389ae0432af62dc132a24118292866bb90910180546001600160a01b0319166001600160a01b038a16908117909155600090815260219092526040909120805460ff191690911790555b60005b8551811015614c32576000604051806101000160405280896001600160a01b03168152602001428152602001428152602001428152602001848152602001878481518110614b4c57634e487b7160e01b600052603260045260246000fd5b6020026020010151151581526020018615158152602001858152509050614bbf600260008a6001600160a01b03166001600160a01b03168152602001908152602001600020888481518110614bb157634e487b7160e01b600052603260045260246000fd5b602002602001015183614c88565b8760036000898581518110614be457634e487b7160e01b600052603260045260246000fd5b6020026020010151815260200190815260200160002060006101000a8154816001600160a01b0302191690836001600160a01b03160217905550508080614c2a90615c8e565b915050614aee565b508451601f83604051614c459190615797565b90815260200160405180910390206000828254614c629190615bae565b9091555050845160058054600090614c7b908490615bae565b9091555050505050505050565b600082815260038401602052604090205460ff1615614d4f57600082815260018481016020908152604092839020845181546001600160a01b0319166001600160a01b039091161781558482015192810192909255918301516002820155606083015160038201556080830151600482015560a083015160058201805460c086015160ff199091169215159290921761ff0019166101009215159290920291909117905560e083015180518493614d46926006850192910190615117565b50905050611d37565b60008281526003848101602090815260408084208054600160ff199182168117909255818901845294829020865181546001600160a01b0319166001600160a01b0390911617815586840151918101919091559085015160028201556060850151928101929092556080840151600483015560a084015160058301805460c087015195169115159190911761ff001916610100941515949094029390931790925560e083015180518493614e0a926006850192910190615117565b5050835460008481526002860160209081526040822083905560018301875586825290200183905550505050565b600081815260038301602052604090205460ff16614e55576123d4565b6000818152600380840160209081526040808420805460ff191690556001808701909252832080546001600160a01b0319168155908101839055600281018390559081018290556004810182905560058101805461ffff1916905590614ebe60068301826151ed565b505060008181526002830160205260408120548354909190614ee290600190615bf9565b90506000846000018281548110614f0957634e487b7160e01b600052603260045260246000fd5b60009182526020808320909101548083526002880190915260408083208690558683528220919091559050818314614f6c5780856000018481548110614f5f57634e487b7160e01b600052603260045260246000fd5b6000918252602090912001555b8454859080614f8b57634e487b7160e01b600052603160045260246000fd5b600190038181906000526020600020016000905590555050505050565b60606000836001600160401b03811115614fd257634e487b7160e01b600052604160045260246000fd5b604051908082528060200260200182016040528015614ffb578160200160208202803683370190505b50905060005b848110156150a457831561505f5760115461501b876150ad565b1061502757600061502a565b60015b82828151811061504a57634e487b7160e01b600052603260045260246000fd5b91151560209283029190910190910152615092565b600082828151811061508157634e487b7160e01b600052603260045260246000fd5b911515602092830291909101909101525b8061509c81615c8e565b915050615001565b50949350505050565b6025546040805160208101929092526bffffffffffffffffffffffff19606084901b1690820152446054820152426074820152600090819060940160408051601f1981840301815291905280516020909101206025805460010190559050612fef61271082615ca9565b82805461512390615c53565b90600052602060002090601f016020900481019282615145576000855561518b565b82601f1061515e57805160ff191683800117855561518b565b8280016001018555821561518b579182015b8281111561518b578251825591602001919060010190615170565b5061519792915061522c565b5090565b60405180610100016040528060006001600160a01b0316815260200160008152602001600081526020016000815260200160008152602001600015158152602001600015158152602001606081525090565b5080546151f990615c53565b6000825580601f1061520b5750615229565b601f016020900490600052602060002090810190615229919061522c565b50565b5b80821115615197576000815560010161522d565b80356001600160a01b0381168114611fe257600080fd5b600082601f830112615268578081fd5b8135602061527d61527883615b8b565b615b5b565b8281528181019085830183850287018401881015615299578586fd5b855b858110156152b75781358452928401929084019060010161529b565b5090979650505050505050565b80358015158114611fe257600080fd5b600082601f8301126152e4578081fd5b81356001600160401b038111156152fd576152fd615ce9565b615310601f8201601f1916602001615b5b565b818152846020838601011115615324578283fd5b816020850160208301379081016020019190915292915050565b60006020828403121561534f578081fd5b612fef82615241565b60008060006060848603121561536c578182fd5b61537584615241565b925061538360208501615241565b9150604084013590509250925092565b600080604083850312156153a5578182fd5b6153ae83615241565b915060208301356001600160401b038111156153c8578182fd5b6153d485828601615258565b9150509250929050565b6000806000606084860312156153f2578283fd5b6153fb84615241565b925060208401356001600160401b0380821115615416578384fd5b61542287838801615258565b93506040860135915080821115615437578283fd5b50615444868287016152d4565b9150509250925092565b60008060408385031215615460578182fd5b61546983615241565b9150615477602084016152c4565b90509250929050565b60008060008060008060c08789031215615498578182fd5b6154a187615241565b9550602080880135955060408801356001600160401b03808211156154c4578485fd5b6154d08b838c01615258565b965060608a01359150808211156154e5578485fd5b818a0191508a601f8301126154f8578485fd5b813561550661527882615b8b565b81815284810190848601868402860187018f1015615522578889fd5b8895505b8386101561554b57615537816152c4565b835260019590950194918601918601615526565b50975061555d91505060808b016152c4565b945060a08a0135925080831115615572578384fd5b505061558089828a016152d4565b9150509295509295509295565b6000806000606084860312156155a1578283fd5b6155aa84615241565b95602085013595506040909401359392505050565b6000602082840312156155d0578081fd5b612fef826152c4565b6000602082840312156155ea578081fd5b81356001600160401b038111156155ff578182fd5b6128e1848285016152d4565b6000806040838503121561561d578182fd5b82356001600160401b03811115615632578283fd5b61563e858286016152d4565b95602094909401359450505050565b60006020828403121561565e578081fd5b5035919050565b600060208284031215615676578081fd5b5051919050565b6000806040838503121561568f578182fd5b82359150615477602084016152c4565b600080604083850312156156b1578182fd5b8235915060208301356001600160401b038111156156cd578182fd5b6153d4858286016152d4565b600080604083850312156156eb578182fd5b50508035926020909101359150565b60008151808452615712816020860160208601615c10565b601f01601f19169290920160200192915050565b600061010060018060a01b0383511684526020830151602085015260408301516040850152606083015160608501526080830151608085015260a0830151151560a085015260c0830151151560c085015260e08301518160e086015261578e828601826156fa565b95945050505050565b600082516157a9818460208701615c10565b9190910192915050565b60008083546157c181615c53565b600182811680156157d957600181146157ea57615816565b60ff19841687528287019450615816565b8786526020808720875b8581101561580d5781548a8201529084019082016157f4565b50505082870194505b50929695505050505050565b6020808252825182820181905260009190848201906040850190845b818110156158635783516001600160a01b03168352928401929184019160010161583e565b50909695505050505050565b6000602080830181845280855180835260408601915060408482028701019250838701855b828110156158c257603f198886030184526158b08583516156fa565b94509285019290850190600101615894565b5092979650505050505050565b6000602080830181845280855180835260408601915060408482028701019250838701855b828110156158c257603f19888603018452615910858351615726565b945092850192908501906001016158f4565b6020808252825182820181905260009190848201906040850190845b818110156158635783518352928401929184019160010161593e565b600060208252612fef60208301846156fa565b60006040825280845461597f81615c53565b80604086015260606001808416600081146159a157600181146159b5576159e3565b60ff198516888401526080880195506159e3565b8987526020808820885b868110156159da5781548b82018701529084019082016159bf565b8a018501975050505b505050506001600160a01b0394909416602093909301929092525092915050565b6020808252601e908201527f4e6f6465547970653a204665617475726520646f65736e742065786973740000604082015260600190565b60208082526012908201527127bbb732b9399d1027b7363c9027bbb732b960711b604082015260600190565b60208082526022908201527f4e6f6465547970653a20546f6f206d616e79206e6f6465732072657175657374604082015261195960f21b606082015260800190565b6020808252601690820152752737b232aa3cb8329d1027b7363c902430b7323632b960511b604082015260600190565b60208082526023908201527f4e6f6465547970653a205573657220646f65736e74206f776e2074686973206e6040820152626f646560e81b606082015260800190565b6020808252601290820152712737b232aa3cb8329d102737ba1037b832b760711b604082015260600190565b600060208252612fef6020830184615726565b604051601f8201601f191681016001600160401b0381118282101715615b8357615b83615ce9565b604052919050565b60006001600160401b03821115615ba457615ba4615ce9565b5060209081020190565b60008219821115615bc157615bc1615cbd565b500190565b600082615bd557615bd5615cd3565b500490565b6000816000190483118215151615615bf457615bf4615cbd565b500290565b600082821015615c0b57615c0b615cbd565b500390565b60005b83811015615c2b578181015183820152602001615c13565b8381111561417c5750506000910152565b600081615c4b57615c4b615cbd565b506000190190565b600281046001821680615c6757607f821691505b60208210811415615c8857634e487b7160e01b600052602260045260246000fd5b50919050565b6000600019821415615ca257615ca2615cbd565b5060010190565b600082615cb857615cb8615cd3565b500690565b634e487b7160e01b600052601160045260246000fd5b634e487b7160e01b600052601260045260246000fd5b634e487b7160e01b600052604160045260246000fdfea26469706673582212203db93f81b9e635f481d322da69fc811766d749a4992d6997914794afaa12467264736f6c63430008020033",
  "linkReferences": {},
  "deployedLinkReferences": {}
}