{
  "_format": "hh-sol-artifact-1",
  "contractName": "NodeType",
  "sourceName": "contracts/NodeType.sol",
  "abi": [
    {
      "inputs": [
        {
          "internalType": "string",
          "name": "_name",
          "type": "string"
        },
        {
          "internalType": "uint256[]",
          "name": "values",
          "type": "uint256[]"
        },
        {
          "internalType": "address",
          "name": "_handler",
          "type": "address"
        },
        {
          "internalType": "address",
          "name": "_old",
          "type": "address"
        }
      ],
      "stateMutability": "nonpayable",
      "type": "constructor"
    },
    {
      "inputs": [
        {
          "internalType": "string",
          "name": "_name",
          "type": "string"
        },
        {
          "internalType": "uint256",
          "name": "_rate",
          "type": "uint256"
        }
      ],
      "name": "addFeature",
      "outputs": [],
      "stateMutability": "nonpayable",
      "type": "function"
    },
    {
      "inputs": [
        {
          "internalType": "address",
          "name": "_new",
          "type": "address"
        },
        {
          "internalType": "bool",
          "name": "_change",
          "type": "bool"
        }
      ],
      "name": "addOwner",
      "outputs": [],
      "stateMutability": "nonpayable",
      "type": "function"
    },
    {
      "inputs": [
        {
          "internalType": "address",
          "name": "from",
          "type": "address"
        },
        {
          "internalType": "uint256[]",
          "name": "tokenIds",
          "type": "uint256[]"
        }
      ],
      "name": "burnFrom",
      "outputs": [
        {
          "internalType": "uint256",
          "name": "",
          "type": "uint256"
        }
      ],
      "stateMutability": "nonpayable",
      "type": "function"
    },
    {
      "inputs": [
        {
          "internalType": "address",
          "name": "user",
          "type": "address"
        }
      ],
      "name": "calculateUserRewards",
      "outputs": [
        {
          "internalType": "uint256",
          "name": "",
          "type": "uint256"
        },
        {
          "internalType": "uint256",
          "name": "",
          "type": "uint256"
        }
      ],
      "stateMutability": "view",
      "type": "function"
    },
    {
      "inputs": [],
      "name": "canBeBoostedNftLevelUp",
      "outputs": [
        {
          "internalType": "bool",
          "name": "",
          "type": "bool"
        }
      ],
      "stateMutability": "view",
      "type": "function"
    },
    {
      "inputs": [],
      "name": "canBeBoostedNftLucky",
      "outputs": [
        {
          "internalType": "bool",
          "name": "",
          "type": "bool"
        }
      ],
      "stateMutability": "view",
      "type": "function"
    },
    {
      "inputs": [],
      "name": "canBeBoostedNftMigration",
      "outputs": [
        {
          "internalType": "bool",
          "name": "",
          "type": "bool"
        }
      ],
      "stateMutability": "view",
      "type": "function"
    },
    {
      "inputs": [],
      "name": "canBeBoostedNftPending",
      "outputs": [
        {
          "internalType": "bool",
          "name": "",
          "type": "bool"
        }
      ],
      "stateMutability": "view",
      "type": "function"
    },
    {
      "inputs": [],
      "name": "canBeBoostedNftToken",
      "outputs": [
        {
          "internalType": "bool",
          "name": "",
          "type": "bool"
        }
      ],
      "stateMutability": "view",
      "type": "function"
    },
    {
      "inputs": [
        {
          "internalType": "address",
          "name": "user",
          "type": "address"
        }
      ],
      "name": "claimRewardsAll",
      "outputs": [
        {
          "internalType": "uint256",
          "name": "",
          "type": "uint256"
        },
        {
          "internalType": "uint256",
          "name": "",
          "type": "uint256"
        }
      ],
      "stateMutability": "nonpayable",
      "type": "function"
    },
    {
      "inputs": [
        {
          "internalType": "address",
          "name": "user",
          "type": "address"
        },
        {
          "internalType": "uint256[]",
          "name": "tokenIds",
          "type": "uint256[]"
        }
      ],
      "name": "claimRewardsBatch",
      "outputs": [
        {
          "internalType": "uint256",
          "name": "",
          "type": "uint256"
        },
        {
          "internalType": "uint256",
          "name": "",
          "type": "uint256"
        }
      ],
      "stateMutability": "nonpayable",
      "type": "function"
    },
    {
      "inputs": [],
      "name": "claimTaxRoi",
      "outputs": [
        {
          "internalType": "uint256",
          "name": "",
          "type": "uint256"
        }
      ],
      "stateMutability": "view",
      "type": "function"
    },
    {
      "inputs": [],
      "name": "claimTime",
      "outputs": [
        {
          "internalType": "uint256",
          "name": "",
          "type": "uint256"
        }
      ],
      "stateMutability": "view",
      "type": "function"
    },
    {
      "inputs": [
        {
          "internalType": "address",
          "name": "user",
          "type": "address"
        },
        {
          "internalType": "uint256",
          "name": "isBoostedAirDropRate",
          "type": "uint256"
        },
        {
          "internalType": "uint256[]",
          "name": "tokenIds",
          "type": "uint256[]"
        },
        {
          "internalType": "bool[]",
          "name": "areBoostedNft",
          "type": "bool[]"
        },
        {
          "internalType": "bool",
          "name": "isBoostedToken",
          "type": "bool"
        },
        {
          "internalType": "string",
          "name": "feature",
          "type": "string"
        }
      ],
      "name": "createNodeCustom",
      "outputs": [],
      "stateMutability": "nonpayable",
      "type": "function"
    },
    {
      "inputs": [
        {
          "internalType": "address",
          "name": "user",
          "type": "address"
        },
        {
          "internalType": "uint256[]",
          "name": "tokenIds",
          "type": "uint256[]"
        },
        {
          "internalType": "string",
          "name": "feature",
          "type": "string"
        }
      ],
      "name": "createNodeWithLuckyBox",
      "outputs": [],
      "stateMutability": "nonpayable",
      "type": "function"
    },
    {
      "inputs": [
        {
          "internalType": "address",
          "name": "user",
          "type": "address"
        },
        {
          "internalType": "uint256[]",
          "name": "tokenIds",
          "type": "uint256[]"
        }
      ],
      "name": "createNodesLevelUp",
      "outputs": [
        {
          "internalType": "uint256",
          "name": "",
          "type": "uint256"
        }
      ],
      "stateMutability": "nonpayable",
      "type": "function"
    },
    {
      "inputs": [
        {
          "internalType": "address",
          "name": "user",
          "type": "address"
        },
        {
          "internalType": "uint256[]",
          "name": "tokenIds",
          "type": "uint256[]"
        }
      ],
      "name": "createNodesMigration",
      "outputs": [],
      "stateMutability": "nonpayable",
      "type": "function"
    },
    {
      "inputs": [
        {
          "internalType": "address",
          "name": "user",
          "type": "address"
        },
        {
          "internalType": "uint256[]",
          "name": "tokenIds",
          "type": "uint256[]"
        }
      ],
      "name": "createNodesWithPendings",
      "outputs": [
        {
          "internalType": "uint256",
          "name": "",
          "type": "uint256"
        }
      ],
      "stateMutability": "nonpayable",
      "type": "function"
    },
    {
      "inputs": [
        {
          "internalType": "address",
          "name": "user",
          "type": "address"
        },
        {
          "internalType": "uint256[]",
          "name": "tokenIds",
          "type": "uint256[]"
        }
      ],
      "name": "createNodesWithTokens",
      "outputs": [
        {
          "internalType": "uint256",
          "name": "",
          "type": "uint256"
        }
      ],
      "stateMutability": "nonpayable",
      "type": "function"
    },
    {
      "inputs": [
        {
          "internalType": "string",
          "name": "",
          "type": "string"
        }
      ],
      "name": "featureCount",
      "outputs": [
        {
          "internalType": "uint256",
          "name": "",
          "type": "uint256"
        }
      ],
      "stateMutability": "view",
      "type": "function"
    },
    {
      "inputs": [
        {
          "internalType": "string",
          "name": "",
          "type": "string"
        }
      ],
      "name": "featureToBoostRate",
      "outputs": [
        {
          "internalType": "uint256",
          "name": "",
          "type": "uint256"
        }
      ],
      "stateMutability": "view",
      "type": "function"
    },
    {
      "inputs": [
        {
          "internalType": "uint256",
          "name": "iStart",
          "type": "uint256"
        },
        {
          "internalType": "uint256",
          "name": "iEnd",
          "type": "uint256"
        }
      ],
      "name": "getFeaturesBetweenIndexes",
      "outputs": [
        {
          "internalType": "string[]",
          "name": "",
          "type": "string[]"
        }
      ],
      "stateMutability": "view",
      "type": "function"
    },
    {
      "inputs": [],
      "name": "getFeaturesSize",
      "outputs": [
        {
          "internalType": "uint256",
          "name": "",
          "type": "uint256"
        }
      ],
      "stateMutability": "view",
      "type": "function"
    },
    {
      "inputs": [
        {
          "internalType": "uint256",
          "name": "tokenId",
          "type": "uint256"
        }
      ],
      "name": "getNodeFromTokenId",
      "outputs": [
        {
          "components": [
            {
              "internalType": "address",
              "name": "owner",
              "type": "address"
            },
            {
              "internalType": "uint256",
              "name": "creationTime",
              "type": "uint256"
            },
            {
              "internalType": "uint256",
              "name": "lastClaimTime",
              "type": "uint256"
            },
            {
              "internalType": "uint256",
              "name": "obtainingTime",
              "type": "uint256"
            },
            {
              "internalType": "uint256",
              "name": "isBoostedAirDropRate",
              "type": "uint256"
            },
            {
              "internalType": "bool",
              "name": "isBoostedNft",
              "type": "bool"
            },
            {
              "internalType": "bool",
              "name": "isBoostedToken",
              "type": "bool"
            },
            {
              "internalType": "string",
              "name": "feature",
              "type": "string"
            }
          ],
          "internalType": "struct NodeType.Node",
          "name": "",
          "type": "tuple"
        }
      ],
      "stateMutability": "view",
      "type": "function"
    },
    {
      "inputs": [
        {
          "internalType": "uint256",
          "name": "iStart",
          "type": "uint256"
        },
        {
          "internalType": "uint256",
          "name": "iEnd",
          "type": "uint256"
        }
      ],
      "name": "getNodeOwnersBetweenIndexes",
      "outputs": [
        {
          "internalType": "address[]",
          "name": "",
          "type": "address[]"
        }
      ],
      "stateMutability": "view",
      "type": "function"
    },
    {
      "inputs": [],
      "name": "getNodeOwnersSize",
      "outputs": [
        {
          "internalType": "uint256",
          "name": "",
          "type": "uint256"
        }
      ],
      "stateMutability": "view",
      "type": "function"
    },
    {
      "inputs": [
        {
          "internalType": "address",
          "name": "user",
          "type": "address"
        }
      ],
      "name": "getNodesCountLevelUpOf",
      "outputs": [
        {
          "internalType": "uint256",
          "name": "",
          "type": "uint256"
        }
      ],
      "stateMutability": "view",
      "type": "function"
    },
    {
      "inputs": [
        {
          "internalType": "address",
          "name": "user",
          "type": "address"
        }
      ],
      "name": "getNodesCountPendingOf",
      "outputs": [
        {
          "internalType": "uint256",
          "name": "",
          "type": "uint256"
        }
      ],
      "stateMutability": "view",
      "type": "function"
    },
    {
      "inputs": [
        {
          "internalType": "address",
          "name": "user",
          "type": "address"
        },
        {
          "internalType": "uint256",
          "name": "iStart",
          "type": "uint256"
        },
        {
          "internalType": "uint256",
          "name": "iEnd",
          "type": "uint256"
        }
      ],
      "name": "getNodesOfBetweenIndexes",
      "outputs": [
        {
          "components": [
            {
              "internalType": "address",
              "name": "owner",
              "type": "address"
            },
            {
              "internalType": "uint256",
              "name": "creationTime",
              "type": "uint256"
            },
            {
              "internalType": "uint256",
              "name": "lastClaimTime",
              "type": "uint256"
            },
            {
              "internalType": "uint256",
              "name": "obtainingTime",
              "type": "uint256"
            },
            {
              "internalType": "uint256",
              "name": "isBoostedAirDropRate",
              "type": "uint256"
            },
            {
              "internalType": "bool",
              "name": "isBoostedNft",
              "type": "bool"
            },
            {
              "internalType": "bool",
              "name": "isBoostedToken",
              "type": "bool"
            },
            {
              "internalType": "string",
              "name": "feature",
              "type": "string"
            }
          ],
          "internalType": "struct NodeType.Node[]",
          "name": "",
          "type": "tuple[]"
        }
      ],
      "stateMutability": "view",
      "type": "function"
    },
    {
      "inputs": [],
      "name": "getOwnersSize",
      "outputs": [
        {
          "internalType": "uint256",
          "name": "",
          "type": "uint256"
        }
      ],
      "stateMutability": "view",
      "type": "function"
    },
    {
      "inputs": [
        {
          "internalType": "address",
          "name": "user",
          "type": "address"
        },
        {
          "internalType": "uint256",
          "name": "iStart",
          "type": "uint256"
        },
        {
          "internalType": "uint256",
          "name": "iEnd",
          "type": "uint256"
        }
      ],
      "name": "getTimeRoiOfBetweenIndexes",
      "outputs": [
        {
          "internalType": "uint256[]",
          "name": "",
          "type": "uint256[]"
        }
      ],
      "stateMutability": "view",
      "type": "function"
    },
    {
      "inputs": [
        {
          "internalType": "address",
          "name": "user",
          "type": "address"
        },
        {
          "internalType": "uint256",
          "name": "iStart",
          "type": "uint256"
        },
        {
          "internalType": "uint256",
          "name": "iEnd",
          "type": "uint256"
        }
      ],
      "name": "getTimesBeforeNoClaimRewardOfBetweenIndexes",
      "outputs": [
        {
          "internalType": "uint256[]",
          "name": "",
          "type": "uint256[]"
        }
      ],
      "stateMutability": "view",
      "type": "function"
    },
    {
      "inputs": [
        {
          "internalType": "address",
          "name": "user",
          "type": "address"
        },
        {
          "internalType": "uint256",
          "name": "iStart",
          "type": "uint256"
        },
        {
          "internalType": "uint256",
          "name": "iEnd",
          "type": "uint256"
        }
      ],
      "name": "getTokenIdsOfBetweenIndexes",
      "outputs": [
        {
          "internalType": "uint256[]",
          "name": "",
          "type": "uint256[]"
        }
      ],
      "stateMutability": "view",
      "type": "function"
    },
    {
      "inputs": [
        {
          "internalType": "address",
          "name": "user",
          "type": "address"
        }
      ],
      "name": "getTotalNodesNumberOf",
      "outputs": [
        {
          "internalType": "uint256",
          "name": "",
          "type": "uint256"
        }
      ],
      "stateMutability": "view",
      "type": "function"
    },
    {
      "inputs": [],
      "name": "handler",
      "outputs": [
        {
          "internalType": "address",
          "name": "",
          "type": "address"
        }
      ],
      "stateMutability": "view",
      "type": "function"
    },
    {
      "inputs": [],
      "name": "isBoostedNftProbability",
      "outputs": [
        {
          "internalType": "uint256",
          "name": "",
          "type": "uint256"
        }
      ],
      "stateMutability": "view",
      "type": "function"
    },
    {
      "inputs": [],
      "name": "isBoostedNftRate",
      "outputs": [
        {
          "internalType": "uint256",
          "name": "",
          "type": "uint256"
        }
      ],
      "stateMutability": "view",
      "type": "function"
    },
    {
      "inputs": [],
      "name": "isBoostedTokenLevelUp",
      "outputs": [
        {
          "internalType": "bool",
          "name": "",
          "type": "bool"
        }
      ],
      "stateMutability": "view",
      "type": "function"
    },
    {
      "inputs": [],
      "name": "isBoostedTokenLucky",
      "outputs": [
        {
          "internalType": "bool",
          "name": "",
          "type": "bool"
        }
      ],
      "stateMutability": "view",
      "type": "function"
    },
    {
      "inputs": [],
      "name": "isBoostedTokenMigration",
      "outputs": [
        {
          "internalType": "bool",
          "name": "",
          "type": "bool"
        }
      ],
      "stateMutability": "view",
      "type": "function"
    },
    {
      "inputs": [],
      "name": "isBoostedTokenPending",
      "outputs": [
        {
          "internalType": "bool",
          "name": "",
          "type": "bool"
        }
      ],
      "stateMutability": "view",
      "type": "function"
    },
    {
      "inputs": [],
      "name": "isBoostedTokenRate",
      "outputs": [
        {
          "internalType": "uint256",
          "name": "",
          "type": "uint256"
        }
      ],
      "stateMutability": "view",
      "type": "function"
    },
    {
      "inputs": [],
      "name": "isBoostedTokenToken",
      "outputs": [
        {
          "internalType": "bool",
          "name": "",
          "type": "bool"
        }
      ],
      "stateMutability": "view",
      "type": "function"
    },
    {
      "inputs": [
        {
          "internalType": "address",
          "name": "",
          "type": "address"
        }
      ],
      "name": "isOwner",
      "outputs": [
        {
          "internalType": "bool",
          "name": "",
          "type": "bool"
        }
      ],
      "stateMutability": "view",
      "type": "function"
    },
    {
      "inputs": [],
      "name": "maxCount",
      "outputs": [
        {
          "internalType": "uint256",
          "name": "",
          "type": "uint256"
        }
      ],
      "stateMutability": "view",
      "type": "function"
    },
    {
      "inputs": [],
      "name": "maxCreationPendingTotal",
      "outputs": [
        {
          "internalType": "uint256",
          "name": "",
          "type": "uint256"
        }
      ],
      "stateMutability": "view",
      "type": "function"
    },
    {
      "inputs": [],
      "name": "maxCreationPendingUser",
      "outputs": [
        {
          "internalType": "uint256",
          "name": "",
          "type": "uint256"
        }
      ],
      "stateMutability": "view",
      "type": "function"
    },
    {
      "inputs": [],
      "name": "maxLevelUpTotal",
      "outputs": [
        {
          "internalType": "uint256",
          "name": "",
          "type": "uint256"
        }
      ],
      "stateMutability": "view",
      "type": "function"
    },
    {
      "inputs": [],
      "name": "maxLevelUpUser",
      "outputs": [
        {
          "internalType": "uint256",
          "name": "",
          "type": "uint256"
        }
      ],
      "stateMutability": "view",
      "type": "function"
    },
    {
      "inputs": [],
      "name": "maxUser",
      "outputs": [
        {
          "internalType": "uint256",
          "name": "",
          "type": "uint256"
        }
      ],
      "stateMutability": "view",
      "type": "function"
    },
    {
      "inputs": [],
      "name": "name",
      "outputs": [
        {
          "internalType": "string",
          "name": "",
          "type": "string"
        }
      ],
      "stateMutability": "view",
      "type": "function"
    },
    {
      "inputs": [],
      "name": "noClaimRewardAmount",
      "outputs": [
        {
          "internalType": "uint256",
          "name": "",
          "type": "uint256"
        }
      ],
      "stateMutability": "view",
      "type": "function"
    },
    {
      "inputs": [],
      "name": "noClaimTimeReference",
      "outputs": [
        {
          "internalType": "uint256",
          "name": "",
          "type": "uint256"
        }
      ],
      "stateMutability": "view",
      "type": "function"
    },
    {
      "inputs": [
        {
          "internalType": "uint256",
          "name": "",
          "type": "uint256"
        }
      ],
      "name": "nodeOwners",
      "outputs": [
        {
          "internalType": "address",
          "name": "",
          "type": "address"
        }
      ],
      "stateMutability": "view",
      "type": "function"
    },
    {
      "inputs": [
        {
          "internalType": "address",
          "name": "",
          "type": "address"
        }
      ],
      "name": "nodeOwnersInserted",
      "outputs": [
        {
          "internalType": "bool",
          "name": "",
          "type": "bool"
        }
      ],
      "stateMutability": "view",
      "type": "function"
    },
    {
      "inputs": [],
      "name": "obtainingTimeRate",
      "outputs": [
        {
          "internalType": "uint256",
          "name": "",
          "type": "uint256"
        }
      ],
      "stateMutability": "view",
      "type": "function"
    },
    {
      "inputs": [],
      "name": "obtainingTimeReference",
      "outputs": [
        {
          "internalType": "uint256",
          "name": "",
          "type": "uint256"
        }
      ],
      "stateMutability": "view",
      "type": "function"
    },
    {
      "inputs": [],
      "name": "old",
      "outputs": [
        {
          "internalType": "address",
          "name": "",
          "type": "address"
        }
      ],
      "stateMutability": "view",
      "type": "function"
    },
    {
      "inputs": [],
      "name": "openCreateNodesLevelUp",
      "outputs": [
        {
          "internalType": "bool",
          "name": "",
          "type": "bool"
        }
      ],
      "stateMutability": "view",
      "type": "function"
    },
    {
      "inputs": [],
      "name": "openCreateNodesMigration",
      "outputs": [
        {
          "internalType": "bool",
          "name": "",
          "type": "bool"
        }
      ],
      "stateMutability": "view",
      "type": "function"
    },
    {
      "inputs": [],
      "name": "openCreateNodesWithLuckyBoxes",
      "outputs": [
        {
          "internalType": "bool",
          "name": "",
          "type": "bool"
        }
      ],
      "stateMutability": "view",
      "type": "function"
    },
    {
      "inputs": [],
      "name": "openCreateNodesWithPending",
      "outputs": [
        {
          "internalType": "bool",
          "name": "",
          "type": "bool"
        }
      ],
      "stateMutability": "view",
      "type": "function"
    },
    {
      "inputs": [],
      "name": "openCreateNodesWithTokens",
      "outputs": [
        {
          "internalType": "bool",
          "name": "",
          "type": "bool"
        }
      ],
      "stateMutability": "view",
      "type": "function"
    },
    {
      "inputs": [
        {
          "internalType": "uint256",
          "name": "",
          "type": "uint256"
        }
      ],
      "name": "owners",
      "outputs": [
        {
          "internalType": "address",
          "name": "",
          "type": "address"
        }
      ],
      "stateMutability": "view",
      "type": "function"
    },
    {
      "inputs": [
        {
          "internalType": "address",
          "name": "",
          "type": "address"
        }
      ],
      "name": "ownersMigrated",
      "outputs": [
        {
          "internalType": "uint256",
          "name": "",
          "type": "uint256"
        }
      ],
      "stateMutability": "view",
      "type": "function"
    },
    {
      "inputs": [],
      "name": "price",
      "outputs": [
        {
          "internalType": "uint256",
          "name": "",
          "type": "uint256"
        }
      ],
      "stateMutability": "view",
      "type": "function"
    },
    {
      "inputs": [
        {
          "internalType": "address",
          "name": "_new",
          "type": "address"
        }
      ],
      "name": "removeOwner",
      "outputs": [],
      "stateMutability": "nonpayable",
      "type": "function"
    },
    {
      "inputs": [],
      "name": "rewardAmount",
      "outputs": [
        {
          "internalType": "uint256",
          "name": "",
          "type": "uint256"
        }
      ],
      "stateMutability": "view",
      "type": "function"
    },
    {
      "inputs": [
        {
          "internalType": "bool",
          "name": "_new",
          "type": "bool"
        }
      ],
      "name": "setCanBeBoostedNftLevelUp",
      "outputs": [],
      "stateMutability": "nonpayable",
      "type": "function"
    },
    {
      "inputs": [
        {
          "internalType": "bool",
          "name": "_new",
          "type": "bool"
        }
      ],
      "name": "setCanBeBoostedNftLucky",
      "outputs": [],
      "stateMutability": "nonpayable",
      "type": "function"
    },
    {
      "inputs": [
        {
          "internalType": "bool",
          "name": "_new",
          "type": "bool"
        }
      ],
      "name": "setCanBeBoostedNftMigration",
      "outputs": [],
      "stateMutability": "nonpayable",
      "type": "function"
    },
    {
      "inputs": [
        {
          "internalType": "bool",
          "name": "_new",
          "type": "bool"
        }
      ],
      "name": "setCanBeBoostedNftPending",
      "outputs": [],
      "stateMutability": "nonpayable",
      "type": "function"
    },
    {
      "inputs": [
        {
          "internalType": "bool",
          "name": "_new",
          "type": "bool"
        }
      ],
      "name": "setCanBeBoostedNftToken",
      "outputs": [],
      "stateMutability": "nonpayable",
      "type": "function"
    },
    {
      "inputs": [
        {
          "internalType": "uint256",
          "name": "_new",
          "type": "uint256"
        }
      ],
      "name": "setClaimTaxRoi",
      "outputs": [],
      "stateMutability": "nonpayable",
      "type": "function"
    },
    {
      "inputs": [
        {
          "internalType": "uint256",
          "name": "_new",
          "type": "uint256"
        }
      ],
      "name": "setClaimTime",
      "outputs": [],
      "stateMutability": "nonpayable",
      "type": "function"
    },
    {
      "inputs": [
        {
          "internalType": "address",
          "name": "_new",
          "type": "address"
        }
      ],
      "name": "setHandler",
      "outputs": [],
      "stateMutability": "nonpayable",
      "type": "function"
    },
    {
      "inputs": [
        {
          "internalType": "uint256",
          "name": "_new",
          "type": "uint256"
        }
      ],
      "name": "setIsBoostedNftProbability",
      "outputs": [],
      "stateMutability": "nonpayable",
      "type": "function"
    },
    {
      "inputs": [
        {
          "internalType": "uint256",
          "name": "_new",
          "type": "uint256"
        }
      ],
      "name": "setIsBoostedNftRate",
      "outputs": [],
      "stateMutability": "nonpayable",
      "type": "function"
    },
    {
      "inputs": [
        {
          "internalType": "bool",
          "name": "_new",
          "type": "bool"
        }
      ],
      "name": "setIsBoostedTokenLevelUp",
      "outputs": [],
      "stateMutability": "nonpayable",
      "type": "function"
    },
    {
      "inputs": [
        {
          "internalType": "bool",
          "name": "_new",
          "type": "bool"
        }
      ],
      "name": "setIsBoostedTokenLucky",
      "outputs": [],
      "stateMutability": "nonpayable",
      "type": "function"
    },
    {
      "inputs": [
        {
          "internalType": "bool",
          "name": "_new",
          "type": "bool"
        }
      ],
      "name": "setIsBoostedTokenMigration",
      "outputs": [],
      "stateMutability": "nonpayable",
      "type": "function"
    },
    {
      "inputs": [
        {
          "internalType": "bool",
          "name": "_new",
          "type": "bool"
        }
      ],
      "name": "setIsBoostedTokenPending",
      "outputs": [],
      "stateMutability": "nonpayable",
      "type": "function"
    },
    {
      "inputs": [
        {
          "internalType": "uint256",
          "name": "_new",
          "type": "uint256"
        }
      ],
      "name": "setIsBoostedTokenRate",
      "outputs": [],
      "stateMutability": "nonpayable",
      "type": "function"
    },
    {
      "inputs": [
        {
          "internalType": "bool",
          "name": "_new",
          "type": "bool"
        }
      ],
      "name": "setIsBoostedTokenToken",
      "outputs": [],
      "stateMutability": "nonpayable",
      "type": "function"
    },
    {
      "inputs": [
        {
          "internalType": "uint256",
          "name": "_new",
          "type": "uint256"
        }
      ],
      "name": "setMaxCount",
      "outputs": [],
      "stateMutability": "nonpayable",
      "type": "function"
    },
    {
      "inputs": [
        {
          "internalType": "uint256",
          "name": "_new",
          "type": "uint256"
        }
      ],
      "name": "setMaxCreationPendingTotal",
      "outputs": [],
      "stateMutability": "nonpayable",
      "type": "function"
    },
    {
      "inputs": [
        {
          "internalType": "uint256",
          "name": "_new",
          "type": "uint256"
        }
      ],
      "name": "setMaxCreationPendingUser",
      "outputs": [],
      "stateMutability": "nonpayable",
      "type": "function"
    },
    {
      "inputs": [
        {
          "internalType": "uint256",
          "name": "_new",
          "type": "uint256"
        }
      ],
      "name": "setMaxLevelUpTotal",
      "outputs": [],
      "stateMutability": "nonpayable",
      "type": "function"
    },
    {
      "inputs": [
        {
          "internalType": "uint256",
          "name": "_new",
          "type": "uint256"
        }
      ],
      "name": "setMaxLevelUpUser",
      "outputs": [],
      "stateMutability": "nonpayable",
      "type": "function"
    },
    {
      "inputs": [
        {
          "internalType": "uint256",
          "name": "_new",
          "type": "uint256"
        }
      ],
      "name": "setMaxUser",
      "outputs": [],
      "stateMutability": "nonpayable",
      "type": "function"
    },
    {
      "inputs": [
        {
          "internalType": "uint256",
          "name": "_new",
          "type": "uint256"
        }
      ],
      "name": "setNoClaimRewardAmount",
      "outputs": [],
      "stateMutability": "nonpayable",
      "type": "function"
    },
    {
      "inputs": [
        {
          "internalType": "uint256",
          "name": "_new",
          "type": "uint256"
        }
      ],
      "name": "setNoClaimTimeReference",
      "outputs": [],
      "stateMutability": "nonpayable",
      "type": "function"
    },
    {
      "inputs": [
        {
          "internalType": "uint256",
          "name": "_new",
          "type": "uint256"
        }
      ],
      "name": "setObtainingTimeRate",
      "outputs": [],
      "stateMutability": "nonpayable",
      "type": "function"
    },
    {
      "inputs": [
        {
          "internalType": "uint256",
          "name": "_new",
          "type": "uint256"
        }
      ],
      "name": "setObtainingTimeReference",
      "outputs": [],
      "stateMutability": "nonpayable",
      "type": "function"
    },
    {
      "inputs": [
        {
          "internalType": "address",
          "name": "_new",
          "type": "address"
        }
      ],
      "name": "setOld",
      "outputs": [],
      "stateMutability": "nonpayable",
      "type": "function"
    },
    {
      "inputs": [
        {
          "internalType": "bool",
          "name": "_new",
          "type": "bool"
        }
      ],
      "name": "setOpenCreateNodesLevelUp",
      "outputs": [],
      "stateMutability": "nonpayable",
      "type": "function"
    },
    {
      "inputs": [
        {
          "internalType": "bool",
          "name": "_new",
          "type": "bool"
        }
      ],
      "name": "setOpenCreateNodesMigration",
      "outputs": [],
      "stateMutability": "nonpayable",
      "type": "function"
    },
    {
      "inputs": [
        {
          "internalType": "bool",
          "name": "_new",
          "type": "bool"
        }
      ],
      "name": "setOpenCreateNodesWithLuckyBoxes",
      "outputs": [],
      "stateMutability": "nonpayable",
      "type": "function"
    },
    {
      "inputs": [
        {
          "internalType": "bool",
          "name": "_new",
          "type": "bool"
        }
      ],
      "name": "setOpenCreateNodesWithPending",
      "outputs": [],
      "stateMutability": "nonpayable",
      "type": "function"
    },
    {
      "inputs": [
        {
          "internalType": "bool",
          "name": "_new",
          "type": "bool"
        }
      ],
      "name": "setOpenCreateNodesWithTokens",
      "outputs": [],
      "stateMutability": "nonpayable",
      "type": "function"
    },
    {
      "inputs": [
        {
          "internalType": "uint256",
          "name": "_new",
          "type": "uint256"
        }
      ],
      "name": "setPrice",
      "outputs": [],
      "stateMutability": "nonpayable",
      "type": "function"
    },
    {
      "inputs": [
        {
          "internalType": "uint256",
          "name": "_new",
          "type": "uint256"
        }
      ],
      "name": "setRewardAmount",
      "outputs": [],
      "stateMutability": "nonpayable",
      "type": "function"
    },
    {
      "inputs": [
        {
          "internalType": "uint256",
          "name": "tokenId",
          "type": "uint256"
        },
        {
          "internalType": "string",
          "name": "_new",
          "type": "string"
        }
      ],
      "name": "setTokenIdFeature",
      "outputs": [],
      "stateMutability": "nonpayable",
      "type": "function"
    },
    {
      "inputs": [
        {
          "internalType": "uint256",
          "name": "tokenId",
          "type": "uint256"
        },
        {
          "internalType": "uint256",
          "name": "_rate",
          "type": "uint256"
        }
      ],
      "name": "setTokenIdIsBoostedAirDropRate",
      "outputs": [],
      "stateMutability": "nonpayable",
      "type": "function"
    },
    {
      "inputs": [
        {
          "internalType": "uint256",
          "name": "tokenId",
          "type": "uint256"
        },
        {
          "internalType": "bool",
          "name": "_new",
          "type": "bool"
        }
      ],
      "name": "setTokenIdIsBoostedNft",
      "outputs": [],
      "stateMutability": "nonpayable",
      "type": "function"
    },
    {
      "inputs": [
        {
          "internalType": "uint256",
          "name": "tokenId",
          "type": "uint256"
        },
        {
          "internalType": "bool",
          "name": "_new",
          "type": "bool"
        }
      ],
      "name": "setTokenIdIsBoostedToken",
      "outputs": [],
      "stateMutability": "nonpayable",
      "type": "function"
    },
    {
      "inputs": [
        {
          "internalType": "uint256",
          "name": "",
          "type": "uint256"
        }
      ],
      "name": "tokenIdToOwner",
      "outputs": [
        {
          "internalType": "address",
          "name": "",
          "type": "address"
        }
      ],
      "stateMutability": "view",
      "type": "function"
    },
    {
      "inputs": [],
      "name": "totalCreatedNodes",
      "outputs": [
        {
          "internalType": "uint256",
          "name": "",
          "type": "uint256"
        }
      ],
      "stateMutability": "view",
      "type": "function"
    },
    {
      "inputs": [
        {
          "internalType": "address",
          "name": "from",
          "type": "address"
        },
        {
          "internalType": "address",
          "name": "to",
          "type": "address"
        },
        {
          "internalType": "uint256",
          "name": "tokenId",
          "type": "uint256"
        }
      ],
      "name": "transferFrom",
      "outputs": [],
      "stateMutability": "nonpayable",
      "type": "function"
    },
    {
      "inputs": [
        {
          "internalType": "string",
          "name": "_name",
          "type": "string"
        },
        {
          "internalType": "uint256",
          "name": "_rate",
          "type": "uint256"
        }
      ],
      "name": "updateFeature",
      "outputs": [],
      "stateMutability": "nonpayable",
      "type": "function"
    }
  ],
  "bytecode": "0x608060405260178054600160301b600160781b031965ffffffffff001960ff199092166001179190911665010000000000171690553480156200004157600080fd5b506040516200617238038062006172833981016040819052620000649162000803565b60008054600181810183557f290decd9548b62a8d60345a988386fc84ba6bc95484008f6362f93160ef3e56390910180546001600160a01b03191633908117909155825260208190526040909120805460ff191690911790558351620001115760405162461bcd60e51b815260206004820152601e60248201527f4e6f6465547970653a204e616d652063616e6e6f7420626520656d707479000060448201526064015b60405180910390fd5b835162000126906004906020870190620006b6565b5082516011146200017a5760405162461bcd60e51b815260206004820181905260248201527f4e6f6465547970653a2056616c7565732e6c656e677468206d69736d61746368604482015260640162000108565b826000815181106200019c57634e487b7160e01b600052603260045260246000fd5b602002602001015160068190555082600181518110620001cc57634e487b7160e01b600052603260045260246000fd5b602002602001015160078190555082600281518110620001fc57634e487b7160e01b600052603260045260246000fd5b6020026020010151600881905550826003815181106200022c57634e487b7160e01b600052603260045260246000fd5b6020026020010151600981905550612710836004815181106200025f57634e487b7160e01b600052603260045260246000fd5b602002602001015110620002cd5760405162461bcd60e51b815260206004820152602e60248201527f4e6f6465547970653a20436c61696d546178526f69206d757374206265206c6f60448201526d0776572207468616e2031303030360941b606482015260840162000108565b82600481518110620002ef57634e487b7160e01b600052603260045260246000fd5b6020026020010151600a81905550826005815181106200031f57634e487b7160e01b600052603260045260246000fd5b6020026020010151600b81905550826006815181106200034f57634e487b7160e01b600052603260045260246000fd5b6020026020010151600c81905550826007815181106200037f57634e487b7160e01b600052603260045260246000fd5b6020026020010151600d8190555082600881518110620003af57634e487b7160e01b600052603260045260246000fd5b6020026020010151600e8190555082600981518110620003df57634e487b7160e01b600052603260045260246000fd5b6020026020010151600f8190555082600a815181106200040f57634e487b7160e01b600052603260045260246000fd5b602002602001015160108190555061271083600b815181106200044257634e487b7160e01b600052603260045260246000fd5b602002602001015110620004bf5760405162461bcd60e51b815260206004820152603a60248201527f4e6f6465547970653a204973426f6f737465644e667450726f626162696c697460448201527f79206d757374206265206c6f776572207468616e203130303030000000000000606482015260840162000108565b82600b81518110620004e157634e487b7160e01b600052603260045260246000fd5b602002602001015160118190555082600c815181106200051157634e487b7160e01b600052603260045260246000fd5b602002602001015160128190555082600d815181106200054157634e487b7160e01b600052603260045260246000fd5b602002602001015160138190555061271083600e815181106200057457634e487b7160e01b600052603260045260246000fd5b602002602001015110620005f15760405162461bcd60e51b815260206004820152603560248201527f4e6f6465547970653a204973426f6f73746564546f6b656e52617465206d757360448201527f74206265206c6f776572207468616e2031303030300000000000000000000000606482015260840162000108565b82600e815181106200061357634e487b7160e01b600052603260045260246000fd5b602002602001015160148190555082600f815181106200064357634e487b7160e01b600052603260045260246000fd5b6020026020010151601681905550826010815181106200067357634e487b7160e01b600052603260045260246000fd5b6020908102919091010151601555601e80546001600160a01b039384166001600160a01b031991821617909155601f8054929093169116179055506200098c9050565b828054620006c49062000939565b90600052602060002090601f016020900481019282620006e8576000855562000733565b82601f106200070357805160ff191683800117855562000733565b8280016001018555821562000733579182015b828111156200073357825182559160200191906001019062000716565b506200074192915062000745565b5090565b5b8082111562000741576000815560010162000746565b80516001600160a01b03811681146200077457600080fd5b919050565b600082601f8301126200078a578081fd5b815160206001600160401b03821115620007a857620007a862000976565b808202620007b882820162000906565b838152828101908684018388018501891015620007d3578687fd5b8693505b85841015620007f7578051835260019390930192918401918401620007d7565b50979650505050505050565b6000806000806080858703121562000819578384fd5b84516001600160401b038082111562000830578586fd5b818701915087601f83011262000844578586fd5b81518181111562000859576200085962000976565b60206200086f601f8301601f1916820162000906565b8281528a8284870101111562000883578889fd5b885b83811015620008a257858101830151828201840152820162000885565b83811115620008b357898385840101525b509089015190975092505080821115620008cb578485fd5b50620008da8782880162000779565b935050620008eb604086016200075c565b9150620008fb606086016200075c565b905092959194509250565b604051601f8201601f191681016001600160401b038111828210171562000931576200093162000976565b604052919050565b6002810460018216806200094e57607f821691505b602082108114156200097057634e487b7160e01b600052602260045260246000fd5b50919050565b634e487b7160e01b600052604160045260246000fd5b6157d6806200099c6000396000f3fe608060405234801561001057600080fd5b50600436106106aa5760003560e01c80638890a3151161036c578063c0903166116101de578063df22510e1161010f578063ef9e79ea116100ad578063f5bcb7a911610087578063f5bcb7a914610ef7578063f7b2a7be14610f0a578063fbaa079214610f13578063fd38450414610f26576106aa565b8063ef9e79ea14610ebd578063f123fb5c14610ed0578063f1aaf1e814610ee3576106aa565b8063e7cbc792116100e9578063e7cbc79214610e83578063ea8de2ee14610e96578063ee08c0b614610ea9578063ef22627b146107bf576106aa565b8063df22510e14610e48578063e361199614610e5c578063e4d8af2f14610e70576106aa565b8063d1f18b491161017c578063d759948611610156578063d759948614610dfc578063d95de9a014610e0f578063daf73bbd14610e22578063de23b0d614610e35576106aa565b8063d1f18b4914610dd7578063d271fac014610dea578063d597522114610df3576106aa565b8063c80916d4116101b8578063c80916d414610d94578063cd9f3b6e14610da7578063ce82805814610dba578063d04b30b214610dc3576106aa565b8063c090316614610d36578063c23e6f9314610d61578063c674fab614610d81576106aa565b8063a035b1fe116102b8578063b48426bc11610256578063b88d345311610230578063b88d345314610cfe578063bac426d014610d07578063bc2c21b714610d1a578063bca2f4a014610d22576106aa565b8063b48426bc146107bf578063b6982afd14610cd8578063b83f866314610ceb576106aa565b8063a7b8c64d11610292578063a7b8c64d14610c8d578063a8a65a7814610c9f578063abace28014610cb2578063b018fc6f14610cc5576106aa565b8063a035b1fe14610c5e578063a051dc8b14610c67578063a35e617f14610c7a576106aa565b80639463c803116103255780639d695c60116102ff5780639d695c6014610c195780639dec96b514610c2c5780639ef2d87a14610c3f578063a00ce4bb14610c48576106aa565b80639463c80314610bea57806396cfa23e14610bf357806398def01f14610c06576106aa565b80638890a31514610b7857806389af610714610b8b5780638c1ddded14610b9e57806391b7f5ed14610bb157806391d2348f14610bc457806391f3658c14610bd7576106aa565b8063421cc337116105205780635ca3797b116104515780636e9e48ef116103ef578063804a306b116103c9578063804a306b14610b01578063842e766914610b16578063848327a514610b3957806387e2fded14610b4c576106aa565b80636e9e48ef14610aa5578063754030f414610ace5780637914207f14610ae1576106aa565b806361c2f15b1161042b57806361c2f15b14610a63578063632203bc14610a6c57806364c27ad414610a7f5780636de8e15414610a92576106aa565b80635ca3797b14610a035780635f7dabbb14610a2f5780635fd1021614610a5a576106aa565b80635139839c116104be578063551a6d9311610498578063551a6d93146109c3578063583109b9146109cb57806359a68c7a146109df5780635c7b05b1146109ec576106aa565b80635139839c1461097d578063518e32d314610990578063526cfed8146109a3576106aa565b806348c09c5d116104fa57806348c09c5d1461093a5780634946e4851461094d5780634be3e9d0146109615780634d4c74e71461096a576106aa565b8063421cc337146108eb57806343a9ac39146108fe57806345945a5614610927576106aa565b80632158abb3116105fa57806329e38e5b116105985780632d22a3e7116105725780632d22a3e71461087f5780632f54bf6e1461089f5780633108614c146108c257806332187768146108e2576106aa565b806329e38e5b146108505780632a9f270e146108635780632aea89b914610876576106aa565b8063246c55a6116105d4578063246c55a61461080b5780632496b5c01461081e5780632614c0f81461082757806327b3bf1114610847576106aa565b80632158abb3146107d257806323b872dd146107e5578063242d81f0146107f8576106aa565b80630c7b1d7b1161066757806312c9fd741161064157806312c9fd7414610790578063173825d9146107a3578063179ec2da146107b65780631b1f264c146107bf576106aa565b80630c7b1d7b1461076c5780630fa8181514610774578063129d7f8c1461077d576106aa565b8063025e7c27146106af5780630297a4c1146106df57806303eba507146106f657806304b78e201461071e57806306fdde0314610733578063079129ba14610748575b600080fd5b6106c26106bd366004615131565b610f39565b6040516001600160a01b0390911681526020015b60405180910390f35b6106e860125481565b6040519081526020016106d6565b610709610704366004614e22565b610f63565b604080519283526020830191909152016106d6565b61073161072c3660046150a3565b611117565b005b61073b61116d565b6040516106d6919061543e565b60175461075c90600160701b900460ff1681565b60405190151581526020016106d6565b6000546106e8565b6106e860165481565b61073161078b366004614f64565b6111fb565b61073161079e366004615131565b611281565b6107316107b1366004614e22565b6112b5565b6106e860155481565b6107316107cd3660046150a3565b611585565b6107316107e0366004615161565b6115c7565b6107316107f3366004614e3c565b611644565b610731610806366004614e22565b61190d565b610731610819366004615131565b6119c0565b6106e860145481565b6106e8610835366004614e22565b601d6020526000908152604090205481565b6106e860085481565b61073161085e3660046150ef565b6119f4565b610731610871366004615183565b611b4c565b6106e8600e5481565b61089261088d3660046151bd565b611c02565b6040516106d69190615353565b61075c6108ad366004614e22565b60016020526000908152604090205460ff1681565b6108d56108d0366004615131565b611d7a565b6040516106d691906155e9565b6106e8600a5481565b6107316108f9366004615131565b611ead565b6106e861090c366004614e22565b6001600160a01b031660009081526002602052604090205490565b610731610935366004615131565b611f3d565b6107316109483660046150a3565b611f71565b60175461075c906301000000900460ff1681565b6106e860135481565b6107316109783660046150ef565b611fc4565b6106c261098b366004615131565b612044565b61073161099e366004614f32565b612054565b6109b66109b1366004615071565b61226a565b6040516106d69190615406565b601b546106e8565b60175461075c90600160381b900460ff1681565b60175461075c9060ff1681565b60175461075c906601000000000000900460ff1681565b6106e8610a11366004614e22565b6001600160a01b031660009081526002602052604090206004015490565b6106e8610a3d3660046150bd565b805160208183018101805160198252928201919093012091525481565b6106e860105481565b6106e8600c5481565b610709610a7a366004614e22565b61236d565b6106e8610a8d366004614e77565b6124ca565b610731610aa0366004615131565b61277b565b6106c2610ab3366004615131565b6003602052600090815260409020546001600160a01b031681565b610731610adc366004615131565b6127af565b610af4610aef366004615071565b6127e3565b6040516106d691906153b3565b60175461075c90640100000000900460ff1681565b61075c610b24366004614e22565b601c6020526000908152604090205460ff1681565b610731610b473660046150a3565b612a00565b6106e8610b5a366004614e22565b6001600160a01b031660009081526002602052604090206005015490565b610731610b86366004615131565b612a4d565b6106e8610b99366004614e77565b612aeb565b610731610bac366004615131565b612e88565b610731610bbf366004615131565b612ebc565b610731610bd23660046150a3565b612f40565b610731610be5366004615131565b612f92565b6106e8600b5481565b60175461075c9062010000900460ff1681565b610731610c14366004615131565b61303d565b6106e8610c27366004614e77565b613071565b610731610c3a3660046151bd565b61324d565b6106e860065481565b60175461075c9065010000000000900460ff1681565b6106e860075481565b610731610c753660046150a3565b6132b4565b610731610c88366004615131565b613307565b60175461075c90610100900460ff1681565b610731610cad366004615131565b61333b565b610731610cc03660046150a3565b6133ce565b6106e8610cd3366004614e77565b61341f565b6109b6610ce6366004615071565b6134bb565b601f546106c2906001600160a01b031681565b6106e860055481565b610731610d15366004614e22565b6135d6565b6018546106e8565b60175461075c90600160601b900460ff1681565b6106e8610d443660046150bd565b8051602081830181018051601a8252928201919093012091525481565b610d74610d6f3660046151bd565b61368e565b6040516106d69190615306565b610731610d8f3660046150a3565b613780565b601e546106c2906001600160a01b031681565b610731610db53660046150a3565b6137d1565b6106e8600f5481565b60175461075c90600160681b900460ff1681565b610731610de5366004615131565b61381e565b6106e860115481565b6106e8600d5481565b6109b6610e0a366004615071565b613852565b610731610e1d366004614e77565b613987565b610709610e30366004614e77565b613cfb565b610731610e43366004615131565b613eff565b60175461075c90600160481b900460ff1681565b60175461075c90600160401b900460ff1681565b610731610e7e366004615131565b613f9d565b610731610e91366004615131565b613fd1565b610731610ea4366004615161565b61407b565b60175461075c90600160501b900460ff1681565b610731610ecb3660046150a3565b6140f0565b610731610ede3660046150a3565b61413d565b60175461075c90600160581b900460ff1681565b610731610f053660046150a3565b61418a565b6106e860095481565b610731610f213660046150a3565b6141d7565b610731610f34366004614ec2565b614226565b60008181548110610f4957600080fd5b6000918252602090912001546001600160a01b0316905081565b6001600160a01b0381166000908152600260205260408120819081908190815b815481101561110b576000806110d9846001016000866000018681548110610fbb57634e487b7160e01b600052603260045260246000fd5b6000918252602080832090910154835282810193909352604091820190208151610100808201845282546001600160a01b031682526001830154948201949094526002820154928101929092526003810154606083015260048101546080830152600581015460ff808216151560a0850152939004909216151560c082015260068201805491929160e084019190611052906156f4565b80601f016020809104026020016040519081016040528092919081815260200182805461107e906156f4565b80156110cb5780601f106110a0576101008083540402835291602001916110cb565b820191906000526020600020905b8154815290600101906020018083116110ae57829003601f168201915b5050505050815250506142b6565b90925090506110e8828761564f565b95506110f4818661564f565b9450505080806111039061572f565b915050610f83565b50919350915050915091565b3360009081526001602052604090205460ff1661114f5760405162461bcd60e51b81526004016111469061551f565b60405180910390fd5b6017805491151563010000000263ff00000019909216919091179055565b6004805461117a906156f4565b80601f01602080910402602001604051908101604052809291908181526020018280546111a6906156f4565b80156111f35780601f106111c8576101008083540402835291602001916111f3565b820191906000526020600020905b8154815290600101906020018083116111d657829003601f168201915b505050505081565b601e546001600160a01b031633146112255760405162461bcd60e51b81526004016111469061558d565b80511561126b5760198160405161123c919061527b565b9081526020016040518091039020546000141561126b5760405162461bcd60e51b8152600401611146906154e8565b61127986858585858a6144fc565b505050505050565b3360009081526001602052604090205460ff166112b05760405162461bcd60e51b81526004016111469061551f565b601055565b336001600160a01b0316600080815481106112e057634e487b7160e01b600052603260045260246000fd5b6000918252602090912001546001600160a01b03161461133d5760405162461bcd60e51b815260206004820152601860248201527727bbb732b9399d1027b7363c9029bab832b91027bbb732b960411b6044820152606401611146565b6001600160a01b03811660009081526001602052604090205460ff166113995760405162461bcd60e51b815260206004820152601160248201527027bbb732b9399d102737ba1037bbb732b960791b6044820152606401611146565b600080815481106113ba57634e487b7160e01b600052603260045260246000fd5b6000918252602090912001546001600160a01b038281169116141561142b5760405162461bcd60e51b815260206004820152602160248201527f4f776e6572733a2043616e6e6f742072656d6f7665207375706572206f776e656044820152603960f91b6064820152608401611146565b60015b60005481101561156357816001600160a01b03166000828154811061146357634e487b7160e01b600052603260045260246000fd5b6000918252602090912001546001600160a01b03161415611551576000805461148e9060019061569a565b815481106114ac57634e487b7160e01b600052603260045260246000fd5b600091825260208220015481546001600160a01b039091169190839081106114e457634e487b7160e01b600052603260045260246000fd5b6000918252602082200180546001600160a01b0319166001600160a01b03939093169290921790915580548061152a57634e487b7160e01b600052603160045260246000fd5b600082815260209020810160001990810180546001600160a01b0319169055019055611563565b8061155b8161572f565b91505061142e565b506001600160a01b03166000908152600160205260409020805460ff19169055565b3360009081526001602052604090205460ff166115b45760405162461bcd60e51b81526004016111469061551f565b6017805460ff1916911515919091179055565b3360009081526001602052604090205460ff166115f65760405162461bcd60e51b81526004016111469061551f565b6000828152600360209081526040808320546001600160a01b031683526002825280832094835260019490940190529190912060050180549115156101000261ff0019909216919091179055565b601e546001600160a01b0316331461166e5760405162461bcd60e51b81526004016111469061558d565b6001600160a01b038316600090815260026020908152604080832084845260030190915290205460ff166116e45760405162461bcd60e51b815260206004820152601a60248201527f4e6f6465547970653a205472616e73666572206661696c7572650000000000006044820152606401611146565b6001600160a01b0382166000908152601c602052604090205460ff1661176857601b805460018082019092557f3ad8aa4f87544323a9d1e5dd902f40c356527a7955687113db5f9a85ad579dc10180546001600160a01b0319166001600160a01b0385169081179091556000908152601c60205260409020805460ff191690911790555b6001600160a01b038381166000908152600260208181526040808420868552600180820180855283872080546001600160a01b0319168b8a169081178083554260038401819055918a52888852868a20998c90529287528551610100808201885293909a168a5292810154958901959095529484015492870192909252606086019190915260048201546080860152600582015460ff808216151560a0880152939004909216151560c085015260068101805492946118bb94938793919260e0840191611834906156f4565b80601f0160208091040260200160405190810160405280929190818152602001828054611860906156f4565b80156118ad5780601f10611882576101008083540402835291602001916118ad565b820191906000526020600020905b81548152906001019060200180831161189057829003601f168201915b50505050508152505061476e565b6001600160a01b03841660009081526002602052604090206118dd908361491e565b50600090815260036020526040902080546001600160a01b0319166001600160a01b039290921691909117905550565b3360009081526001602052604090205460ff1661193c5760405162461bcd60e51b81526004016111469061551f565b6001600160a01b03811661199e5760405162461bcd60e51b8152602060048201526024808201527f4e6f6465547970653a204f6c642063616e6e6f742062652061646472657373206044820152637a65726f60e01b6064820152608401611146565b601f80546001600160a01b0319166001600160a01b0392909216919091179055565b3360009081526001602052604090205460ff166119ef5760405162461bcd60e51b81526004016111469061551f565b601455565b3360009081526001602052604090205460ff16611a235760405162461bcd60e51b81526004016111469061551f565b60196004604051611a349190615297565b908152602001604051809103902054600014611a925760405162461bcd60e51b815260206004820152601f60248201527f4e6f6465547970653a204665617475726520616c7265616479206578697374006044820152606401611146565b6000825111611ae35760405162461bcd60e51b815260206004820152601e60248201527f4e6f6465547970653a204e616d652063616e6e6f7420626520656d70747900006044820152606401611146565b601880546001810182556000919091528251611b26917fb13d2d76d1f4b7be834882e410b3e3a8afaf69f83600ae24db354391d2378d2e01906020850190614bfb565b5080601983604051611b38919061527b565b908152604051908190036020019020555050565b3360009081526001602052604090205460ff16611b7b5760405162461bcd60e51b81526004016111469061551f565b601981604051611b8b919061527b565b90815260200160405180910390205460001415611bba5760405162461bcd60e51b8152600401611146906154e8565b6000828152600360209081526040808320546001600160a01b031683526002825280832085845260010182529091208251611bfd92600690920191840190614bfb565b505050565b60606000611c10848461569a565b6001600160401b03811115611c3557634e487b7160e01b600052604160045260246000fd5b604051908082528060200260200182016040528015611c6857816020015b6060815260200190600190039081611c535790505b509050835b83811015611d725760188181548110611c9657634e487b7160e01b600052603260045260246000fd5b906000526020600020018054611cab906156f4565b80601f0160208091040260200160405190810160405280929190818152602001828054611cd7906156f4565b8015611d245780601f10611cf957610100808354040283529160200191611d24565b820191906000526020600020905b815481529060010190602001808311611d0757829003601f168201915b5050505050828683611d36919061569a565b81518110611d5457634e487b7160e01b600052603260045260246000fd5b60200260200101819052508080611d6a9061572f565b915050611c6d565b509392505050565b611d82614c7f565b6000828152600360208181526040808420546001600160a01b03908116855260028084528286208887526001908101855295839020835161010081810186528254909416815296810154948701949094528301549185019190915291810154606084015260048101546080840152600581015460ff808216151560a0860152929004909116151560c083015260068101805460e084019190611e23906156f4565b80601f0160208091040260200160405190810160405280929190818152602001828054611e4f906156f4565b8015611e9c5780601f10611e7157610100808354040283529160200191611e9c565b820191906000526020600020905b815481529060010190602001808311611e7f57829003601f168201915b50505050508152505090505b919050565b3360009081526001602052604090205460ff16611edc5760405162461bcd60e51b81526004016111469061551f565b60008111611f385760405162461bcd60e51b815260206004820152602360248201527f4e6f6465547970653a20436c61696d2054696d652063616e6e6f74206265207a60448201526265726f60e81b6064820152608401611146565b600855565b3360009081526001602052604090205460ff16611f6c5760405162461bcd60e51b81526004016111469061551f565b600c55565b3360009081526001602052604090205460ff16611fa05760405162461bcd60e51b81526004016111469061551f565b60178054911515600160481b0269ff00000000000000000019909216919091179055565b3360009081526001602052604090205460ff16611ff35760405162461bcd60e51b81526004016111469061551f565b601960046040516120049190615297565b908152602001604051809103902054600014156120335760405162461bcd60e51b8152600401611146906154e8565b80601983604051611b38919061527b565b601b8181548110610f4957600080fd5b336001600160a01b03166000808154811061207f57634e487b7160e01b600052603260045260246000fd5b6000918252602090912001546001600160a01b0316146120dc5760405162461bcd60e51b815260206004820152601860248201527727bbb732b9399d1027b7363c9029bab832b91027bbb732b960411b6044820152606401611146565b6001600160a01b03821660009081526001602052604090205460ff161561213d5760405162461bcd60e51b815260206004820152601560248201527427bbb732b9399d1020b63932b0b23c9037bbb732b960591b6044820152606401611146565b6001600160a01b0382166000908152600160208190526040909120805460ff19169091179055801561221d5760008060008154811061218c57634e487b7160e01b600052603260045260246000fd5b6000918252602080832090910154835460018101855593835290822090920180546001600160a01b0319166001600160a01b0390931692909217909155805483919081906121ea57634e487b7160e01b600052603260045260246000fd5b9060005260206000200160006101000a8154816001600160a01b0302191690836001600160a01b03160217905550612266565b600080546001810182559080527f290decd9548b62a8d60345a988386fc84ba6bc95484008f6362f93160ef3e5630180546001600160a01b0319166001600160a01b0384161790555b5050565b60606000612278848461569a565b6001600160401b0381111561229d57634e487b7160e01b600052604160045260246000fd5b6040519080825280602002602001820160405280156122c6578160200160208202803683370190505b506001600160a01b0386166000908152600260205260409020909150845b848110156123625781600001818154811061230f57634e487b7160e01b600052603260045260246000fd5b9060005260206000200154838783612327919061569a565b8151811061234557634e487b7160e01b600052603260045260246000fd5b60209081029190910101528061235a8161572f565b9150506122e4565b509095945050505050565b601e5460009081906001600160a01b0316331461239c5760405162461bcd60e51b81526004016111469061558d565b6001600160a01b03831660009081526002602052604081208190815b815481101561110b5760008260010160008460000184815481106123ec57634e487b7160e01b600052603260045260246000fd5b6000918252602080832090910154835282810193909352604091820181208251610100808201855282546001600160a01b031682526001830154958201959095526002820154938101939093526003810154606084015260048101546080840152600581015460ff808216151560a0860152949004909316151560c08301526006830180549394509092839261248e929091869160e0840191611052906156f4565b909250905061249d828861564f565b96506124a9818761564f565b955042836002018190555050505080806124c29061572f565b9150506123b8565b601e546000906001600160a01b031633146124f75760405162461bcd60e51b81526004016111469061558d565b601754600160601b900460ff166125205760405162461bcd60e51b8152600401611146906155bd565b8151600e5410156125915760405162461bcd60e51b815260206004820152603560248201527f4e6f6465547970653a204e6f7420656e6f756768206372656174696f6e2077696044820152741d1a081c195b991a5b99c81cdc1bdd1cc81b19599d605a1b6064820152608401611146565b8151600e60008282546125a4919061569a565b909155505081516001600160a01b038416600090815260026020526040812060050180549091906125d690849061564f565b9091555050600d546001600160a01b038416600090815260026020526040902060050154111561267a5760405162461bcd60e51b815260206004820152604360248201527f4e6f6465547970653a204e6f7420656e6f756768206372656174696f6e20776960448201527f74682070656e64696e672073706f7473206c65667420666f722074686973207560648201526239b2b960e91b608482015260a401611146565b6000612697848451601760029054906101000a900460ff16614a8e565b90506126c6848483601760079054906101000a900460ff166040518060200160405280600081525060006144fc565b60065460055411156126ea5760405162461bcd60e51b81526004016111469061554b565b600f546001600160a01b03851660009081526002602052604090205411156127645760405162461bcd60e51b815260206004820152602760248201527f4e6f6465547970653a205573657220746f6f206d616e79206e6f6465732072656044820152661c5d595cdd195960ca1b6064820152608401611146565b6007548351612773919061567b565b949350505050565b3360009081526001602052604090205460ff166127aa5760405162461bcd60e51b81526004016111469061551f565b600d55565b3360009081526001602052604090205460ff166127de5760405162461bcd60e51b81526004016111469061551f565b601555565b606060006127f1848461569a565b6001600160401b0381111561281657634e487b7160e01b600052604160045260246000fd5b60405190808252806020026020018201604052801561284f57816020015b61283c614c7f565b8152602001906001900390816128345790505b506001600160a01b0386166000908152600260205260409020909150845b848110156123625781600101600083600001838154811061289e57634e487b7160e01b600052603260045260246000fd5b6000918252602080832090910154835282810193909352604091820190208151610100808201845282546001600160a01b031682526001830154948201949094526002820154928101929092526003810154606083015260048101546080830152600581015460ff808216151560a0850152939004909216151560c082015260068201805491929160e084019190612935906156f4565b80601f0160208091040260200160405190810160405280929190818152602001828054612961906156f4565b80156129ae5780601f10612983576101008083540402835291602001916129ae565b820191906000526020600020905b81548152906001019060200180831161299157829003601f168201915b5050505050815250508387836129c4919061569a565b815181106129e257634e487b7160e01b600052603260045260246000fd5b602002602001018190525080806129f89061572f565b91505061286d565b3360009081526001602052604090205460ff16612a2f5760405162461bcd60e51b81526004016111469061551f565b60178054911515600160701b0260ff60701b19909216919091179055565b3360009081526001602052604090205460ff16612a7c5760405162461bcd60e51b81526004016111469061551f565b60008111612ae65760405162461bcd60e51b815260206004820152603160248201527f4e6f6465547970653a204f627461696e696e672054696d65205265666572656e60448201527063652063616e6e6f74206265207a65726f60781b6064820152608401611146565b601255565b601e546000906001600160a01b03163314612b185760405162461bcd60e51b81526004016111469061558d565b60005b8251811015612e595760026000856001600160a01b03166001600160a01b031681526020019081526020016000206003016000848381518110612b6e57634e487b7160e01b600052603260045260246000fd5b60209081029190910181015182528101919091526040016000205460ff16612bd15760405162461bcd60e51b81526020600482015260166024820152754e6f6465547970653a204275726e206661696c75726560501b6044820152606401611146565b600060026000866001600160a01b03166001600160a01b031681526020019081526020016000206001016000858481518110612c1d57634e487b7160e01b600052603260045260246000fd5b60209081029190910181015182528181019290925260409081016000208151610100808201845282546001600160a01b031682526001830154948201949094526002820154928101929092526003810154606083015260048101546080830152600581015460ff808216151560a0850152939004909216151560c082015260068201805491929160e084019190612cb3906156f4565b80601f0160208091040260200160405190810160405280929190818152602001828054612cdf906156f4565b8015612d2c5780601f10612d0157610100808354040283529160200191612d2c565b820191906000526020600020905b815481529060010190602001808311612d0f57829003601f168201915b50505050508152505090506000601a8260e00151604051612d4d919061527b565b9081526020016040518091039020541115612d9957601a8160e00151604051612d76919061527b565b9081526040519081900360200190208054906000612d93836156dd565b91905055505b6001600160a01b03851660009081526002602052604090208451612de59190869085908110612dd857634e487b7160e01b600052603260045260246000fd5b602002602001015161491e565b600060036000868581518110612e0b57634e487b7160e01b600052603260045260246000fd5b6020026020010151815260200190815260200160002060006101000a8154816001600160a01b0302191690836001600160a01b03160217905550508080612e519061572f565b915050612b1b565b50815160056000828254612e6d919061569a565b90915550508151600754612e81919061567b565b9392505050565b3360009081526001602052604090205460ff16612eb75760405162461bcd60e51b81526004016111469061551f565b600f55565b3360009081526001602052604090205460ff16612eeb5760405162461bcd60e51b81526004016111469061551f565b60008111612f3b5760405162461bcd60e51b815260206004820152601e60248201527f4e6f6465547970653a2050726963652063616e6e6f74206265207a65726f00006044820152606401611146565b600755565b3360009081526001602052604090205460ff16612f6f5760405162461bcd60e51b81526004016111469061551f565b60178054911515600160401b0268ff000000000000000019909216919091179055565b3360009081526001602052604090205460ff16612fc15760405162461bcd60e51b81526004016111469061551f565b61271081106130385760405162461bcd60e51b815260206004820152603c60248201527f4e6f6465547970653a20497320426f6f737465644e66742050726f626162696c60448201527f697479206d757374206265206c6f776572207468616e203130303030000000006064820152608401611146565b601155565b3360009081526001602052604090205460ff1661306c5760405162461bcd60e51b81526004016111469061551f565b601355565b601e546000906001600160a01b0316331461309e5760405162461bcd60e51b81526004016111469061558d565b601754600160581b900460ff166130c75760405162461bcd60e51b8152600401611146906155bd565b8151600c54101561312b5760405162461bcd60e51b815260206004820152602860248201527f4e6f6465547970653a204e6f7420656e6f756768206c6576656c2075702073706044820152671bdd1cc81b19599d60c21b6064820152608401611146565b8151600c600082825461313e919061569a565b909155505081516001600160a01b0384166000908152600260205260408120600401805490919061317090849061564f565b9091555050600b546001600160a01b03841660009081526002602052604090206004015411156132015760405162461bcd60e51b815260206004820152603660248201527f4e6f6465547970653a204e6f7420656e6f756768206c6576656c20757020737060448201527537ba39903632b33a103337b9103a3434b9903ab9b2b960511b6064820152608401611146565b600061321e848451601760019054906101000a900460ff16614a8e565b90506126c6848483601760069054906101000a900460ff166040518060200160405280600081525060006144fc565b3360009081526001602052604090205460ff1661327c5760405162461bcd60e51b81526004016111469061551f565b6000828152600360209081526040808320546001600160a01b0316835260028252808320948352600190940190529190912060040155565b3360009081526001602052604090205460ff166132e35760405162461bcd60e51b81526004016111469061551f565b6017805491151566010000000000000266ff00000000000019909216919091179055565b3360009081526001602052604090205460ff166133365760405162461bcd60e51b81526004016111469061551f565b600655565b3360009081526001602052604090205460ff1661336a5760405162461bcd60e51b81526004016111469061551f565b600081116133c95760405162461bcd60e51b815260206004820152602660248201527f4e6f6465547970653a2052657761726420416d6f756e742063616e6e6f74206260448201526565207a65726f60d01b6064820152608401611146565b600955565b3360009081526001602052604090205460ff166133fd5760405162461bcd60e51b81526004016111469061551f565b60178054911515650100000000000265ff000000000019909216919091179055565b601e546000906001600160a01b0316331461344c5760405162461bcd60e51b81526004016111469061558d565b601754600160501b900460ff166134755760405162461bcd60e51b8152600401611146906155bd565b815160175460009161348c9186919060ff16614a8e565b90506126c6848483601760059054906101000a900460ff166040518060200160405280600081525060006144fc565b606060006134c9848461569a565b6001600160401b038111156134ee57634e487b7160e01b600052604160045260246000fd5b604051908082528060200260200182016040528015613517578160200160208202803683370190505b506001600160a01b0386166000908152600260205260409020909150845b848110156123625760165482600101600084600001848154811061356957634e487b7160e01b600052603260045260246000fd5b9060005260206000200154815260200190815260200160002060020154613590919061564f565b8361359b888461569a565b815181106135b957634e487b7160e01b600052603260045260246000fd5b6020908102919091010152806135ce8161572f565b915050613535565b3360009081526001602052604090205460ff166136055760405162461bcd60e51b81526004016111469061551f565b6001600160a01b03811661366c5760405162461bcd60e51b815260206004820152602860248201527f4e6f6465547970653a2048616e646c65722063616e6e6f742062652061646472604482015267657373207a65726f60c01b6064820152608401611146565b601e80546001600160a01b0319166001600160a01b0392909216919091179055565b6060600061369c848461569a565b6001600160401b038111156136c157634e487b7160e01b600052604160045260246000fd5b6040519080825280602002602001820160405280156136ea578160200160208202803683370190505b509050835b83811015611d7257601b818154811061371857634e487b7160e01b600052603260045260246000fd5b6000918252602090912001546001600160a01b031682613738878461569a565b8151811061375657634e487b7160e01b600052603260045260246000fd5b6001600160a01b0390921660209283029190910190910152806137788161572f565b9150506136ef565b3360009081526001602052604090205460ff166137af5760405162461bcd60e51b81526004016111469061551f565b60178054911515600160381b0267ff0000000000000019909216919091179055565b3360009081526001602052604090205460ff166138005760405162461bcd60e51b81526004016111469061551f565b60178054911515600160601b0260ff60601b19909216919091179055565b3360009081526001602052604090205460ff1661384d5760405162461bcd60e51b81526004016111469061551f565b600e55565b60606000613860848461569a565b6001600160401b0381111561388557634e487b7160e01b600052604160045260246000fd5b6040519080825280602002602001820160405280156138ae578160200160208202803683370190505b506001600160a01b0386166000908152600260205260409020909150845b84811015612362578160010160008360000183815481106138fd57634e487b7160e01b600052603260045260246000fd5b906000526020600020015481526020019081526020016000206001015460095460085460075461392d919061567b565b6139379190615667565b613941919061564f565b8361394c888461569a565b8151811061396a57634e487b7160e01b600052603260045260246000fd5b60209081029190910101528061397f8161572f565b9150506138cc565b601e546001600160a01b031633146139b15760405162461bcd60e51b81526004016111469061558d565b601754600160701b900460ff166139da5760405162461bcd60e51b8152600401611146906155bd565b6001600160a01b0382166000908152601d6020526040902054613b6e57601f54604051631ff9e19560e01b81526000916001600160a01b031690631ff9e19590613a2a9060049087908201615451565b602060405180830381600087803b158015613a4457600080fd5b505af1158015613a58573d6000803e3d6000fd5b505050506040513d601f19601f82011682018060405250810190613a7c9190615149565b601f54604051633d80733d60e01b81529192506000916001600160a01b0390911690633d80733d90613ab49060049088908201615451565b602060405180830381600087803b158015613ace57600080fd5b505af1158015613ae2573d6000803e3d6000fd5b505050506040513d601f19601f82011682018060405250810190613b069190615149565b6001600160a01b038516600090815260026020526040812060050180549293508492909190613b3690849061564f565b90915550506001600160a01b03841660009081526002602052604081206004018054839290613b6690849061564f565b909155505050505b601f5460405163d8a911d960e01b81526000916001600160a01b03169063d8a911d990613ba19060049087908201615451565b602060405180830381600087803b158015613bbb57600080fd5b505af1158015613bcf573d6000803e3d6000fd5b505050506040513d601f19601f82011682018060405250810190613bf39190615149565b82516001600160a01b0385166000908152601d6020526040812080549394509192613c1f90849061564f565b909155505080613c715760405162461bcd60e51b815260206004820152601c60248201527f4e6f6465547970653a204e6f7468696e6720746f206d696772617465000000006044820152606401611146565b6001600160a01b0383166000908152601d6020526040902054811015613ca95760405162461bcd60e51b81526004016111469061554b565b6000613cc6848451601760049054906101000a900460ff16614a8e565b9050613cf5848483601760099054906101000a900460ff166040518060200160405280600081525060006144fc565b50505050565b601e5460009081906001600160a01b03163314613d2a5760405162461bcd60e51b81526004016111469061558d565b6001600160a01b03841660009081526002602052604081208190815b8651811015613ef257816003016000888381518110613d7557634e487b7160e01b600052603260045260246000fd5b60209081029190910181015182528101919091526040016000205460ff16613deb5760405162461bcd60e51b815260206004820152602360248201527f4e6f6465547970653a205573657220646f65736e74206f776e2074686973206e6044820152626f646560e81b6064820152608401611146565b6000826001016000898481518110613e1357634e487b7160e01b600052603260045260246000fd5b602090810291909101810151825281810192909252604090810160009081208251610100808201855282546001600160a01b031682526001830154958201959095526002820154938101939093526003810154606084015260048101546080840152600581015460ff808216151560a0860152949004909316151560c083015260068301805493945090928392613eb6929091869160e0840191611052906156f4565b9092509050613ec5828861564f565b9650613ed1818761564f565b95504283600201819055505050508080613eea9061572f565b915050613d46565b5091969095509350505050565b3360009081526001602052604090205460ff16613f2e5760405162461bcd60e51b81526004016111469061551f565b6127108110613f985760405162461bcd60e51b815260206004820152603060248201527f4e6f6465547970653a20436c61696d2054617820526f69206d7573742062652060448201526f06c6f776572207468616e2031303030360841b6064820152608401611146565b600a55565b3360009081526001602052604090205460ff16613fcc5760405162461bcd60e51b81526004016111469061551f565b600b55565b3360009081526001602052604090205460ff166140005760405162461bcd60e51b81526004016111469061551f565b600081116140765760405162461bcd60e51b815260206004820152603860248201527f4e6f6465547970653a204e6f436c61696d54696d655265666572656e6365206d60448201527f7573742062652067726561746572207468616e207a65726f00000000000000006064820152608401611146565b601655565b3360009081526001602052604090205460ff166140aa5760405162461bcd60e51b81526004016111469061551f565b6000828152600360209081526040808320546001600160a01b03168352600282528083209483526001909401905291909120600501805460ff1916911515919091179055565b3360009081526001602052604090205460ff1661411f5760405162461bcd60e51b81526004016111469061551f565b60178054911515600160581b0260ff60581b19909216919091179055565b3360009081526001602052604090205460ff1661416c5760405162461bcd60e51b81526004016111469061551f565b60178054911515600160681b0260ff60681b19909216919091179055565b3360009081526001602052604090205460ff166141b95760405162461bcd60e51b81526004016111469061551f565b60178054911515600160501b0260ff60501b19909216919091179055565b3360009081526001602052604090205460ff166142065760405162461bcd60e51b81526004016111469061551f565b601780549115156401000000000264ff0000000019909216919091179055565b601e546001600160a01b031633146142505760405162461bcd60e51b81526004016111469061558d565b601754600160681b900460ff166142795760405162461bcd60e51b8152600401611146906155bd565b6000614296848451601760039054906101000a900460ff16614a8e565b9050613cf5848483601760089054906101000a900460ff168660006144fc565b6000806000806008548560400151426142cf919061569a565b6009546142dc919061567b565b6142e69190615667565b915060006012548660600151426142fd919061569a565b6143079190615667565b111561435d57612710601254866060015142614323919061569a565b61432d9190615667565b60135461433a919061567b565b6143469061271061564f565b614350908461567b565b61435a9190615667565b91505b60808501511561439357612710856080015161271061437c919061564f565b614386908461567b565b6143909190615667565b91505b8460a00151156143c7576127106010546127106143b0919061564f565b6143ba908461567b565b6143c49190615667565b91505b8460c00151156143fb576127106014546127106143e4919061564f565b6143ee908461567b565b6143f89190615667565b91505b600060198660e00151604051614411919061527b565b90815260200160405180910390205411156144705761271060198660e0015160405161443d919061527b565b908152602001604051809103902054612710614459919061564f565b614463908461567b565b61446d9190615667565b91505b6016546040860151614482904261569a565b111561449857601554614495908361564f565b91505b60075460085460208701516144ad904261569a565b6009546144ba919061567b565b6144c49190615667565b10156144e857612710600a54836144db919061567b565b6144e59190615667565b90505b6144f2818361569a565b9350915050915091565b600085511161454d5760405162461bcd60e51b815260206004820152601b60248201527f4e6f6465547970653a204e6f7468696e6720746f2063726561746500000000006044820152606401611146565b6001600160a01b0386166000908152601c602052604090205460ff166145d157601b805460018082019092557f3ad8aa4f87544323a9d1e5dd902f40c356527a7955687113db5f9a85ad579dc10180546001600160a01b0319166001600160a01b0389169081179091556000908152601c60205260409020805460ff191690911790555b60005b8551811015614718576000604051806101000160405280896001600160a01b0316815260200142815260200142815260200142815260200184815260200187848151811061463257634e487b7160e01b600052603260045260246000fd5b60200260200101511515815260200186151581526020018581525090506146a5600260008a6001600160a01b03166001600160a01b0316815260200190815260200160002088848151811061469757634e487b7160e01b600052603260045260246000fd5b60200260200101518361476e565b87600360008985815181106146ca57634e487b7160e01b600052603260045260246000fd5b6020026020010151815260200190815260200160002060006101000a8154816001600160a01b0302191690836001600160a01b031602179055505080806147109061572f565b9150506145d4565b508451601a8360405161472b919061527b565b90815260200160405180910390206000828254614748919061564f565b909155505084516005805460009061476190849061564f565b9091555050505050505050565b600082815260038401602052604090205460ff161561483557600082815260018481016020908152604092839020845181546001600160a01b0319166001600160a01b039091161781558482015192810192909255918301516002820155606083015160038201556080830151600482015560a083015160058201805460c086015160ff199091169215159290921761ff0019166101009215159290920291909117905560e08301518051849361482c926006850192910190614bfb565b50905050611bfd565b60008281526003848101602090815260408084208054600160ff199182168117909255818901845294829020865181546001600160a01b0319166001600160a01b0390911617815586840151918101919091559085015160028201556060850151928101929092556080840151600483015560a084015160058301805460c087015195169115159190911761ff001916610100941515949094029390931790925560e0830151805184936148f0926006850192910190614bfb565b5050835460008481526002860160209081526040822083905560018301875586825290200183905550505050565b600081815260038301602052604090205460ff1661493b57612266565b6000818152600380840160209081526040808420805460ff191690556001808701909252832080546001600160a01b0319168155908101839055600281018390559081018290556004810182905560058101805461ffff19169055906149a46006830182614cd1565b5050600081815260028301602052604081205483549091906149c89060019061569a565b905060008460000182815481106149ef57634e487b7160e01b600052603260045260246000fd5b60009182526020808320909101548083526002880190915260408083208690558683528220919091559050818314614a525780856000018481548110614a4557634e487b7160e01b600052603260045260246000fd5b6000918252602090912001555b8454859080614a7157634e487b7160e01b600052603160045260246000fd5b600190038181906000526020600020016000905590555050505050565b60606000836001600160401b03811115614ab857634e487b7160e01b600052604160045260246000fd5b604051908082528060200260200182016040528015614ae1578160200160208202803683370190505b50905060005b84811015614b8a578315614b4557601154614b0187614b93565b10614b0d576000614b10565b60015b828281518110614b3057634e487b7160e01b600052603260045260246000fd5b91151560209283029190910190910152614b78565b6000828281518110614b6757634e487b7160e01b600052603260045260246000fd5b911515602092830291909101909101525b80614b828161572f565b915050614ae7565b50949350505050565b6040516bffffffffffffffffffffffff19606083811b8216602084015233901b166034820152446048820152426068820152600090819060880160408051601f19818403018152919052805160209182012081546001019091559050612e816127108261574a565b828054614c07906156f4565b90600052602060002090601f016020900481019282614c295760008555614c6f565b82601f10614c4257805160ff1916838001178555614c6f565b82800160010185558215614c6f579182015b82811115614c6f578251825591602001919060010190614c54565b50614c7b929150614d10565b5090565b60405180610100016040528060006001600160a01b0316815260200160008152602001600081526020016000815260200160008152602001600015158152602001600015158152602001606081525090565b508054614cdd906156f4565b6000825580601f10614cef5750614d0d565b601f016020900490600052602060002090810190614d0d9190614d10565b50565b5b80821115614c7b5760008155600101614d11565b80356001600160a01b0381168114611ea857600080fd5b600082601f830112614d4c578081fd5b81356020614d61614d5c8361562c565b6155fc565b8281528181019085830183850287018401881015614d7d578586fd5b855b85811015614d9b57813584529284019290840190600101614d7f565b5090979650505050505050565b80358015158114611ea857600080fd5b600082601f830112614dc8578081fd5b81356001600160401b03811115614de157614de161578a565b614df4601f8201601f19166020016155fc565b818152846020838601011115614e08578283fd5b816020850160208301379081016020019190915292915050565b600060208284031215614e33578081fd5b612e8182614d25565b600080600060608486031215614e50578182fd5b614e5984614d25565b9250614e6760208501614d25565b9150604084013590509250925092565b60008060408385031215614e89578182fd5b614e9283614d25565b915060208301356001600160401b03811115614eac578182fd5b614eb885828601614d3c565b9150509250929050565b600080600060608486031215614ed6578283fd5b614edf84614d25565b925060208401356001600160401b0380821115614efa578384fd5b614f0687838801614d3c565b93506040860135915080821115614f1b578283fd5b50614f2886828701614db8565b9150509250925092565b60008060408385031215614f44578182fd5b614f4d83614d25565b9150614f5b60208401614da8565b90509250929050565b60008060008060008060c08789031215614f7c578182fd5b614f8587614d25565b9550602080880135955060408801356001600160401b0380821115614fa8578485fd5b614fb48b838c01614d3c565b965060608a0135915080821115614fc9578485fd5b818a0191508a601f830112614fdc578485fd5b8135614fea614d5c8261562c565b81815284810190848601868402860187018f1015615006578889fd5b8895505b8386101561502f5761501b81614da8565b83526001959095019491860191860161500a565b50975061504191505060808b01614da8565b945060a08a0135925080831115615056578384fd5b505061506489828a01614db8565b9150509295509295509295565b600080600060608486031215615085578283fd5b61508e84614d25565b95602085013595506040909401359392505050565b6000602082840312156150b4578081fd5b612e8182614da8565b6000602082840312156150ce578081fd5b81356001600160401b038111156150e3578182fd5b61277384828501614db8565b60008060408385031215615101578182fd5b82356001600160401b03811115615116578283fd5b61512285828601614db8565b95602094909401359450505050565b600060208284031215615142578081fd5b5035919050565b60006020828403121561515a578081fd5b5051919050565b60008060408385031215615173578182fd5b82359150614f5b60208401614da8565b60008060408385031215615195578182fd5b8235915060208301356001600160401b038111156151b1578182fd5b614eb885828601614db8565b600080604083850312156151cf578182fd5b50508035926020909101359150565b600081518084526151f68160208601602086016156b1565b601f01601f19169290920160200192915050565b600061010060018060a01b0383511684526020830151602085015260408301516040850152606083015160608501526080830151608085015260a0830151151560a085015260c0830151151560c085015260e08301518160e0860152615272828601826151de565b95945050505050565b6000825161528d8184602087016156b1565b9190910192915050565b60008083546152a5816156f4565b600182811680156152bd57600181146152ce576152fa565b60ff198416875282870194506152fa565b8786526020808720875b858110156152f15781548a8201529084019082016152d8565b50505082870194505b50929695505050505050565b6020808252825182820181905260009190848201906040850190845b818110156153475783516001600160a01b031683529284019291840191600101615322565b50909695505050505050565b6000602080830181845280855180835260408601915060408482028701019250838701855b828110156153a657603f198886030184526153948583516151de565b94509285019290850190600101615378565b5092979650505050505050565b6000602080830181845280855180835260408601915060408482028701019250838701855b828110156153a657603f198886030184526153f485835161520a565b945092850192908501906001016153d8565b6020808252825182820181905260009190848201906040850190845b8181101561534757835183529284019291840191600101615422565b600060208252612e8160208301846151de565b600060408252808454615463816156f4565b80604086015260606001808416600081146154855760018114615499576154c7565b60ff198516888401526080880195506154c7565b8987526020808820885b868110156154be5781548b82018701529084019082016154a3565b8a018501975050505b505050506001600160a01b0394909416602093909301929092525092915050565b6020808252601e908201527f4e6f6465547970653a204665617475726520646f65736e742065786973740000604082015260600190565b60208082526012908201527127bbb732b9399d1027b7363c9027bbb732b960711b604082015260600190565b60208082526022908201527f4e6f6465547970653a20546f6f206d616e79206e6f6465732072657175657374604082015261195960f21b606082015260800190565b6020808252601690820152752737b232aa3cb8329d1027b7363c902430b7323632b960511b604082015260600190565b6020808252601290820152712737b232aa3cb8329d102737ba1037b832b760711b604082015260600190565b600060208252612e81602083018461520a565b604051601f8201601f191681016001600160401b03811182821017156156245761562461578a565b604052919050565b60006001600160401b038211156156455761564561578a565b5060209081020190565b600082198211156156625761566261575e565b500190565b60008261567657615676615774565b500490565b60008160001904831182151516156156955761569561575e565b500290565b6000828210156156ac576156ac61575e565b500390565b60005b838110156156cc5781810151838201526020016156b4565b83811115613cf55750506000910152565b6000816156ec576156ec61575e565b506000190190565b60028104600182168061570857607f821691505b6020821081141561572957634e487b7160e01b600052602260045260246000fd5b50919050565b60006000198214156157435761574361575e565b5060010190565b60008261575957615759615774565b500690565b634e487b7160e01b600052601160045260246000fd5b634e487b7160e01b600052601260045260246000fd5b634e487b7160e01b600052604160045260246000fdfea2646970667358221220aca6c643b746b156c25e000154f08e00b65c862ee191f895d297d87bfaf0ac3964736f6c63430008020033",
  "linkReferences": {},
  "deployedLinkReferences": {}
}