{
  "_format": "hh-sol-artifact-1",
  "contractName": "NodeType",
  "sourceName": "contracts/NodeType.sol",
  "abi": [
    {
      "inputs": [
        {
          "internalType": "string",
          "name": "_name",
          "type": "string"
        },
        {
          "internalType": "uint256[]",
          "name": "values",
          "type": "uint256[]"
        },
        {
          "internalType": "address",
          "name": "_handler",
          "type": "address"
        },
        {
          "internalType": "address",
          "name": "_old",
          "type": "address"
        }
      ],
      "stateMutability": "nonpayable",
      "type": "constructor"
    },
    {
      "inputs": [
        {
          "internalType": "string",
          "name": "_name",
          "type": "string"
        },
        {
          "internalType": "uint256",
          "name": "_rate",
          "type": "uint256"
        }
      ],
      "name": "addFeature",
      "outputs": [],
      "stateMutability": "nonpayable",
      "type": "function"
    },
    {
      "inputs": [
        {
          "internalType": "address",
          "name": "_new",
          "type": "address"
        },
        {
          "internalType": "bool",
          "name": "_change",
          "type": "bool"
        }
      ],
      "name": "addOwner",
      "outputs": [],
      "stateMutability": "nonpayable",
      "type": "function"
    },
    {
      "inputs": [
        {
          "internalType": "address",
          "name": "from",
          "type": "address"
        },
        {
          "internalType": "uint256[]",
          "name": "tokenIds",
          "type": "uint256[]"
        }
      ],
      "name": "burnFrom",
      "outputs": [
        {
          "internalType": "uint256",
          "name": "",
          "type": "uint256"
        }
      ],
      "stateMutability": "nonpayable",
      "type": "function"
    },
    {
      "inputs": [
        {
          "internalType": "address",
          "name": "user",
          "type": "address"
        }
      ],
      "name": "calculateUserRewards",
      "outputs": [
        {
          "internalType": "uint256",
          "name": "",
          "type": "uint256"
        },
        {
          "internalType": "uint256",
          "name": "",
          "type": "uint256"
        }
      ],
      "stateMutability": "view",
      "type": "function"
    },
    {
      "inputs": [
        {
          "internalType": "address",
          "name": "user",
          "type": "address"
        },
        {
          "internalType": "uint256[]",
          "name": "tokenIds",
          "type": "uint256[]"
        }
      ],
      "name": "calculateUserRewardsBatch",
      "outputs": [
        {
          "internalType": "uint256[]",
          "name": "",
          "type": "uint256[]"
        },
        {
          "internalType": "uint256[]",
          "name": "",
          "type": "uint256[]"
        }
      ],
      "stateMutability": "view",
      "type": "function"
    },
    {
      "inputs": [],
      "name": "canBeBoostedNftLevelUp",
      "outputs": [
        {
          "internalType": "bool",
          "name": "",
          "type": "bool"
        }
      ],
      "stateMutability": "view",
      "type": "function"
    },
    {
      "inputs": [],
      "name": "canBeBoostedNftLucky",
      "outputs": [
        {
          "internalType": "bool",
          "name": "",
          "type": "bool"
        }
      ],
      "stateMutability": "view",
      "type": "function"
    },
    {
      "inputs": [],
      "name": "canBeBoostedNftMigration",
      "outputs": [
        {
          "internalType": "bool",
          "name": "",
          "type": "bool"
        }
      ],
      "stateMutability": "view",
      "type": "function"
    },
    {
      "inputs": [],
      "name": "canBeBoostedNftPending",
      "outputs": [
        {
          "internalType": "bool",
          "name": "",
          "type": "bool"
        }
      ],
      "stateMutability": "view",
      "type": "function"
    },
    {
      "inputs": [],
      "name": "canBeBoostedNftToken",
      "outputs": [
        {
          "internalType": "bool",
          "name": "",
          "type": "bool"
        }
      ],
      "stateMutability": "view",
      "type": "function"
    },
    {
      "inputs": [
        {
          "internalType": "address",
          "name": "user",
          "type": "address"
        }
      ],
      "name": "claimRewardsAll",
      "outputs": [
        {
          "internalType": "uint256",
          "name": "",
          "type": "uint256"
        },
        {
          "internalType": "uint256",
          "name": "",
          "type": "uint256"
        }
      ],
      "stateMutability": "nonpayable",
      "type": "function"
    },
    {
      "inputs": [
        {
          "internalType": "address",
          "name": "user",
          "type": "address"
        },
        {
          "internalType": "uint256[]",
          "name": "tokenIds",
          "type": "uint256[]"
        }
      ],
      "name": "claimRewardsBatch",
      "outputs": [
        {
          "internalType": "uint256",
          "name": "",
          "type": "uint256"
        },
        {
          "internalType": "uint256",
          "name": "",
          "type": "uint256"
        }
      ],
      "stateMutability": "nonpayable",
      "type": "function"
    },
    {
      "inputs": [],
      "name": "claimTaxRoi",
      "outputs": [
        {
          "internalType": "uint256",
          "name": "",
          "type": "uint256"
        }
      ],
      "stateMutability": "view",
      "type": "function"
    },
    {
      "inputs": [],
      "name": "claimTime",
      "outputs": [
        {
          "internalType": "uint256",
          "name": "",
          "type": "uint256"
        }
      ],
      "stateMutability": "view",
      "type": "function"
    },
    {
      "inputs": [],
      "name": "claimTimeRate",
      "outputs": [
        {
          "internalType": "uint256",
          "name": "",
          "type": "uint256"
        }
      ],
      "stateMutability": "view",
      "type": "function"
    },
    {
      "inputs": [],
      "name": "claimTimeReference",
      "outputs": [
        {
          "internalType": "uint256",
          "name": "",
          "type": "uint256"
        }
      ],
      "stateMutability": "view",
      "type": "function"
    },
    {
      "inputs": [
        {
          "internalType": "address",
          "name": "user",
          "type": "address"
        },
        {
          "internalType": "uint256",
          "name": "isBoostedAirDropRate",
          "type": "uint256"
        },
        {
          "internalType": "uint256[]",
          "name": "tokenIds",
          "type": "uint256[]"
        },
        {
          "internalType": "bool[]",
          "name": "areBoostedNft",
          "type": "bool[]"
        },
        {
          "internalType": "bool",
          "name": "isBoostedToken",
          "type": "bool"
        },
        {
          "internalType": "string",
          "name": "feature",
          "type": "string"
        }
      ],
      "name": "createNodeCustom",
      "outputs": [],
      "stateMutability": "nonpayable",
      "type": "function"
    },
    {
      "inputs": [
        {
          "internalType": "address",
          "name": "user",
          "type": "address"
        },
        {
          "internalType": "uint256[]",
          "name": "tokenIds",
          "type": "uint256[]"
        },
        {
          "internalType": "string",
          "name": "feature",
          "type": "string"
        }
      ],
      "name": "createNodeWithLuckyBox",
      "outputs": [],
      "stateMutability": "nonpayable",
      "type": "function"
    },
    {
      "inputs": [
        {
          "internalType": "address",
          "name": "user",
          "type": "address"
        },
        {
          "internalType": "uint256[]",
          "name": "tokenIds",
          "type": "uint256[]"
        }
      ],
      "name": "createNodesLevelUp",
      "outputs": [
        {
          "internalType": "uint256",
          "name": "",
          "type": "uint256"
        }
      ],
      "stateMutability": "nonpayable",
      "type": "function"
    },
    {
      "inputs": [
        {
          "internalType": "address",
          "name": "user",
          "type": "address"
        },
        {
          "internalType": "uint256[]",
          "name": "tokenIds",
          "type": "uint256[]"
        }
      ],
      "name": "createNodesMigration",
      "outputs": [],
      "stateMutability": "nonpayable",
      "type": "function"
    },
    {
      "inputs": [
        {
          "internalType": "address",
          "name": "user",
          "type": "address"
        },
        {
          "internalType": "uint256[]",
          "name": "tokenIds",
          "type": "uint256[]"
        }
      ],
      "name": "createNodesWithPendings",
      "outputs": [
        {
          "internalType": "uint256",
          "name": "",
          "type": "uint256"
        }
      ],
      "stateMutability": "nonpayable",
      "type": "function"
    },
    {
      "inputs": [
        {
          "internalType": "address",
          "name": "user",
          "type": "address"
        },
        {
          "internalType": "uint256[]",
          "name": "tokenIds",
          "type": "uint256[]"
        }
      ],
      "name": "createNodesWithTokens",
      "outputs": [
        {
          "internalType": "uint256",
          "name": "",
          "type": "uint256"
        }
      ],
      "stateMutability": "nonpayable",
      "type": "function"
    },
    {
      "inputs": [
        {
          "internalType": "string",
          "name": "",
          "type": "string"
        }
      ],
      "name": "featureCount",
      "outputs": [
        {
          "internalType": "uint256",
          "name": "",
          "type": "uint256"
        }
      ],
      "stateMutability": "view",
      "type": "function"
    },
    {
      "inputs": [
        {
          "internalType": "string",
          "name": "",
          "type": "string"
        }
      ],
      "name": "featureToBoostRate",
      "outputs": [
        {
          "internalType": "uint256",
          "name": "",
          "type": "uint256"
        }
      ],
      "stateMutability": "view",
      "type": "function"
    },
    {
      "inputs": [
        {
          "internalType": "uint256",
          "name": "iStart",
          "type": "uint256"
        },
        {
          "internalType": "uint256",
          "name": "iEnd",
          "type": "uint256"
        }
      ],
      "name": "getFeaturesBetweenIndexes",
      "outputs": [
        {
          "internalType": "string[]",
          "name": "",
          "type": "string[]"
        }
      ],
      "stateMutability": "view",
      "type": "function"
    },
    {
      "inputs": [],
      "name": "getFeaturesSize",
      "outputs": [
        {
          "internalType": "uint256",
          "name": "",
          "type": "uint256"
        }
      ],
      "stateMutability": "view",
      "type": "function"
    },
    {
      "inputs": [
        {
          "internalType": "uint256",
          "name": "tokenId",
          "type": "uint256"
        }
      ],
      "name": "getNodeFromTokenId",
      "outputs": [
        {
          "components": [
            {
              "internalType": "address",
              "name": "owner",
              "type": "address"
            },
            {
              "internalType": "uint256",
              "name": "creationTime",
              "type": "uint256"
            },
            {
              "internalType": "uint256",
              "name": "lastClaimTime",
              "type": "uint256"
            },
            {
              "internalType": "uint256",
              "name": "obtainingTime",
              "type": "uint256"
            },
            {
              "internalType": "uint256",
              "name": "isBoostedAirDropRate",
              "type": "uint256"
            },
            {
              "internalType": "bool",
              "name": "isBoostedNft",
              "type": "bool"
            },
            {
              "internalType": "bool",
              "name": "isBoostedToken",
              "type": "bool"
            },
            {
              "internalType": "string",
              "name": "feature",
              "type": "string"
            }
          ],
          "internalType": "struct NodeType.Node",
          "name": "",
          "type": "tuple"
        }
      ],
      "stateMutability": "view",
      "type": "function"
    },
    {
      "inputs": [
        {
          "internalType": "uint256",
          "name": "iStart",
          "type": "uint256"
        },
        {
          "internalType": "uint256",
          "name": "iEnd",
          "type": "uint256"
        }
      ],
      "name": "getNodeOwnersBetweenIndexes",
      "outputs": [
        {
          "internalType": "address[]",
          "name": "",
          "type": "address[]"
        }
      ],
      "stateMutability": "view",
      "type": "function"
    },
    {
      "inputs": [],
      "name": "getNodeOwnersSize",
      "outputs": [
        {
          "internalType": "uint256",
          "name": "",
          "type": "uint256"
        }
      ],
      "stateMutability": "view",
      "type": "function"
    },
    {
      "inputs": [
        {
          "internalType": "address",
          "name": "user",
          "type": "address"
        }
      ],
      "name": "getNodesCountLevelUpOf",
      "outputs": [
        {
          "internalType": "uint256",
          "name": "",
          "type": "uint256"
        }
      ],
      "stateMutability": "view",
      "type": "function"
    },
    {
      "inputs": [
        {
          "internalType": "address",
          "name": "user",
          "type": "address"
        }
      ],
      "name": "getNodesCountPendingOf",
      "outputs": [
        {
          "internalType": "uint256",
          "name": "",
          "type": "uint256"
        }
      ],
      "stateMutability": "view",
      "type": "function"
    },
    {
      "inputs": [
        {
          "internalType": "address",
          "name": "user",
          "type": "address"
        },
        {
          "internalType": "uint256",
          "name": "iStart",
          "type": "uint256"
        },
        {
          "internalType": "uint256",
          "name": "iEnd",
          "type": "uint256"
        }
      ],
      "name": "getNodesOfBetweenIndexes",
      "outputs": [
        {
          "components": [
            {
              "internalType": "address",
              "name": "owner",
              "type": "address"
            },
            {
              "internalType": "uint256",
              "name": "creationTime",
              "type": "uint256"
            },
            {
              "internalType": "uint256",
              "name": "lastClaimTime",
              "type": "uint256"
            },
            {
              "internalType": "uint256",
              "name": "obtainingTime",
              "type": "uint256"
            },
            {
              "internalType": "uint256",
              "name": "isBoostedAirDropRate",
              "type": "uint256"
            },
            {
              "internalType": "bool",
              "name": "isBoostedNft",
              "type": "bool"
            },
            {
              "internalType": "bool",
              "name": "isBoostedToken",
              "type": "bool"
            },
            {
              "internalType": "string",
              "name": "feature",
              "type": "string"
            }
          ],
          "internalType": "struct NodeType.Node[]",
          "name": "",
          "type": "tuple[]"
        }
      ],
      "stateMutability": "view",
      "type": "function"
    },
    {
      "inputs": [],
      "name": "getOwnersSize",
      "outputs": [
        {
          "internalType": "uint256",
          "name": "",
          "type": "uint256"
        }
      ],
      "stateMutability": "view",
      "type": "function"
    },
    {
      "inputs": [
        {
          "internalType": "address",
          "name": "user",
          "type": "address"
        },
        {
          "internalType": "uint256",
          "name": "iStart",
          "type": "uint256"
        },
        {
          "internalType": "uint256",
          "name": "iEnd",
          "type": "uint256"
        }
      ],
      "name": "getTimeRoiOfBetweenIndexes",
      "outputs": [
        {
          "internalType": "uint256[]",
          "name": "",
          "type": "uint256[]"
        }
      ],
      "stateMutability": "view",
      "type": "function"
    },
    {
      "inputs": [
        {
          "internalType": "address",
          "name": "user",
          "type": "address"
        },
        {
          "internalType": "uint256",
          "name": "iStart",
          "type": "uint256"
        },
        {
          "internalType": "uint256",
          "name": "iEnd",
          "type": "uint256"
        }
      ],
      "name": "getTokenIdsOfBetweenIndexes",
      "outputs": [
        {
          "internalType": "uint256[]",
          "name": "",
          "type": "uint256[]"
        }
      ],
      "stateMutability": "view",
      "type": "function"
    },
    {
      "inputs": [
        {
          "internalType": "address",
          "name": "user",
          "type": "address"
        }
      ],
      "name": "getTotalNodesNumberOf",
      "outputs": [
        {
          "internalType": "uint256",
          "name": "",
          "type": "uint256"
        }
      ],
      "stateMutability": "view",
      "type": "function"
    },
    {
      "inputs": [],
      "name": "globalTax",
      "outputs": [
        {
          "internalType": "uint256",
          "name": "",
          "type": "uint256"
        }
      ],
      "stateMutability": "view",
      "type": "function"
    },
    {
      "inputs": [],
      "name": "handler",
      "outputs": [
        {
          "internalType": "address",
          "name": "",
          "type": "address"
        }
      ],
      "stateMutability": "view",
      "type": "function"
    },
    {
      "inputs": [],
      "name": "isBoostedNftProbability",
      "outputs": [
        {
          "internalType": "uint256",
          "name": "",
          "type": "uint256"
        }
      ],
      "stateMutability": "view",
      "type": "function"
    },
    {
      "inputs": [],
      "name": "isBoostedNftRate",
      "outputs": [
        {
          "internalType": "uint256",
          "name": "",
          "type": "uint256"
        }
      ],
      "stateMutability": "view",
      "type": "function"
    },
    {
      "inputs": [],
      "name": "isBoostedTokenLevelUp",
      "outputs": [
        {
          "internalType": "bool",
          "name": "",
          "type": "bool"
        }
      ],
      "stateMutability": "view",
      "type": "function"
    },
    {
      "inputs": [],
      "name": "isBoostedTokenLucky",
      "outputs": [
        {
          "internalType": "bool",
          "name": "",
          "type": "bool"
        }
      ],
      "stateMutability": "view",
      "type": "function"
    },
    {
      "inputs": [],
      "name": "isBoostedTokenMigration",
      "outputs": [
        {
          "internalType": "bool",
          "name": "",
          "type": "bool"
        }
      ],
      "stateMutability": "view",
      "type": "function"
    },
    {
      "inputs": [],
      "name": "isBoostedTokenPending",
      "outputs": [
        {
          "internalType": "bool",
          "name": "",
          "type": "bool"
        }
      ],
      "stateMutability": "view",
      "type": "function"
    },
    {
      "inputs": [],
      "name": "isBoostedTokenRate",
      "outputs": [
        {
          "internalType": "uint256",
          "name": "",
          "type": "uint256"
        }
      ],
      "stateMutability": "view",
      "type": "function"
    },
    {
      "inputs": [],
      "name": "isBoostedTokenToken",
      "outputs": [
        {
          "internalType": "bool",
          "name": "",
          "type": "bool"
        }
      ],
      "stateMutability": "view",
      "type": "function"
    },
    {
      "inputs": [
        {
          "internalType": "address",
          "name": "",
          "type": "address"
        }
      ],
      "name": "isOwner",
      "outputs": [
        {
          "internalType": "bool",
          "name": "",
          "type": "bool"
        }
      ],
      "stateMutability": "view",
      "type": "function"
    },
    {
      "inputs": [],
      "name": "maxCount",
      "outputs": [
        {
          "internalType": "uint256",
          "name": "",
          "type": "uint256"
        }
      ],
      "stateMutability": "view",
      "type": "function"
    },
    {
      "inputs": [],
      "name": "maxCreationPendingTotal",
      "outputs": [
        {
          "internalType": "uint256",
          "name": "",
          "type": "uint256"
        }
      ],
      "stateMutability": "view",
      "type": "function"
    },
    {
      "inputs": [],
      "name": "maxCreationPendingUser",
      "outputs": [
        {
          "internalType": "uint256",
          "name": "",
          "type": "uint256"
        }
      ],
      "stateMutability": "view",
      "type": "function"
    },
    {
      "inputs": [],
      "name": "maxLevelUpTotal",
      "outputs": [
        {
          "internalType": "uint256",
          "name": "",
          "type": "uint256"
        }
      ],
      "stateMutability": "view",
      "type": "function"
    },
    {
      "inputs": [],
      "name": "maxLevelUpUser",
      "outputs": [
        {
          "internalType": "uint256",
          "name": "",
          "type": "uint256"
        }
      ],
      "stateMutability": "view",
      "type": "function"
    },
    {
      "inputs": [],
      "name": "maxMultiClaim",
      "outputs": [
        {
          "internalType": "uint256",
          "name": "",
          "type": "uint256"
        }
      ],
      "stateMutability": "view",
      "type": "function"
    },
    {
      "inputs": [],
      "name": "maxMultiObtaining",
      "outputs": [
        {
          "internalType": "uint256",
          "name": "",
          "type": "uint256"
        }
      ],
      "stateMutability": "view",
      "type": "function"
    },
    {
      "inputs": [],
      "name": "maxUser",
      "outputs": [
        {
          "internalType": "uint256",
          "name": "",
          "type": "uint256"
        }
      ],
      "stateMutability": "view",
      "type": "function"
    },
    {
      "inputs": [],
      "name": "name",
      "outputs": [
        {
          "internalType": "string",
          "name": "",
          "type": "string"
        }
      ],
      "stateMutability": "view",
      "type": "function"
    },
    {
      "inputs": [],
      "name": "noClaimRewardAmount",
      "outputs": [
        {
          "internalType": "uint256",
          "name": "",
          "type": "uint256"
        }
      ],
      "stateMutability": "view",
      "type": "function"
    },
    {
      "inputs": [],
      "name": "noClaimTimeReference",
      "outputs": [
        {
          "internalType": "uint256",
          "name": "",
          "type": "uint256"
        }
      ],
      "stateMutability": "view",
      "type": "function"
    },
    {
      "inputs": [
        {
          "internalType": "uint256",
          "name": "",
          "type": "uint256"
        }
      ],
      "name": "nodeOwners",
      "outputs": [
        {
          "internalType": "address",
          "name": "",
          "type": "address"
        }
      ],
      "stateMutability": "view",
      "type": "function"
    },
    {
      "inputs": [
        {
          "internalType": "address",
          "name": "",
          "type": "address"
        }
      ],
      "name": "nodeOwnersInserted",
      "outputs": [
        {
          "internalType": "bool",
          "name": "",
          "type": "bool"
        }
      ],
      "stateMutability": "view",
      "type": "function"
    },
    {
      "inputs": [],
      "name": "obtainingTimeRate",
      "outputs": [
        {
          "internalType": "uint256",
          "name": "",
          "type": "uint256"
        }
      ],
      "stateMutability": "view",
      "type": "function"
    },
    {
      "inputs": [],
      "name": "obtainingTimeReference",
      "outputs": [
        {
          "internalType": "uint256",
          "name": "",
          "type": "uint256"
        }
      ],
      "stateMutability": "view",
      "type": "function"
    },
    {
      "inputs": [],
      "name": "old",
      "outputs": [
        {
          "internalType": "address",
          "name": "",
          "type": "address"
        }
      ],
      "stateMutability": "view",
      "type": "function"
    },
    {
      "inputs": [],
      "name": "openCreateNodesLevelUp",
      "outputs": [
        {
          "internalType": "bool",
          "name": "",
          "type": "bool"
        }
      ],
      "stateMutability": "view",
      "type": "function"
    },
    {
      "inputs": [],
      "name": "openCreateNodesMigration",
      "outputs": [
        {
          "internalType": "bool",
          "name": "",
          "type": "bool"
        }
      ],
      "stateMutability": "view",
      "type": "function"
    },
    {
      "inputs": [],
      "name": "openCreateNodesWithLuckyBoxes",
      "outputs": [
        {
          "internalType": "bool",
          "name": "",
          "type": "bool"
        }
      ],
      "stateMutability": "view",
      "type": "function"
    },
    {
      "inputs": [],
      "name": "openCreateNodesWithPending",
      "outputs": [
        {
          "internalType": "bool",
          "name": "",
          "type": "bool"
        }
      ],
      "stateMutability": "view",
      "type": "function"
    },
    {
      "inputs": [],
      "name": "openCreateNodesWithTokens",
      "outputs": [
        {
          "internalType": "bool",
          "name": "",
          "type": "bool"
        }
      ],
      "stateMutability": "view",
      "type": "function"
    },
    {
      "inputs": [
        {
          "internalType": "uint256",
          "name": "",
          "type": "uint256"
        }
      ],
      "name": "owners",
      "outputs": [
        {
          "internalType": "address",
          "name": "",
          "type": "address"
        }
      ],
      "stateMutability": "view",
      "type": "function"
    },
    {
      "inputs": [
        {
          "internalType": "address",
          "name": "",
          "type": "address"
        }
      ],
      "name": "ownersMigrated",
      "outputs": [
        {
          "internalType": "uint256",
          "name": "",
          "type": "uint256"
        }
      ],
      "stateMutability": "view",
      "type": "function"
    },
    {
      "inputs": [],
      "name": "price",
      "outputs": [
        {
          "internalType": "uint256",
          "name": "",
          "type": "uint256"
        }
      ],
      "stateMutability": "view",
      "type": "function"
    },
    {
      "inputs": [
        {
          "internalType": "address",
          "name": "_new",
          "type": "address"
        }
      ],
      "name": "removeOwner",
      "outputs": [],
      "stateMutability": "nonpayable",
      "type": "function"
    },
    {
      "inputs": [],
      "name": "rewardAmount",
      "outputs": [
        {
          "internalType": "uint256",
          "name": "",
          "type": "uint256"
        }
      ],
      "stateMutability": "view",
      "type": "function"
    },
    {
      "inputs": [
        {
          "internalType": "bool",
          "name": "_new",
          "type": "bool"
        }
      ],
      "name": "setCanBeBoostedNftLevelUp",
      "outputs": [],
      "stateMutability": "nonpayable",
      "type": "function"
    },
    {
      "inputs": [
        {
          "internalType": "bool",
          "name": "_new",
          "type": "bool"
        }
      ],
      "name": "setCanBeBoostedNftLucky",
      "outputs": [],
      "stateMutability": "nonpayable",
      "type": "function"
    },
    {
      "inputs": [
        {
          "internalType": "bool",
          "name": "_new",
          "type": "bool"
        }
      ],
      "name": "setCanBeBoostedNftMigration",
      "outputs": [],
      "stateMutability": "nonpayable",
      "type": "function"
    },
    {
      "inputs": [
        {
          "internalType": "bool",
          "name": "_new",
          "type": "bool"
        }
      ],
      "name": "setCanBeBoostedNftPending",
      "outputs": [],
      "stateMutability": "nonpayable",
      "type": "function"
    },
    {
      "inputs": [
        {
          "internalType": "bool",
          "name": "_new",
          "type": "bool"
        }
      ],
      "name": "setCanBeBoostedNftToken",
      "outputs": [],
      "stateMutability": "nonpayable",
      "type": "function"
    },
    {
      "inputs": [
        {
          "internalType": "uint256",
          "name": "_new",
          "type": "uint256"
        }
      ],
      "name": "setClaimTaxRoi",
      "outputs": [],
      "stateMutability": "nonpayable",
      "type": "function"
    },
    {
      "inputs": [
        {
          "internalType": "uint256",
          "name": "_new",
          "type": "uint256"
        }
      ],
      "name": "setClaimTime",
      "outputs": [],
      "stateMutability": "nonpayable",
      "type": "function"
    },
    {
      "inputs": [
        {
          "internalType": "uint256",
          "name": "_new",
          "type": "uint256"
        }
      ],
      "name": "setClaimTimeRate",
      "outputs": [],
      "stateMutability": "nonpayable",
      "type": "function"
    },
    {
      "inputs": [
        {
          "internalType": "uint256",
          "name": "_new",
          "type": "uint256"
        }
      ],
      "name": "setClaimTimeReference",
      "outputs": [],
      "stateMutability": "nonpayable",
      "type": "function"
    },
    {
      "inputs": [
        {
          "internalType": "uint256",
          "name": "_new",
          "type": "uint256"
        }
      ],
      "name": "setGlobalTax",
      "outputs": [],
      "stateMutability": "nonpayable",
      "type": "function"
    },
    {
      "inputs": [
        {
          "internalType": "address",
          "name": "_new",
          "type": "address"
        }
      ],
      "name": "setHandler",
      "outputs": [],
      "stateMutability": "nonpayable",
      "type": "function"
    },
    {
      "inputs": [
        {
          "internalType": "uint256",
          "name": "_new",
          "type": "uint256"
        }
      ],
      "name": "setIsBoostedNftProbability",
      "outputs": [],
      "stateMutability": "nonpayable",
      "type": "function"
    },
    {
      "inputs": [
        {
          "internalType": "uint256",
          "name": "_new",
          "type": "uint256"
        }
      ],
      "name": "setIsBoostedNftRate",
      "outputs": [],
      "stateMutability": "nonpayable",
      "type": "function"
    },
    {
      "inputs": [
        {
          "internalType": "bool",
          "name": "_new",
          "type": "bool"
        }
      ],
      "name": "setIsBoostedTokenLevelUp",
      "outputs": [],
      "stateMutability": "nonpayable",
      "type": "function"
    },
    {
      "inputs": [
        {
          "internalType": "bool",
          "name": "_new",
          "type": "bool"
        }
      ],
      "name": "setIsBoostedTokenLucky",
      "outputs": [],
      "stateMutability": "nonpayable",
      "type": "function"
    },
    {
      "inputs": [
        {
          "internalType": "bool",
          "name": "_new",
          "type": "bool"
        }
      ],
      "name": "setIsBoostedTokenMigration",
      "outputs": [],
      "stateMutability": "nonpayable",
      "type": "function"
    },
    {
      "inputs": [
        {
          "internalType": "bool",
          "name": "_new",
          "type": "bool"
        }
      ],
      "name": "setIsBoostedTokenPending",
      "outputs": [],
      "stateMutability": "nonpayable",
      "type": "function"
    },
    {
      "inputs": [
        {
          "internalType": "uint256",
          "name": "_new",
          "type": "uint256"
        }
      ],
      "name": "setIsBoostedTokenRate",
      "outputs": [],
      "stateMutability": "nonpayable",
      "type": "function"
    },
    {
      "inputs": [
        {
          "internalType": "bool",
          "name": "_new",
          "type": "bool"
        }
      ],
      "name": "setIsBoostedTokenToken",
      "outputs": [],
      "stateMutability": "nonpayable",
      "type": "function"
    },
    {
      "inputs": [
        {
          "internalType": "uint256",
          "name": "_new",
          "type": "uint256"
        }
      ],
      "name": "setMaxCount",
      "outputs": [],
      "stateMutability": "nonpayable",
      "type": "function"
    },
    {
      "inputs": [
        {
          "internalType": "uint256",
          "name": "_new",
          "type": "uint256"
        }
      ],
      "name": "setMaxCreationPendingTotal",
      "outputs": [],
      "stateMutability": "nonpayable",
      "type": "function"
    },
    {
      "inputs": [
        {
          "internalType": "uint256",
          "name": "_new",
          "type": "uint256"
        }
      ],
      "name": "setMaxCreationPendingUser",
      "outputs": [],
      "stateMutability": "nonpayable",
      "type": "function"
    },
    {
      "inputs": [
        {
          "internalType": "uint256",
          "name": "_new",
          "type": "uint256"
        }
      ],
      "name": "setMaxLevelUpTotal",
      "outputs": [],
      "stateMutability": "nonpayable",
      "type": "function"
    },
    {
      "inputs": [
        {
          "internalType": "uint256",
          "name": "_new",
          "type": "uint256"
        }
      ],
      "name": "setMaxLevelUpUser",
      "outputs": [],
      "stateMutability": "nonpayable",
      "type": "function"
    },
    {
      "inputs": [
        {
          "internalType": "uint256",
          "name": "_new",
          "type": "uint256"
        }
      ],
      "name": "setMaxMultiClaim",
      "outputs": [],
      "stateMutability": "nonpayable",
      "type": "function"
    },
    {
      "inputs": [
        {
          "internalType": "uint256",
          "name": "_new",
          "type": "uint256"
        }
      ],
      "name": "setMaxMultiObtaining",
      "outputs": [],
      "stateMutability": "nonpayable",
      "type": "function"
    },
    {
      "inputs": [
        {
          "internalType": "uint256",
          "name": "_new",
          "type": "uint256"
        }
      ],
      "name": "setMaxUser",
      "outputs": [],
      "stateMutability": "nonpayable",
      "type": "function"
    },
    {
      "inputs": [
        {
          "internalType": "uint256",
          "name": "_new",
          "type": "uint256"
        }
      ],
      "name": "setNoClaimRewardAmount",
      "outputs": [],
      "stateMutability": "nonpayable",
      "type": "function"
    },
    {
      "inputs": [
        {
          "internalType": "uint256",
          "name": "_new",
          "type": "uint256"
        }
      ],
      "name": "setNoClaimTimeReference",
      "outputs": [],
      "stateMutability": "nonpayable",
      "type": "function"
    },
    {
      "inputs": [
        {
          "internalType": "uint256",
          "name": "_new",
          "type": "uint256"
        }
      ],
      "name": "setObtainingTimeRate",
      "outputs": [],
      "stateMutability": "nonpayable",
      "type": "function"
    },
    {
      "inputs": [
        {
          "internalType": "uint256",
          "name": "_new",
          "type": "uint256"
        }
      ],
      "name": "setObtainingTimeReference",
      "outputs": [],
      "stateMutability": "nonpayable",
      "type": "function"
    },
    {
      "inputs": [
        {
          "internalType": "address",
          "name": "_new",
          "type": "address"
        }
      ],
      "name": "setOld",
      "outputs": [],
      "stateMutability": "nonpayable",
      "type": "function"
    },
    {
      "inputs": [
        {
          "internalType": "bool",
          "name": "_new",
          "type": "bool"
        }
      ],
      "name": "setOpenCreateNodesLevelUp",
      "outputs": [],
      "stateMutability": "nonpayable",
      "type": "function"
    },
    {
      "inputs": [
        {
          "internalType": "bool",
          "name": "_new",
          "type": "bool"
        }
      ],
      "name": "setOpenCreateNodesMigration",
      "outputs": [],
      "stateMutability": "nonpayable",
      "type": "function"
    },
    {
      "inputs": [
        {
          "internalType": "bool",
          "name": "_new",
          "type": "bool"
        }
      ],
      "name": "setOpenCreateNodesWithLuckyBoxes",
      "outputs": [],
      "stateMutability": "nonpayable",
      "type": "function"
    },
    {
      "inputs": [
        {
          "internalType": "bool",
          "name": "_new",
          "type": "bool"
        }
      ],
      "name": "setOpenCreateNodesWithPending",
      "outputs": [],
      "stateMutability": "nonpayable",
      "type": "function"
    },
    {
      "inputs": [
        {
          "internalType": "bool",
          "name": "_new",
          "type": "bool"
        }
      ],
      "name": "setOpenCreateNodesWithTokens",
      "outputs": [],
      "stateMutability": "nonpayable",
      "type": "function"
    },
    {
      "inputs": [
        {
          "internalType": "uint256",
          "name": "_new",
          "type": "uint256"
        }
      ],
      "name": "setPrice",
      "outputs": [],
      "stateMutability": "nonpayable",
      "type": "function"
    },
    {
      "inputs": [
        {
          "internalType": "uint256",
          "name": "_new",
          "type": "uint256"
        }
      ],
      "name": "setRewardAmount",
      "outputs": [],
      "stateMutability": "nonpayable",
      "type": "function"
    },
    {
      "inputs": [
        {
          "internalType": "uint256",
          "name": "tokenId",
          "type": "uint256"
        },
        {
          "internalType": "string",
          "name": "_new",
          "type": "string"
        }
      ],
      "name": "setTokenIdFeature",
      "outputs": [],
      "stateMutability": "nonpayable",
      "type": "function"
    },
    {
      "inputs": [
        {
          "internalType": "uint256",
          "name": "tokenId",
          "type": "uint256"
        },
        {
          "internalType": "uint256",
          "name": "_rate",
          "type": "uint256"
        }
      ],
      "name": "setTokenIdIsBoostedAirDropRate",
      "outputs": [],
      "stateMutability": "nonpayable",
      "type": "function"
    },
    {
      "inputs": [
        {
          "internalType": "uint256",
          "name": "tokenId",
          "type": "uint256"
        },
        {
          "internalType": "bool",
          "name": "_new",
          "type": "bool"
        }
      ],
      "name": "setTokenIdIsBoostedNft",
      "outputs": [],
      "stateMutability": "nonpayable",
      "type": "function"
    },
    {
      "inputs": [
        {
          "internalType": "uint256",
          "name": "tokenId",
          "type": "uint256"
        },
        {
          "internalType": "bool",
          "name": "_new",
          "type": "bool"
        }
      ],
      "name": "setTokenIdIsBoostedToken",
      "outputs": [],
      "stateMutability": "nonpayable",
      "type": "function"
    },
    {
      "inputs": [
        {
          "internalType": "uint256",
          "name": "",
          "type": "uint256"
        }
      ],
      "name": "tokenIdToOwner",
      "outputs": [
        {
          "internalType": "address",
          "name": "",
          "type": "address"
        }
      ],
      "stateMutability": "view",
      "type": "function"
    },
    {
      "inputs": [],
      "name": "totalCreatedNodes",
      "outputs": [
        {
          "internalType": "uint256",
          "name": "",
          "type": "uint256"
        }
      ],
      "stateMutability": "view",
      "type": "function"
    },
    {
      "inputs": [
        {
          "internalType": "address",
          "name": "from",
          "type": "address"
        },
        {
          "internalType": "address",
          "name": "to",
          "type": "address"
        },
        {
          "internalType": "uint256",
          "name": "tokenId",
          "type": "uint256"
        }
      ],
      "name": "transferFrom",
      "outputs": [],
      "stateMutability": "nonpayable",
      "type": "function"
    },
    {
      "inputs": [
        {
          "internalType": "string",
          "name": "_name",
          "type": "string"
        },
        {
          "internalType": "uint256",
          "name": "_rate",
          "type": "uint256"
        }
      ],
      "name": "updateFeature",
      "outputs": [],
      "stateMutability": "nonpayable",
      "type": "function"
    }
  ],
  "bytecode": "0x6080604052601c8054600160301b600160781b031965ffffffffff001960ff199092166001179190911665010000000000171690553480156200004157600080fd5b50604051620067b8380380620067b88339810160408190526200006491620008f3565b60008054600181810183557f290decd9548b62a8d60345a988386fc84ba6bc95484008f6362f93160ef3e56390910180546001600160a01b03191633908117909155825260208190526040909120805460ff191690911790558351620001115760405162461bcd60e51b815260206004820152601e60248201527f4e6f6465547970653a204e616d652063616e6e6f7420626520656d707479000060448201526064015b60405180910390fd5b835162000126906004906020870190620007a6565b5082516016146200017a5760405162461bcd60e51b815260206004820181905260248201527f4e6f6465547970653a2056616c7565732e6c656e677468206d69736d61746368604482015260640162000108565b826000815181106200019c57634e487b7160e01b600052603260045260246000fd5b602002602001015160068190555082600181518110620001cc57634e487b7160e01b600052603260045260246000fd5b602002602001015160078190555082600281518110620001fc57634e487b7160e01b600052603260045260246000fd5b6020026020010151600881905550826003815181106200022c57634e487b7160e01b600052603260045260246000fd5b6020026020010151600981905550612710836004815181106200025f57634e487b7160e01b600052603260045260246000fd5b602002602001015110620002cd5760405162461bcd60e51b815260206004820152602e60248201527f4e6f6465547970653a20436c61696d546178526f69206d757374206265206c6f60448201526d0776572207468616e2031303030360941b606482015260840162000108565b82600481518110620002ef57634e487b7160e01b600052603260045260246000fd5b6020026020010151600a81905550826005815181106200031f57634e487b7160e01b600052603260045260246000fd5b6020026020010151600b81905550826006815181106200034f57634e487b7160e01b600052603260045260246000fd5b6020026020010151600c81905550826007815181106200037f57634e487b7160e01b600052603260045260246000fd5b6020026020010151600d8190555082600881518110620003af57634e487b7160e01b600052603260045260246000fd5b6020026020010151600e8190555082600981518110620003df57634e487b7160e01b600052603260045260246000fd5b6020026020010151600f8190555082600a815181106200040f57634e487b7160e01b600052603260045260246000fd5b602002602001015160108190555061271083600b815181106200044257634e487b7160e01b600052603260045260246000fd5b602002602001015110620004bf5760405162461bcd60e51b815260206004820152603a60248201527f4e6f6465547970653a204973426f6f737465644e667450726f626162696c697460448201527f79206d757374206265206c6f776572207468616e203130303030000000000000606482015260840162000108565b82600b81518110620004e157634e487b7160e01b600052603260045260246000fd5b602002602001015160118190555082600c815181106200051157634e487b7160e01b600052603260045260246000fd5b602002602001015160128190555082600d815181106200054157634e487b7160e01b600052603260045260246000fd5b602002602001015160138190555061271083600e815181106200057457634e487b7160e01b600052603260045260246000fd5b602002602001015110620005f15760405162461bcd60e51b815260206004820152603560248201527f4e6f6465547970653a204973426f6f73746564546f6b656e52617465206d757360448201527f74206265206c6f776572207468616e2031303030300000000000000000000000606482015260840162000108565b82600e815181106200061357634e487b7160e01b600052603260045260246000fd5b602002602001015160148190555082600f815181106200064357634e487b7160e01b600052603260045260246000fd5b6020026020010151601681905550826010815181106200067357634e487b7160e01b600052603260045260246000fd5b602002602001015160158190555082601181518110620006a357634e487b7160e01b600052603260045260246000fd5b602002602001015160178190555082601281518110620006d357634e487b7160e01b600052603260045260246000fd5b6020026020010151601881905550826013815181106200070357634e487b7160e01b600052603260045260246000fd5b6020026020010151601981905550826014815181106200073357634e487b7160e01b600052603260045260246000fd5b6020026020010151601a81905550826014815181106200076357634e487b7160e01b600052603260045260246000fd5b6020908102919091010151601b55602380546001600160a01b039384166001600160a01b031991821617909155602480549290931691161790555062000a7c9050565b828054620007b49062000a29565b90600052602060002090601f016020900481019282620007d8576000855562000823565b82601f10620007f357805160ff191683800117855562000823565b8280016001018555821562000823579182015b828111156200082357825182559160200191906001019062000806565b506200083192915062000835565b5090565b5b8082111562000831576000815560010162000836565b80516001600160a01b03811681146200086457600080fd5b919050565b600082601f8301126200087a578081fd5b815160206001600160401b0382111562000898576200089862000a66565b808202620008a8828201620009f6565b838152828101908684018388018501891015620008c3578687fd5b8693505b85841015620008e7578051835260019390930192918401918401620008c7565b50979650505050505050565b6000806000806080858703121562000909578384fd5b84516001600160401b038082111562000920578586fd5b818701915087601f83011262000934578586fd5b81518181111562000949576200094962000a66565b60206200095f601f8301601f19168201620009f6565b8281528a8284870101111562000973578889fd5b885b838110156200099257858101830151828201840152820162000975565b83811115620009a357898385840101525b509089015190975092505080821115620009bb578485fd5b50620009ca8782880162000869565b935050620009db604086016200084c565b9150620009eb606086016200084c565b905092959194509250565b604051601f8201601f191681016001600160401b038111828210171562000a215762000a2162000a66565b604052919050565b60028104600182168062000a3e57607f821691505b6020821081141562000a6057634e487b7160e01b600052602260045260246000fd5b50919050565b634e487b7160e01b600052604160045260246000fd5b615d2c8062000a8c6000396000f3fe608060405234801561001057600080fd5b50600436106107385760003560e01c806389af6107116103b3578063c4273b16116101f4578063e4d8af2f1161011a578063f123fb5c116100b8578063f5bcb7a911610087578063f5bcb7a91461101f578063f7b2a7be14611032578063fbaa07921461103b578063fd3845041461104e57610738565b8063f123fb5c14610fdc578063f1aaf1e814610fef578063f3efece314611003578063f5239c991461101657610738565b8063ee08c0b6116100f4578063ee08c0b614610fac578063eebd68b914610fc0578063ef22627b1461084d578063ef9e79ea14610fc957610738565b8063e4d8af2f14610f73578063e7cbc79214610f86578063ea8de2ee14610f9957610738565b8063d271fac011610192578063daf73bbd11610161578063daf73bbd14610f25578063de23b0d614610f38578063df22510e14610f4b578063e361199614610f5f57610738565b8063d271fac014610eed578063d597522114610ef6578063d759948614610eff578063d95de9a014610f1257610738565b8063cd9f3b6e116101ce578063cd9f3b6e14610eaa578063ce82805814610ebd578063d04b30b214610ec6578063d1f18b4914610eda57610738565b8063c4273b1614610e71578063c674fab614610e84578063c80916d414610e9757610738565b8063a35e617f116102d9578063b48426bc11610277578063bc2c21b711610246578063bc2c21b714610e0a578063bca2f4a014610e12578063c090316614610e26578063c23e6f9314610e5157610738565b8063b48426bc1461084d578063b83f866314610ddb578063b88d345314610dee578063bac426d014610df757610738565b8063abace280116102b3578063abace28014610d8f578063af79900114610da2578063b018fc6f14610db5578063b0dc989f14610dc857610738565b8063a35e617f14610d57578063a7b8c64d14610d6a578063a8a65a7814610d7c57610738565b806398def01f116103515780639ef2d87a116103205780639ef2d87a14610d1c578063a00ce4bb14610d25578063a035b1fe14610d3b578063a051dc8b14610d4457610738565b806398def01f14610cc257806398e556da14610cd55780639d695c6014610cf65780639dec96b514610d0957610738565b806391d2348f1161038d57806391d2348f14610c8057806391f3658c14610c935780639463c80314610ca657806396cfa23e14610caf57610738565b806389af610714610c475780638c1ddded14610c5a57806391b7f5ed14610c6d57610738565b806343a9ac391161057d5780635f7dabbb116104a3578063754030f411610441578063848327a511610410578063848327a514610bec57806385db32ca14610bff57806387e2fded14610c085780638890a31514610c3457610738565b8063754030f414610b815780637914207f14610b94578063804a306b14610bb4578063842e766914610bc957610738565b8063632203bc1161047d578063632203bc14610b1f57806364c27ad414610b325780636de8e15414610b455780636e9e48ef14610b5857610738565b80635f7dabbb14610ae25780635fd1021614610b0d57806361c2f15b14610b1657610738565b8063518e32d31161051b578063583109b9116104ea578063583109b914610a7e57806359a68c7a14610a925780635c7b05b114610a9f5780635ca3797b14610ab657610738565b8063518e32d314610a3a578063526cfed814610a4d57806355128f7d14610a6d578063551a6d9314610a7657610738565b80634946e485116105575780634946e485146109f75780634be3e9d014610a0b5780634d4c74e714610a145780635139839c14610a2757610738565b806343a9ac39146109a857806345945a56146109d157806348c09c5d146109e457610738565b8063242d81f0116106625780632aea89b91161060057806332187768116105cf578063321877681461097057806332a49e301461097957806335b99b6714610982578063421cc3371461099557610738565b80632aea89b9146109045780632d22a3e71461090d5780632f54bf6e1461092d5780633108614c1461095057610738565b80632614c0f81161063c5780632614c0f8146108b557806327b3bf11146108d557806329e38e5b146108de5780632a9f270e146108f157610738565b8063242d81f014610886578063246c55a6146108995780632496b5c0146108ac57610738565b80630fa81815116106da578063179ec2da116106a9578063179ec2da146108445780631b1f264c1461084d5780632158abb31461086057806323b872dd1461087357610738565b80630fa8181514610802578063129d7f8c1461080b57806312c9fd741461081e578063173825d91461083157610738565b806304b78e201161071657806304b78e20146107ac57806306fdde03146107c1578063079129ba146107d65780630c7b1d7b146107fa57610738565b8063025e7c271461073d5780630297a4c11461076d57806303eba50714610784575b600080fd5b61075061074b36600461560a565b611061565b6040516001600160a01b0390911681526020015b60405180910390f35b61077660125481565b604051908152602001610764565b6107976107923660046152fb565b61108b565b60408051928352602083019190915201610764565b6107bf6107ba36600461557c565b61123f565b005b6107c9611295565b6040516107649190615951565b601c546107ea90600160701b900460ff1681565b6040519015158152602001610764565b600054610776565b61077660165481565b6107bf61081936600461543d565b611323565b6107bf61082c36600461560a565b6113a9565b6107bf61083f3660046152fb565b6113dd565b61077660155481565b6107bf61085b36600461557c565b6116ad565b6107bf61086e36600461563a565b6116ef565b6107bf610881366004615315565b61176c565b6107bf6108943660046152fb565b611a37565b6107bf6108a736600461560a565b611aea565b61077660145481565b6107766108c33660046152fb565b60226020526000908152604090205481565b61077660085481565b6107bf6108ec3660046155c8565b611b1e565b6107bf6108ff36600461565c565b611c76565b610776600e5481565b61092061091b366004615696565b611d2c565b6040516107649190615866565b6107ea61093b3660046152fb565b60016020526000908152604090205460ff1681565b61096361095e36600461560a565b611ea4565b6040516107649190615b3f565b610776600a5481565b61077660195481565b6107bf61099036600461560a565b611fd7565b6107bf6109a336600461560a565b61200b565b6107766109b63660046152fb565b6001600160a01b031660009081526002602052604090205490565b6107bf6109df36600461560a565b61209b565b6107bf6109f236600461557c565b6120cf565b601c546107ea906301000000900460ff1681565b61077660135481565b6107bf610a223660046155c8565b612122565b610750610a3536600461560a565b6121a2565b6107bf610a4836600461540b565b6121b2565b610a60610a5b36600461554a565b6123c8565b6040516107649190615919565b61077660175481565b602054610776565b601c546107ea90600160381b900460ff1681565b601c546107ea9060ff1681565b601c546107ea906601000000000000900460ff1681565b610776610ac43660046152fb565b6001600160a01b031660009081526002602052604090206004015490565b610776610af0366004615596565b8051602081830181018051601e8252928201919093012091525481565b61077660105481565b610776600c5481565b610797610b2d3660046152fb565b6124cb565b610776610b40366004615350565b612628565b6107bf610b5336600461560a565b6128d9565b610750610b6636600461560a565b6003602052600090815260409020546001600160a01b031681565b6107bf610b8f36600461560a565b61290d565b610ba7610ba236600461554a565b612941565b60405161076491906158c6565b601c546107ea90640100000000900460ff1681565b6107ea610bd73660046152fb565b60216020526000908152604090205460ff1681565b6107bf610bfa36600461557c565b612b5e565b610776601a5481565b610776610c163660046152fb565b6001600160a01b031660009081526002602052604090206005015490565b6107bf610c4236600461560a565b612bab565b610776610c55366004615350565b612c49565b6107bf610c6836600461560a565b612fe6565b6107bf610c7b36600461560a565b61301a565b6107bf610c8e36600461557c565b61309e565b6107bf610ca136600461560a565b6130f0565b610776600b5481565b601c546107ea9062010000900460ff1681565b6107bf610cd036600461560a565b61319b565b610ce8610ce3366004615350565b6131cf565b60405161076492919061592c565b610776610d04366004615350565b6134ce565b6107bf610d17366004615696565b6136aa565b61077660065481565b601c546107ea9065010000000000900460ff1681565b61077660075481565b6107bf610d5236600461557c565b613711565b6107bf610d6536600461560a565b613764565b601c546107ea90610100900460ff1681565b6107bf610d8a36600461560a565b613798565b6107bf610d9d36600461557c565b61382b565b6107bf610db036600461560a565b61387c565b610776610dc3366004615350565b6138b0565b6107bf610dd636600461560a565b61394c565b602454610750906001600160a01b031681565b61077660055481565b6107bf610e053660046152fb565b613980565b601d54610776565b601c546107ea90600160601b900460ff1681565b610776610e34366004615596565b8051602081830181018051601f8252928201919093012091525481565b610e64610e5f366004615696565b613a38565b6040516107649190615819565b6107bf610e7f36600461560a565b613b2a565b6107bf610e9236600461557c565b613bc4565b602354610750906001600160a01b031681565b6107bf610eb836600461557c565b613c15565b610776600f5481565b601c546107ea90600160681b900460ff1681565b6107bf610ee836600461560a565b613c62565b61077660115481565b610776600d5481565b610a60610f0d36600461554a565b613c96565b6107bf610f20366004615350565b613dcb565b610797610f33366004615350565b61413f565b6107bf610f4636600461560a565b6142fa565b601c546107ea90600160481b900460ff1681565b601c546107ea90600160401b900460ff1681565b6107bf610f8136600461560a565b614398565b6107bf610f9436600461560a565b6143cc565b6107bf610fa736600461563a565b614476565b601c546107ea90600160501b900460ff1681565b61077660185481565b6107bf610fd736600461557c565b6144eb565b6107bf610fea36600461557c565b614538565b601c546107ea90600160581b900460ff1681565b6107bf61101136600461560a565b614585565b610776601b5481565b6107bf61102d36600461557c565b6145b9565b61077660095481565b6107bf61104936600461557c565b614606565b6107bf61105c36600461539b565b614655565b6000818154811061107157600080fd5b6000918252602090912001546001600160a01b0316905081565b6001600160a01b0381166000908152600260205260408120819081908190815b8154811015611233576000806112018460010160008660000186815481106110e357634e487b7160e01b600052603260045260246000fd5b6000918252602080832090910154835282810193909352604091820190208151610100808201845282546001600160a01b031682526001830154948201949094526002820154928101929092526003810154606083015260048101546080830152600581015460ff808216151560a0850152939004909216151560c082015260068201805491929160e08401919061117a90615c4a565b80601f01602080910402602001604051908101604052809291908181526020018280546111a690615c4a565b80156111f35780601f106111c8576101008083540402835291602001916111f3565b820191906000526020600020905b8154815290600101906020018083116111d657829003601f168201915b5050505050815250506146e5565b90925090506112108287615ba5565b955061121c8186615ba5565b94505050808061122b90615c85565b9150506110ab565b50919350915050915091565b3360009081526001602052604090205460ff166112775760405162461bcd60e51b815260040161126e90615a32565b60405180910390fd5b601c805491151563010000000263ff00000019909216919091179055565b600480546112a290615c4a565b80601f01602080910402602001604051908101604052809291908181526020018280546112ce90615c4a565b801561131b5780601f106112f05761010080835404028352916020019161131b565b820191906000526020600020905b8154815290600101906020018083116112fe57829003601f168201915b505050505081565b6023546001600160a01b0316331461134d5760405162461bcd60e51b815260040161126e90615aa0565b80511561139357601e81604051611364919061578e565b908152602001604051809103902054600014156113935760405162461bcd60e51b815260040161126e906159fb565b6113a186858585858a6149d1565b505050505050565b3360009081526001602052604090205460ff166113d85760405162461bcd60e51b815260040161126e90615a32565b601055565b336001600160a01b03166000808154811061140857634e487b7160e01b600052603260045260246000fd5b6000918252602090912001546001600160a01b0316146114655760405162461bcd60e51b815260206004820152601860248201527727bbb732b9399d1027b7363c9029bab832b91027bbb732b960411b604482015260640161126e565b6001600160a01b03811660009081526001602052604090205460ff166114c15760405162461bcd60e51b815260206004820152601160248201527027bbb732b9399d102737ba1037bbb732b960791b604482015260640161126e565b600080815481106114e257634e487b7160e01b600052603260045260246000fd5b6000918252602090912001546001600160a01b03828116911614156115535760405162461bcd60e51b815260206004820152602160248201527f4f776e6572733a2043616e6e6f742072656d6f7665207375706572206f776e656044820152603960f91b606482015260840161126e565b60015b60005481101561168b57816001600160a01b03166000828154811061158b57634e487b7160e01b600052603260045260246000fd5b6000918252602090912001546001600160a01b0316141561167957600080546115b690600190615bf0565b815481106115d457634e487b7160e01b600052603260045260246000fd5b600091825260208220015481546001600160a01b0390911691908390811061160c57634e487b7160e01b600052603260045260246000fd5b6000918252602082200180546001600160a01b0319166001600160a01b03939093169290921790915580548061165257634e487b7160e01b600052603160045260246000fd5b600082815260209020810160001990810180546001600160a01b031916905501905561168b565b8061168381615c85565b915050611556565b506001600160a01b03166000908152600160205260409020805460ff19169055565b3360009081526001602052604090205460ff166116dc5760405162461bcd60e51b815260040161126e90615a32565b601c805460ff1916911515919091179055565b3360009081526001602052604090205460ff1661171e5760405162461bcd60e51b815260040161126e90615a32565b6000828152600360209081526040808320546001600160a01b031683526002825280832094835260019490940190529190912060050180549115156101000261ff0019909216919091179055565b6023546001600160a01b031633146117965760405162461bcd60e51b815260040161126e90615aa0565b6001600160a01b038316600090815260026020908152604080832084845260030190915290205460ff1661180c5760405162461bcd60e51b815260206004820152601a60248201527f4e6f6465547970653a205472616e73666572206661696c757265000000000000604482015260640161126e565b6001600160a01b03821660009081526021602052604090205460ff166118925760208054600180820183557fc97bfaf2f8ee708c303a06d134f5ecd8389ae0432af62dc132a24118292866bb90910180546001600160a01b0319166001600160a01b038616908117909155600090815260219092526040909120805460ff191690911790555b6001600160a01b038381166000908152600260208181526040808420868552600180820180855283872080546001600160a01b0319168b8a169081178083554260038401819055918a52888852868a20998c90529287528551610100808201885293909a168a5292810154958901959095529484015492870192909252606086019190915260048201546080860152600582015460ff808216151560a0880152939004909216151560c085015260068101805492946119e594938793919260e084019161195e90615c4a565b80601f016020809104026020016040519081016040528092919081815260200182805461198a90615c4a565b80156119d75780601f106119ac576101008083540402835291602001916119d7565b820191906000526020600020905b8154815290600101906020018083116119ba57829003601f168201915b505050505081525050614c45565b6001600160a01b0384166000908152600260205260409020611a079083614df5565b50600090815260036020526040902080546001600160a01b0319166001600160a01b039290921691909117905550565b3360009081526001602052604090205460ff16611a665760405162461bcd60e51b815260040161126e90615a32565b6001600160a01b038116611ac85760405162461bcd60e51b8152602060048201526024808201527f4e6f6465547970653a204f6c642063616e6e6f742062652061646472657373206044820152637a65726f60e01b606482015260840161126e565b602480546001600160a01b0319166001600160a01b0392909216919091179055565b3360009081526001602052604090205460ff16611b195760405162461bcd60e51b815260040161126e90615a32565b601455565b3360009081526001602052604090205460ff16611b4d5760405162461bcd60e51b815260040161126e90615a32565b601e6004604051611b5e91906157aa565b908152602001604051809103902054600014611bbc5760405162461bcd60e51b815260206004820152601f60248201527f4e6f6465547970653a204665617475726520616c726561647920657869737400604482015260640161126e565b6000825111611c0d5760405162461bcd60e51b815260206004820152601e60248201527f4e6f6465547970653a204e616d652063616e6e6f7420626520656d7074790000604482015260640161126e565b601d80546001810182556000919091528251611c50917f6d4407e7be21f808e6509aa9fa9143369579dd7d760fe20a2c09680fc146134f019060208501906150d4565b5080601e83604051611c62919061578e565b908152604051908190036020019020555050565b3360009081526001602052604090205460ff16611ca55760405162461bcd60e51b815260040161126e90615a32565b601e81604051611cb5919061578e565b90815260200160405180910390205460001415611ce45760405162461bcd60e51b815260040161126e906159fb565b6000828152600360209081526040808320546001600160a01b031683526002825280832085845260010182529091208251611d27926006909201918401906150d4565b505050565b60606000611d3a8484615bf0565b6001600160401b03811115611d5f57634e487b7160e01b600052604160045260246000fd5b604051908082528060200260200182016040528015611d9257816020015b6060815260200190600190039081611d7d5790505b509050835b83811015611e9c57601d8181548110611dc057634e487b7160e01b600052603260045260246000fd5b906000526020600020018054611dd590615c4a565b80601f0160208091040260200160405190810160405280929190818152602001828054611e0190615c4a565b8015611e4e5780601f10611e2357610100808354040283529160200191611e4e565b820191906000526020600020905b815481529060010190602001808311611e3157829003601f168201915b5050505050828683611e609190615bf0565b81518110611e7e57634e487b7160e01b600052603260045260246000fd5b60200260200101819052508080611e9490615c85565b915050611d97565b509392505050565b611eac615158565b6000828152600360208181526040808420546001600160a01b03908116855260028084528286208887526001908101855295839020835161010081810186528254909416815296810154948701949094528301549185019190915291810154606084015260048101546080840152600581015460ff808216151560a0860152929004909116151560c083015260068101805460e084019190611f4d90615c4a565b80601f0160208091040260200160405190810160405280929190818152602001828054611f7990615c4a565b8015611fc65780601f10611f9b57610100808354040283529160200191611fc6565b820191906000526020600020905b815481529060010190602001808311611fa957829003601f168201915b50505050508152505090505b919050565b3360009081526001602052604090205460ff166120065760405162461bcd60e51b815260040161126e90615a32565b601a55565b3360009081526001602052604090205460ff1661203a5760405162461bcd60e51b815260040161126e90615a32565b600081116120965760405162461bcd60e51b815260206004820152602360248201527f4e6f6465547970653a20436c61696d2054696d652063616e6e6f74206265207a60448201526265726f60e81b606482015260840161126e565b600855565b3360009081526001602052604090205460ff166120ca5760405162461bcd60e51b815260040161126e90615a32565b600c55565b3360009081526001602052604090205460ff166120fe5760405162461bcd60e51b815260040161126e90615a32565b601c8054911515600160481b0269ff00000000000000000019909216919091179055565b3360009081526001602052604090205460ff166121515760405162461bcd60e51b815260040161126e90615a32565b601e600460405161216291906157aa565b908152602001604051809103902054600014156121915760405162461bcd60e51b815260040161126e906159fb565b80601e83604051611c62919061578e565b6020818154811061107157600080fd5b336001600160a01b0316600080815481106121dd57634e487b7160e01b600052603260045260246000fd5b6000918252602090912001546001600160a01b03161461223a5760405162461bcd60e51b815260206004820152601860248201527727bbb732b9399d1027b7363c9029bab832b91027bbb732b960411b604482015260640161126e565b6001600160a01b03821660009081526001602052604090205460ff161561229b5760405162461bcd60e51b815260206004820152601560248201527427bbb732b9399d1020b63932b0b23c9037bbb732b960591b604482015260640161126e565b6001600160a01b0382166000908152600160208190526040909120805460ff19169091179055801561237b576000806000815481106122ea57634e487b7160e01b600052603260045260246000fd5b6000918252602080832090910154835460018101855593835290822090920180546001600160a01b0319166001600160a01b03909316929092179091558054839190819061234857634e487b7160e01b600052603260045260246000fd5b9060005260206000200160006101000a8154816001600160a01b0302191690836001600160a01b031602179055506123c4565b600080546001810182559080527f290decd9548b62a8d60345a988386fc84ba6bc95484008f6362f93160ef3e5630180546001600160a01b0319166001600160a01b0384161790555b5050565b606060006123d68484615bf0565b6001600160401b038111156123fb57634e487b7160e01b600052604160045260246000fd5b604051908082528060200260200182016040528015612424578160200160208202803683370190505b506001600160a01b0386166000908152600260205260409020909150845b848110156124c05781600001818154811061246d57634e487b7160e01b600052603260045260246000fd5b90600052602060002001548387836124859190615bf0565b815181106124a357634e487b7160e01b600052603260045260246000fd5b6020908102919091010152806124b881615c85565b915050612442565b509095945050505050565b60235460009081906001600160a01b031633146124fa5760405162461bcd60e51b815260040161126e90615aa0565b6001600160a01b03831660009081526002602052604081208190815b815481101561123357600082600101600084600001848154811061254a57634e487b7160e01b600052603260045260246000fd5b6000918252602080832090910154835282810193909352604091820181208251610100808201855282546001600160a01b031682526001830154958201959095526002820154938101939093526003810154606084015260048101546080840152600581015460ff808216151560a0860152949004909316151560c0830152600683018054939450909283926125ec929091869160e084019161117a90615c4a565b90925090506125fb8288615ba5565b96506126078187615ba5565b9550428360020181905550505050808061262090615c85565b915050612516565b6023546000906001600160a01b031633146126555760405162461bcd60e51b815260040161126e90615aa0565b601c54600160601b900460ff1661267e5760405162461bcd60e51b815260040161126e90615b13565b8151600e5410156126ef5760405162461bcd60e51b815260206004820152603560248201527f4e6f6465547970653a204e6f7420656e6f756768206372656174696f6e2077696044820152741d1a081c195b991a5b99c81cdc1bdd1cc81b19599d605a1b606482015260840161126e565b8151600e60008282546127029190615bf0565b909155505081516001600160a01b03841660009081526002602052604081206005018054909190612734908490615ba5565b9091555050600d546001600160a01b03841660009081526002602052604090206005015411156127d85760405162461bcd60e51b815260206004820152604360248201527f4e6f6465547970653a204e6f7420656e6f756768206372656174696f6e20776960448201527f74682070656e64696e672073706f7473206c65667420666f722074686973207560648201526239b2b960e91b608482015260a40161126e565b60006127f5848451601c60029054906101000a900460ff16614f65565b9050612824848483601c60079054906101000a900460ff166040518060200160405280600081525060006149d1565b60065460055411156128485760405162461bcd60e51b815260040161126e90615a5e565b600f546001600160a01b03851660009081526002602052604090205411156128c25760405162461bcd60e51b815260206004820152602760248201527f4e6f6465547970653a205573657220746f6f206d616e79206e6f6465732072656044820152661c5d595cdd195960ca1b606482015260840161126e565b60075483516128d19190615bd1565b949350505050565b3360009081526001602052604090205460ff166129085760405162461bcd60e51b815260040161126e90615a32565b600d55565b3360009081526001602052604090205460ff1661293c5760405162461bcd60e51b815260040161126e90615a32565b601555565b6060600061294f8484615bf0565b6001600160401b0381111561297457634e487b7160e01b600052604160045260246000fd5b6040519080825280602002602001820160405280156129ad57816020015b61299a615158565b8152602001906001900390816129925790505b506001600160a01b0386166000908152600260205260409020909150845b848110156124c0578160010160008360000183815481106129fc57634e487b7160e01b600052603260045260246000fd5b6000918252602080832090910154835282810193909352604091820190208151610100808201845282546001600160a01b031682526001830154948201949094526002820154928101929092526003810154606083015260048101546080830152600581015460ff808216151560a0850152939004909216151560c082015260068201805491929160e084019190612a9390615c4a565b80601f0160208091040260200160405190810160405280929190818152602001828054612abf90615c4a565b8015612b0c5780601f10612ae157610100808354040283529160200191612b0c565b820191906000526020600020905b815481529060010190602001808311612aef57829003601f168201915b505050505081525050838783612b229190615bf0565b81518110612b4057634e487b7160e01b600052603260045260246000fd5b60200260200101819052508080612b5690615c85565b9150506129cb565b3360009081526001602052604090205460ff16612b8d5760405162461bcd60e51b815260040161126e90615a32565b601c8054911515600160701b0260ff60701b19909216919091179055565b3360009081526001602052604090205460ff16612bda5760405162461bcd60e51b815260040161126e90615a32565b60008111612c445760405162461bcd60e51b815260206004820152603160248201527f4e6f6465547970653a204f627461696e696e672054696d65205265666572656e60448201527063652063616e6e6f74206265207a65726f60781b606482015260840161126e565b601255565b6023546000906001600160a01b03163314612c765760405162461bcd60e51b815260040161126e90615aa0565b60005b8251811015612fb75760026000856001600160a01b03166001600160a01b031681526020019081526020016000206003016000848381518110612ccc57634e487b7160e01b600052603260045260246000fd5b60209081029190910181015182528101919091526040016000205460ff16612d2f5760405162461bcd60e51b81526020600482015260166024820152754e6f6465547970653a204275726e206661696c75726560501b604482015260640161126e565b600060026000866001600160a01b03166001600160a01b031681526020019081526020016000206001016000858481518110612d7b57634e487b7160e01b600052603260045260246000fd5b60209081029190910181015182528181019290925260409081016000208151610100808201845282546001600160a01b031682526001830154948201949094526002820154928101929092526003810154606083015260048101546080830152600581015460ff808216151560a0850152939004909216151560c082015260068201805491929160e084019190612e1190615c4a565b80601f0160208091040260200160405190810160405280929190818152602001828054612e3d90615c4a565b8015612e8a5780601f10612e5f57610100808354040283529160200191612e8a565b820191906000526020600020905b815481529060010190602001808311612e6d57829003601f168201915b50505050508152505090506000601f8260e00151604051612eab919061578e565b9081526020016040518091039020541115612ef757601f8160e00151604051612ed4919061578e565b9081526040519081900360200190208054906000612ef183615c33565b91905055505b6001600160a01b03851660009081526002602052604090208451612f439190869085908110612f3657634e487b7160e01b600052603260045260246000fd5b6020026020010151614df5565b600060036000868581518110612f6957634e487b7160e01b600052603260045260246000fd5b6020026020010151815260200190815260200160002060006101000a8154816001600160a01b0302191690836001600160a01b03160217905550508080612faf90615c85565b915050612c79565b50815160056000828254612fcb9190615bf0565b90915550508151600754612fdf9190615bd1565b9392505050565b3360009081526001602052604090205460ff166130155760405162461bcd60e51b815260040161126e90615a32565b600f55565b3360009081526001602052604090205460ff166130495760405162461bcd60e51b815260040161126e90615a32565b600081116130995760405162461bcd60e51b815260206004820152601e60248201527f4e6f6465547970653a2050726963652063616e6e6f74206265207a65726f0000604482015260640161126e565b600755565b3360009081526001602052604090205460ff166130cd5760405162461bcd60e51b815260040161126e90615a32565b601c8054911515600160401b0268ff000000000000000019909216919091179055565b3360009081526001602052604090205460ff1661311f5760405162461bcd60e51b815260040161126e90615a32565b61271081106131965760405162461bcd60e51b815260206004820152603c60248201527f4e6f6465547970653a20497320426f6f737465644e66742050726f626162696c60448201527f697479206d757374206265206c6f776572207468616e20313030303000000000606482015260840161126e565b601155565b3360009081526001602052604090205460ff166131ca5760405162461bcd60e51b815260040161126e90615a32565b601355565b606080600083516001600160401b038111156131fb57634e487b7160e01b600052604160045260246000fd5b604051908082528060200260200182016040528015613224578160200160208202803683370190505b509050600084516001600160401b0381111561325057634e487b7160e01b600052604160045260246000fd5b604051908082528060200260200182016040528015613279578160200160208202803683370190505b506001600160a01b03871660009081526002602052604081209192505b86518110156134c1578160030160008883815181106132c557634e487b7160e01b600052603260045260246000fd5b60209081029190910181015182528101919091526040016000205460ff166132ff5760405162461bcd60e51b815260040161126e90615ad0565b600082600101600089848151811061332757634e487b7160e01b600052603260045260246000fd5b60209081029190910181015182528181019290925260409081016000208151610100808201845282546001600160a01b031682526001830154948201949094526002820154928101929092526003810154606083015260048101546080830152600581015460ff808216151560a0850152939004909216151560c082015260068201805491929160e0840191906133bd90615c4a565b80601f01602080910402602001604051908101604052809291908181526020018280546133e990615c4a565b80156134365780601f1061340b57610100808354040283529160200191613436565b820191906000526020600020905b81548152906001019060200180831161341957829003601f168201915b505050505081525050905060008061344d836146e5565b915091508187858151811061347257634e487b7160e01b600052603260045260246000fd5b6020026020010181815250508086858151811061349f57634e487b7160e01b600052603260045260246000fd5b60200260200101818152505050505080806134b990615c85565b915050613296565b5091969095509350505050565b6023546000906001600160a01b031633146134fb5760405162461bcd60e51b815260040161126e90615aa0565b601c54600160581b900460ff166135245760405162461bcd60e51b815260040161126e90615b13565b8151600c5410156135885760405162461bcd60e51b815260206004820152602860248201527f4e6f6465547970653a204e6f7420656e6f756768206c6576656c2075702073706044820152671bdd1cc81b19599d60c21b606482015260840161126e565b8151600c600082825461359b9190615bf0565b909155505081516001600160a01b038416600090815260026020526040812060040180549091906135cd908490615ba5565b9091555050600b546001600160a01b038416600090815260026020526040902060040154111561365e5760405162461bcd60e51b815260206004820152603660248201527f4e6f6465547970653a204e6f7420656e6f756768206c6576656c20757020737060448201527537ba39903632b33a103337b9103a3434b9903ab9b2b960511b606482015260840161126e565b600061367b848451601c60019054906101000a900460ff16614f65565b9050612824848483601c60069054906101000a900460ff166040518060200160405280600081525060006149d1565b3360009081526001602052604090205460ff166136d95760405162461bcd60e51b815260040161126e90615a32565b6000828152600360209081526040808320546001600160a01b0316835260028252808320948352600190940190529190912060040155565b3360009081526001602052604090205460ff166137405760405162461bcd60e51b815260040161126e90615a32565b601c805491151566010000000000000266ff00000000000019909216919091179055565b3360009081526001602052604090205460ff166137935760405162461bcd60e51b815260040161126e90615a32565b600655565b3360009081526001602052604090205460ff166137c75760405162461bcd60e51b815260040161126e90615a32565b600081116138265760405162461bcd60e51b815260206004820152602660248201527f4e6f6465547970653a2052657761726420416d6f756e742063616e6e6f74206260448201526565207a65726f60d01b606482015260840161126e565b600955565b3360009081526001602052604090205460ff1661385a5760405162461bcd60e51b815260040161126e90615a32565b601c8054911515650100000000000265ff000000000019909216919091179055565b3360009081526001602052604090205460ff166138ab5760405162461bcd60e51b815260040161126e90615a32565b601955565b6023546000906001600160a01b031633146138dd5760405162461bcd60e51b815260040161126e90615aa0565b601c54600160501b900460ff166139065760405162461bcd60e51b815260040161126e90615b13565b8151601c5460009161391d9186919060ff16614f65565b9050612824848483601c60059054906101000a900460ff166040518060200160405280600081525060006149d1565b3360009081526001602052604090205460ff1661397b5760405162461bcd60e51b815260040161126e90615a32565b601755565b3360009081526001602052604090205460ff166139af5760405162461bcd60e51b815260040161126e90615a32565b6001600160a01b038116613a165760405162461bcd60e51b815260206004820152602860248201527f4e6f6465547970653a2048616e646c65722063616e6e6f742062652061646472604482015267657373207a65726f60c01b606482015260840161126e565b602380546001600160a01b0319166001600160a01b0392909216919091179055565b60606000613a468484615bf0565b6001600160401b03811115613a6b57634e487b7160e01b600052604160045260246000fd5b604051908082528060200260200182016040528015613a94578160200160208202803683370190505b509050835b83811015611e9c5760208181548110613ac257634e487b7160e01b600052603260045260246000fd5b6000918252602090912001546001600160a01b031682613ae28784615bf0565b81518110613b0057634e487b7160e01b600052603260045260246000fd5b6001600160a01b039092166020928302919091019091015280613b2281615c85565b915050613a99565b3360009081526001602052604090205460ff16613b595760405162461bcd60e51b815260040161126e90615a32565b60008111613bbf5760405162461bcd60e51b815260206004820152602d60248201527f4e6f6465547970653a20436c61696d2054696d65205265666572656e6365206360448201526c616e6e6f74206265207a65726f60981b606482015260840161126e565b601855565b3360009081526001602052604090205460ff16613bf35760405162461bcd60e51b815260040161126e90615a32565b601c8054911515600160381b0267ff0000000000000019909216919091179055565b3360009081526001602052604090205460ff16613c445760405162461bcd60e51b815260040161126e90615a32565b601c8054911515600160601b0260ff60601b19909216919091179055565b3360009081526001602052604090205460ff16613c915760405162461bcd60e51b815260040161126e90615a32565b600e55565b60606000613ca48484615bf0565b6001600160401b03811115613cc957634e487b7160e01b600052604160045260246000fd5b604051908082528060200260200182016040528015613cf2578160200160208202803683370190505b506001600160a01b0386166000908152600260205260409020909150845b848110156124c057816001016000836000018381548110613d4157634e487b7160e01b600052603260045260246000fd5b9060005260206000200154815260200190815260200160002060010154600954600854600754613d719190615bd1565b613d7b9190615bbd565b613d859190615ba5565b83613d908884615bf0565b81518110613dae57634e487b7160e01b600052603260045260246000fd5b602090810291909101015280613dc381615c85565b915050613d10565b6023546001600160a01b03163314613df55760405162461bcd60e51b815260040161126e90615aa0565b601c54600160701b900460ff16613e1e5760405162461bcd60e51b815260040161126e90615b13565b6001600160a01b038216600090815260226020526040902054613fb257602454604051631ff9e19560e01b81526000916001600160a01b031690631ff9e19590613e6e9060049087908201615964565b602060405180830381600087803b158015613e8857600080fd5b505af1158015613e9c573d6000803e3d6000fd5b505050506040513d601f19601f82011682018060405250810190613ec09190615622565b602454604051633d80733d60e01b81529192506000916001600160a01b0390911690633d80733d90613ef89060049088908201615964565b602060405180830381600087803b158015613f1257600080fd5b505af1158015613f26573d6000803e3d6000fd5b505050506040513d601f19601f82011682018060405250810190613f4a9190615622565b6001600160a01b038516600090815260026020526040812060050180549293508492909190613f7a908490615ba5565b90915550506001600160a01b03841660009081526002602052604081206004018054839290613faa908490615ba5565b909155505050505b60245460405163d8a911d960e01b81526000916001600160a01b03169063d8a911d990613fe59060049087908201615964565b602060405180830381600087803b158015613fff57600080fd5b505af1158015614013573d6000803e3d6000fd5b505050506040513d601f19601f820116820180604052508101906140379190615622565b82516001600160a01b038516600090815260226020526040812080549394509192614063908490615ba5565b9091555050806140b55760405162461bcd60e51b815260206004820152601c60248201527f4e6f6465547970653a204e6f7468696e6720746f206d69677261746500000000604482015260640161126e565b6001600160a01b0383166000908152602260205260409020548110156140ed5760405162461bcd60e51b815260040161126e90615a5e565b600061410a848451601c60049054906101000a900460ff16614f65565b9050614139848483601c60099054906101000a900460ff166040518060200160405280600081525060006149d1565b50505050565b60235460009081906001600160a01b0316331461416e5760405162461bcd60e51b815260040161126e90615aa0565b6001600160a01b03841660009081526002602052604081208190815b86518110156134c1578160030160008883815181106141b957634e487b7160e01b600052603260045260246000fd5b60209081029190910181015182528101919091526040016000205460ff166141f35760405162461bcd60e51b815260040161126e90615ad0565b600082600101600089848151811061421b57634e487b7160e01b600052603260045260246000fd5b602090810291909101810151825281810192909252604090810160009081208251610100808201855282546001600160a01b031682526001830154958201959095526002820154938101939093526003810154606084015260048101546080840152600581015460ff808216151560a0860152949004909316151560c0830152600683018054939450909283926142be929091869160e084019161117a90615c4a565b90925090506142cd8288615ba5565b96506142d98187615ba5565b955042836002018190555050505080806142f290615c85565b91505061418a565b3360009081526001602052604090205460ff166143295760405162461bcd60e51b815260040161126e90615a32565b61271081106143935760405162461bcd60e51b815260206004820152603060248201527f4e6f6465547970653a20436c61696d2054617820526f69206d7573742062652060448201526f06c6f776572207468616e2031303030360841b606482015260840161126e565b600a55565b3360009081526001602052604090205460ff166143c75760405162461bcd60e51b815260040161126e90615a32565b600b55565b3360009081526001602052604090205460ff166143fb5760405162461bcd60e51b815260040161126e90615a32565b600081116144715760405162461bcd60e51b815260206004820152603860248201527f4e6f6465547970653a204e6f436c61696d54696d655265666572656e6365206d60448201527f7573742062652067726561746572207468616e207a65726f0000000000000000606482015260840161126e565b601655565b3360009081526001602052604090205460ff166144a55760405162461bcd60e51b815260040161126e90615a32565b6000828152600360209081526040808320546001600160a01b03168352600282528083209483526001909401905291909120600501805460ff1916911515919091179055565b3360009081526001602052604090205460ff1661451a5760405162461bcd60e51b815260040161126e90615a32565b601c8054911515600160581b0260ff60581b19909216919091179055565b3360009081526001602052604090205460ff166145675760405162461bcd60e51b815260040161126e90615a32565b601c8054911515600160681b0260ff60681b19909216919091179055565b3360009081526001602052604090205460ff166145b45760405162461bcd60e51b815260040161126e90615a32565b601b55565b3360009081526001602052604090205460ff166145e85760405162461bcd60e51b815260040161126e90615a32565b601c8054911515600160501b0260ff60501b19909216919091179055565b3360009081526001602052604090205460ff166146355760405162461bcd60e51b815260040161126e90615a32565b601c80549115156401000000000264ff0000000019909216919091179055565b6023546001600160a01b0316331461467f5760405162461bcd60e51b815260040161126e90615aa0565b601c54600160681b900460ff166146a85760405162461bcd60e51b815260040161126e90615b13565b60006146c5848451601c60039054906101000a900460ff16614f65565b9050614139848483601c60089054906101000a900460ff168660006149d1565b6000806000806008548560400151426146fe9190615bf0565b60095461470b9190615bd1565b6147159190615bbd565b9150600060125486606001514261472c9190615bf0565b6147369190615bbd565b9050801561478857601a5481111561475057601a54614752565b805b9050612710816013546147659190615bd1565b61477190612710615ba5565b61477b9085615bd1565b6147859190615bbd565b92505b601854604087015161479a9042615bf0565b6147a49190615bbd565b905080156147f657601b548111156147be57601b546147c0565b805b9050612710816019546147d39190615bd1565b6147df90612710615ba5565b6147e99085615bd1565b6147f39190615bbd565b92505b60808601511561482c5761271086608001516127106148159190615ba5565b61481f9085615bd1565b6148299190615bbd565b92505b8560a0015115614860576127106010546127106148499190615ba5565b6148539085615bd1565b61485d9190615bbd565b92505b8560c00151156148945761271060145461271061487d9190615ba5565b6148879085615bd1565b6148919190615bbd565b92505b6000601e8760e001516040516148aa919061578e565b908152602001604051809103902054111561490957612710601e8760e001516040516148d6919061578e565b9081526020016040518091039020546127106148f29190615ba5565b6148fc9085615bd1565b6149069190615bbd565b92505b601654604087015161491b9042615bf0565b11156149315760155461492e9084615ba5565b92505b60075460085460208801516149469042615bf0565b6009546149539190615bd1565b61495d9190615bbd565b101561498b57612710600a54846149749190615bd1565b61497e9190615bbd565b6149889083615ba5565b91505b601754156149bb57612710601754846149a49190615bd1565b6149ae9190615bbd565b6149b89083615ba5565b91505b6149c58284615bf0565b94509092505050915091565b6000855111614a225760405162461bcd60e51b815260206004820152601b60248201527f4e6f6465547970653a204e6f7468696e6720746f206372656174650000000000604482015260640161126e565b6001600160a01b03861660009081526021602052604090205460ff16614aa85760208054600180820183557fc97bfaf2f8ee708c303a06d134f5ecd8389ae0432af62dc132a24118292866bb90910180546001600160a01b0319166001600160a01b038a16908117909155600090815260219092526040909120805460ff191690911790555b60005b8551811015614bef576000604051806101000160405280896001600160a01b03168152602001428152602001428152602001428152602001848152602001878481518110614b0957634e487b7160e01b600052603260045260246000fd5b6020026020010151151581526020018615158152602001858152509050614b7c600260008a6001600160a01b03166001600160a01b03168152602001908152602001600020888481518110614b6e57634e487b7160e01b600052603260045260246000fd5b602002602001015183614c45565b8760036000898581518110614ba157634e487b7160e01b600052603260045260246000fd5b6020026020010151815260200190815260200160002060006101000a8154816001600160a01b0302191690836001600160a01b03160217905550508080614be790615c85565b915050614aab565b508451601f83604051614c02919061578e565b90815260200160405180910390206000828254614c1f9190615ba5565b9091555050845160058054600090614c38908490615ba5565b9091555050505050505050565b600082815260038401602052604090205460ff1615614d0c57600082815260018481016020908152604092839020845181546001600160a01b0319166001600160a01b039091161781558482015192810192909255918301516002820155606083015160038201556080830151600482015560a083015160058201805460c086015160ff199091169215159290921761ff0019166101009215159290920291909117905560e083015180518493614d039260068501929101906150d4565b50905050611d27565b60008281526003848101602090815260408084208054600160ff199182168117909255818901845294829020865181546001600160a01b0319166001600160a01b0390911617815586840151918101919091559085015160028201556060850151928101929092556080840151600483015560a084015160058301805460c087015195169115159190911761ff001916610100941515949094029390931790925560e083015180518493614dc79260068501929101906150d4565b5050835460008481526002860160209081526040822083905560018301875586825290200183905550505050565b600081815260038301602052604090205460ff16614e12576123c4565b6000818152600380840160209081526040808420805460ff191690556001808701909252832080546001600160a01b0319168155908101839055600281018390559081018290556004810182905560058101805461ffff1916905590614e7b60068301826151aa565b505060008181526002830160205260408120548354909190614e9f90600190615bf0565b90506000846000018281548110614ec657634e487b7160e01b600052603260045260246000fd5b60009182526020808320909101548083526002880190915260408083208690558683528220919091559050818314614f295780856000018481548110614f1c57634e487b7160e01b600052603260045260246000fd5b6000918252602090912001555b8454859080614f4857634e487b7160e01b600052603160045260246000fd5b600190038181906000526020600020016000905590555050505050565b60606000836001600160401b03811115614f8f57634e487b7160e01b600052604160045260246000fd5b604051908082528060200260200182016040528015614fb8578160200160208202803683370190505b50905060005b8481101561506157831561501c57601154614fd88761506a565b10614fe4576000614fe7565b60015b82828151811061500757634e487b7160e01b600052603260045260246000fd5b9115156020928302919091019091015261504f565b600082828151811061503e57634e487b7160e01b600052603260045260246000fd5b911515602092830291909101909101525b8061505981615c85565b915050614fbe565b50949350505050565b6025546040805160208101929092526bffffffffffffffffffffffff19606084901b1690820152446054820152426074820152600090819060940160408051601f1981840301815291905280516020909101206025805460010190559050612fdf61271082615ca0565b8280546150e090615c4a565b90600052602060002090601f0160209004810192826151025760008555615148565b82601f1061511b57805160ff1916838001178555615148565b82800160010185558215615148579182015b8281111561514857825182559160200191906001019061512d565b506151549291506151e9565b5090565b60405180610100016040528060006001600160a01b0316815260200160008152602001600081526020016000815260200160008152602001600015158152602001600015158152602001606081525090565b5080546151b690615c4a565b6000825580601f106151c857506151e6565b601f0160209004906000526020600020908101906151e691906151e9565b50565b5b8082111561515457600081556001016151ea565b80356001600160a01b0381168114611fd257600080fd5b600082601f830112615225578081fd5b8135602061523a61523583615b82565b615b52565b8281528181019085830183850287018401881015615256578586fd5b855b8581101561527457813584529284019290840190600101615258565b5090979650505050505050565b80358015158114611fd257600080fd5b600082601f8301126152a1578081fd5b81356001600160401b038111156152ba576152ba615ce0565b6152cd601f8201601f1916602001615b52565b8181528460208386010111156152e1578283fd5b816020850160208301379081016020019190915292915050565b60006020828403121561530c578081fd5b612fdf826151fe565b600080600060608486031215615329578182fd5b615332846151fe565b9250615340602085016151fe565b9150604084013590509250925092565b60008060408385031215615362578182fd5b61536b836151fe565b915060208301356001600160401b03811115615385578182fd5b61539185828601615215565b9150509250929050565b6000806000606084860312156153af578283fd5b6153b8846151fe565b925060208401356001600160401b03808211156153d3578384fd5b6153df87838801615215565b935060408601359150808211156153f4578283fd5b5061540186828701615291565b9150509250925092565b6000806040838503121561541d578182fd5b615426836151fe565b915061543460208401615281565b90509250929050565b60008060008060008060c08789031215615455578182fd5b61545e876151fe565b9550602080880135955060408801356001600160401b0380821115615481578485fd5b61548d8b838c01615215565b965060608a01359150808211156154a2578485fd5b818a0191508a601f8301126154b5578485fd5b81356154c361523582615b82565b81815284810190848601868402860187018f10156154df578889fd5b8895505b83861015615508576154f481615281565b8352600195909501949186019186016154e3565b50975061551a91505060808b01615281565b945060a08a013592508083111561552f578384fd5b505061553d89828a01615291565b9150509295509295509295565b60008060006060848603121561555e578283fd5b615567846151fe565b95602085013595506040909401359392505050565b60006020828403121561558d578081fd5b612fdf82615281565b6000602082840312156155a7578081fd5b81356001600160401b038111156155bc578182fd5b6128d184828501615291565b600080604083850312156155da578182fd5b82356001600160401b038111156155ef578283fd5b6155fb85828601615291565b95602094909401359450505050565b60006020828403121561561b578081fd5b5035919050565b600060208284031215615633578081fd5b5051919050565b6000806040838503121561564c578182fd5b8235915061543460208401615281565b6000806040838503121561566e578182fd5b8235915060208301356001600160401b0381111561568a578182fd5b61539185828601615291565b600080604083850312156156a8578182fd5b50508035926020909101359150565b6000815180845260208085019450808401835b838110156156e6578151875295820195908201906001016156ca565b509495945050505050565b60008151808452615709816020860160208601615c07565b601f01601f19169290920160200192915050565b600061010060018060a01b0383511684526020830151602085015260408301516040850152606083015160608501526080830151608085015260a0830151151560a085015260c0830151151560c085015260e08301518160e0860152615785828601826156f1565b95945050505050565b600082516157a0818460208701615c07565b9190910192915050565b60008083546157b881615c4a565b600182811680156157d057600181146157e15761580d565b60ff1984168752828701945061580d565b8786526020808720875b858110156158045781548a8201529084019082016157eb565b50505082870194505b50929695505050505050565b6020808252825182820181905260009190848201906040850190845b8181101561585a5783516001600160a01b031683529284019291840191600101615835565b50909695505050505050565b6000602080830181845280855180835260408601915060408482028701019250838701855b828110156158b957603f198886030184526158a78583516156f1565b9450928501929085019060010161588b565b5092979650505050505050565b6000602080830181845280855180835260408601915060408482028701019250838701855b828110156158b957603f1988860301845261590785835161571d565b945092850192908501906001016158eb565b600060208252612fdf60208301846156b7565b60006040825261593f60408301856156b7565b828103602084015261578581856156b7565b600060208252612fdf60208301846156f1565b60006040825280845461597681615c4a565b806040860152606060018084166000811461599857600181146159ac576159da565b60ff198516888401526080880195506159da565b8987526020808820885b868110156159d15781548b82018701529084019082016159b6565b8a018501975050505b505050506001600160a01b0394909416602093909301929092525092915050565b6020808252601e908201527f4e6f6465547970653a204665617475726520646f65736e742065786973740000604082015260600190565b60208082526012908201527127bbb732b9399d1027b7363c9027bbb732b960711b604082015260600190565b60208082526022908201527f4e6f6465547970653a20546f6f206d616e79206e6f6465732072657175657374604082015261195960f21b606082015260800190565b6020808252601690820152752737b232aa3cb8329d1027b7363c902430b7323632b960511b604082015260600190565b60208082526023908201527f4e6f6465547970653a205573657220646f65736e74206f776e2074686973206e6040820152626f646560e81b606082015260800190565b6020808252601290820152712737b232aa3cb8329d102737ba1037b832b760711b604082015260600190565b600060208252612fdf602083018461571d565b604051601f8201601f191681016001600160401b0381118282101715615b7a57615b7a615ce0565b604052919050565b60006001600160401b03821115615b9b57615b9b615ce0565b5060209081020190565b60008219821115615bb857615bb8615cb4565b500190565b600082615bcc57615bcc615cca565b500490565b6000816000190483118215151615615beb57615beb615cb4565b500290565b600082821015615c0257615c02615cb4565b500390565b60005b83811015615c22578181015183820152602001615c0a565b838111156141395750506000910152565b600081615c4257615c42615cb4565b506000190190565b600281046001821680615c5e57607f821691505b60208210811415615c7f57634e487b7160e01b600052602260045260246000fd5b50919050565b6000600019821415615c9957615c99615cb4565b5060010190565b600082615caf57615caf615cca565b500690565b634e487b7160e01b600052601160045260246000fd5b634e487b7160e01b600052601260045260246000fd5b634e487b7160e01b600052604160045260246000fdfea2646970667358221220bdf0c6abef974956d25ff46ad0f348198ab32126ac5878c9b3ce83770d4da12a64736f6c63430008020033",
  "linkReferences": {},
  "deployedLinkReferences": {}
}