{
  "_format": "hh-sol-artifact-1",
  "contractName": "Handler",
  "sourceName": "contracts/Handler.sol",
  "abi": [
    {
      "inputs": [
        {
          "internalType": "address[]",
          "name": "_addrs",
          "type": "address[]"
        }
      ],
      "name": "addMultipleNodeTypes",
      "outputs": [],
      "stateMutability": "nonpayable",
      "type": "function"
    },
    {
      "inputs": [
        {
          "internalType": "address",
          "name": "_addr",
          "type": "address"
        }
      ],
      "name": "addNodeType",
      "outputs": [],
      "stateMutability": "nonpayable",
      "type": "function"
    },
    {
      "inputs": [
        {
          "internalType": "address",
          "name": "_new",
          "type": "address"
        },
        {
          "internalType": "bool",
          "name": "_change",
          "type": "bool"
        }
      ],
      "name": "addOwner",
      "outputs": [],
      "stateMutability": "nonpayable",
      "type": "function"
    },
    {
      "inputs": [
        {
          "internalType": "address",
          "name": "tokenOut",
          "type": "address"
        },
        {
          "internalType": "address",
          "name": "user",
          "type": "address"
        }
      ],
      "name": "claimRewardsAll",
      "outputs": [],
      "stateMutability": "nonpayable",
      "type": "function"
    },
    {
      "inputs": [
        {
          "internalType": "address",
          "name": "tokenOut",
          "type": "address"
        },
        {
          "internalType": "address",
          "name": "user",
          "type": "address"
        },
        {
          "internalType": "string[]",
          "name": "names",
          "type": "string[]"
        },
        {
          "internalType": "uint256[][]",
          "name": "tokenIds",
          "type": "uint256[][]"
        }
      ],
      "name": "claimRewardsBatch",
      "outputs": [],
      "stateMutability": "nonpayable",
      "type": "function"
    },
    {
      "inputs": [
        {
          "internalType": "address",
          "name": "tokenOut",
          "type": "address"
        },
        {
          "internalType": "address",
          "name": "user",
          "type": "address"
        },
        {
          "internalType": "string",
          "name": "name",
          "type": "string"
        }
      ],
      "name": "claimRewardsNodeType",
      "outputs": [],
      "stateMutability": "nonpayable",
      "type": "function"
    },
    {
      "inputs": [
        {
          "internalType": "string",
          "name": "name",
          "type": "string"
        },
        {
          "internalType": "address",
          "name": "user",
          "type": "address"
        },
        {
          "internalType": "uint256",
          "name": "count",
          "type": "uint256"
        }
      ],
      "name": "createLuckyBoxesAirDrop",
      "outputs": [],
      "stateMutability": "nonpayable",
      "type": "function"
    },
    {
      "inputs": [
        {
          "internalType": "address",
          "name": "tokenOut",
          "type": "address"
        },
        {
          "internalType": "string[]",
          "name": "nameFrom",
          "type": "string[]"
        },
        {
          "internalType": "uint256[][]",
          "name": "tokenIdsToBurn",
          "type": "uint256[][]"
        },
        {
          "internalType": "string",
          "name": "nameTo",
          "type": "string"
        },
        {
          "internalType": "uint256",
          "name": "count",
          "type": "uint256"
        }
      ],
      "name": "createLuckyBoxesWithNodes",
      "outputs": [],
      "stateMutability": "nonpayable",
      "type": "function"
    },
    {
      "inputs": [
        {
          "internalType": "address",
          "name": "tokenIn",
          "type": "address"
        },
        {
          "internalType": "string",
          "name": "name",
          "type": "string"
        },
        {
          "internalType": "uint256",
          "name": "count",
          "type": "uint256"
        },
        {
          "internalType": "string",
          "name": "sponso",
          "type": "string"
        }
      ],
      "name": "createLuckyBoxesWithTokens",
      "outputs": [],
      "stateMutability": "nonpayable",
      "type": "function"
    },
    {
      "inputs": [
        {
          "internalType": "string",
          "name": "name",
          "type": "string"
        },
        {
          "internalType": "address",
          "name": "user",
          "type": "address"
        },
        {
          "internalType": "uint256",
          "name": "isBoostedAirDropRate",
          "type": "uint256"
        },
        {
          "internalType": "bool[]",
          "name": "areBoostedNft",
          "type": "bool[]"
        },
        {
          "internalType": "bool",
          "name": "isBoostedToken",
          "type": "bool"
        },
        {
          "internalType": "string",
          "name": "feature",
          "type": "string"
        },
        {
          "internalType": "uint256",
          "name": "count",
          "type": "uint256"
        }
      ],
      "name": "createNodeAirDrop",
      "outputs": [],
      "stateMutability": "nonpayable",
      "type": "function"
    },
    {
      "inputs": [
        {
          "internalType": "address",
          "name": "tokenOut",
          "type": "address"
        },
        {
          "internalType": "string[]",
          "name": "nameFrom",
          "type": "string[]"
        },
        {
          "internalType": "uint256[][]",
          "name": "tokenIdsToBurn",
          "type": "uint256[][]"
        },
        {
          "internalType": "string",
          "name": "nameTo",
          "type": "string"
        },
        {
          "internalType": "uint256",
          "name": "count",
          "type": "uint256"
        }
      ],
      "name": "createNodesLevelUp",
      "outputs": [],
      "stateMutability": "nonpayable",
      "type": "function"
    },
    {
      "inputs": [
        {
          "internalType": "string[]",
          "name": "nameFrom",
          "type": "string[]"
        },
        {
          "internalType": "uint256[]",
          "name": "count",
          "type": "uint256[]"
        }
      ],
      "name": "createNodesMigration",
      "outputs": [],
      "stateMutability": "nonpayable",
      "type": "function"
    },
    {
      "inputs": [
        {
          "internalType": "uint256[]",
          "name": "tokenIdsLuckyBoxes",
          "type": "uint256[]"
        }
      ],
      "name": "createNodesWithLuckyBoxes",
      "outputs": [],
      "stateMutability": "nonpayable",
      "type": "function"
    },
    {
      "inputs": [
        {
          "internalType": "address",
          "name": "tokenOut",
          "type": "address"
        },
        {
          "internalType": "string[]",
          "name": "nameFrom",
          "type": "string[]"
        },
        {
          "internalType": "uint256[][]",
          "name": "tokenIdsToClaim",
          "type": "uint256[][]"
        },
        {
          "internalType": "string",
          "name": "nameTo",
          "type": "string"
        },
        {
          "internalType": "uint256",
          "name": "count",
          "type": "uint256"
        }
      ],
      "name": "createNodesWithPending",
      "outputs": [],
      "stateMutability": "nonpayable",
      "type": "function"
    },
    {
      "inputs": [
        {
          "internalType": "address",
          "name": "tokenIn",
          "type": "address"
        },
        {
          "internalType": "string",
          "name": "name",
          "type": "string"
        },
        {
          "internalType": "uint256",
          "name": "count",
          "type": "uint256"
        },
        {
          "internalType": "string",
          "name": "sponso",
          "type": "string"
        }
      ],
      "name": "createNodesWithTokens",
      "outputs": [],
      "stateMutability": "nonpayable",
      "type": "function"
    },
    {
      "inputs": [
        {
          "internalType": "address",
          "name": "user",
          "type": "address"
        }
      ],
      "name": "getClaimableRewardsOf",
      "outputs": [
        {
          "internalType": "uint256",
          "name": "",
          "type": "uint256"
        },
        {
          "internalType": "uint256",
          "name": "",
          "type": "uint256"
        }
      ],
      "stateMutability": "view",
      "type": "function"
    },
    {
      "inputs": [
        {
          "internalType": "string",
          "name": "key",
          "type": "string"
        }
      ],
      "name": "getNodeTypesAddress",
      "outputs": [
        {
          "internalType": "address",
          "name": "",
          "type": "address"
        }
      ],
      "stateMutability": "view",
      "type": "function"
    },
    {
      "inputs": [
        {
          "internalType": "uint256",
          "name": "iStart",
          "type": "uint256"
        },
        {
          "internalType": "uint256",
          "name": "iEnd",
          "type": "uint256"
        }
      ],
      "name": "getNodeTypesBetweenIndexes",
      "outputs": [
        {
          "internalType": "string[]",
          "name": "",
          "type": "string[]"
        }
      ],
      "stateMutability": "view",
      "type": "function"
    },
    {
      "inputs": [],
      "name": "getNodeTypesSize",
      "outputs": [
        {
          "internalType": "uint256",
          "name": "",
          "type": "uint256"
        }
      ],
      "stateMutability": "view",
      "type": "function"
    },
    {
      "inputs": [],
      "name": "getOwnersSize",
      "outputs": [
        {
          "internalType": "uint256",
          "name": "",
          "type": "uint256"
        }
      ],
      "stateMutability": "view",
      "type": "function"
    },
    {
      "inputs": [
        {
          "internalType": "uint256",
          "name": "key",
          "type": "uint256"
        }
      ],
      "name": "getTokenIdNodeTypeName",
      "outputs": [
        {
          "internalType": "string",
          "name": "",
          "type": "string"
        }
      ],
      "stateMutability": "view",
      "type": "function"
    },
    {
      "inputs": [
        {
          "internalType": "uint256",
          "name": "iStart",
          "type": "uint256"
        },
        {
          "internalType": "uint256",
          "name": "iEnd",
          "type": "uint256"
        }
      ],
      "name": "getTokenIdsBetweenIndexes",
      "outputs": [
        {
          "internalType": "uint256[]",
          "name": "",
          "type": "uint256[]"
        }
      ],
      "stateMutability": "view",
      "type": "function"
    },
    {
      "inputs": [
        {
          "internalType": "uint256",
          "name": "iStart",
          "type": "uint256"
        },
        {
          "internalType": "uint256",
          "name": "iEnd",
          "type": "uint256"
        }
      ],
      "name": "getTokenIdsNodeTypeBetweenIndexes",
      "outputs": [
        {
          "internalType": "string[]",
          "name": "",
          "type": "string[]"
        }
      ],
      "stateMutability": "view",
      "type": "function"
    },
    {
      "inputs": [],
      "name": "getTokenIdsSize",
      "outputs": [
        {
          "internalType": "uint256",
          "name": "",
          "type": "uint256"
        }
      ],
      "stateMutability": "view",
      "type": "function"
    },
    {
      "inputs": [],
      "name": "getTotalCreatedNodes",
      "outputs": [
        {
          "internalType": "uint256",
          "name": "",
          "type": "uint256"
        }
      ],
      "stateMutability": "view",
      "type": "function"
    },
    {
      "inputs": [
        {
          "internalType": "address",
          "name": "user",
          "type": "address"
        }
      ],
      "name": "getTotalNodesOf",
      "outputs": [
        {
          "internalType": "uint256",
          "name": "",
          "type": "uint256"
        }
      ],
      "stateMutability": "view",
      "type": "function"
    },
    {
      "inputs": [
        {
          "internalType": "address",
          "name": "",
          "type": "address"
        }
      ],
      "name": "isOwner",
      "outputs": [
        {
          "internalType": "bool",
          "name": "",
          "type": "bool"
        }
      ],
      "stateMutability": "view",
      "type": "function"
    },
    {
      "inputs": [],
      "name": "nft",
      "outputs": [
        {
          "internalType": "address",
          "name": "",
          "type": "address"
        }
      ],
      "stateMutability": "view",
      "type": "function"
    },
    {
      "inputs": [
        {
          "internalType": "string",
          "name": "name",
          "type": "string"
        },
        {
          "internalType": "address",
          "name": "user",
          "type": "address"
        },
        {
          "internalType": "uint256[]",
          "name": "tokenIds",
          "type": "uint256[]"
        },
        {
          "internalType": "uint256",
          "name": "isBoostedAirDropRate",
          "type": "uint256"
        },
        {
          "internalType": "bool[]",
          "name": "areBoostedNft",
          "type": "bool[]"
        },
        {
          "internalType": "bool",
          "name": "isBoostedToken",
          "type": "bool"
        },
        {
          "internalType": "string",
          "name": "feature",
          "type": "string"
        }
      ],
      "name": "nodeEvolution",
      "outputs": [],
      "stateMutability": "nonpayable",
      "type": "function"
    },
    {
      "inputs": [
        {
          "internalType": "uint256",
          "name": "",
          "type": "uint256"
        }
      ],
      "name": "owners",
      "outputs": [
        {
          "internalType": "address",
          "name": "",
          "type": "address"
        }
      ],
      "stateMutability": "view",
      "type": "function"
    },
    {
      "inputs": [
        {
          "internalType": "address",
          "name": "_new",
          "type": "address"
        }
      ],
      "name": "removeOwner",
      "outputs": [],
      "stateMutability": "nonpayable",
      "type": "function"
    },
    {
      "inputs": [
        {
          "internalType": "address",
          "name": "_new",
          "type": "address"
        }
      ],
      "name": "setLucky",
      "outputs": [],
      "stateMutability": "nonpayable",
      "type": "function"
    },
    {
      "inputs": [
        {
          "internalType": "address",
          "name": "_new",
          "type": "address"
        }
      ],
      "name": "setNft",
      "outputs": [],
      "stateMutability": "nonpayable",
      "type": "function"
    },
    {
      "inputs": [
        {
          "internalType": "address",
          "name": "_new",
          "type": "address"
        }
      ],
      "name": "setSwapper",
      "outputs": [],
      "stateMutability": "nonpayable",
      "type": "function"
    },
    {
      "inputs": [
        {
          "internalType": "address",
          "name": "from",
          "type": "address"
        },
        {
          "internalType": "address",
          "name": "to",
          "type": "address"
        },
        {
          "internalType": "uint256",
          "name": "tokenId",
          "type": "uint256"
        }
      ],
      "name": "transferFrom",
      "outputs": [],
      "stateMutability": "nonpayable",
      "type": "function"
    },
    {
      "inputs": [
        {
          "internalType": "string",
          "name": "name",
          "type": "string"
        },
        {
          "internalType": "address",
          "name": "_addr",
          "type": "address"
        }
      ],
      "name": "updateNodeTypeAddress",
      "outputs": [],
      "stateMutability": "nonpayable",
      "type": "function"
    }
  ],
  "bytecode": "0x608060405234801561001057600080fd5b5060008054600181810183557f290decd9548b62a8d60345a988386fc84ba6bc95484008f6362f93160ef3e56390910180546001600160a01b03191633908117909155825260208190526040909120805460ff19169091179055614a49806100796000396000f3fe608060405234801561001057600080fd5b506004361061021c5760003560e01c8063a1057b0011610125578063d6a0d2ee116100ad578063e526ce541161007c578063e526ce54146104c7578063e9897f87146104da578063eba86d29146104ed578063f3c1338714610500578063f51dee09146105135761021c565b8063d6a0d2ee14610486578063e15e66d01461048e578063e1ca019b146104a1578063e2941f50146104b45761021c565b8063a880f1a9116100f4578063a880f1a914610405578063bf035e1114610418578063bff879e714610440578063c299d38014610453578063c708c72c146104735761021c565b8063a1057b001461039f578063a4a74c49146103b2578063a650ac0d146103d2578063a6b690e0146103f25761021c565b80635d3baa0b116101a857806376f4e8d51161017757806376f4e8d51461035657806383715476146103695780638f309880146103715780639c82f2a414610384578063a0a8fe65146103975761021c565b80635d3baa0b1461030a57806362663f181461031d57806362829b201461033057806365246930146103435761021c565b80631fb895f8116101ef5780631fb895f81461028b57806323b872dd1461029e5780632f54bf6e146102b157806347ccca02146102e4578063518e32d3146102f75761021c565b8063025e7c27146102215780630c7b1d7b14610251578063173825d9146102635780631c9f7da914610278575b600080fd5b61023461022f366004614406565b610526565b6040516001600160a01b0390911681526020015b60405180910390f35b6000545b604051908152602001610248565b610276610271366004613cf4565b610550565b005b610276610286366004613f23565b610825565b6102766102993660046141f6565b610946565b6102766102ac366004613e23565b6109fc565b6102d46102bf366004613cf4565b60016020526000908152604090205460ff1681565b6040519015158152602001610248565b600a54610234906001600160a01b031681565b610276610305366004613efa565b610ae4565b61027661031836600461434e565b610cfa565b61027661032b366004613f91565b610e98565b61027661033e366004613d15565b610fb7565b610234610351366004614192565b611169565b610276610364366004614238565b611207565b600654610255565b61027661037f366004613d47565b6115a5565b610276610392366004613cf4565b6117e2565b610255611899565b6102766103ad366004613e5e565b61198c565b6103c56103c0366004614406565b611e33565b6040516102489190614751565b6103e56103e0366004614436565b611f29565b604051610248919061473e565b610276610400366004613e5e565b61200f565b610255610413366004613cf4565b6124a3565b61042b610426366004613cf4565b61259a565b60408051928352602083019190915201610248565b61027661044e366004613f23565b6126b1565b610466610461366004614436565b6127a8565b60405161024891906146de565b610276610481366004613cf4565b612919565b600254610255565b61046661049c366004614436565b612a3e565b6102766104af366004613cf4565b612bc4565b6102766104c2366004614087565b612c77565b6102766104d53660046140dd565b612dc0565b6102766104e8366004613dc8565b612f93565b6102766104fb36600461430a565b6130eb565b61027661050e366004613cf4565b61314e565b610276610521366004613e5e565b613201565b6000818154811061053657600080fd5b6000918252602090912001546001600160a01b0316905081565b336001600160a01b03166000808154811061057b57634e487b7160e01b600052603260045260246000fd5b6000918252602090912001546001600160a01b0316146105dd5760405162461bcd60e51b815260206004820152601860248201527727bbb732b9399d1027b7363c9029bab832b91027bbb732b960411b60448201526064015b60405180910390fd5b6001600160a01b03811660009081526001602052604090205460ff166106395760405162461bcd60e51b815260206004820152601160248201527027bbb732b9399d102737ba1037bbb732b960791b60448201526064016105d4565b6000808154811061065a57634e487b7160e01b600052603260045260246000fd5b6000918252602090912001546001600160a01b03828116911614156106cb5760405162461bcd60e51b815260206004820152602160248201527f4f776e6572733a2043616e6e6f742072656d6f7665207375706572206f776e656044820152603960f91b60648201526084016105d4565b60015b60005481101561080357816001600160a01b03166000828154811061070357634e487b7160e01b600052603260045260246000fd5b6000918252602090912001546001600160a01b031614156107f1576000805461072e9060019061494e565b8154811061074c57634e487b7160e01b600052603260045260246000fd5b600091825260208220015481546001600160a01b0390911691908390811061078457634e487b7160e01b600052603260045260246000fd5b6000918252602082200180546001600160a01b0319166001600160a01b0393909316929092179091558054806107ca57634e487b7160e01b600052603160045260246000fd5b600082815260209020810160001990810180546001600160a01b0319169055019055610803565b806107fb816149cc565b9150506106ce565b506001600160a01b03166000908152600160205260409020805460ff19169055565b6000610832843385613542565b9050600060026001018560405161084991906144e0565b9081526040519081900360200181205463b018fc6f60e01b82526001600160a01b03169063b018fc6f9061088390339086906004016145fd565b602060405180830381600087803b15801561089d57600080fd5b505af11580156108b1573d6000803e3d6000fd5b505050506040513d601f19601f820116820180604052508101906108d5919061441e565b600c54604051633517b5bb60e11b81529192506001600160a01b031690636a2f6b769061090c908990339086908990600401614597565b600060405180830381600087803b15801561092657600080fd5b505af115801561093a573d6000803e3d6000fd5b50505050505050505050565b3360009081526001602052604090205460ff166109755760405162461bcd60e51b81526004016105d4906147c5565b6040516005906109869084906144e0565b9081526040519081900360200190205460ff166109b55760405162461bcd60e51b81526004016105d49061486c565b806002600101836040516109c991906144e0565b90815260405190819003602001902080546001600160a01b03929092166001600160a01b03199092169190911790555050565b600a546001600160a01b03163314610a4a5760405162461bcd60e51b815260206004820152601160248201527012185b991b195c8e8813db9b1e4813999d607a1b60448201526064016105d4565b600081815260076020526040908190209051600391610a68916144fc565b908152604051908190036020018120546323b872dd60e01b82526001600160a01b03858116600484015284811660248401526044830184905216906323b872dd906064015b600060405180830381600087803b158015610ac757600080fd5b505af1158015610adb573d6000803e3d6000fd5b50505050505050565b336001600160a01b031660008081548110610b0f57634e487b7160e01b600052603260045260246000fd5b6000918252602090912001546001600160a01b031614610b6c5760405162461bcd60e51b815260206004820152601860248201527727bbb732b9399d1027b7363c9029bab832b91027bbb732b960411b60448201526064016105d4565b6001600160a01b03821660009081526001602052604090205460ff1615610bcd5760405162461bcd60e51b815260206004820152601560248201527427bbb732b9399d1020b63932b0b23c9037bbb732b960591b60448201526064016105d4565b6001600160a01b0382166000908152600160208190526040909120805460ff191690911790558015610cad57600080600081548110610c1c57634e487b7160e01b600052603260045260246000fd5b6000918252602080832090910154835460018101855593835290822090920180546001600160a01b0319166001600160a01b039093169290921790915580548391908190610c7a57634e487b7160e01b600052603260045260246000fd5b9060005260206000200160006101000a8154816001600160a01b0302191690836001600160a01b03160217905550610cf6565b600080546001810182559080527f290decd9548b62a8d60345a988386fc84ba6bc95484008f6362f93160ef3e5630180546001600160a01b0319166001600160a01b0384161790555b5050565b3360009081526001602052604090205460ff16610d295760405162461bcd60e51b81526004016105d4906147c5565b8351600114610d7a5760405162461bcd60e51b815260206004820152601a60248201527f48616e646c65723a20437265617465206f6e65206279206f6e6500000000000060448201526064016105d4565b60008111610dd85760405162461bcd60e51b815260206004820152602560248201527f48616e646c65723a20436f756e74206d75737420626520677265617465722074604482015264068616e20360dc1b60648201526084016105d4565b60005b81811015610e8e576000610df189896001613542565b9050600260010189604051610e0691906144e0565b908152604051908190036020018120546304a75fe360e21b82526001600160a01b03169063129d7f8c90610e48908b908b9086908c908c908c90600401614657565b600060405180830381600087803b158015610e6257600080fd5b505af1158015610e76573d6000803e3d6000fd5b50505050508080610e86906149cc565b915050610ddb565b5050505050505050565b3360009081526001602052604090205460ff16610ec75760405162461bcd60e51b81526004016105d4906147c5565b60005b8151811015610cf6576000828281518110610ef557634e487b7160e01b600052603260045260246000fd5b60200260200101516001600160a01b03166306fdde036040518163ffffffff1660e01b815260040160006040518083038186803b158015610f3557600080fd5b505afa158015610f49573d6000803e3d6000fd5b505050506040513d6000823e601f3d908101601f19168201604052610f7191908101906141c4565b9050610fa481848481518110610f9757634e487b7160e01b600052603260045260246000fd5b602002602001015161366b565b5080610faf816149cc565b915050610eca565b6001600160a01b038116331480610fdd57503360009081526001602052604090205460ff165b610ff95760405162461bcd60e51b81526004016105d490614828565b60008060005b6002548110156111045760008060026001016002600001848154811061103557634e487b7160e01b600052603260045260246000fd5b9060005260206000200160405161104c91906144fc565b908152604051908190036020018120546318c880ef60e21b82526001600160a01b038881166004840152169063632203bc906024016040805180830381600087803b15801561109a57600080fd5b505af11580156110ae573d6000803e3d6000fd5b505050506040513d601f19601f820116820180604052508101906110d29190614457565b90925090506110e18286614936565b94506110ed8185614936565b9350505080806110fc906149cc565b915050610fff565b50600c5460405163658793a360e01b81526001600160a01b039091169063658793a39061113b9087908790879087906004016145d4565b600060405180830381600087803b15801561115557600080fd5b505af1158015610e8e573d6000803e3d6000fd5b600060026003018260405161117e91906144e0565b9081526040519081900360200190205460ff166111d55760405162461bcd60e51b8152602060048201526015602482015274139bd919551e5c1948191bd95cdb9d08195e1a5cdd605a1b60448201526064016105d4565b6040516003906111e69084906144e0565b908152604051908190036020019020546001600160a01b031690505b919050565b3360009081526001602052604090205460ff166112365760405162461bcd60e51b81526004016105d4906147c5565b84516001146112875760405162461bcd60e51b815260206004820152601a60248201527f48616e646c65723a2045766f6c7665206f6e65206279206f6e6500000000000060448201526064016105d4565b82518551146112a85760405162461bcd60e51b81526004016105d4906147f1565b6040516005906112b99089906144e0565b9081526040519081900360200190205460ff166112e85760405162461bcd60e51b81526004016105d49061486c565b600660030160008660008151811061131057634e487b7160e01b600052603260045260246000fd5b60209081029190910181015182528101919091526040016000205460ff1661137a5760405162461bcd60e51b815260206004820152601b60248201527f48616e646c65723a20546f6b656e20646f65736e74206578697374000000000060448201526064016105d4565b600260010160066001016000876000815181106113a757634e487b7160e01b600052603260045260246000fd5b602002602001015181526020019081526020016000206040516113ca91906144fc565b908152604051908190036020018120546389af610760e01b82526001600160a01b0316906389af61079061140490899089906004016145fd565b602060405180830381600087803b15801561141e57600080fd5b505af1158015611432573d6000803e3d6000fd5b505050506040513d601f19601f82011682018060405250810190611456919061441e565b506114898560008151811061147b57634e487b7160e01b600052603260045260246000fd5b6020026020010151886137bb565b60405160039061149a9089906144e0565b908152604051908190036020018120546304a75fe360e21b82526001600160a01b03169063129d7f8c906114dc90899088908a90899089908990600401614657565b600060405180830381600087803b1580156114f657600080fd5b505af115801561150a573d6000803e3d6000fd5b5050600a5487516001600160a01b03909116925063aff930e69150879060009061154457634e487b7160e01b600052603260045260246000fd5b6020026020010151896040518363ffffffff1660e01b815260040161156a9291906148a3565b600060405180830381600087803b15801561158457600080fd5b505af1158015611598573d6000803e3d6000fd5b5050505050505050505050565b6001600160a01b0383163314806115cb57503360009081526001602052604090205460ff165b6115e75760405162461bcd60e51b81526004016105d490614828565b600080825184511461160b5760405162461bcd60e51b81526004016105d4906147f1565b60005b84518110156117ab57600260030185828151811061163c57634e487b7160e01b600052603260045260246000fd5b602002602001015160405161165191906144e0565b9081526040519081900360200190205460ff166116805760405162461bcd60e51b81526004016105d49061486c565b60008060026001018784815181106116a857634e487b7160e01b600052603260045260246000fd5b60200260200101516040516116bd91906144e0565b9081526040519081900360200190205486516001600160a01b039091169063daf73bbd908a9089908790811061170357634e487b7160e01b600052603260045260246000fd5b60200260200101516040518363ffffffff1660e01b81526004016117289291906145fd565b6040805180830381600087803b15801561174157600080fd5b505af1158015611755573d6000803e3d6000fd5b505050506040513d601f19601f820116820180604052508101906117799190614457565b90925090506117888286614936565b94506117948185614936565b9350505080806117a3906149cc565b91505061160e565b50600c546040516336ed57cd60e01b81526001600160a01b03909116906336ed57cd9061090c9089908990879087906004016145d4565b3360009081526001602052604090205460ff166118115760405162461bcd60e51b81526004016105d4906147c5565b6001600160a01b0381166118775760405162461bcd60e51b815260206004820152602760248201527f48616e646c65723a20537761707065722063616e6e6f742062652061646472656044820152667373207a65726f60c81b60648201526084016105d4565b600c80546001600160a01b0319166001600160a01b0392909216919091179055565b60008060005b600254811015611986576002805460039190839081106118cf57634e487b7160e01b600052603260045260246000fd5b906000526020600020016040516118e691906144fc565b90815260408051602092819003830181205463b88d345360e01b825291516001600160a01b039092169263b88d345392600480840193829003018186803b15801561193057600080fd5b505afa158015611944573d6000803e3d6000fd5b505050506040513d601f19601f82011682018060405250810190611968919061441e565b6119729083614936565b91508061197e816149cc565b91505061189f565b50905090565b82518451146119ad5760405162461bcd60e51b81526004016105d4906147f1565b6119b9853386866115a5565b600b5460405163b3a90b8960e01b81526000916001600160a01b03169063b3a90b89906119ee90869086903390600401614792565b602060405180830381600087803b158015611a0857600080fd5b505af1158015611a1c573d6000803e3d6000fd5b505050506040513d601f19601f82011682018060405250810190611a40919061441e565b905060005b855181108015611a555750600082115b15611de2576002600301868281518110611a7f57634e487b7160e01b600052603260045260246000fd5b6020026020010151604051611a9491906144e0565b9081526040519081900360200190205460ff16611ac35760405162461bcd60e51b81526004016105d49061486c565b600a5485516001600160a01b039091169063b2dc5dc3903390889085908110611afc57634e487b7160e01b600052603260045260246000fd5b60200260200101516040518363ffffffff1660e01b8152600401611b219291906145fd565b600060405180830381600087803b158015611b3b57600080fd5b505af1158015611b4f573d6000803e3d6000fd5b5050505060005b858281518110611b7657634e487b7160e01b600052603260045260246000fd5b602002602001015151811015611ca75760066003016000878481518110611bad57634e487b7160e01b600052603260045260246000fd5b60200260200101518381518110611bd457634e487b7160e01b600052603260045260246000fd5b60209081029190910181015182528101919091526040016000205460ff16611c3e5760405162461bcd60e51b815260206004820152601d60248201527f48616e646c65723a20546f6b656e496420646f65736e7420657869737400000060448201526064016105d4565b611c95868381518110611c6157634e487b7160e01b600052603260045260246000fd5b60200260200101518281518110611c8857634e487b7160e01b600052603260045260246000fd5b602002602001015161386e565b80611c9f816149cc565b915050611b56565b5060006002600101878381518110611ccf57634e487b7160e01b600052603260045260246000fd5b6020026020010151604051611ce491906144e0565b908152602001604051809103902060009054906101000a90046001600160a01b031690506000816001600160a01b03166389af610733898681518110611d3a57634e487b7160e01b600052603260045260246000fd5b60200260200101516040518363ffffffff1660e01b8152600401611d5f9291906145fd565b602060405180830381600087803b158015611d7957600080fd5b505af1158015611d8d573d6000803e3d6000fd5b505050506040513d601f19601f82011682018060405250810190611db1919061441e565b9050808411611dc1576000611dcb565b611dcb818561494e565b935050508080611dda906149cc565b915050611a45565b508015611e2b5760405162461bcd60e51b815260206004820152601760248201527648616e646c65723a204e6963652074727920627564647960481b60448201526064016105d4565b505050505050565b60008181526009602052604090205460609060ff16611e8b5760405162461bcd60e51b8152602060048201526014602482015273151bdad95b925908191bd95cdb9d08195e1a5cdd60621b60448201526064016105d4565b60008281526007602052604090208054611ea490614991565b80601f0160208091040260200160405190810160405280929190818152602001828054611ed090614991565b8015611f1d5780601f10611ef257610100808354040283529160200191611f1d565b820191906000526020600020905b815481529060010190602001808311611f0057829003601f168201915b50505050509050919050565b60606000611f37848461494e565b6001600160401b03811115611f5c57634e487b7160e01b600052604160045260246000fd5b604051908082528060200260200182016040528015611f85578160200160208202803683370190505b509050835b83811015612007576006805482908110611fb457634e487b7160e01b600052603260045260246000fd5b9060005260206000200154828683611fcc919061494e565b81518110611fea57634e487b7160e01b600052603260045260246000fd5b602090810291909101015280611fff816149cc565b915050611f8a565b509392505050565b82518451146120305760405162461bcd60e51b81526004016105d4906147f1565b600061203d833384613542565b905061204b863387876115a5565b600060026001018460405161206091906144e0565b908152604051908190036020018120546304eb4ae360e51b82526001600160a01b031690639d695c609061209a90339086906004016145fd565b602060405180830381600087803b1580156120b457600080fd5b505af11580156120c8573d6000803e3d6000fd5b505050506040513d601f19601f820116820180604052508101906120ec919061441e565b905060005b8651811080156121015750600082115b1561245a57600260030187828151811061212b57634e487b7160e01b600052603260045260246000fd5b602002602001015160405161214091906144e0565b9081526040519081900360200190205460ff1661216f5760405162461bcd60e51b81526004016105d49061486c565b600a5486516001600160a01b039091169063b2dc5dc39033908990859081106121a857634e487b7160e01b600052603260045260246000fd5b60200260200101516040518363ffffffff1660e01b81526004016121cd9291906145fd565b600060405180830381600087803b1580156121e757600080fd5b505af11580156121fb573d6000803e3d6000fd5b5050505060005b86828151811061222257634e487b7160e01b600052603260045260246000fd5b60200260200101515181101561231f576006600301600088848151811061225957634e487b7160e01b600052603260045260246000fd5b6020026020010151838151811061228057634e487b7160e01b600052603260045260246000fd5b60209081029190910181015182528101919091526040016000205460ff166122ea5760405162461bcd60e51b815260206004820152601d60248201527f48616e646c65723a20546f6b656e496420646f65736e7420657869737400000060448201526064016105d4565b61230d878381518110611c6157634e487b7160e01b600052603260045260246000fd5b80612317816149cc565b915050612202565b506000600260010188838151811061234757634e487b7160e01b600052603260045260246000fd5b602002602001015160405161235c91906144e0565b908152602001604051809103902060009054906101000a90046001600160a01b031690506000816001600160a01b03166389af6107338a86815181106123b257634e487b7160e01b600052603260045260246000fd5b60200260200101516040518363ffffffff1660e01b81526004016123d79291906145fd565b602060405180830381600087803b1580156123f157600080fd5b505af1158015612405573d6000803e3d6000fd5b505050506040513d601f19601f82011682018060405250810190612429919061441e565b9050808411612439576000612443565b612443818561494e565b935050508080612452906149cc565b9150506120f1565b508015610adb5760405162461bcd60e51b815260206004820152601760248201527648616e646c65723a204e6963652074727920627564647960481b60448201526064016105d4565b60008060005b600254811015612593576002805460039190839081106124d957634e487b7160e01b600052603260045260246000fd5b906000526020600020016040516124f091906144fc565b908152604051908190036020018120546343a9ac3960e01b82526001600160a01b03868116600484015216906343a9ac399060240160206040518083038186803b15801561253d57600080fd5b505afa158015612551573d6000803e3d6000fd5b505050506040513d601f19601f82011682018060405250810190612575919061441e565b61257f9083614936565b91508061258b816149cc565b9150506124a9565b5092915050565b60008060008060005b6002548110156126a6576000806002600101600260000184815481106125d957634e487b7160e01b600052603260045260246000fd5b906000526020600020016040516125f091906144fc565b908152604051908190036020018120546303eba50760e01b82526001600160a01b038a8116600484015216906303eba50790602401604080518083038186803b15801561263c57600080fd5b505afa158015612650573d6000803e3d6000fd5b505050506040513d601f19601f820116820180604052508101906126749190614457565b90925090506126838286614936565b945061268f8185614936565b93505050808061269e906149cc565b9150506125a3565b509092509050915091565b600b54604051636454a0fd60e01b81526000916001600160a01b031690636454a0fd906126e690879087903390600401614792565b602060405180830381600087803b15801561270057600080fd5b505af1158015612714573d6000803e3d6000fd5b505050506040513d601f19601f82011682018060405250810190612738919061441e565b600c5460405163a77f789b60e01b81529192506001600160a01b03169063a77f789b9061276f908890339086908890600401614597565b600060405180830381600087803b15801561278957600080fd5b505af115801561279d573d6000803e3d6000fd5b505050505050505050565b606060006127b6848461494e565b6001600160401b038111156127db57634e487b7160e01b600052604160045260246000fd5b60405190808252806020026020018201604052801561280e57816020015b60608152602001906001900390816127f95790505b509050835b8381101561200757600280548290811061283d57634e487b7160e01b600052603260045260246000fd5b90600052602060002001805461285290614991565b80601f016020809104026020016040519081016040528092919081815260200182805461287e90614991565b80156128cb5780601f106128a0576101008083540402835291602001916128cb565b820191906000526020600020905b8154815290600101906020018083116128ae57829003601f168201915b50505050508286836128dd919061494e565b815181106128fb57634e487b7160e01b600052603260045260246000fd5b60200260200101819052508080612911906149cc565b915050612813565b3360009081526001602052604090205460ff166129485760405162461bcd60e51b81526004016105d4906147c5565b6000816001600160a01b03166306fdde036040518163ffffffff1660e01b815260040160006040518083038186803b15801561298357600080fd5b505afa158015612997573d6000803e3d6000fd5b505050506040513d6000823e601f3d908101601f191682016040526129bf91908101906141c4565b90506002600301816040516129d491906144e0565b9081526040519081900360200190205460ff1615612a345760405162461bcd60e51b815260206004820181905260248201527f48616e646c65723a204e6f64655479706520616c72656164792065786973747360448201526064016105d4565b610cf6818361366b565b60606000612a4c848461494e565b6001600160401b03811115612a7157634e487b7160e01b600052604160045260246000fd5b604051908082528060200260200182016040528015612aa457816020015b6060815260200190600190039081612a8f5790505b509050835b83811015612007576006805460079160009184908110612ad957634e487b7160e01b600052603260045260246000fd5b906000526020600020015481526020019081526020016000208054612afd90614991565b80601f0160208091040260200160405190810160405280929190818152602001828054612b2990614991565b8015612b765780601f10612b4b57610100808354040283529160200191612b76565b820191906000526020600020905b815481529060010190602001808311612b5957829003601f168201915b5050505050828683612b88919061494e565b81518110612ba657634e487b7160e01b600052603260045260246000fd5b60200260200101819052508080612bbc906149cc565b915050612aa9565b3360009081526001602052604090205460ff16612bf35760405162461bcd60e51b81526004016105d4906147c5565b6001600160a01b038116612c555760405162461bcd60e51b8152602060048201526024808201527f48616e646c65723a204c6f6f742063616e6e6f742062652061646472657373206044820152637a65726f60e01b60648201526084016105d4565b600b80546001600160a01b0319166001600160a01b0392909216919091179055565b8051825114612c985760405162461bcd60e51b81526004016105d4906147f1565b60005b8251811015612dbb576000612cff848381518110612cc957634e487b7160e01b600052603260045260246000fd5b602002602001015133858581518110612cf257634e487b7160e01b600052603260045260246000fd5b6020026020010151613542565b90506002600101848381518110612d2657634e487b7160e01b600052603260045260246000fd5b6020026020010151604051612d3b91906144e0565b908152604051908190036020018120546306caef4d60e51b82526001600160a01b03169063d95de9a090612d7590339085906004016145fd565b600060405180830381600087803b158015612d8f57600080fd5b505af1158015612da3573d6000803e3d6000fd5b50505050508080612db3906149cc565b915050612c9b565b505050565b600b5460405163a933c20f60e01b815260609182916001600160a01b039091169063a933c20f90612df790339087906004016145fd565b600060405180830381600087803b158015612e1157600080fd5b505af1158015612e25573d6000803e3d6000fd5b505050506040513d6000823e601f3d908101601f19168201604052612e4d9190810190614027565b909250905060005b8251811015612f8d576000612e93848381518110612e8357634e487b7160e01b600052603260045260246000fd5b6020026020010151336001613542565b90506002600101848381518110612eba57634e487b7160e01b600052603260045260246000fd5b6020026020010151604051612ecf91906144e0565b908152602001604051809103902060009054906101000a90046001600160a01b03166001600160a01b031663fd3845043383868681518110612f2157634e487b7160e01b600052603260045260246000fd5b60200260200101516040518463ffffffff1660e01b8152600401612f4793929190614621565b600060405180830381600087803b158015612f6157600080fd5b505af1158015612f75573d6000803e3d6000fd5b50505050508080612f85906149cc565b915050612e55565b50505050565b6001600160a01b038216331480612fb957503360009081526001602052604090205460ff165b612fd55760405162461bcd60e51b81526004016105d490614828565b604051600590612fe69083906144e0565b9081526040519081900360200190205460ff166130155760405162461bcd60e51b81526004016105d49061486c565b60008060026001018360405161302b91906144e0565b908152604051908190036020018120546318c880ef60e21b82526001600160a01b038681166004840152169063632203bc906024016040805180830381600087803b15801561307957600080fd5b505af115801561308d573d6000803e3d6000fd5b505050506040513d601f19601f820116820180604052508101906130b19190614457565b600c5460405163fbe12f1d60e01b81529294509092506001600160a01b03169063fbe12f1d9061276f9088908890879087906004016145d4565b3360009081526001602052604090205460ff1661311a5760405162461bcd60e51b81526004016105d4906147c5565b600b546040516343836c7f60e11b81526001600160a01b0390911690638706d8fe90610aad90869085908790600401614792565b3360009081526001602052604090205460ff1661317d5760405162461bcd60e51b81526004016105d4906147c5565b6001600160a01b0381166131df5760405162461bcd60e51b815260206004820152602360248201527f48616e646c65723a204e66742063616e6e6f742062652061646472657373207a60448201526265726f60e81b60648201526084016105d4565b600a80546001600160a01b0319166001600160a01b0392909216919091179055565b82518451146132225760405162461bcd60e51b81526004016105d4906147f1565b600061322f833384613542565b9050600080600060026001018660405161324991906144e0565b908152604051908190036020018120546319309eb560e21b82526001600160a01b0316906364c27ad49061328390339088906004016145fd565b602060405180830381600087803b15801561329d57600080fd5b505af11580156132b1573d6000803e3d6000fd5b505050506040513d601f19601f820116820180604052508101906132d5919061441e565b905060005b885181101561347757600260030189828151811061330857634e487b7160e01b600052603260045260246000fd5b602002602001015160405161331d91906144e0565b9081526040519081900360200190205460ff1661334c5760405162461bcd60e51b81526004016105d49061486c565b60008060026001018b848151811061337457634e487b7160e01b600052603260045260246000fd5b602002602001015160405161338991906144e0565b908152604051908190036020019020548a516001600160a01b039091169063daf73bbd9033908d90879081106133cf57634e487b7160e01b600052603260045260246000fd5b60200260200101516040518363ffffffff1660e01b81526004016133f49291906145fd565b6040805180830381600087803b15801561340d57600080fd5b505af1158015613421573d6000803e3d6000fd5b505050506040513d601f19601f820116820180604052508101906134459190614457565b90925090506134548287614936565b95506134608186614936565b94505050808061346f906149cc565b9150506132da565b50828111156134c85760405162461bcd60e51b815260206004820152601b60248201527f48616e646c65723a204e6f7420656e6f7567682070656e64696e67000000000060448201526064016105d4565b600c546001600160a01b031663c7ae05318a336134e5858861494e565b866040518563ffffffff1660e01b815260040161350594939291906145d4565b600060405180830381600087803b15801561351f57600080fd5b505af1158015613533573d6000803e3d6000fd5b50505050505050505050505050565b606060026003018460405161355791906144e0565b9081526040519081900360200190205460ff166135865760405162461bcd60e51b81526004016105d49061486c565b600a54604051635181db2b60e01b81526000916001600160a01b031690635181db2b906135bb90889088908890600401614764565b600060405180830381600087803b1580156135d557600080fd5b505af11580156135e9573d6000803e3d6000fd5b505050506040513d6000823e601f3d908101601f19168201604052613611919081019061410f565b905060005b81518110156136625761365082828151811061364257634e487b7160e01b600052603260045260246000fd5b6020026020010151876137bb565b8061365a816149cc565b915050613616565b50949350505050565b60405160059061367c9084906144e0565b9081526040519081900360200190205460ff16156136dc57806002600101836040516136a891906144e0565b90815260405190819003602001902080546001600160a01b03929092166001600160a01b0319909216919091179055610cf6565b60016002600301836040516136f191906144e0565b908152604051908190036020018120805492151560ff199093169290921790915581906003906137229085906144e0565b90815260405190819003602001812080546001600160a01b03939093166001600160a01b031990931692909217909155600254906004906137649085906144e0565b9081526040516020918190038201902091909155600280546001810182556000919091528351612dbb927f405787fa12a823e0f2b7631cc41b3ba8828b3321ca811111fa75cd3aa3bb5ace90920191850190613999565b60008281526009602052604090205460ff16156137f757600082815260076020908152604090912082516137f192840190613999565b50610cf6565b6000828152600960209081526040808320805460ff1916600117905560078252909120825161382892840190613999565b5050600680546000838152600860205260408120829055600182018355919091527ff652222313e28459528d920b65115c16c04f3efc82aaedc97be59f3f377c0d3f0155565b60008181526009602052604090205460ff1661388957613996565b6000818152600960209081526040808320805460ff19169055600790915281206138b291613a1d565b6000818152600860205260408120546006549091906138d39060019061494e565b90506000600660000182815481106138fb57634e487b7160e01b600052603260045260246000fd5b600091825260208083209091015480835260089091526040808320869055868352822091909155905081831461395d57806006600001848154811061395057634e487b7160e01b600052603260045260246000fd5b6000918252602090912001555b600680548061397c57634e487b7160e01b600052603160045260246000fd5b600190038181906000526020600020016000905590555050505b50565b8280546139a590614991565b90600052602060002090601f0160209004810192826139c75760008555613a0d565b82601f106139e057805160ff1916838001178555613a0d565b82800160010185558215613a0d579182015b82811115613a0d5782518255916020019190600101906139f2565b50613a19929150613a55565b5090565b508054613a2990614991565b6000825580601f10613a3b5750613996565b601f01602090049060005260206000209081019061399691905b5b80821115613a195760008155600101613a56565b80356001600160a01b038116811461120257600080fd5b600082601f830112613a91578081fd5b81356020613aa6613aa1836148ec565b6148bc565b82815281810190858301855b85811015613adb57613ac9898684358b0101613bf3565b84529284019290840190600101613ab2565b5090979650505050505050565b600082601f830112613af8578081fd5b81356020613b08613aa1836148ec565b8281528181019085830183850287018401881015613b24578586fd5b855b85811015613adb57613b3782613c4d565b84529284019290840190600101613b26565b600082601f830112613b59578081fd5b81356020613b69613aa1836148ec565b82815281810190858301855b85811015613adb57613b8c898684358b0101613c5d565b84529284019290840190600101613b75565b600082601f830112613bae578081fd5b81516020613bbe613aa1836148ec565b82815281810190858301855b85811015613adb57613be1898684518b0101613ca9565b84529284019290840190600101613bca565b600082601f830112613c03578081fd5b81356020613c13613aa1836148ec565b8281528181019085830183850287018401881015613c2f578586fd5b855b85811015613adb57813584529284019290840190600101613c31565b8035801515811461120257600080fd5b600082601f830112613c6d578081fd5b8135613c7b613aa18261490f565b818152846020838601011115613c8f578283fd5b816020850160208301379081016020019190915292915050565b600082601f830112613cb9578081fd5b8151613cc7613aa18261490f565b818152846020838601011115613cdb578283fd5b613cec826020830160208701614965565b949350505050565b600060208284031215613d05578081fd5b613d0e82613a6a565b9392505050565b60008060408385031215613d27578081fd5b613d3083613a6a565b9150613d3e60208401613a6a565b90509250929050565b60008060008060808587031215613d5c578182fd5b613d6585613a6a565b9350613d7360208601613a6a565b925060408501356001600160401b0380821115613d8e578384fd5b613d9a88838901613b49565b93506060870135915080821115613daf578283fd5b50613dbc87828801613a81565b91505092959194509250565b600080600060608486031215613ddc578081fd5b613de584613a6a565b9250613df360208501613a6a565b915060408401356001600160401b03811115613e0d578182fd5b613e1986828701613c5d565b9150509250925092565b600080600060608486031215613e37578081fd5b613e4084613a6a565b9250613e4e60208501613a6a565b9150604084013590509250925092565b600080600080600060a08688031215613e75578283fd5b613e7e86613a6a565b945060208601356001600160401b0380821115613e99578485fd5b613ea589838a01613b49565b95506040880135915080821115613eba578485fd5b613ec689838a01613a81565b94506060880135915080821115613edb578283fd5b50613ee888828901613c5d565b95989497509295608001359392505050565b60008060408385031215613f0c578182fd5b613f1583613a6a565b9150613d3e60208401613c4d565b60008060008060808587031215613f38578182fd5b613f4185613a6a565b935060208501356001600160401b0380821115613f5c578384fd5b613f6888838901613c5d565b9450604087013593506060870135915080821115613f84578283fd5b50613dbc87828801613c5d565b60006020808385031215613fa3578182fd5b82356001600160401b03811115613fb8578283fd5b8301601f81018513613fc8578283fd5b8035613fd6613aa1826148ec565b8181528381019083850185840285018601891015613ff2578687fd5b8694505b8385101561401b5761400781613a6a565b835260019490940193918501918501613ff6565b50979650505050505050565b60008060408385031215614039578182fd5b82516001600160401b038082111561404f578384fd5b61405b86838701613b9e565b93506020850151915080821115614070578283fd5b5061407d85828601613b9e565b9150509250929050565b60008060408385031215614099578182fd5b82356001600160401b03808211156140af578384fd5b6140bb86838701613b49565b935060208501359150808211156140d0578283fd5b5061407d85828601613bf3565b6000602082840312156140ee578081fd5b81356001600160401b03811115614103578182fd5b613cec84828501613bf3565b60006020808385031215614121578182fd5b82516001600160401b03811115614136578283fd5b8301601f81018513614146578283fd5b8051614154613aa1826148ec565b8181528381019083850185840285018601891015614170578687fd5b8694505b8385101561401b578051835260019490940193918501918501614174565b6000602082840312156141a3578081fd5b81356001600160401b038111156141b8578182fd5b613cec84828501613c5d565b6000602082840312156141d5578081fd5b81516001600160401b038111156141ea578182fd5b613cec84828501613ca9565b60008060408385031215614208578182fd5b82356001600160401b0381111561421d578283fd5b61422985828601613c5d565b925050613d3e60208401613a6a565b600080600080600080600060e0888a031215614252578485fd5b87356001600160401b0380821115614268578687fd5b6142748b838c01613c5d565b985061428260208b01613a6a565b975060408a0135915080821115614297578687fd5b6142a38b838c01613bf3565b965060608a0135955060808a01359150808211156142bf578384fd5b6142cb8b838c01613ae8565b94506142d960a08b01613c4d565b935060c08a01359150808211156142ee578283fd5b506142fb8a828b01613c5d565b91505092959891949750929550565b60008060006060848603121561431e578081fd5b83356001600160401b03811115614333578182fd5b61433f86828701613c5d565b935050613e4e60208501613a6a565b600080600080600080600060e0888a031215614368578081fd5b87356001600160401b038082111561437e578283fd5b61438a8b838c01613c5d565b985061439860208b01613a6a565b975060408a0135965060608a01359150808211156143b4578283fd5b6143c08b838c01613ae8565b95506143ce60808b01613c4d565b945060a08a01359150808211156143e3578283fd5b506143f08a828b01613c5d565b92505060c0880135905092959891949750929550565b600060208284031215614417578081fd5b5035919050565b60006020828403121561442f578081fd5b5051919050565b60008060408385031215614448578182fd5b50508035926020909101359150565b60008060408385031215614469578182fd5b505080516020909101519092909150565b6000815180845260208085019450808401835b838110156144a95781518752958201959082019060010161448d565b509495945050505050565b600081518084526144cc816020860160208601614965565b601f01601f19169290920160200192915050565b600082516144f2818460208701614965565b9190910192915050565b815460009081906002810460018083168061451857607f831692505b602080841082141561453857634e487b7160e01b87526022600452602487fd5b81801561454c576001811461455d57614589565b60ff19861689528489019650614589565b60008a815260209020885b868110156145815781548b820152908501908301614568565b505084890196505b509498975050505050505050565b6001600160a01b03858116825284166020820152604081018390526080606082018190526000906145ca908301846144b4565b9695505050505050565b6001600160a01b0394851681529290931660208301526040820152606081019190915260800190565b6001600160a01b0383168152604060208201819052600090613cec9083018461447a565b6001600160a01b03841681526060602082018190526000906146459083018561447a565b82810360408401526145ca81856144b4565b600060018060a01b03881682526020878184015260c0604084015261467f60c084018861447a565b8381036060850152865180825282880191830190845b818110156146b3578351151583529284019291840191600101614695565b5050861515608086015284810360a08601526146cf81876144b4565b9b9a5050505050505050505050565b6000602080830181845280855180835260408601915060408482028701019250838701855b8281101561473157603f1988860301845261471f8583516144b4565b94509285019290850190600101614703565b5092979650505050505050565b600060208252613d0e602083018461447a565b600060208252613d0e60208301846144b4565b60006060825261477760608301866144b4565b6001600160a01b039490941660208301525060400152919050565b6000606082526147a560608301866144b4565b6020830194909452506001600160a01b0391909116604090910152919050565b60208082526012908201527127bbb732b9399d1027b7363c9027bbb732b960711b604082015260600190565b60208082526018908201527f48616e646c65723a204c656e677468206d69736d617463680000000000000000604082015260600190565b60208082526024908201527f48616e646c65723a20446f6e74206d6573732077697468206f7468657220636c60408201526361696d7360e01b606082015260800190565b6020808252601e908201527f48616e646c65723a204e6f64655479706520646f65736e742065786973740000604082015260600190565b600083825260406020830152613cec60408301846144b4565b604051601f8201601f191681016001600160401b03811182821017156148e4576148e46149fd565b604052919050565b60006001600160401b03821115614905576149056149fd565b5060209081020190565b60006001600160401b03821115614928576149286149fd565b50601f01601f191660200190565b60008219821115614949576149496149e7565b500190565b600082821015614960576149606149e7565b500390565b60005b83811015614980578181015183820152602001614968565b83811115612f8d5750506000910152565b6002810460018216806149a557607f821691505b602082108114156149c657634e487b7160e01b600052602260045260246000fd5b50919050565b60006000198214156149e0576149e06149e7565b5060010190565b634e487b7160e01b600052601160045260246000fd5b634e487b7160e01b600052604160045260246000fdfea2646970667358221220ef0af48f5fab8e0d49580b77070f7f69bce061a81738c85e7db90fb4f3a2303664736f6c63430008020033",
  "linkReferences": {},
  "deployedLinkReferences": {}
}