{
  "_format": "hh-sol-artifact-1",
  "contractName": "PolarMarketPlace",
  "sourceName": "contracts/PolarMarketPlace.sol",
  "abi": [
    {
      "inputs": [
        {
          "internalType": "address",
          "name": "_polar",
          "type": "address"
        },
        {
          "internalType": "address",
          "name": "_swapper",
          "type": "address"
        },
        {
          "internalType": "uint256",
          "name": "_fee",
          "type": "uint256"
        }
      ],
      "stateMutability": "nonpayable",
      "type": "constructor"
    },
    {
      "inputs": [
        {
          "internalType": "address",
          "name": "_new",
          "type": "address"
        },
        {
          "internalType": "bool",
          "name": "_change",
          "type": "bool"
        }
      ],
      "name": "addOwner",
      "outputs": [],
      "stateMutability": "nonpayable",
      "type": "function"
    },
    {
      "inputs": [],
      "name": "fee",
      "outputs": [
        {
          "internalType": "uint256",
          "name": "",
          "type": "uint256"
        }
      ],
      "stateMutability": "view",
      "type": "function"
    },
    {
      "inputs": [
        {
          "internalType": "address",
          "name": "_nft",
          "type": "address"
        },
        {
          "internalType": "uint256",
          "name": "_tokenId",
          "type": "uint256"
        }
      ],
      "name": "forceAuctionEnd",
      "outputs": [],
      "stateMutability": "nonpayable",
      "type": "function"
    },
    {
      "inputs": [
        {
          "internalType": "address",
          "name": "_nft",
          "type": "address"
        },
        {
          "internalType": "uint256",
          "name": "iStart",
          "type": "uint256"
        },
        {
          "internalType": "uint256",
          "name": "iEnd",
          "type": "uint256"
        }
      ],
      "name": "getAuctionOfBetweenIndexes",
      "outputs": [
        {
          "components": [
            {
              "internalType": "address",
              "name": "owner",
              "type": "address"
            },
            {
              "internalType": "uint256",
              "name": "tokenId",
              "type": "uint256"
            },
            {
              "internalType": "uint256",
              "name": "currentPrice",
              "type": "uint256"
            },
            {
              "internalType": "address",
              "name": "nextOwner",
              "type": "address"
            },
            {
              "internalType": "uint256",
              "name": "end",
              "type": "uint256"
            },
            {
              "internalType": "uint256",
              "name": "creationTime",
              "type": "uint256"
            }
          ],
          "internalType": "struct PolarMarketPlace.Auction[]",
          "name": "",
          "type": "tuple[]"
        }
      ],
      "stateMutability": "view",
      "type": "function"
    },
    {
      "inputs": [
        {
          "internalType": "address",
          "name": "_nft",
          "type": "address"
        },
        {
          "internalType": "uint256",
          "name": "iStart",
          "type": "uint256"
        },
        {
          "internalType": "uint256",
          "name": "iEnd",
          "type": "uint256"
        }
      ],
      "name": "getAuctionOfKeysBetweenIndexes",
      "outputs": [
        {
          "internalType": "uint256[]",
          "name": "",
          "type": "uint256[]"
        }
      ],
      "stateMutability": "view",
      "type": "function"
    },
    {
      "inputs": [
        {
          "internalType": "address",
          "name": "_nft",
          "type": "address"
        }
      ],
      "name": "getAuctionOfSize",
      "outputs": [
        {
          "internalType": "uint256",
          "name": "",
          "type": "uint256"
        }
      ],
      "stateMutability": "view",
      "type": "function"
    },
    {
      "inputs": [],
      "name": "getNftAddressAll",
      "outputs": [
        {
          "internalType": "address[]",
          "name": "",
          "type": "address[]"
        }
      ],
      "stateMutability": "view",
      "type": "function"
    },
    {
      "inputs": [
        {
          "internalType": "uint256",
          "name": "iStart",
          "type": "uint256"
        },
        {
          "internalType": "uint256",
          "name": "iEnd",
          "type": "uint256"
        }
      ],
      "name": "getNftAddressBetweenIndexes",
      "outputs": [
        {
          "internalType": "address[]",
          "name": "",
          "type": "address[]"
        }
      ],
      "stateMutability": "view",
      "type": "function"
    },
    {
      "inputs": [],
      "name": "getNftSize",
      "outputs": [
        {
          "internalType": "uint256",
          "name": "",
          "type": "uint256"
        }
      ],
      "stateMutability": "view",
      "type": "function"
    },
    {
      "inputs": [
        {
          "internalType": "address",
          "name": "_nft",
          "type": "address"
        },
        {
          "internalType": "uint256",
          "name": "iStart",
          "type": "uint256"
        },
        {
          "internalType": "uint256",
          "name": "iEnd",
          "type": "uint256"
        }
      ],
      "name": "getOfferOfBetweenIndexes",
      "outputs": [
        {
          "components": [
            {
              "internalType": "address",
              "name": "owner",
              "type": "address"
            },
            {
              "internalType": "uint256",
              "name": "tokenId",
              "type": "uint256"
            },
            {
              "internalType": "uint256",
              "name": "price",
              "type": "uint256"
            },
            {
              "internalType": "uint256",
              "name": "creationTime",
              "type": "uint256"
            }
          ],
          "internalType": "struct PolarMarketPlace.Offer[]",
          "name": "",
          "type": "tuple[]"
        }
      ],
      "stateMutability": "view",
      "type": "function"
    },
    {
      "inputs": [
        {
          "internalType": "address",
          "name": "_nft",
          "type": "address"
        },
        {
          "internalType": "uint256",
          "name": "iStart",
          "type": "uint256"
        },
        {
          "internalType": "uint256",
          "name": "iEnd",
          "type": "uint256"
        }
      ],
      "name": "getOfferOfKeysBetweenIndexes",
      "outputs": [
        {
          "internalType": "uint256[]",
          "name": "",
          "type": "uint256[]"
        }
      ],
      "stateMutability": "view",
      "type": "function"
    },
    {
      "inputs": [
        {
          "internalType": "address",
          "name": "_nft",
          "type": "address"
        }
      ],
      "name": "getOfferOfSize",
      "outputs": [
        {
          "internalType": "uint256",
          "name": "",
          "type": "uint256"
        }
      ],
      "stateMutability": "view",
      "type": "function"
    },
    {
      "inputs": [],
      "name": "getOwnersSize",
      "outputs": [
        {
          "internalType": "uint256",
          "name": "",
          "type": "uint256"
        }
      ],
      "stateMutability": "view",
      "type": "function"
    },
    {
      "inputs": [
        {
          "internalType": "address",
          "name": "",
          "type": "address"
        }
      ],
      "name": "isBlacklistedNft",
      "outputs": [
        {
          "internalType": "bool",
          "name": "",
          "type": "bool"
        }
      ],
      "stateMutability": "view",
      "type": "function"
    },
    {
      "inputs": [
        {
          "internalType": "address",
          "name": "",
          "type": "address"
        }
      ],
      "name": "isOwner",
      "outputs": [
        {
          "internalType": "bool",
          "name": "",
          "type": "bool"
        }
      ],
      "stateMutability": "view",
      "type": "function"
    },
    {
      "inputs": [],
      "name": "openAuction",
      "outputs": [
        {
          "internalType": "bool",
          "name": "",
          "type": "bool"
        }
      ],
      "stateMutability": "view",
      "type": "function"
    },
    {
      "inputs": [],
      "name": "openOffer",
      "outputs": [
        {
          "internalType": "bool",
          "name": "",
          "type": "bool"
        }
      ],
      "stateMutability": "view",
      "type": "function"
    },
    {
      "inputs": [
        {
          "internalType": "uint256",
          "name": "",
          "type": "uint256"
        }
      ],
      "name": "owners",
      "outputs": [
        {
          "internalType": "address",
          "name": "",
          "type": "address"
        }
      ],
      "stateMutability": "view",
      "type": "function"
    },
    {
      "inputs": [],
      "name": "polar",
      "outputs": [
        {
          "internalType": "address",
          "name": "",
          "type": "address"
        }
      ],
      "stateMutability": "view",
      "type": "function"
    },
    {
      "inputs": [
        {
          "internalType": "address",
          "name": "_nft",
          "type": "address"
        },
        {
          "internalType": "uint256",
          "name": "_tokenId",
          "type": "uint256"
        },
        {
          "internalType": "uint256",
          "name": "_currentPrice",
          "type": "uint256"
        }
      ],
      "name": "purchaseAuctionItem",
      "outputs": [],
      "stateMutability": "nonpayable",
      "type": "function"
    },
    {
      "inputs": [
        {
          "internalType": "address",
          "name": "_nft",
          "type": "address"
        },
        {
          "internalType": "uint256",
          "name": "_tokenId",
          "type": "uint256"
        }
      ],
      "name": "purchaseOfferItem",
      "outputs": [],
      "stateMutability": "nonpayable",
      "type": "function"
    },
    {
      "inputs": [
        {
          "internalType": "address",
          "name": "_nft",
          "type": "address"
        },
        {
          "internalType": "uint256",
          "name": "_tokenId",
          "type": "uint256"
        }
      ],
      "name": "recoverAuctionItem",
      "outputs": [],
      "stateMutability": "nonpayable",
      "type": "function"
    },
    {
      "inputs": [
        {
          "internalType": "address",
          "name": "_nft",
          "type": "address"
        },
        {
          "internalType": "uint256",
          "name": "_tokenId",
          "type": "uint256"
        }
      ],
      "name": "recoverOfferItem",
      "outputs": [],
      "stateMutability": "nonpayable",
      "type": "function"
    },
    {
      "inputs": [
        {
          "internalType": "address",
          "name": "_new",
          "type": "address"
        }
      ],
      "name": "removeOwner",
      "outputs": [],
      "stateMutability": "nonpayable",
      "type": "function"
    },
    {
      "inputs": [
        {
          "internalType": "address",
          "name": "_nft",
          "type": "address"
        },
        {
          "internalType": "uint256",
          "name": "_tokenId",
          "type": "uint256"
        },
        {
          "internalType": "uint256",
          "name": "_currentPrice",
          "type": "uint256"
        },
        {
          "internalType": "uint256",
          "name": "_end",
          "type": "uint256"
        }
      ],
      "name": "sellAuctionItem",
      "outputs": [],
      "stateMutability": "nonpayable",
      "type": "function"
    },
    {
      "inputs": [
        {
          "internalType": "address",
          "name": "_nft",
          "type": "address"
        },
        {
          "internalType": "uint256",
          "name": "_tokenId",
          "type": "uint256"
        },
        {
          "internalType": "uint256",
          "name": "_price",
          "type": "uint256"
        }
      ],
      "name": "sellOfferItem",
      "outputs": [],
      "stateMutability": "nonpayable",
      "type": "function"
    },
    {
      "inputs": [
        {
          "internalType": "uint256",
          "name": "_new",
          "type": "uint256"
        }
      ],
      "name": "setFee",
      "outputs": [],
      "stateMutability": "nonpayable",
      "type": "function"
    },
    {
      "inputs": [
        {
          "internalType": "address",
          "name": "_nft",
          "type": "address"
        },
        {
          "internalType": "bool",
          "name": "_new",
          "type": "bool"
        }
      ],
      "name": "setIsBlacklistedNft",
      "outputs": [],
      "stateMutability": "nonpayable",
      "type": "function"
    },
    {
      "inputs": [
        {
          "internalType": "bool",
          "name": "_new",
          "type": "bool"
        }
      ],
      "name": "setOpenAuction",
      "outputs": [],
      "stateMutability": "nonpayable",
      "type": "function"
    },
    {
      "inputs": [
        {
          "internalType": "bool",
          "name": "_new",
          "type": "bool"
        }
      ],
      "name": "setOpenOffer",
      "outputs": [],
      "stateMutability": "nonpayable",
      "type": "function"
    },
    {
      "inputs": [
        {
          "internalType": "address",
          "name": "_new",
          "type": "address"
        }
      ],
      "name": "setPolar",
      "outputs": [],
      "stateMutability": "nonpayable",
      "type": "function"
    },
    {
      "inputs": [
        {
          "internalType": "address",
          "name": "_new",
          "type": "address"
        }
      ],
      "name": "setSwapper",
      "outputs": [],
      "stateMutability": "nonpayable",
      "type": "function"
    },
    {
      "inputs": [],
      "name": "swapper",
      "outputs": [
        {
          "internalType": "address",
          "name": "",
          "type": "address"
        }
      ],
      "stateMutability": "view",
      "type": "function"
    }
  ],
  "bytecode": "0x60806040523480156200001157600080fd5b5060405162003258380380620032588339810160408190526200003491620000dd565b60008054600180820183557f290decd9548b62a8d60345a988386fc84ba6bc95484008f6362f93160ef3e5639091018054336001600160a01b0319918216811790925590835260208290526040909220805460ff1916821790556002556007805482166001600160a01b039586161790556008805490911692909316919091179091556009556200011d565b80516001600160a01b0381168114620000d857600080fd5b919050565b600080600060608486031215620000f2578283fd5b620000fd84620000c0565b92506200010d60208501620000c0565b9150604084015190509250925092565b61312b806200012d6000396000f3fe608060405234801561001057600080fd5b50600436106101fb5760003560e01c8063741fb3db1161011a578063a6cb7234116100ad578063ddca3f431161007c578063ddca3f4314610466578063e12ae5011461046f578063e1e39c5614610482578063f4a15f41146104af578063ff647931146104c2576101fb565b8063a6cb72341461042b578063bc9c10da14610438578063c88247681461044b578063db8ee6191461045e576101fb565b806396301d59116100e957806396301d59146103f25780639c82f2a4146103df578063a25772aa14610405578063a420a4c114610418576101fb565b8063741fb3db1461039957806380d8fcef146103b957806390ebc20a146103cc57806393d038ea146103df576101fb565b8063278a9da6116101925780634841a8fb116101615780634841a8fb14610340578063518e32d31461036057806369fe0e2d146103735780636ce3849814610386576101fb565b8063278a9da6146102d75780632b3297f9146102ea5780632f54bf6e146102fd5780633eea418e14610320576101fb565b8063173825d9116101ce578063173825d914610277578063180223c81461028c5780631fd6ef441461029f578063249f1db1146102b4576101fb565b8063025e7c271461020057806304cb72f9146102305780630996dc30146102525780630c7b1d7b14610265575b600080fd5b61021361020e366004612d11565b6104d5565b6040516001600160a01b0390911681526020015b60405180910390f35b600a5461024290610100900460ff1681565b6040519015158152602001610227565b600754610213906001600160a01b031681565b6000545b604051908152602001610227565b61028a610285366004612bef565b6104ff565b005b61026961029a366004612bef565b6107d4565b6102a76107f3565b6040516102279190612d6e565b6102426102c2366004612bef565b600b6020526000908152604090205460ff1681565b61028a6102e5366004612c46565b610858565b600854610213906001600160a01b031681565b61024261030b366004612bef565b60016020526000908152604090205460ff1681565b61033361032e366004612c6f565b610b73565b6040516102279190612dbb565b61035361034e366004612c6f565b610d37565b6040516102279190612e41565b61028a61036e366004612c10565b610eba565b61028a610381366004612d11565b6110d0565b61028a610394366004612c46565b611104565b6103ac6103a7366004612c6f565b6112fe565b6040516102279190612ea1565b61028a6103c7366004612c6f565b6113fb565b6103ac6103da366004612c6f565b6115c0565b61028a6103ed366004612bef565b6116b9565b61028a610400366004612cd9565b61170a565b61028a610413366004612cd9565b61174c565b61028a610426366004612ca1565b611795565b600a546102429060ff1681565b61028a610446366004612c46565b611934565b61028a610459366004612c10565b611d22565b600354610269565b61026960095481565b61028a61047d366004612c46565b611d7c565b610269610490366004612bef565b6001600160a01b03166000908152600460208190526040909120015490565b61028a6104bd366004612c6f565b612074565b6102a76104d0366004612d29565b612445565b600081815481106104e557600080fd5b6000918252602090912001546001600160a01b0316905081565b336001600160a01b03166000808154811061052a57634e487b7160e01b600052603260045260246000fd5b6000918252602090912001546001600160a01b03161461058c5760405162461bcd60e51b815260206004820152601860248201527727bbb732b9399d1027b7363c9029bab832b91027bbb732b960411b60448201526064015b60405180910390fd5b6001600160a01b03811660009081526001602052604090205460ff166105e85760405162461bcd60e51b815260206004820152601160248201527027bbb732b9399d102737ba1037bbb732b960791b6044820152606401610583565b6000808154811061060957634e487b7160e01b600052603260045260246000fd5b6000918252602090912001546001600160a01b038281169116141561067a5760405162461bcd60e51b815260206004820152602160248201527f4f776e6572733a2043616e6e6f742072656d6f7665207375706572206f776e656044820152603960f91b6064820152608401610583565b60015b6000548110156107b257816001600160a01b0316600082815481106106b257634e487b7160e01b600052603260045260246000fd5b6000918252602090912001546001600160a01b031614156107a057600080546106dd9060019061309f565b815481106106fb57634e487b7160e01b600052603260045260246000fd5b600091825260208220015481546001600160a01b0390911691908390811061073357634e487b7160e01b600052603260045260246000fd5b6000918252602082200180546001600160a01b0319166001600160a01b03939093169290921790915580548061077957634e487b7160e01b600052603160045260246000fd5b600082815260209020810160001990810180546001600160a01b03191690550190556107b2565b806107aa816130b6565b91505061067d565b506001600160a01b03166000908152600160205260409020805460ff19169055565b6001600160a01b0381166000908152600460205260409020545b919050565b6060600360000180548060200260200160405190810160405280929190818152602001828054801561084e57602002820191906000526020600020905b81546001600160a01b03168152600190910190602001808311610830575b5050505050905090565b3360009081526001602052604090205460ff166108875760405162461bcd60e51b815260040161058390612ed9565b6001600160a01b03821660009081526006602052604090205460ff166108bf5760405162461bcd60e51b815260040161058390612f05565b6001600160a01b038216600090815260046020908152604080832084845260070190915290205460ff166109055760405162461bcd60e51b81526004016105839061301d565b6001600160a01b0380831660009081526004602081815260408084208685526005908101835293819020815160c08101835281548716808252600183015494820194909452600282015492810192909252600381015490951660608201819052928501546080820152939092015460a084015214610ada57600061271060095483604001516109949190613080565b61099e9190613060565b600754835160408501519293506001600160a01b039091169163a9059cbb91906109c990859061309f565b6040516001600160e01b031960e085901b1681526001600160a01b0390921660048301526024820152604401602060405180830381600087803b158015610a0f57600080fd5b505af1158015610a23573d6000803e3d6000fd5b505050506040513d601f19601f82011682018060405250810190610a479190612cf5565b508015610ad85760075460085460405163a9059cbb60e01b81526001600160a01b0391821660048201526024810184905291169063a9059cbb90604401602060405180830381600087803b158015610a9e57600080fd5b505af1158015610ab2573d6000803e3d6000fd5b505050506040513d601f19601f82011682018060405250810190610ad69190612cf5565b505b505b60608101516040516323b872dd60e01b81526001600160a01b038516916323b872dd91610b0d9130918790600401612d4a565b600060405180830381600087803b158015610b2757600080fd5b505af1158015610b3b573d6000803e3d6000fd5b5050506001600160a01b0384166000908152600460208190526040909120610b6592500183612541565b610b6e83612696565b505050565b60606000610b81848461309f565b67ffffffffffffffff811115610ba757634e487b7160e01b600052604160045260246000fd5b604051908082528060200260200182016040528015610c2357816020015b610c106040518060c0016040528060006001600160a01b03168152602001600081526020016000815260200160006001600160a01b0316815260200160008152602001600081525090565b815260200190600190039081610bc55790505b506001600160a01b038616600090815260046020819052604090912091925001845b84811015610d2c57816001016000836000018381548110610c7657634e487b7160e01b600052603260045260246000fd5b600091825260208083209091015483528281019390935260409182019020815160c08101835281546001600160a01b039081168252600183015494820194909452600282015492810192909252600381015490921660608201526004820154608082015260059091015460a082015283610cf0888461309f565b81518110610d0e57634e487b7160e01b600052603260045260246000fd5b60200260200101819052508080610d24906130b6565b915050610c45565b509095945050505050565b60606000610d45848461309f565b67ffffffffffffffff811115610d6b57634e487b7160e01b600052604160045260246000fd5b604051908082528060200260200182016040528015610dd057816020015b610dbd604051806080016040528060006001600160a01b031681526020016000815260200160008152602001600081525090565b815260200190600190039081610d895790505b506001600160a01b0386166000908152600460205260409020909150845b84811015610d2c57816001016000836000018381548110610e1f57634e487b7160e01b600052603260045260246000fd5b600091825260208083209091015483528281019390935260409182019020815160808101835281546001600160a01b0316815260018201549381019390935260028101549183019190915260030154606082015283610e7e888461309f565b81518110610e9c57634e487b7160e01b600052603260045260246000fd5b60200260200101819052508080610eb2906130b6565b915050610dee565b336001600160a01b031660008081548110610ee557634e487b7160e01b600052603260045260246000fd5b6000918252602090912001546001600160a01b031614610f425760405162461bcd60e51b815260206004820152601860248201527727bbb732b9399d1027b7363c9029bab832b91027bbb732b960411b6044820152606401610583565b6001600160a01b03821660009081526001602052604090205460ff1615610fa35760405162461bcd60e51b815260206004820152601560248201527427bbb732b9399d1020b63932b0b23c9037bbb732b960591b6044820152606401610583565b6001600160a01b0382166000908152600160208190526040909120805460ff19169091179055801561108357600080600081548110610ff257634e487b7160e01b600052603260045260246000fd5b6000918252602080832090910154835460018101855593835290822090920180546001600160a01b0319166001600160a01b03909316929092179091558054839190819061105057634e487b7160e01b600052603260045260246000fd5b9060005260206000200160006101000a8154816001600160a01b0302191690836001600160a01b031602179055506110cc565b600080546001810182559080527f290decd9548b62a8d60345a988386fc84ba6bc95484008f6362f93160ef3e5630180546001600160a01b0319166001600160a01b0384161790555b5050565b3360009081526001602052604090205460ff166110ff5760405162461bcd60e51b815260040161058390612ed9565b600955565b6002805414156111265760405162461bcd60e51b815260040161058390612fe6565b600280556001600160a01b03821660009081526006602052604090205460ff166111625760405162461bcd60e51b815260040161058390612f05565b6001600160a01b038216600090815260046020908152604080832084845260030190915290205460ff166111a85760405162461bcd60e51b81526004016105839061301d565b6001600160a01b038083166000908152600460209081526040808320858452600190810183529281902081516080810183528154909516808652938101549285019290925260028201549084015260030154606083015233148061121b57503360009081526001602052604090205460ff165b6112675760405162461bcd60e51b815260206004820152601e60248201527f506f6c61724d61726b6574506c6163653a20556e617574686f72697a656400006044820152606401610583565b80516040516323b872dd60e01b81526001600160a01b038516916323b872dd916112979130918790600401612d4a565b600060405180830381600087803b1580156112b157600080fd5b505af11580156112c5573d6000803e3d6000fd5b5050506001600160a01b03841660009081526004602052604090206112eb915083612866565b6112f483612696565b5050600160025550565b6060600061130c848461309f565b67ffffffffffffffff81111561133257634e487b7160e01b600052604160045260246000fd5b60405190808252806020026020018201604052801561135b578160200160208202803683370190505b506001600160a01b038616600090815260046020819052604090912091925001845b84811015610d2c578160000181815481106113a857634e487b7160e01b600052603260045260246000fd5b90600052602060002001548387836113c0919061309f565b815181106113de57634e487b7160e01b600052603260045260246000fd5b6020908102919091010152806113f3816130b6565b91505061137d565b60028054141561141d5760405162461bcd60e51b815260040161058390612fe6565b60028055806114855760405162461bcd60e51b815260206004820152602e60248201527f506f6c61724d61726b6574506c6163653a205072696365206d7573742062652060448201526d067726561746572207468616e20360941b6064820152608401610583565b6001600160a01b0383166000908152600b602052604090205460ff16156114be5760405162461bcd60e51b815260040161058390612f9d565b600a5460ff166115105760405162461bcd60e51b815260206004820152601a60248201527f506f6c61724d61726b6574506c6163653a204e6f74206f70656e0000000000006044820152606401610583565b6040516323b872dd60e01b81526001600160a01b038416906323b872dd9061154090339030908790600401612d4a565b600060405180830381600087803b15801561155a57600080fd5b505af115801561156e573d6000803e3d6000fd5b5050505061157b836128e1565b6001600160a01b03831660009081526004602090815260409182902082516080810184523381529182018590529181018390524260608201526112f49190849061297a565b606060006115ce848461309f565b67ffffffffffffffff8111156115f457634e487b7160e01b600052604160045260246000fd5b60405190808252806020026020018201604052801561161d578160200160208202803683370190505b506001600160a01b0386166000908152600460205260409020909150845b84811015610d2c5781600001818154811061166657634e487b7160e01b600052603260045260246000fd5b906000526020600020015483878361167e919061309f565b8151811061169c57634e487b7160e01b600052603260045260246000fd5b6020908102919091010152806116b1816130b6565b91505061163b565b3360009081526001602052604090205460ff166116e85760405162461bcd60e51b815260040161058390612ed9565b600780546001600160a01b0319166001600160a01b0392909216919091179055565b3360009081526001602052604090205460ff166117395760405162461bcd60e51b815260040161058390612ed9565b600a805460ff1916911515919091179055565b3360009081526001602052604090205460ff1661177b5760405162461bcd60e51b815260040161058390612ed9565b600a80549115156101000261ff0019909216919091179055565b6002805414156117b75760405162461bcd60e51b815260040161058390612fe6565b600280556001600160a01b0384166000908152600b602052604090205460ff16156117f45760405162461bcd60e51b815260040161058390612f9d565b600a54610100900460ff1661184b5760405162461bcd60e51b815260206004820152601a60248201527f506f6c61724d61726b6574506c6163653a204e6f74206f70656e0000000000006044820152606401610583565b6040516323b872dd60e01b81526001600160a01b038516906323b872dd9061187b90339030908890600401612d4a565b600060405180830381600087803b15801561189557600080fd5b505af11580156118a9573d6000803e3d6000fd5b505050506118b6846128e1565b61192960036001016000866001600160a01b03166001600160a01b03168152602001908152602001600020600401846040518060c00160405280336001600160a01b03168152602001878152602001868152602001336001600160a01b0316815260200185815260200142815250612a6e565b505060016002555050565b6002805414156119565760405162461bcd60e51b815260040161058390612fe6565b600280556001600160a01b03821660009081526006602052604090205460ff166119925760405162461bcd60e51b815260040161058390612f05565b6001600160a01b038216600090815260046020908152604080832084845260070190915290205460ff166119d85760405162461bcd60e51b81526004016105839061301d565b6001600160a01b0380831660009081526004602081815260408084208685526005908101835293819020815160c081018352815487168152600182015493810193909352600281015491830191909152600381015490941660608201819052918401546080820152929091015460a0830152331480611a6657503360009081526001602052604090205460ff165b611ab25760405162461bcd60e51b815260206004820152601e60248201527f506f6c61724d61726b6574506c6163653a20556e617574686f72697a656400006044820152606401610583565b8060800151421015611b195760405162461bcd60e51b815260206004820152602a60248201527f506f6c61724d61726b6574506c6163653a2041756374696f6e206e6f742066696044820152691b9a5cda1959081e595d60b21b6064820152608401610583565b80606001516001600160a01b031681600001516001600160a01b031614611c975760006127106009548360400151611b519190613080565b611b5b9190613060565b600754835160408501519293506001600160a01b039091169163a9059cbb9190611b8690859061309f565b6040516001600160e01b031960e085901b1681526001600160a01b0390921660048301526024820152604401602060405180830381600087803b158015611bcc57600080fd5b505af1158015611be0573d6000803e3d6000fd5b505050506040513d601f19601f82011682018060405250810190611c049190612cf5565b508015611c955760075460085460405163a9059cbb60e01b81526001600160a01b0391821660048201526024810184905291169063a9059cbb90604401602060405180830381600087803b158015611c5b57600080fd5b505af1158015611c6f573d6000803e3d6000fd5b505050506040513d601f19601f82011682018060405250810190611c939190612cf5565b505b505b60608101516040516323b872dd60e01b81526001600160a01b038516916323b872dd91611cca9130918790600401612d4a565b600060405180830381600087803b158015611ce457600080fd5b505af1158015611cf8573d6000803e3d6000fd5b5050506001600160a01b03841660009081526004602081905260409091206112eb92500183612541565b3360009081526001602052604090205460ff16611d515760405162461bcd60e51b815260040161058390612ed9565b6001600160a01b03919091166000908152600b60205260409020805460ff1916911515919091179055565b600280541415611d9e5760405162461bcd60e51b815260040161058390612fe6565b600280556001600160a01b03821660009081526006602052604090205460ff16611dda5760405162461bcd60e51b815260040161058390612f05565b6001600160a01b038216600090815260046020908152604080832084845260030190915290205460ff16611e205760405162461bcd60e51b81526004016105839061301d565b6001600160a01b0380831660009081526004602090815260408083208584526001908101835292819020815160808101835281549095168086529381015492850192909252600282015490840152600301546060830152331415611e965760405162461bcd60e51b815260040161058390612f50565b60006127106009548360400151611ead9190613080565b611eb79190613060565b600754835160408501519293506001600160a01b03909116916323b872dd913391611ee390869061309f565b6040518463ffffffff1660e01b8152600401611f0193929190612d4a565b602060405180830381600087803b158015611f1b57600080fd5b505af1158015611f2f573d6000803e3d6000fd5b505050506040513d601f19601f82011682018060405250810190611f539190612cf5565b508015611fe7576007546008546040516323b872dd60e01b81526001600160a01b03928316926323b872dd92611f93923392909116908690600401612d4a565b602060405180830381600087803b158015611fad57600080fd5b505af1158015611fc1573d6000803e3d6000fd5b505050506040513d601f19601f82011682018060405250810190611fe59190612cf5565b505b6040516323b872dd60e01b81526001600160a01b038516906323b872dd9061201790309033908890600401612d4a565b600060405180830381600087803b15801561203157600080fd5b505af1158015612045573d6000803e3d6000fd5b5050506001600160a01b038516600090815260046020526040902061206b915084612866565b61192984612696565b6002805414156120965760405162461bcd60e51b815260040161058390612fe6565b600280556001600160a01b03831660009081526006602052604090205460ff166120d25760405162461bcd60e51b815260040161058390612f05565b6001600160a01b038316600090815260046020908152604080832085845260070190915290205460ff166121185760405162461bcd60e51b81526004016105839061301d565b6001600160a01b0380841660009081526004602081815260408084208785526005908101835293819020815160c0810183528154871680825260018301549482019490945260028201549281019290925260038101549095166060820152918401546080830152929091015460a0820152903314156121a95760405162461bcd60e51b815260040161058390612f50565b8060800151421061220f5760405162461bcd60e51b815260206004820152602a60248201527f506f6c61724d61726b6574506c6163653a2041756374696f6e20616c726561646044820152691e48199a5b9a5cda195960b21b6064820152608401610583565b806040015182116122885760405162461bcd60e51b815260206004820152603b60248201527f506f6c61724d61726b6574506c6163653a204e6577207072696365206d75737460448201527f20626520626967676572207468616e2063757272656e74206f6e6500000000006064820152608401610583565b80606001516001600160a01b031681600001516001600160a01b03161461233b576007546060820151604080840151905163a9059cbb60e01b81526001600160a01b039283166004820152602481019190915291169063a9059cbb90604401602060405180830381600087803b15801561230157600080fd5b505af1158015612315573d6000803e3d6000fd5b505050506040513d601f19601f820116820180604052508101906123399190612cf5565b505b6007546040516323b872dd60e01b81526001600160a01b03909116906323b872dd9061236f90339030908790600401612d4a565b602060405180830381600087803b15801561238957600080fd5b505af115801561239d573d6000803e3d6000fd5b505050506040513d601f19601f820116820180604052508101906123c19190612cf5565b5061192960036001016000866001600160a01b03166001600160a01b03168152602001908152602001600020600401846040518060c0016040528085600001516001600160a01b0316815260200185602001518152602001868152602001336001600160a01b03168152602001856080015181526020018560a00151815250612a6e565b60606000612453848461309f565b67ffffffffffffffff81111561247957634e487b7160e01b600052604160045260246000fd5b6040519080825280602002602001820160405280156124a2578160200160208202803683370190505b509050835b838110156125395760038054829081106124d157634e487b7160e01b600052603260045260246000fd5b6000918252602090912001546001600160a01b0316826124f1878461309f565b8151811061250f57634e487b7160e01b600052603260045260246000fd5b6001600160a01b039092166020928302919091019091015280612531816130b6565b9150506124a7565b509392505050565b600081815260038301602052604090205460ff1661255e576110cc565b6000818152600380840160209081526040808420805460ff191690556001808701835281852080546001600160a01b031990811682558183018790556002808301889055958201805490911690556004810186905560050185905592860190915282205484549092916125d09161309f565b905060008460000182815481106125f757634e487b7160e01b600052603260045260246000fd5b6000918252602080832090910154808352600288019091526040808320869055868352822091909155905081831461265a578085600001848154811061264d57634e487b7160e01b600052603260045260246000fd5b6000918252602090912001555b845485908061267957634e487b7160e01b600052603160045260246000fd5b600190038181906000526020600020016000905590555050505050565b6001600160a01b03811660009081526006602052604090205460ff166126bb57612863565b6001600160a01b03811660009081526004602081905260409091208054910154811580156126e7575080155b15610b6e576001600160a01b0383166000908152600660209081526040808320805460ff19169055600490915281209081816127238282612ba6565b50506004820160006127358282612ba6565b5050506001600160a01b0384166000908152600560205260408120546003549092506127639060019061309f565b905060006003600001828154811061278b57634e487b7160e01b600052603260045260246000fd5b60009182526020808320909101546001600160a01b03908116808452600590925260408084208790559089168352822091909155905081831461281c5780600360000184815481106127ed57634e487b7160e01b600052603260045260246000fd5b9060005260206000200160006101000a8154816001600160a01b0302191690836001600160a01b031602179055505b600380548061283b57634e487b7160e01b600052603160045260246000fd5b600082815260209020810160001990810180546001600160a01b031916905501905550505050505b50565b600081815260038301602052604090205460ff16612883576110cc565b6000818152600380840160209081526040808420805460ff191690556001808701835281852080546001600160a01b03191681558082018690556002808201879055940185905592860190915282205484549092916125d09161309f565b6001600160a01b03811660009081526006602052604090205460ff161561290757612863565b6001600160a01b03166000818152600660209081526040808320805460ff19166001908117909155600380546005909452918420839055820181559091527fc2575a0e9e593c00f959f8c92f12db2869c3395a3b0502d05e2516446f71f85b0180546001600160a01b0319169091179055565b600082815260038401602052604090205460ff16156129e857600082815260018481016020908152604092839020845181546001600160a01b0319166001600160a01b0390911617815590840151918101919091559082015160028201556060820151600390910155610b6e565b60008281526003848101602090815260408084208054600160ff1990911681179091558088018352818520865181546001600160a01b0319166001600160a01b0390911617815586840151818301558683015160028083019190915560609097015194019390935586549487018252832084905590830185559381529290922090910155565b600082815260038401602052604090205460ff1615612afc57600082815260018085016020908152604092839020845181546001600160a01b039182166001600160a01b0319918216178355928601519382019390935592840151600284015560608401516003840180549190931691161790556080820151600482015560a0820151600590910155610b6e565b6000828152600380850160209081526040808420805460ff191660019081179091558781018352818520865181546001600160a01b039182166001600160a01b031991821617835588860151838501558885015160028085019190915560608a0151978401805498909316979091169690961790556080870151600482015560a0870151600590910155875493880183529084208390558201865585835290912001829055505050565b508054600082559060005260206000209081019061286391905b80821115612bd45760008155600101612bc0565b5090565b80356001600160a01b03811681146107ee57600080fd5b600060208284031215612c00578081fd5b612c0982612bd8565b9392505050565b60008060408385031215612c22578081fd5b612c2b83612bd8565b91506020830135612c3b816130e7565b809150509250929050565b60008060408385031215612c58578182fd5b612c6183612bd8565b946020939093013593505050565b600080600060608486031215612c83578081fd5b612c8c84612bd8565b95602085013595506040909401359392505050565b60008060008060808587031215612cb6578081fd5b612cbf85612bd8565b966020860135965060408601359560600135945092505050565b600060208284031215612cea578081fd5b8135612c09816130e7565b600060208284031215612d06578081fd5b8151612c09816130e7565b600060208284031215612d22578081fd5b5035919050565b60008060408385031215612d3b578182fd5b50508035926020909101359150565b6001600160a01b039384168152919092166020820152604081019190915260600190565b6020808252825182820181905260009190848201906040850190845b81811015612daf5783516001600160a01b031683529284019291840191600101612d8a565b50909695505050505050565b602080825282518282018190526000919060409081850190868401855b82811015612e3457815180516001600160a01b03908116865287820151888701528682015187870152606080830151909116908601526080808201519086015260a0908101519085015260c09093019290850190600101612dd8565b5091979650505050505050565b602080825282518282018190526000919060409081850190868401855b82811015612e3457815180516001600160a01b03168552868101518786015285810151868601526060908101519085015260809093019290850190600101612e5e565b6020808252825182820181905260009190848201906040850190845b81811015612daf57835183529284019291840191600101612ebd565b60208082526012908201527127bbb732b9399d1027b7363c9027bbb732b960711b604082015260600190565b6020808252602b908201527f506f6c61724d61726b6574506c6163653a204e667420636f6e7472616374206960408201526a073206e6f742073657475760ac1b606082015260800190565b6020808252602d908201527f506f6c61724d61726b6574506c6163653a20596f752063616e6e6f742062757960408201526c081e5bdd5c881bdddb881b999d609a1b606082015260800190565b60208082526029908201527f506f6c61724d61726b6574506c6163653a204e6f7420617574686f72697a65646040820152680818dbdb9d1c9858dd60ba1b606082015260800190565b6020808252601f908201527f5265656e7472616e637947756172643a207265656e7472616e742063616c6c00604082015260600190565b60208082526023908201527f506f6c61724d61726b6574506c6163653a204974656d20646f65736e742065786040820152621a5cdd60ea1b606082015260800190565b60008261307b57634e487b7160e01b81526012600452602481fd5b500490565b600081600019048311821515161561309a5761309a6130d1565b500290565b6000828210156130b1576130b16130d1565b500390565b60006000198214156130ca576130ca6130d1565b5060010190565b634e487b7160e01b600052601160045260246000fd5b801515811461286357600080fdfea2646970667358221220e631f3ad3e85e620db3fcd8fd228b6b5abc61caf4032888e3caa21f3abc4315264736f6c63430008020033",
  "linkReferences": {},
  "deployedLinkReferences": {}
}