{
  "_format": "hh-sol-artifact-1",
  "contractName": "PolarMarketPlace",
  "sourceName": "contracts/PolarMarketPlace.sol",
  "abi": [
    {
      "inputs": [
        {
          "internalType": "address",
          "name": "_polar",
          "type": "address"
        },
        {
          "internalType": "address",
          "name": "_swapper",
          "type": "address"
        },
        {
          "internalType": "uint256",
          "name": "_fee",
          "type": "uint256"
        }
      ],
      "stateMutability": "nonpayable",
      "type": "constructor"
    },
    {
      "inputs": [
        {
          "internalType": "address",
          "name": "_new",
          "type": "address"
        },
        {
          "internalType": "bool",
          "name": "_change",
          "type": "bool"
        }
      ],
      "name": "addOwner",
      "outputs": [],
      "stateMutability": "nonpayable",
      "type": "function"
    },
    {
      "inputs": [
        {
          "internalType": "address",
          "name": "_nft",
          "type": "address"
        },
        {
          "internalType": "string[]",
          "name": "names",
          "type": "string[]"
        }
      ],
      "name": "deleteMapPrice",
      "outputs": [],
      "stateMutability": "nonpayable",
      "type": "function"
    },
    {
      "inputs": [],
      "name": "fee",
      "outputs": [
        {
          "internalType": "uint256",
          "name": "",
          "type": "uint256"
        }
      ],
      "stateMutability": "view",
      "type": "function"
    },
    {
      "inputs": [
        {
          "internalType": "address",
          "name": "_nft",
          "type": "address"
        },
        {
          "internalType": "uint256",
          "name": "_tokenId",
          "type": "uint256"
        }
      ],
      "name": "forceAuctionEnd",
      "outputs": [],
      "stateMutability": "nonpayable",
      "type": "function"
    },
    {
      "inputs": [
        {
          "internalType": "address",
          "name": "_nft",
          "type": "address"
        },
        {
          "internalType": "uint256",
          "name": "iStart",
          "type": "uint256"
        },
        {
          "internalType": "uint256",
          "name": "iEnd",
          "type": "uint256"
        }
      ],
      "name": "getAuctionOfBetweenIndexes",
      "outputs": [
        {
          "components": [
            {
              "internalType": "address",
              "name": "owner",
              "type": "address"
            },
            {
              "internalType": "uint256",
              "name": "tokenId",
              "type": "uint256"
            },
            {
              "internalType": "uint256",
              "name": "currentPrice",
              "type": "uint256"
            },
            {
              "internalType": "address",
              "name": "nextOwner",
              "type": "address"
            },
            {
              "internalType": "uint256",
              "name": "end",
              "type": "uint256"
            },
            {
              "internalType": "uint256",
              "name": "creationTime",
              "type": "uint256"
            }
          ],
          "internalType": "struct PolarMarketPlace.Auction[]",
          "name": "",
          "type": "tuple[]"
        }
      ],
      "stateMutability": "view",
      "type": "function"
    },
    {
      "inputs": [
        {
          "internalType": "address",
          "name": "_nft",
          "type": "address"
        },
        {
          "internalType": "uint256",
          "name": "iStart",
          "type": "uint256"
        },
        {
          "internalType": "uint256",
          "name": "iEnd",
          "type": "uint256"
        }
      ],
      "name": "getAuctionOfKeysBetweenIndexes",
      "outputs": [
        {
          "internalType": "uint256[]",
          "name": "",
          "type": "uint256[]"
        }
      ],
      "stateMutability": "view",
      "type": "function"
    },
    {
      "inputs": [
        {
          "internalType": "address",
          "name": "_nft",
          "type": "address"
        }
      ],
      "name": "getAuctionOfSize",
      "outputs": [
        {
          "internalType": "uint256",
          "name": "",
          "type": "uint256"
        }
      ],
      "stateMutability": "view",
      "type": "function"
    },
    {
      "inputs": [],
      "name": "getNftAddressAll",
      "outputs": [
        {
          "internalType": "address[]",
          "name": "",
          "type": "address[]"
        }
      ],
      "stateMutability": "view",
      "type": "function"
    },
    {
      "inputs": [
        {
          "internalType": "uint256",
          "name": "iStart",
          "type": "uint256"
        },
        {
          "internalType": "uint256",
          "name": "iEnd",
          "type": "uint256"
        }
      ],
      "name": "getNftAddressBetweenIndexes",
      "outputs": [
        {
          "internalType": "address[]",
          "name": "",
          "type": "address[]"
        }
      ],
      "stateMutability": "view",
      "type": "function"
    },
    {
      "inputs": [],
      "name": "getNftPricesAddressAll",
      "outputs": [
        {
          "internalType": "address[]",
          "name": "",
          "type": "address[]"
        }
      ],
      "stateMutability": "view",
      "type": "function"
    },
    {
      "inputs": [
        {
          "internalType": "uint256",
          "name": "iStart",
          "type": "uint256"
        },
        {
          "internalType": "uint256",
          "name": "iEnd",
          "type": "uint256"
        }
      ],
      "name": "getNftPricesAddressBetweenIndexes",
      "outputs": [
        {
          "internalType": "address[]",
          "name": "",
          "type": "address[]"
        }
      ],
      "stateMutability": "view",
      "type": "function"
    },
    {
      "inputs": [],
      "name": "getNftPricesSize",
      "outputs": [
        {
          "internalType": "uint256",
          "name": "",
          "type": "uint256"
        }
      ],
      "stateMutability": "view",
      "type": "function"
    },
    {
      "inputs": [],
      "name": "getNftSize",
      "outputs": [
        {
          "internalType": "uint256",
          "name": "",
          "type": "uint256"
        }
      ],
      "stateMutability": "view",
      "type": "function"
    },
    {
      "inputs": [
        {
          "internalType": "address",
          "name": "_nft",
          "type": "address"
        },
        {
          "internalType": "uint256",
          "name": "iStart",
          "type": "uint256"
        },
        {
          "internalType": "uint256",
          "name": "iEnd",
          "type": "uint256"
        }
      ],
      "name": "getOfferOfBetweenIndexes",
      "outputs": [
        {
          "components": [
            {
              "internalType": "address",
              "name": "owner",
              "type": "address"
            },
            {
              "internalType": "uint256",
              "name": "tokenId",
              "type": "uint256"
            },
            {
              "internalType": "uint256",
              "name": "price",
              "type": "uint256"
            },
            {
              "internalType": "uint256",
              "name": "creationTime",
              "type": "uint256"
            }
          ],
          "internalType": "struct PolarMarketPlace.Offer[]",
          "name": "",
          "type": "tuple[]"
        }
      ],
      "stateMutability": "view",
      "type": "function"
    },
    {
      "inputs": [
        {
          "internalType": "address",
          "name": "_nft",
          "type": "address"
        },
        {
          "internalType": "uint256",
          "name": "iStart",
          "type": "uint256"
        },
        {
          "internalType": "uint256",
          "name": "iEnd",
          "type": "uint256"
        }
      ],
      "name": "getOfferOfKeysBetweenIndexes",
      "outputs": [
        {
          "internalType": "uint256[]",
          "name": "",
          "type": "uint256[]"
        }
      ],
      "stateMutability": "view",
      "type": "function"
    },
    {
      "inputs": [
        {
          "internalType": "address",
          "name": "_nft",
          "type": "address"
        }
      ],
      "name": "getOfferOfSize",
      "outputs": [
        {
          "internalType": "uint256",
          "name": "",
          "type": "uint256"
        }
      ],
      "stateMutability": "view",
      "type": "function"
    },
    {
      "inputs": [],
      "name": "getOwnersSize",
      "outputs": [
        {
          "internalType": "uint256",
          "name": "",
          "type": "uint256"
        }
      ],
      "stateMutability": "view",
      "type": "function"
    },
    {
      "inputs": [
        {
          "internalType": "address",
          "name": "_nft",
          "type": "address"
        },
        {
          "internalType": "uint256",
          "name": "iStart",
          "type": "uint256"
        },
        {
          "internalType": "uint256",
          "name": "iEnd",
          "type": "uint256"
        }
      ],
      "name": "getPricesOfBetweenIndexes",
      "outputs": [
        {
          "components": [
            {
              "internalType": "uint256",
              "name": "offerPrice",
              "type": "uint256"
            },
            {
              "internalType": "uint256",
              "name": "auctionPrice",
              "type": "uint256"
            }
          ],
          "internalType": "struct PolarMarketPlace.MinPrices[]",
          "name": "",
          "type": "tuple[]"
        }
      ],
      "stateMutability": "view",
      "type": "function"
    },
    {
      "inputs": [
        {
          "internalType": "address",
          "name": "_nft",
          "type": "address"
        },
        {
          "internalType": "uint256",
          "name": "iStart",
          "type": "uint256"
        },
        {
          "internalType": "uint256",
          "name": "iEnd",
          "type": "uint256"
        }
      ],
      "name": "getPricesOfKeysBetweenIndexes",
      "outputs": [
        {
          "internalType": "string[]",
          "name": "",
          "type": "string[]"
        }
      ],
      "stateMutability": "view",
      "type": "function"
    },
    {
      "inputs": [
        {
          "internalType": "address",
          "name": "_nft",
          "type": "address"
        }
      ],
      "name": "getPricesOfSize",
      "outputs": [
        {
          "internalType": "uint256",
          "name": "",
          "type": "uint256"
        }
      ],
      "stateMutability": "view",
      "type": "function"
    },
    {
      "inputs": [
        {
          "internalType": "address",
          "name": "",
          "type": "address"
        }
      ],
      "name": "isBlacklistedNft",
      "outputs": [
        {
          "internalType": "bool",
          "name": "",
          "type": "bool"
        }
      ],
      "stateMutability": "view",
      "type": "function"
    },
    {
      "inputs": [
        {
          "internalType": "address",
          "name": "",
          "type": "address"
        }
      ],
      "name": "isOwner",
      "outputs": [
        {
          "internalType": "bool",
          "name": "",
          "type": "bool"
        }
      ],
      "stateMutability": "view",
      "type": "function"
    },
    {
      "inputs": [],
      "name": "openAuction",
      "outputs": [
        {
          "internalType": "bool",
          "name": "",
          "type": "bool"
        }
      ],
      "stateMutability": "view",
      "type": "function"
    },
    {
      "inputs": [],
      "name": "openOffer",
      "outputs": [
        {
          "internalType": "bool",
          "name": "",
          "type": "bool"
        }
      ],
      "stateMutability": "view",
      "type": "function"
    },
    {
      "inputs": [
        {
          "internalType": "uint256",
          "name": "",
          "type": "uint256"
        }
      ],
      "name": "owners",
      "outputs": [
        {
          "internalType": "address",
          "name": "",
          "type": "address"
        }
      ],
      "stateMutability": "view",
      "type": "function"
    },
    {
      "inputs": [],
      "name": "polar",
      "outputs": [
        {
          "internalType": "address",
          "name": "",
          "type": "address"
        }
      ],
      "stateMutability": "view",
      "type": "function"
    },
    {
      "inputs": [
        {
          "internalType": "address",
          "name": "_nft",
          "type": "address"
        },
        {
          "internalType": "uint256",
          "name": "_tokenId",
          "type": "uint256"
        },
        {
          "internalType": "uint256",
          "name": "_currentPrice",
          "type": "uint256"
        }
      ],
      "name": "purchaseAuctionItem",
      "outputs": [],
      "stateMutability": "nonpayable",
      "type": "function"
    },
    {
      "inputs": [
        {
          "internalType": "address",
          "name": "_nft",
          "type": "address"
        },
        {
          "internalType": "uint256",
          "name": "_tokenId",
          "type": "uint256"
        }
      ],
      "name": "purchaseOfferItem",
      "outputs": [],
      "stateMutability": "nonpayable",
      "type": "function"
    },
    {
      "inputs": [
        {
          "internalType": "address",
          "name": "_nft",
          "type": "address"
        },
        {
          "internalType": "uint256",
          "name": "_tokenId",
          "type": "uint256"
        }
      ],
      "name": "recoverAuctionItem",
      "outputs": [],
      "stateMutability": "nonpayable",
      "type": "function"
    },
    {
      "inputs": [
        {
          "internalType": "address",
          "name": "_nft",
          "type": "address"
        },
        {
          "internalType": "uint256",
          "name": "_tokenId",
          "type": "uint256"
        }
      ],
      "name": "recoverOfferItem",
      "outputs": [],
      "stateMutability": "nonpayable",
      "type": "function"
    },
    {
      "inputs": [
        {
          "internalType": "address",
          "name": "_new",
          "type": "address"
        }
      ],
      "name": "removeOwner",
      "outputs": [],
      "stateMutability": "nonpayable",
      "type": "function"
    },
    {
      "inputs": [
        {
          "internalType": "address",
          "name": "_nft",
          "type": "address"
        },
        {
          "internalType": "uint256",
          "name": "_tokenId",
          "type": "uint256"
        },
        {
          "internalType": "uint256",
          "name": "_currentPrice",
          "type": "uint256"
        },
        {
          "internalType": "uint256",
          "name": "_end",
          "type": "uint256"
        }
      ],
      "name": "sellAuctionItem",
      "outputs": [],
      "stateMutability": "nonpayable",
      "type": "function"
    },
    {
      "inputs": [
        {
          "internalType": "address",
          "name": "_nft",
          "type": "address"
        },
        {
          "internalType": "uint256",
          "name": "_tokenId",
          "type": "uint256"
        },
        {
          "internalType": "uint256",
          "name": "_price",
          "type": "uint256"
        }
      ],
      "name": "sellOfferItem",
      "outputs": [],
      "stateMutability": "nonpayable",
      "type": "function"
    },
    {
      "inputs": [
        {
          "internalType": "uint256",
          "name": "_new",
          "type": "uint256"
        }
      ],
      "name": "setFee",
      "outputs": [],
      "stateMutability": "nonpayable",
      "type": "function"
    },
    {
      "inputs": [
        {
          "internalType": "address",
          "name": "_nft",
          "type": "address"
        },
        {
          "internalType": "bool",
          "name": "_new",
          "type": "bool"
        }
      ],
      "name": "setIsBlacklistedNft",
      "outputs": [],
      "stateMutability": "nonpayable",
      "type": "function"
    },
    {
      "inputs": [
        {
          "internalType": "address",
          "name": "_nft",
          "type": "address"
        },
        {
          "internalType": "string[]",
          "name": "_names",
          "type": "string[]"
        },
        {
          "internalType": "uint256[]",
          "name": "_offerPrices",
          "type": "uint256[]"
        },
        {
          "internalType": "uint256[]",
          "name": "_auctionPrices",
          "type": "uint256[]"
        }
      ],
      "name": "setMinPrices",
      "outputs": [],
      "stateMutability": "nonpayable",
      "type": "function"
    },
    {
      "inputs": [
        {
          "internalType": "bool",
          "name": "_new",
          "type": "bool"
        }
      ],
      "name": "setOpenAuction",
      "outputs": [],
      "stateMutability": "nonpayable",
      "type": "function"
    },
    {
      "inputs": [
        {
          "internalType": "bool",
          "name": "_new",
          "type": "bool"
        }
      ],
      "name": "setOpenOffer",
      "outputs": [],
      "stateMutability": "nonpayable",
      "type": "function"
    },
    {
      "inputs": [
        {
          "internalType": "address",
          "name": "_new",
          "type": "address"
        }
      ],
      "name": "setPolar",
      "outputs": [],
      "stateMutability": "nonpayable",
      "type": "function"
    },
    {
      "inputs": [
        {
          "internalType": "address",
          "name": "_new",
          "type": "address"
        }
      ],
      "name": "setSwapper",
      "outputs": [],
      "stateMutability": "nonpayable",
      "type": "function"
    },
    {
      "inputs": [],
      "name": "swapper",
      "outputs": [
        {
          "internalType": "address",
          "name": "",
          "type": "address"
        }
      ],
      "stateMutability": "view",
      "type": "function"
    }
  ],
  "bytecode": "0x60806040523480156200001157600080fd5b506040516200489b3803806200489b8339810160408190526200003491620000dd565b60008054600180820183557f290decd9548b62a8d60345a988386fc84ba6bc95484008f6362f93160ef3e5639091018054336001600160a01b0319918216811790925590835260208290526040909220805460ff191682179055600255600b805482166001600160a01b03958616179055600c80549091169290931691909117909155600d556200011d565b80516001600160a01b0381168114620000d857600080fd5b919050565b600080600060608486031215620000f2578283fd5b620000fd84620000c0565b92506200010d60208501620000c0565b9150604084015190509250925092565b61476e806200012d6000396000f3fe608060405234801561001057600080fd5b50600436106102535760003560e01c8063723610f911610146578063a420a4c1116100c3578063ddca3f4311610087578063ddca3f4314610568578063e12ae50114610571578063e1e39c5614610584578063f383f6ee146105b1578063f4a15f41146105b9578063ff647931146105cc57610253565b8063a420a4c11461051a578063a6cb72341461052d578063bc9c10da1461053a578063c88247681461054d578063db8ee6191461056057610253565b806393d038ea1161010a57806393d038ea146104ce57806395827ace146104e157806396301d59146104f45780639c82f2a4146104ce578063a25772aa1461050757610253565b8063723610f91461044c578063741fb3db146104755780637dd3a6911461049557806380d8fcef146104a857806390ebc20a146104bb57610253565b80632b3297f9116101d4578063612d327111610198578063612d3271146103de578063632c18e1146103fe578063680baf6f1461040657806369fe0e2d146104265780636ce384981461043957610253565b80632b3297f9146103555780632f54bf6e146103685780633eea418e1461038b5780634841a8fb146103ab578063518e32d3146103cb57610253565b8063173825d91161021b578063173825d9146102ef578063180223c8146103045780631fd6ef4414610317578063249f1db11461031f578063278a9da61461034257610253565b8063025e7c2714610258578063049a8da51461028857806304cb72f9146102a85780630996dc30146102ca5780630c7b1d7b146102dd575b600080fd5b61026b61026636600461401c565b6105df565b6040516001600160a01b0390911681526020015b60405180910390f35b61029b610296366004614034565b610609565b60405161027f9190614130565b600e546102ba90610100900460ff1681565b604051901515815260200161027f565b600b5461026b906001600160a01b031681565b6000545b60405190815260200161027f565b6103026102fd366004613da9565b610704565b005b6102e1610312366004613da9565b6109d9565b61029b6109f8565b6102ba61032d366004613da9565b600f6020526000908152604090205460ff1681565b610302610350366004613edf565b610a5d565b600c5461026b906001600160a01b031681565b6102ba610376366004613da9565b60016020526000908152604090205460ff1681565b61039e610399366004613f08565b610d78565b60405161027f91906141f5565b6103be6103b9366004613f08565b610f3b565b60405161027f91906142bd565b6103026103d9366004613ea9565b6110bd565b6103f16103ec366004613f08565b6112d3565b60405161027f919061427b565b6007546102e1565b610419610414366004613f08565b61141c565b60405161027f919061417d565b61030261043436600461401c565b6115a7565b610302610447366004613edf565b6115db565b6102e161045a366004613da9565b6001600160a01b031660009081526008602052604090205490565b610488610483366004613f08565b6117d5565b60405161027f919061431d565b6103026104a3366004613dca565b6118d1565b6103026104b6366004613f08565b611970565b6104886104c9366004613f08565b611c78565b6103026104dc366004613da9565b611d70565b6103026104ef366004613e15565b611dc1565b610302610502366004613f72565b611f8c565b610302610515366004613f72565b611fce565b610302610528366004613f3a565b612017565b600e546102ba9060ff1681565b610302610548366004613edf565b6122fb565b61030261055b366004613ea9565b6126e9565b6003546102e1565b6102e1600d5481565b61030261057f366004613edf565b612743565b6102e1610592366004613da9565b6001600160a01b03166000908152600460208190526040909120015490565b61029b612a3b565b6103026105c7366004613f08565b612a9e565b61029b6105da366004614034565b612e6f565b600081815481106105ef57600080fd5b6000918252602090912001546001600160a01b0316905081565b606060006106178484614665565b6001600160401b0381111561063c57634e487b7160e01b600052604160045260246000fd5b604051908082528060200260200182016040528015610665578160200160208202803683370190505b509050835b838110156106fc57600780548290811061069457634e487b7160e01b600052603260045260246000fd5b6000918252602090912001546001600160a01b0316826106b48784614665565b815181106106d257634e487b7160e01b600052603260045260246000fd5b6001600160a01b0390921660209283029190910190910152806106f4816146e3565b91505061066a565b509392505050565b336001600160a01b03166000808154811061072f57634e487b7160e01b600052603260045260246000fd5b6000918252602090912001546001600160a01b0316146107915760405162461bcd60e51b815260206004820152601860248201527727bbb732b9399d1027b7363c9029bab832b91027bbb732b960411b60448201526064015b60405180910390fd5b6001600160a01b03811660009081526001602052604090205460ff166107ed5760405162461bcd60e51b815260206004820152601160248201527027bbb732b9399d102737ba1037bbb732b960791b6044820152606401610788565b6000808154811061080e57634e487b7160e01b600052603260045260246000fd5b6000918252602090912001546001600160a01b038281169116141561087f5760405162461bcd60e51b815260206004820152602160248201527f4f776e6572733a2043616e6e6f742072656d6f7665207375706572206f776e656044820152603960f91b6064820152608401610788565b60015b6000548110156109b757816001600160a01b0316600082815481106108b757634e487b7160e01b600052603260045260246000fd5b6000918252602090912001546001600160a01b031614156109a557600080546108e290600190614665565b8154811061090057634e487b7160e01b600052603260045260246000fd5b600091825260208220015481546001600160a01b0390911691908390811061093857634e487b7160e01b600052603260045260246000fd5b6000918252602082200180546001600160a01b0319166001600160a01b03939093169290921790915580548061097e57634e487b7160e01b600052603160045260246000fd5b600082815260209020810160001990810180546001600160a01b03191690550190556109b7565b806109af816146e3565b915050610882565b506001600160a01b03166000908152600160205260409020805460ff19169055565b6001600160a01b0381166000908152600460205260409020545b919050565b60606003600001805480602002602001604051908101604052809291908181526020018280548015610a5357602002820191906000526020600020905b81546001600160a01b03168152600190910190602001808311610a35575b5050505050905090565b3360009081526001602052604090205460ff16610a8c5760405162461bcd60e51b815260040161078890614398565b6001600160a01b03821660009081526006602052604090205460ff16610ac45760405162461bcd60e51b815260040161078890614410565b6001600160a01b038216600090815260046020908152604080832084845260070190915290205460ff16610b0a5760405162461bcd60e51b815260040161078890614569565b6001600160a01b0380831660009081526004602081815260408084208685526005908101835293819020815160c08101835281548716808252600183015494820194909452600282015492810192909252600381015490951660608201819052928501546080820152939092015460a084015214610cdf576000612710600d548360400151610b999190614646565b610ba39190614626565b600b54835160408501519293506001600160a01b039091169163a9059cbb9190610bce908590614665565b6040516001600160e01b031960e085901b1681526001600160a01b0390921660048301526024820152604401602060405180830381600087803b158015610c1457600080fd5b505af1158015610c28573d6000803e3d6000fd5b505050506040513d601f19601f82011682018060405250810190610c4c9190613f8e565b508015610cdd57600b54600c5460405163a9059cbb60e01b81526001600160a01b0391821660048201526024810184905291169063a9059cbb90604401602060405180830381600087803b158015610ca357600080fd5b505af1158015610cb7573d6000803e3d6000fd5b505050506040513d601f19601f82011682018060405250810190610cdb9190613f8e565b505b505b60608101516040516323b872dd60e01b81526001600160a01b038516916323b872dd91610d12913091879060040161410c565b600060405180830381600087803b158015610d2c57600080fd5b505af1158015610d40573d6000803e3d6000fd5b5050506001600160a01b0384166000908152600460208190526040909120610d6a92500183612f62565b610d73836130b7565b505050565b60606000610d868484614665565b6001600160401b03811115610dab57634e487b7160e01b600052604160045260246000fd5b604051908082528060200260200182016040528015610e2757816020015b610e146040518060c0016040528060006001600160a01b03168152602001600081526020016000815260200160006001600160a01b0316815260200160008152602001600081525090565b815260200190600190039081610dc95790505b506001600160a01b038616600090815260046020819052604090912091925001845b84811015610f3057816001016000836000018381548110610e7a57634e487b7160e01b600052603260045260246000fd5b600091825260208083209091015483528281019390935260409182019020815160c08101835281546001600160a01b039081168252600183015494820194909452600282015492810192909252600381015490921660608201526004820154608082015260059091015460a082015283610ef48884614665565b81518110610f1257634e487b7160e01b600052603260045260246000fd5b60200260200101819052508080610f28906146e3565b915050610e49565b509095945050505050565b60606000610f498484614665565b6001600160401b03811115610f6e57634e487b7160e01b600052604160045260246000fd5b604051908082528060200260200182016040528015610fd357816020015b610fc0604051806080016040528060006001600160a01b031681526020016000815260200160008152602001600081525090565b815260200190600190039081610f8c5790505b506001600160a01b0386166000908152600460205260409020909150845b84811015610f305781600101600083600001838154811061102257634e487b7160e01b600052603260045260246000fd5b600091825260208083209091015483528281019390935260409182019020815160808101835281546001600160a01b03168152600182015493810193909352600281015491830191909152600301546060820152836110818884614665565b8151811061109f57634e487b7160e01b600052603260045260246000fd5b602002602001018190525080806110b5906146e3565b915050610ff1565b336001600160a01b0316600080815481106110e857634e487b7160e01b600052603260045260246000fd5b6000918252602090912001546001600160a01b0316146111455760405162461bcd60e51b815260206004820152601860248201527727bbb732b9399d1027b7363c9029bab832b91027bbb732b960411b6044820152606401610788565b6001600160a01b03821660009081526001602052604090205460ff16156111a65760405162461bcd60e51b815260206004820152601560248201527427bbb732b9399d1020b63932b0b23c9037bbb732b960591b6044820152606401610788565b6001600160a01b0382166000908152600160208190526040909120805460ff191690911790558015611286576000806000815481106111f557634e487b7160e01b600052603260045260246000fd5b6000918252602080832090910154835460018101855593835290822090920180546001600160a01b0319166001600160a01b03909316929092179091558054839190819061125357634e487b7160e01b600052603260045260246000fd5b9060005260206000200160006101000a8154816001600160a01b0302191690836001600160a01b031602179055506112cf565b600080546001810182559080527f290decd9548b62a8d60345a988386fc84ba6bc95484008f6362f93160ef3e5630180546001600160a01b0319166001600160a01b0384161790555b5050565b606060006112e18484614665565b6001600160401b0381111561130657634e487b7160e01b600052604160045260246000fd5b60405190808252806020026020018201604052801561134b57816020015b60408051808201909152600080825260208201528152602001906001900390816113245790505b506001600160a01b0386166000908152600860205260409020909150845b84811015610f30578160010182600001828154811061139857634e487b7160e01b600052603260045260246000fd5b906000526020600020016040516113af9190614071565b9081526040805191829003602090810183208383019092528154835260019091015490820152836113e08884614665565b815181106113fe57634e487b7160e01b600052603260045260246000fd5b60200260200101819052508080611414906146e3565b915050611369565b6060600061142a8484614665565b6001600160401b0381111561144f57634e487b7160e01b600052604160045260246000fd5b60405190808252806020026020018201604052801561148257816020015b606081526020019060019003908161146d5790505b506001600160a01b0386166000908152600860205260409020909150845b84811015610f30578160000181815481106114cb57634e487b7160e01b600052603260045260246000fd5b9060005260206000200180546114e0906146a8565b80601f016020809104026020016040519081016040528092919081815260200182805461150c906146a8565b80156115595780601f1061152e57610100808354040283529160200191611559565b820191906000526020600020905b81548152906001019060200180831161153c57829003601f168201915b505050505083878361156b9190614665565b8151811061158957634e487b7160e01b600052603260045260246000fd5b6020026020010181905250808061159f906146e3565b9150506114a0565b3360009081526001602052604090205460ff166115d65760405162461bcd60e51b815260040161078890614398565b600d55565b6002805414156115fd5760405162461bcd60e51b815260040161078890614532565b600280556001600160a01b03821660009081526006602052604090205460ff166116395760405162461bcd60e51b815260040161078890614410565b6001600160a01b038216600090815260046020908152604080832084845260030190915290205460ff1661167f5760405162461bcd60e51b815260040161078890614569565b6001600160a01b03808316600090815260046020908152604080832085845260019081018352928190208151608081018352815490951680865293810154928501929092526002820154908401526003015460608301523314806116f257503360009081526001602052604090205460ff165b61173e5760405162461bcd60e51b815260206004820152601e60248201527f506f6c61724d61726b6574506c6163653a20556e617574686f72697a656400006044820152606401610788565b80516040516323b872dd60e01b81526001600160a01b038516916323b872dd9161176e913091879060040161410c565b600060405180830381600087803b15801561178857600080fd5b505af115801561179c573d6000803e3d6000fd5b5050506001600160a01b03841660009081526004602052604090206117c2915083613287565b6117cb836130b7565b5050600160025550565b606060006117e38484614665565b6001600160401b0381111561180857634e487b7160e01b600052604160045260246000fd5b604051908082528060200260200182016040528015611831578160200160208202803683370190505b506001600160a01b038616600090815260046020819052604090912091925001845b84811015610f305781600001818154811061187e57634e487b7160e01b600052603260045260246000fd5b90600052602060002001548387836118969190614665565b815181106118b457634e487b7160e01b600052603260045260246000fd5b6020908102919091010152806118c9816146e3565b915050611853565b3360009081526001602052604090205460ff166119005760405162461bcd60e51b815260040161078890614398565b6001600160a01b0382166000908152600860205260408120905b8251811015611966576119548284838151811061194757634e487b7160e01b600052603260045260246000fd5b6020026020010151613302565b8061195e816146e3565b91505061191a565b50610d738361354d565b6002805414156119925760405162461bcd60e51b815260040161078890614532565b60028055806119fa5760405162461bcd60e51b815260206004820152602e60248201527f506f6c61724d61726b6574506c6163653a205072696365206d7573742062652060448201526d067726561746572207468616e20360941b6064820152608401610788565b6001600160a01b0383166000908152600f602052604090205460ff1615611a335760405162461bcd60e51b8152600401610788906144a8565b600e5460ff16611a855760405162461bcd60e51b815260206004820152601a60248201527f506f6c61724d61726b6574506c6163653a204e6f74206f70656e0000000000006044820152606401610788565b6001600160a01b0383166000908152600a602052604090205460ff1615611bc8576040516359d68c7160e11b8152600481018390526000906001600160a01b0385169063b3ad18e29060240160006040518083038186803b158015611ae957600080fd5b505afa158015611afd573d6000803e3d6000fd5b505050506040513d6000823e601f3d908101601f19168201604052611b259190810190613faa565b6001600160a01b038516600090815260086020526040908190209051919250906003820190611b55908490614055565b9081526040519081900360200190205460ff16611b845760405162461bcd60e51b815260040161078890614355565b828160010183604051611b979190614055565b908152604051908190036020019020541115611bc55760405162461bcd60e51b8152600401610788906143c4565b50505b6040516323b872dd60e01b81526001600160a01b038416906323b872dd90611bf89033903090879060040161410c565b600060405180830381600087803b158015611c1257600080fd5b505af1158015611c26573d6000803e3d6000fd5b50505050611c33836136f3565b6001600160a01b03831660009081526004602090815260409182902082516080810184523381529182018590529181018390524260608201526117cb9190849061378c565b60606000611c868484614665565b6001600160401b03811115611cab57634e487b7160e01b600052604160045260246000fd5b604051908082528060200260200182016040528015611cd4578160200160208202803683370190505b506001600160a01b0386166000908152600460205260409020909150845b84811015610f3057816000018181548110611d1d57634e487b7160e01b600052603260045260246000fd5b9060005260206000200154838783611d359190614665565b81518110611d5357634e487b7160e01b600052603260045260246000fd5b602090810291909101015280611d68816146e3565b915050611cf2565b3360009081526001602052604090205460ff16611d9f5760405162461bcd60e51b815260040161078890614398565b600b80546001600160a01b0319166001600160a01b0392909216919091179055565b3360009081526001602052604090205460ff16611df05760405162461bcd60e51b815260040161078890614398565b8151835114611e115760405162461bcd60e51b8152600401610788906144f1565b8051835114611e325760405162461bcd60e51b8152600401610788906144f1565b6040516359d68c7160e11b8152600060048201526001600160a01b0385169063b3ad18e29060240160006040518083038186803b158015611e7257600080fd5b505afa158015611e86573d6000803e3d6000fd5b505050506040513d6000823e601f3d908101601f19168201604052611eae9190810190613faa565b50611eb884613880565b60005b8351811015611f85576001600160a01b03851660009081526008602052604090208451611f739190869084908110611f0357634e487b7160e01b600052603260045260246000fd5b60200260200101516040518060400160405280878681518110611f3657634e487b7160e01b600052603260045260246000fd5b60200260200101518152602001868681518110611f6357634e487b7160e01b600052603260045260246000fd5b6020026020010151815250613919565b80611f7d816146e3565b915050611ebb565b5050505050565b3360009081526001602052604090205460ff16611fbb5760405162461bcd60e51b815260040161078890614398565b600e805460ff1916911515919091179055565b3360009081526001602052604090205460ff16611ffd5760405162461bcd60e51b815260040161078890614398565b600e80549115156101000261ff0019909216919091179055565b6002805414156120395760405162461bcd60e51b815260040161078890614532565b600280556001600160a01b0384166000908152600f602052604090205460ff16156120765760405162461bcd60e51b8152600401610788906144a8565b600e54610100900460ff166120cd5760405162461bcd60e51b815260206004820152601a60248201527f506f6c61724d61726b6574506c6163653a204e6f74206f70656e0000000000006044820152606401610788565b6001600160a01b0384166000908152600a602052604090205460ff1615612212576040516359d68c7160e11b8152600481018490526000906001600160a01b0386169063b3ad18e29060240160006040518083038186803b15801561213157600080fd5b505afa158015612145573d6000803e3d6000fd5b505050506040513d6000823e601f3d908101601f1916820160405261216d9190810190613faa565b6001600160a01b03861660009081526008602052604090819020905191925090600382019061219d908490614055565b9081526040519081900360200190205460ff166121cc5760405162461bcd60e51b815260040161078890614355565b8381600101836040516121df9190614055565b908152602001604051809103902060010154111561220f5760405162461bcd60e51b8152600401610788906143c4565b50505b6040516323b872dd60e01b81526001600160a01b038516906323b872dd906122429033903090889060040161410c565b600060405180830381600087803b15801561225c57600080fd5b505af1158015612270573d6000803e3d6000fd5b5050505061227d846136f3565b6122f060036001016000866001600160a01b03166001600160a01b03168152602001908152602001600020600401846040518060c00160405280336001600160a01b03168152602001878152602001868152602001336001600160a01b0316815260200185815260200142815250613a31565b505060016002555050565b60028054141561231d5760405162461bcd60e51b815260040161078890614532565b600280556001600160a01b03821660009081526006602052604090205460ff166123595760405162461bcd60e51b815260040161078890614410565b6001600160a01b038216600090815260046020908152604080832084845260070190915290205460ff1661239f5760405162461bcd60e51b815260040161078890614569565b6001600160a01b0380831660009081526004602081815260408084208685526005908101835293819020815160c081018352815487168152600182015493810193909352600281015491830191909152600381015490941660608201819052918401546080820152929091015460a083015233148061242d57503360009081526001602052604090205460ff165b6124795760405162461bcd60e51b815260206004820152601e60248201527f506f6c61724d61726b6574506c6163653a20556e617574686f72697a656400006044820152606401610788565b80608001514210156124e05760405162461bcd60e51b815260206004820152602a60248201527f506f6c61724d61726b6574506c6163653a2041756374696f6e206e6f742066696044820152691b9a5cda1959081e595d60b21b6064820152608401610788565b80606001516001600160a01b031681600001516001600160a01b03161461265e576000612710600d5483604001516125189190614646565b6125229190614626565b600b54835160408501519293506001600160a01b039091169163a9059cbb919061254d908590614665565b6040516001600160e01b031960e085901b1681526001600160a01b0390921660048301526024820152604401602060405180830381600087803b15801561259357600080fd5b505af11580156125a7573d6000803e3d6000fd5b505050506040513d601f19601f820116820180604052508101906125cb9190613f8e565b50801561265c57600b54600c5460405163a9059cbb60e01b81526001600160a01b0391821660048201526024810184905291169063a9059cbb90604401602060405180830381600087803b15801561262257600080fd5b505af1158015612636573d6000803e3d6000fd5b505050506040513d601f19601f8201168201806040525081019061265a9190613f8e565b505b505b60608101516040516323b872dd60e01b81526001600160a01b038516916323b872dd91612691913091879060040161410c565b600060405180830381600087803b1580156126ab57600080fd5b505af11580156126bf573d6000803e3d6000fd5b5050506001600160a01b03841660009081526004602081905260409091206117c292500183612f62565b3360009081526001602052604090205460ff166127185760405162461bcd60e51b815260040161078890614398565b6001600160a01b03919091166000908152600f60205260409020805460ff1916911515919091179055565b6002805414156127655760405162461bcd60e51b815260040161078890614532565b600280556001600160a01b03821660009081526006602052604090205460ff166127a15760405162461bcd60e51b815260040161078890614410565b6001600160a01b038216600090815260046020908152604080832084845260030190915290205460ff166127e75760405162461bcd60e51b815260040161078890614569565b6001600160a01b038083166000908152600460209081526040808320858452600190810183529281902081516080810183528154909516808652938101549285019290925260028201549084015260030154606083015233141561285d5760405162461bcd60e51b81526004016107889061445b565b6000612710600d5483604001516128749190614646565b61287e9190614626565b600b54835160408501519293506001600160a01b03909116916323b872dd9133916128aa908690614665565b6040518463ffffffff1660e01b81526004016128c89392919061410c565b602060405180830381600087803b1580156128e257600080fd5b505af11580156128f6573d6000803e3d6000fd5b505050506040513d601f19601f8201168201806040525081019061291a9190613f8e565b5080156129ae57600b54600c546040516323b872dd60e01b81526001600160a01b03928316926323b872dd9261295a92339290911690869060040161410c565b602060405180830381600087803b15801561297457600080fd5b505af1158015612988573d6000803e3d6000fd5b505050506040513d601f19601f820116820180604052508101906129ac9190613f8e565b505b6040516323b872dd60e01b81526001600160a01b038516906323b872dd906129de9030903390889060040161410c565b600060405180830381600087803b1580156129f857600080fd5b505af1158015612a0c573d6000803e3d6000fd5b5050506001600160a01b0385166000908152600460205260409020612a32915084613287565b6122f0846130b7565b60606007600001805480602002602001604051908101604052809291908181526020018280548015610a53576020028201919060005260206000209081546001600160a01b03168152600190910190602001808311610a35575050505050905090565b600280541415612ac05760405162461bcd60e51b815260040161078890614532565b600280556001600160a01b03831660009081526006602052604090205460ff16612afc5760405162461bcd60e51b815260040161078890614410565b6001600160a01b038316600090815260046020908152604080832085845260070190915290205460ff16612b425760405162461bcd60e51b815260040161078890614569565b6001600160a01b0380841660009081526004602081815260408084208785526005908101835293819020815160c0810183528154871680825260018301549482019490945260028201549281019290925260038101549095166060820152918401546080830152929091015460a082015290331415612bd35760405162461bcd60e51b81526004016107889061445b565b80608001514210612c395760405162461bcd60e51b815260206004820152602a60248201527f506f6c61724d61726b6574506c6163653a2041756374696f6e20616c726561646044820152691e48199a5b9a5cda195960b21b6064820152608401610788565b80604001518211612cb25760405162461bcd60e51b815260206004820152603b60248201527f506f6c61724d61726b6574506c6163653a204e6577207072696365206d75737460448201527f20626520626967676572207468616e2063757272656e74206f6e6500000000006064820152608401610788565b80606001516001600160a01b031681600001516001600160a01b031614612d6557600b546060820151604080840151905163a9059cbb60e01b81526001600160a01b039283166004820152602481019190915291169063a9059cbb90604401602060405180830381600087803b158015612d2b57600080fd5b505af1158015612d3f573d6000803e3d6000fd5b505050506040513d601f19601f82011682018060405250810190612d639190613f8e565b505b600b546040516323b872dd60e01b81526001600160a01b03909116906323b872dd90612d999033903090879060040161410c565b602060405180830381600087803b158015612db357600080fd5b505af1158015612dc7573d6000803e3d6000fd5b505050506040513d601f19601f82011682018060405250810190612deb9190613f8e565b506122f060036001016000866001600160a01b03166001600160a01b03168152602001908152602001600020600401846040518060c0016040528085600001516001600160a01b0316815260200185602001518152602001868152602001336001600160a01b03168152602001856080015181526020018560a00151815250613a31565b60606000612e7d8484614665565b6001600160401b03811115612ea257634e487b7160e01b600052604160045260246000fd5b604051908082528060200260200182016040528015612ecb578160200160208202803683370190505b509050835b838110156106fc576003805482908110612efa57634e487b7160e01b600052603260045260246000fd5b6000918252602090912001546001600160a01b031682612f1a8784614665565b81518110612f3857634e487b7160e01b600052603260045260246000fd5b6001600160a01b039092166020928302919091019091015280612f5a816146e3565b915050612ed0565b600081815260038301602052604090205460ff16612f7f576112cf565b6000818152600380840160209081526040808420805460ff191690556001808701835281852080546001600160a01b03199081168255818301879055600280830188905595820180549091169055600481018690556005018590559286019091528220548454909291612ff191614665565b9050600084600001828154811061301857634e487b7160e01b600052603260045260246000fd5b6000918252602080832090910154808352600288019091526040808320869055868352822091909155905081831461307b578085600001848154811061306e57634e487b7160e01b600052603260045260246000fd5b6000918252602090912001555b845485908061309a57634e487b7160e01b600052603160045260246000fd5b600190038181906000526020600020016000905590555050505050565b6001600160a01b03811660009081526006602052604090205460ff166130dc57613284565b6001600160a01b0381166000908152600460208190526040909120805491015481158015613108575080155b15610d73576001600160a01b0383166000908152600660209081526040808320805460ff19169055600490915281209081816131448282613b69565b50506004820160006131568282613b69565b5050506001600160a01b03841660009081526005602052604081205460035490925061318490600190614665565b90506000600360000182815481106131ac57634e487b7160e01b600052603260045260246000fd5b60009182526020808320909101546001600160a01b03908116808452600590925260408084208790559089168352822091909155905081831461323d57806003600001848154811061320e57634e487b7160e01b600052603260045260246000fd5b9060005260206000200160006101000a8154816001600160a01b0302191690836001600160a01b031602179055505b600380548061325c57634e487b7160e01b600052603160045260246000fd5b600082815260209020810160001990810180546001600160a01b031916905501905550505050505b50565b600081815260038301602052604090205460ff166132a4576112cf565b6000818152600380840160209081526040808420805460ff191690556001808701835281852080546001600160a01b0319168155808201869055600280820187905594018590559286019091528220548454909291612ff191614665565b81600301816040516133149190614055565b9081526040519081900360200190205460ff16613330576112cf565b81600301816040516133429190614055565b908152604051908190036020018120805460ff191690556001830190613369908390614055565b90815260405190819003602001812060008082556001909101819055906002840190613396908490614055565b9081526040519081900360200190205483549091506000906133ba90600190614665565b905060008460000182815481106133e157634e487b7160e01b600052603260045260246000fd5b9060005260206000200180546133f6906146a8565b80601f0160208091040260200160405190810160405280929190818152602001828054613422906146a8565b801561346f5780601f106134445761010080835404028352916020019161346f565b820191906000526020600020905b81548152906001019060200180831161345257829003601f168201915b505050505090508285600201826040516134899190614055565b90815260200160405180910390208190555084600201846040516134ad9190614055565b90815260200160405180910390206000905582821461350957808560000184815481106134ea57634e487b7160e01b600052603260045260246000fd5b906000526020600020019080519060200190613507929190613b87565b505b845485908061352857634e487b7160e01b600052603160045260246000fd5b6001900381819060005260206000200160006135449190613c0b565b90555050505050565b6001600160a01b0381166000908152600a602052604090205460ff1661357257613284565b6001600160a01b038116600090815260086020526040902054806112cf576001600160a01b0382166000908152600a60209081526040808320805460ff1916905560089091528120906135c58282613c47565b50506001600160a01b0382166000908152600960205260408120546007549091906135f290600190614665565b905060006007600001828154811061361a57634e487b7160e01b600052603260045260246000fd5b60009182526020808320909101546001600160a01b0390811680845260099092526040808420879055908816835282209190915590508183146136ab57806007600001848154811061367c57634e487b7160e01b600052603260045260246000fd5b9060005260206000200160006101000a8154816001600160a01b0302191690836001600160a01b031602179055505b60078054806136ca57634e487b7160e01b600052603160045260246000fd5b600082815260209020810160001990810180546001600160a01b03191690550190555050505050565b6001600160a01b03811660009081526006602052604090205460ff161561371957613284565b6001600160a01b03166000818152600660209081526040808320805460ff19166001908117909155600380546005909452918420839055820181559091527fc2575a0e9e593c00f959f8c92f12db2869c3395a3b0502d05e2516446f71f85b0180546001600160a01b0319169091179055565b600082815260038401602052604090205460ff16156137fa57600082815260018481016020908152604092839020845181546001600160a01b0319166001600160a01b0390911617815590840151918101919091559082015160028201556060820151600390910155610d73565b60008281526003848101602090815260408084208054600160ff1990911681179091558088018352818520865181546001600160a01b0319166001600160a01b0390911617815586840151818301558683015160028083019190915560609097015194019390935586549487018252832084905590830185559381529290922090910155565b6001600160a01b0381166000908152600a602052604090205460ff16156138a657613284565b6001600160a01b03166000818152600a60209081526040808320805460ff19166001908117909155600780546009909452918420839055820181559091527fa66cc928b5edb82af9bd49922954155ab7b0942694bea4ce44661d9a8736c6880180546001600160a01b0319169091179055565b826003018260405161392b9190614055565b9081526040519081900360200190205460ff1615613978578083600101836040516139569190614055565b9081526040516020918190038201902082518155910151600190910155610d73565b6001836003018360405161398c9190614055565b908152604051908190036020018120805492151560ff1990931692909217909155819060018501906139bf908590614055565b90815260405190819003602090810182208351815592015160019092019190915583549060028501906139f3908590614055565b9081526040516020918190038201902091909155835460018101855560008581528290208451613a2b93919092019190850190613b87565b50505050565b600082815260038401602052604090205460ff1615613abf57600082815260018085016020908152604092839020845181546001600160a01b039182166001600160a01b0319918216178355928601519382019390935592840151600284015560608401516003840180549190931691161790556080820151600482015560a0820151600590910155610d73565b6000828152600380850160209081526040808420805460ff191660019081179091558781018352818520865181546001600160a01b039182166001600160a01b031991821617835588860151838501558885015160028085019190915560608a0151978401805498909316979091169690961790556080870151600482015560a0870151600590910155875493880183529084208390558201865585835290912001829055505050565b50805460008255906000526020600020908101906132849190613c65565b828054613b93906146a8565b90600052602060002090601f016020900481019282613bb55760008555613bfb565b82601f10613bce57805160ff1916838001178555613bfb565b82800160010185558215613bfb579182015b82811115613bfb578251825591602001919060010190613be0565b50613c07929150613c65565b5090565b508054613c17906146a8565b6000825580601f10613c295750613284565b601f0160209004906000526020600020908101906132849190613c65565b50805460008255906000526020600020908101906132849190613c7a565b5b80821115613c075760008155600101613c66565b80821115613c07576000613c8e8282613c0b565b50600101613c7a565b80356001600160a01b03811681146109f357600080fd5b600082601f830112613cbe578081fd5b81356020613cd3613cce836145dc565b6145ac565b82815281810190858301855b85811015613d42578135880189603f820112613cf9578788fd5b858101356040613d0b613cce836145ff565b8281528c82848601011115613d1e578a8bfd5b828285018a83013791820188018a9052508552509284019290840190600101613cdf565b5090979650505050505050565b600082601f830112613d5f578081fd5b81356020613d6f613cce836145dc565b8281528181019085830183850287018401881015613d8b578586fd5b855b85811015613d4257813584529284019290840190600101613d8d565b600060208284031215613dba578081fd5b613dc382613c97565b9392505050565b60008060408385031215613ddc578081fd5b613de583613c97565b915060208301356001600160401b03811115613dff578182fd5b613e0b85828601613cae565b9150509250929050565b60008060008060808587031215613e2a578182fd5b613e3385613c97565b935060208501356001600160401b0380821115613e4e578384fd5b613e5a88838901613cae565b94506040870135915080821115613e6f578384fd5b613e7b88838901613d4f565b93506060870135915080821115613e90578283fd5b50613e9d87828801613d4f565b91505092959194509250565b60008060408385031215613ebb578182fd5b613ec483613c97565b91506020830135613ed48161472a565b809150509250929050565b60008060408385031215613ef1578182fd5b613efa83613c97565b946020939093013593505050565b600080600060608486031215613f1c578283fd5b613f2584613c97565b95602085013595506040909401359392505050565b60008060008060808587031215613f4f578384fd5b613f5885613c97565b966020860135965060408601359560600135945092505050565b600060208284031215613f83578081fd5b8135613dc38161472a565b600060208284031215613f9f578081fd5b8151613dc38161472a565b600060208284031215613fbb578081fd5b81516001600160401b03811115613fd0578182fd5b8201601f81018413613fe0578182fd5b8051613fee613cce826145ff565b818152856020838501011115614002578384fd5b61401382602083016020860161467c565b95945050505050565b60006020828403121561402d578081fd5b5035919050565b60008060408385031215614046578182fd5b50508035926020909101359150565b6000825161406781846020870161467c565b9190910192915050565b815460009081906002810460018083168061408d57607f831692505b60208084108214156140ad57634e487b7160e01b87526022600452602487fd5b8180156140c157600181146140d2576140fe565b60ff198616895284890196506140fe565b60008a815260209020885b868110156140f65781548b8201529085019083016140dd565b505084890196505b509498975050505050505050565b6001600160a01b039384168152919092166020820152604081019190915260600190565b6020808252825182820181905260009190848201906040850190845b818110156141715783516001600160a01b03168352928401929184019160010161414c565b50909695505050505050565b6000602080830181845280855180835260408601915060408482028701019250838701855b828110156141e857878503603f19018452815180518087526141c9818989018a850161467c565b601f01601f1916959095018601945092850192908501906001016141a2565b5092979650505050505050565b602080825282518282018190526000919060409081850190868401855b8281101561426e57815180516001600160a01b03908116865287820151888701528682015187870152606080830151909116908601526080808201519086015260a0908101519085015260c09093019290850190600101614212565b5091979650505050505050565b602080825282518282018190526000919060409081850190868401855b8281101561426e57815180518552860151868501529284019290850190600101614298565b602080825282518282018190526000919060409081850190868401855b8281101561426e57815180516001600160a01b031685528681015187860152858101518686015260609081015190850152608090930192908501906001016142da565b6020808252825182820181905260009190848201906040850190845b8181101561417157835183529284019291840191600101614339565b60208082526023908201527f506f6c61724d61726b6574506c6163653a20436f6e7461637420636f7265207460408201526265616d60e81b606082015260800190565b60208082526012908201527127bbb732b9399d1027b7363c9027bbb732b960711b604082015260600190565b6020808252602c908201527f506f6c61724d61726b6574506c6163653a205072696365206c6f77657220746860408201526b616e206d696e20707269636560a01b606082015260800190565b6020808252602b908201527f506f6c61724d61726b6574506c6163653a204e667420636f6e7472616374206960408201526a073206e6f742073657475760ac1b606082015260800190565b6020808252602d908201527f506f6c61724d61726b6574506c6163653a20596f752063616e6e6f742062757960408201526c081e5bdd5c881bdddb881b999d609a1b606082015260800190565b60208082526029908201527f506f6c61724d61726b6574506c6163653a204e6f7420617574686f72697a65646040820152680818dbdb9d1c9858dd60ba1b606082015260800190565b60208082526021908201527f506f6c61724d61726b6574506c6163653a204c656e677468206d69736d6174636040820152600d60fb1b606082015260800190565b6020808252601f908201527f5265656e7472616e637947756172643a207265656e7472616e742063616c6c00604082015260600190565b60208082526023908201527f506f6c61724d61726b6574506c6163653a204974656d20646f65736e742065786040820152621a5cdd60ea1b606082015260800190565b604051601f8201601f191681016001600160401b03811182821017156145d4576145d4614714565b604052919050565b60006001600160401b038211156145f5576145f5614714565b5060209081020190565b60006001600160401b0382111561461857614618614714565b50601f01601f191660200190565b60008261464157634e487b7160e01b81526012600452602481fd5b500490565b6000816000190483118215151615614660576146606146fe565b500290565b600082821015614677576146776146fe565b500390565b60005b8381101561469757818101518382015260200161467f565b83811115613a2b5750506000910152565b6002810460018216806146bc57607f821691505b602082108114156146dd57634e487b7160e01b600052602260045260246000fd5b50919050565b60006000198214156146f7576146f76146fe565b5060010190565b634e487b7160e01b600052601160045260246000fd5b634e487b7160e01b600052604160045260246000fd5b801515811461328457600080fdfea264697066735822122043e22e07142b256844ca0f46a5117e2d4a07c18bd7d156ca64b7b1194fae6fce64736f6c63430008020033",
  "linkReferences": {},
  "deployedLinkReferences": {}
}