{
  "_format": "hh-sol-artifact-1",
  "contractName": "PolarLuckyBox",
  "sourceName": "contracts/PolarLuckyBox.sol",
  "abi": [
    {
      "inputs": [
        {
          "internalType": "string",
          "name": "uri",
          "type": "string"
        },
        {
          "internalType": "address",
          "name": "_handler",
          "type": "address"
        }
      ],
      "stateMutability": "nonpayable",
      "type": "constructor"
    },
    {
      "anonymous": false,
      "inputs": [
        {
          "indexed": true,
          "internalType": "address",
          "name": "owner",
          "type": "address"
        },
        {
          "indexed": true,
          "internalType": "address",
          "name": "approved",
          "type": "address"
        },
        {
          "indexed": true,
          "internalType": "uint256",
          "name": "tokenId",
          "type": "uint256"
        }
      ],
      "name": "Approval",
      "type": "event"
    },
    {
      "anonymous": false,
      "inputs": [
        {
          "indexed": true,
          "internalType": "address",
          "name": "owner",
          "type": "address"
        },
        {
          "indexed": true,
          "internalType": "address",
          "name": "operator",
          "type": "address"
        },
        {
          "indexed": false,
          "internalType": "bool",
          "name": "approved",
          "type": "bool"
        }
      ],
      "name": "ApprovalForAll",
      "type": "event"
    },
    {
      "anonymous": false,
      "inputs": [
        {
          "indexed": true,
          "internalType": "address",
          "name": "from",
          "type": "address"
        },
        {
          "indexed": true,
          "internalType": "address",
          "name": "to",
          "type": "address"
        },
        {
          "indexed": true,
          "internalType": "uint256",
          "name": "tokenId",
          "type": "uint256"
        }
      ],
      "name": "Transfer",
      "type": "event"
    },
    {
      "inputs": [
        {
          "internalType": "address",
          "name": "_new",
          "type": "address"
        },
        {
          "internalType": "bool",
          "name": "_change",
          "type": "bool"
        }
      ],
      "name": "addOwner",
      "outputs": [],
      "stateMutability": "nonpayable",
      "type": "function"
    },
    {
      "inputs": [
        {
          "internalType": "string",
          "name": "name",
          "type": "string"
        },
        {
          "internalType": "uint256",
          "name": "priceTokens",
          "type": "uint256"
        },
        {
          "internalType": "uint256[]",
          "name": "probability",
          "type": "uint256[]"
        },
        {
          "internalType": "string[]",
          "name": "nodeType",
          "type": "string[]"
        },
        {
          "internalType": "string[]",
          "name": "feature",
          "type": "string[]"
        },
        {
          "internalType": "uint256[]",
          "name": "remaining",
          "type": "uint256[]"
        },
        {
          "internalType": "uint256",
          "name": "maxBox",
          "type": "uint256"
        },
        {
          "internalType": "uint256",
          "name": "maxUser",
          "type": "uint256"
        }
      ],
      "name": "addPolarLuckyBox",
      "outputs": [],
      "stateMutability": "nonpayable",
      "type": "function"
    },
    {
      "inputs": [
        {
          "internalType": "address",
          "name": "to",
          "type": "address"
        },
        {
          "internalType": "uint256",
          "name": "tokenId",
          "type": "uint256"
        }
      ],
      "name": "approve",
      "outputs": [],
      "stateMutability": "nonpayable",
      "type": "function"
    },
    {
      "inputs": [
        {
          "internalType": "address",
          "name": "owner",
          "type": "address"
        }
      ],
      "name": "balanceOf",
      "outputs": [
        {
          "internalType": "uint256",
          "name": "",
          "type": "uint256"
        }
      ],
      "stateMutability": "view",
      "type": "function"
    },
    {
      "inputs": [],
      "name": "baseURI",
      "outputs": [
        {
          "internalType": "string",
          "name": "",
          "type": "string"
        }
      ],
      "stateMutability": "view",
      "type": "function"
    },
    {
      "inputs": [
        {
          "internalType": "string",
          "name": "",
          "type": "string"
        },
        {
          "internalType": "address",
          "name": "",
          "type": "address"
        }
      ],
      "name": "boxesUserCount",
      "outputs": [
        {
          "internalType": "uint256",
          "name": "",
          "type": "uint256"
        }
      ],
      "stateMutability": "view",
      "type": "function"
    },
    {
      "inputs": [
        {
          "internalType": "string",
          "name": "name",
          "type": "string"
        },
        {
          "internalType": "uint256",
          "name": "count",
          "type": "uint256"
        },
        {
          "internalType": "address",
          "name": "user",
          "type": "address"
        }
      ],
      "name": "createLuckyBoxesAirDrop",
      "outputs": [],
      "stateMutability": "nonpayable",
      "type": "function"
    },
    {
      "inputs": [
        {
          "internalType": "string",
          "name": "name",
          "type": "string"
        },
        {
          "internalType": "uint256",
          "name": "count",
          "type": "uint256"
        },
        {
          "internalType": "address",
          "name": "user",
          "type": "address"
        }
      ],
      "name": "createLuckyBoxesWithNodes",
      "outputs": [
        {
          "internalType": "uint256",
          "name": "",
          "type": "uint256"
        }
      ],
      "stateMutability": "nonpayable",
      "type": "function"
    },
    {
      "inputs": [
        {
          "internalType": "string",
          "name": "name",
          "type": "string"
        },
        {
          "internalType": "uint256",
          "name": "count",
          "type": "uint256"
        },
        {
          "internalType": "address",
          "name": "user",
          "type": "address"
        }
      ],
      "name": "createLuckyBoxesWithTokens",
      "outputs": [
        {
          "internalType": "uint256",
          "name": "",
          "type": "uint256"
        }
      ],
      "stateMutability": "nonpayable",
      "type": "function"
    },
    {
      "inputs": [
        {
          "internalType": "address",
          "name": "user",
          "type": "address"
        },
        {
          "internalType": "uint256[]",
          "name": "tokenIds",
          "type": "uint256[]"
        }
      ],
      "name": "createNodesWithLuckyBoxes",
      "outputs": [
        {
          "internalType": "string[]",
          "name": "",
          "type": "string[]"
        },
        {
          "internalType": "string[]",
          "name": "",
          "type": "string[]"
        }
      ],
      "stateMutability": "nonpayable",
      "type": "function"
    },
    {
      "inputs": [
        {
          "internalType": "uint256",
          "name": "tokenId",
          "type": "uint256"
        }
      ],
      "name": "getApproved",
      "outputs": [
        {
          "internalType": "address",
          "name": "",
          "type": "address"
        }
      ],
      "stateMutability": "view",
      "type": "function"
    },
    {
      "inputs": [],
      "name": "getBoxSize",
      "outputs": [
        {
          "internalType": "uint256",
          "name": "",
          "type": "uint256"
        }
      ],
      "stateMutability": "view",
      "type": "function"
    },
    {
      "inputs": [
        {
          "internalType": "uint256",
          "name": "iStart",
          "type": "uint256"
        },
        {
          "internalType": "uint256",
          "name": "iEnd",
          "type": "uint256"
        }
      ],
      "name": "getMapBetweenIndexes",
      "outputs": [
        {
          "components": [
            {
              "internalType": "uint256",
              "name": "priceTokens",
              "type": "uint256"
            },
            {
              "internalType": "uint256[]",
              "name": "probability",
              "type": "uint256[]"
            },
            {
              "internalType": "string[]",
              "name": "nodeType",
              "type": "string[]"
            },
            {
              "internalType": "string[]",
              "name": "feature",
              "type": "string[]"
            },
            {
              "internalType": "uint256[]",
              "name": "counter",
              "type": "uint256[]"
            },
            {
              "internalType": "uint256[]",
              "name": "remaining",
              "type": "uint256[]"
            },
            {
              "internalType": "uint256",
              "name": "createdBox",
              "type": "uint256"
            },
            {
              "internalType": "uint256",
              "name": "openBox",
              "type": "uint256"
            },
            {
              "internalType": "uint256",
              "name": "maxBox",
              "type": "uint256"
            },
            {
              "internalType": "uint256",
              "name": "maxUser",
              "type": "uint256"
            }
          ],
          "internalType": "struct PolarLuckyBox.Box[]",
          "name": "",
          "type": "tuple[]"
        }
      ],
      "stateMutability": "view",
      "type": "function"
    },
    {
      "inputs": [
        {
          "internalType": "string",
          "name": "key",
          "type": "string"
        }
      ],
      "name": "getMapForKey",
      "outputs": [
        {
          "components": [
            {
              "internalType": "uint256",
              "name": "priceTokens",
              "type": "uint256"
            },
            {
              "internalType": "uint256[]",
              "name": "probability",
              "type": "uint256[]"
            },
            {
              "internalType": "string[]",
              "name": "nodeType",
              "type": "string[]"
            },
            {
              "internalType": "string[]",
              "name": "feature",
              "type": "string[]"
            },
            {
              "internalType": "uint256[]",
              "name": "counter",
              "type": "uint256[]"
            },
            {
              "internalType": "uint256[]",
              "name": "remaining",
              "type": "uint256[]"
            },
            {
              "internalType": "uint256",
              "name": "createdBox",
              "type": "uint256"
            },
            {
              "internalType": "uint256",
              "name": "openBox",
              "type": "uint256"
            },
            {
              "internalType": "uint256",
              "name": "maxBox",
              "type": "uint256"
            },
            {
              "internalType": "uint256",
              "name": "maxUser",
              "type": "uint256"
            }
          ],
          "internalType": "struct PolarLuckyBox.Box",
          "name": "",
          "type": "tuple"
        }
      ],
      "stateMutability": "view",
      "type": "function"
    },
    {
      "inputs": [
        {
          "internalType": "uint256",
          "name": "iStart",
          "type": "uint256"
        },
        {
          "internalType": "uint256",
          "name": "iEnd",
          "type": "uint256"
        }
      ],
      "name": "getMapKeysBetweenIndexes",
      "outputs": [
        {
          "internalType": "string[]",
          "name": "",
          "type": "string[]"
        }
      ],
      "stateMutability": "view",
      "type": "function"
    },
    {
      "inputs": [],
      "name": "getOwnersSize",
      "outputs": [
        {
          "internalType": "uint256",
          "name": "",
          "type": "uint256"
        }
      ],
      "stateMutability": "view",
      "type": "function"
    },
    {
      "inputs": [],
      "name": "handler",
      "outputs": [
        {
          "internalType": "address",
          "name": "",
          "type": "address"
        }
      ],
      "stateMutability": "view",
      "type": "function"
    },
    {
      "inputs": [
        {
          "internalType": "address",
          "name": "owner",
          "type": "address"
        },
        {
          "internalType": "address",
          "name": "operator",
          "type": "address"
        }
      ],
      "name": "isApprovedForAll",
      "outputs": [
        {
          "internalType": "bool",
          "name": "",
          "type": "bool"
        }
      ],
      "stateMutability": "view",
      "type": "function"
    },
    {
      "inputs": [
        {
          "internalType": "address",
          "name": "",
          "type": "address"
        }
      ],
      "name": "isBlacklisted",
      "outputs": [
        {
          "internalType": "bool",
          "name": "",
          "type": "bool"
        }
      ],
      "stateMutability": "view",
      "type": "function"
    },
    {
      "inputs": [
        {
          "internalType": "address",
          "name": "",
          "type": "address"
        }
      ],
      "name": "isOwner",
      "outputs": [
        {
          "internalType": "bool",
          "name": "",
          "type": "bool"
        }
      ],
      "stateMutability": "view",
      "type": "function"
    },
    {
      "inputs": [],
      "name": "name",
      "outputs": [
        {
          "internalType": "string",
          "name": "",
          "type": "string"
        }
      ],
      "stateMutability": "view",
      "type": "function"
    },
    {
      "inputs": [],
      "name": "openCreateLuckyBoxesWithNodes",
      "outputs": [
        {
          "internalType": "bool",
          "name": "",
          "type": "bool"
        }
      ],
      "stateMutability": "view",
      "type": "function"
    },
    {
      "inputs": [],
      "name": "openCreateLuckyBoxesWithTokens",
      "outputs": [
        {
          "internalType": "bool",
          "name": "",
          "type": "bool"
        }
      ],
      "stateMutability": "view",
      "type": "function"
    },
    {
      "inputs": [
        {
          "internalType": "uint256",
          "name": "tokenId",
          "type": "uint256"
        }
      ],
      "name": "ownerOf",
      "outputs": [
        {
          "internalType": "address",
          "name": "",
          "type": "address"
        }
      ],
      "stateMutability": "view",
      "type": "function"
    },
    {
      "inputs": [
        {
          "internalType": "uint256",
          "name": "",
          "type": "uint256"
        }
      ],
      "name": "owners",
      "outputs": [
        {
          "internalType": "address",
          "name": "",
          "type": "address"
        }
      ],
      "stateMutability": "view",
      "type": "function"
    },
    {
      "inputs": [
        {
          "internalType": "address",
          "name": "_new",
          "type": "address"
        }
      ],
      "name": "removeOwner",
      "outputs": [],
      "stateMutability": "nonpayable",
      "type": "function"
    },
    {
      "inputs": [
        {
          "internalType": "address",
          "name": "from",
          "type": "address"
        },
        {
          "internalType": "address",
          "name": "to",
          "type": "address"
        },
        {
          "internalType": "uint256",
          "name": "tokenId",
          "type": "uint256"
        }
      ],
      "name": "safeTransferFrom",
      "outputs": [],
      "stateMutability": "nonpayable",
      "type": "function"
    },
    {
      "inputs": [
        {
          "internalType": "address",
          "name": "from",
          "type": "address"
        },
        {
          "internalType": "address",
          "name": "to",
          "type": "address"
        },
        {
          "internalType": "uint256",
          "name": "tokenId",
          "type": "uint256"
        },
        {
          "internalType": "bytes",
          "name": "_data",
          "type": "bytes"
        }
      ],
      "name": "safeTransferFrom",
      "outputs": [],
      "stateMutability": "nonpayable",
      "type": "function"
    },
    {
      "inputs": [
        {
          "internalType": "address",
          "name": "operator",
          "type": "address"
        },
        {
          "internalType": "bool",
          "name": "approved",
          "type": "bool"
        }
      ],
      "name": "setApprovalForAll",
      "outputs": [],
      "stateMutability": "nonpayable",
      "type": "function"
    },
    {
      "inputs": [
        {
          "internalType": "string",
          "name": "_new",
          "type": "string"
        }
      ],
      "name": "setBaseURI",
      "outputs": [],
      "stateMutability": "nonpayable",
      "type": "function"
    },
    {
      "inputs": [
        {
          "internalType": "address",
          "name": "_new",
          "type": "address"
        }
      ],
      "name": "setHandler",
      "outputs": [],
      "stateMutability": "nonpayable",
      "type": "function"
    },
    {
      "inputs": [
        {
          "internalType": "address",
          "name": "_new",
          "type": "address"
        },
        {
          "internalType": "bool",
          "name": "_value",
          "type": "bool"
        }
      ],
      "name": "setIsBlacklisted",
      "outputs": [],
      "stateMutability": "nonpayable",
      "type": "function"
    },
    {
      "inputs": [
        {
          "internalType": "bool",
          "name": "_new",
          "type": "bool"
        }
      ],
      "name": "setOpenCreateLuckyBoxesWithNodes",
      "outputs": [],
      "stateMutability": "nonpayable",
      "type": "function"
    },
    {
      "inputs": [
        {
          "internalType": "bool",
          "name": "_new",
          "type": "bool"
        }
      ],
      "name": "setOpenCreateLuckyBoxesWithTokens",
      "outputs": [],
      "stateMutability": "nonpayable",
      "type": "function"
    },
    {
      "inputs": [
        {
          "internalType": "string",
          "name": "name",
          "type": "string"
        },
        {
          "internalType": "uint256",
          "name": "_new",
          "type": "uint256"
        }
      ],
      "name": "setPolarLuckyBoxMaxUser",
      "outputs": [],
      "stateMutability": "nonpayable",
      "type": "function"
    },
    {
      "inputs": [
        {
          "internalType": "string",
          "name": "name",
          "type": "string"
        },
        {
          "internalType": "uint256",
          "name": "_new",
          "type": "uint256"
        }
      ],
      "name": "setPolarLuckyBoxPrice",
      "outputs": [],
      "stateMutability": "nonpayable",
      "type": "function"
    },
    {
      "inputs": [
        {
          "internalType": "bytes4",
          "name": "interfaceId",
          "type": "bytes4"
        }
      ],
      "name": "supportsInterface",
      "outputs": [
        {
          "internalType": "bool",
          "name": "",
          "type": "bool"
        }
      ],
      "stateMutability": "view",
      "type": "function"
    },
    {
      "inputs": [],
      "name": "symbol",
      "outputs": [
        {
          "internalType": "string",
          "name": "",
          "type": "string"
        }
      ],
      "stateMutability": "view",
      "type": "function"
    },
    {
      "inputs": [
        {
          "internalType": "uint256",
          "name": "index",
          "type": "uint256"
        }
      ],
      "name": "tokenByIndex",
      "outputs": [
        {
          "internalType": "uint256",
          "name": "",
          "type": "uint256"
        }
      ],
      "stateMutability": "view",
      "type": "function"
    },
    {
      "inputs": [
        {
          "internalType": "uint256",
          "name": "",
          "type": "uint256"
        }
      ],
      "name": "tokenIdsToType",
      "outputs": [
        {
          "internalType": "string",
          "name": "",
          "type": "string"
        }
      ],
      "stateMutability": "view",
      "type": "function"
    },
    {
      "inputs": [
        {
          "internalType": "address",
          "name": "owner",
          "type": "address"
        },
        {
          "internalType": "uint256",
          "name": "index",
          "type": "uint256"
        }
      ],
      "name": "tokenOfOwnerByIndex",
      "outputs": [
        {
          "internalType": "uint256",
          "name": "",
          "type": "uint256"
        }
      ],
      "stateMutability": "view",
      "type": "function"
    },
    {
      "inputs": [
        {
          "internalType": "uint256",
          "name": "tokenId",
          "type": "uint256"
        }
      ],
      "name": "tokenURI",
      "outputs": [
        {
          "internalType": "string",
          "name": "",
          "type": "string"
        }
      ],
      "stateMutability": "view",
      "type": "function"
    },
    {
      "inputs": [
        {
          "internalType": "address",
          "name": "user",
          "type": "address"
        }
      ],
      "name": "tokensOfOwner",
      "outputs": [
        {
          "internalType": "uint256[]",
          "name": "",
          "type": "uint256[]"
        }
      ],
      "stateMutability": "view",
      "type": "function"
    },
    {
      "inputs": [
        {
          "internalType": "address",
          "name": "user",
          "type": "address"
        },
        {
          "internalType": "uint256",
          "name": "iStart",
          "type": "uint256"
        },
        {
          "internalType": "uint256",
          "name": "iEnd",
          "type": "uint256"
        }
      ],
      "name": "tokensOfOwnerByIndexesBetween",
      "outputs": [
        {
          "internalType": "uint256[]",
          "name": "",
          "type": "uint256[]"
        }
      ],
      "stateMutability": "view",
      "type": "function"
    },
    {
      "inputs": [],
      "name": "totalSupply",
      "outputs": [
        {
          "internalType": "uint256",
          "name": "",
          "type": "uint256"
        }
      ],
      "stateMutability": "view",
      "type": "function"
    },
    {
      "inputs": [
        {
          "internalType": "address",
          "name": "from",
          "type": "address"
        },
        {
          "internalType": "address",
          "name": "to",
          "type": "address"
        },
        {
          "internalType": "uint256",
          "name": "tokenId",
          "type": "uint256"
        }
      ],
      "name": "transferFrom",
      "outputs": [],
      "stateMutability": "nonpayable",
      "type": "function"
    },
    {
      "inputs": [
        {
          "internalType": "string",
          "name": "name",
          "type": "string"
        },
        {
          "internalType": "uint256",
          "name": "priceTokens",
          "type": "uint256"
        },
        {
          "internalType": "uint256[]",
          "name": "probability",
          "type": "uint256[]"
        },
        {
          "internalType": "string[]",
          "name": "nodeType",
          "type": "string[]"
        },
        {
          "internalType": "string[]",
          "name": "feature",
          "type": "string[]"
        },
        {
          "internalType": "uint256[]",
          "name": "remaining",
          "type": "uint256[]"
        },
        {
          "internalType": "uint256",
          "name": "maxBox",
          "type": "uint256"
        },
        {
          "internalType": "uint256",
          "name": "maxUser",
          "type": "uint256"
        }
      ],
      "name": "updatePolarLuckyBox",
      "outputs": [],
      "stateMutability": "nonpayable",
      "type": "function"
    }
  ],
  "bytecode": "0x60806040526017805461ffff191690553480156200001c57600080fd5b5060405162005ee338038062005ee38339810160408190526200003f9162000206565b604080518082018252600f81526e0a0ded8c2e44098eac6d6f24084def608b1b60208083019182528351808501909452600384526228262160e91b908401528151919291620000919160009162000143565b508051620000a790600190602084019062000143565b5050600a805460018181019092557fc65a7bb8d6351c1cf70c95a316cc6a92839c986682d98bc35f958f4883f9d2a80180546001600160a01b031916339081179091556000908152600b60209081526040909120805460ff191690921790915583516200011b925060159185019062000143565b50601180546001600160a01b0319166001600160a01b03929092169190911790555062000344565b8280546200015190620002f1565b90600052602060002090601f016020900481019282620001755760008555620001c0565b82601f106200019057805160ff1916838001178555620001c0565b82800160010185558215620001c0579182015b82811115620001c0578251825591602001919060010190620001a3565b50620001ce929150620001d2565b5090565b5b80821115620001ce5760008155600101620001d3565b80516001600160a01b03811681146200020157600080fd5b919050565b6000806040838503121562000219578182fd5b82516001600160401b038082111562000230578384fd5b818501915085601f83011262000244578384fd5b8151818111156200025957620002596200032e565b604051601f8201601f19908116603f011681019083821181831017156200028457620002846200032e565b81604052828152602093508884848701011115620002a0578687fd5b8691505b82821015620002c35784820184015181830185015290830190620002a4565b82821115620002d457868484830101525b9550620002e6915050858201620001e9565b925050509250929050565b6002810460018216806200030657607f821691505b602082108114156200032857634e487b7160e01b600052602260045260246000fd5b50919050565b634e487b7160e01b600052604160045260246000fd5b615b8f80620003546000396000f3fe608060405234801561001057600080fd5b50600436106102955760003560e01c80636454a0fd11610167578063a56f1f3f116100ce578063c80916d411610087578063c80916d414610627578063c87b56dd1461063a578063ce7180fb1461064d578063dbe1dfda14610655578063e985e9c514610668578063fe575a87146106a457610295565b8063a56f1f3f1461059a578063a933c20f146105ba578063b3a90b89146105db578063b3ad18e2146105ee578063b88d4fde14610601578063bac426d01461061457610295565b80638706d8fe116101205780638706d8fe146104fe57806387568fd0146105115780638d0357dd1461054c57806395d89b411461056c578063a0e3849214610574578063a22cb4651461058757610295565b80636454a0fd146104975780636c0360eb146104aa5780636d8850dc146104b257806370a08231146104c55780637c864ce9146104d85780638462151c146104eb57610295565b80632f745c591161020b578063518e32d3116101c4578063518e32d31461042c57806355f804b31461043f5780635a96ca09146104525780635b8ca1a81461045f5780636352211e14610471578063644cc7ed1461048457610295565b80632f745c59146103a057806340de1e09146103b357806342842e0e146103c65780634cee1e3b146103d95780634f6ccce7146103f95780635134fea61461040c57610295565b8063095ea7b31161025d578063095ea7b31461032a5780630c7b1d7b1461033d578063173825d91461034f57806318160ddd1461036257806323b872dd1461036a5780632f54bf6e1461037d57610295565b806301ffc9a71461029a578063025e7c27146102c2578063060ee2a0146102ed57806306fdde0314610302578063081812fc14610317575b600080fd5b6102ad6102a8366004615190565b6106c7565b60405190151581526020015b60405180910390f35b6102d56102d03660046153ba565b6106da565b6040516001600160a01b0390911681526020016102b9565b6103006102fb3660046152d2565b610704565b005b61030a611054565b6040516102b9919061576b565b6102d56103253660046153ba565b6110e6565b61030061033836600461511b565b61117b565b600a545b6040519081526020016102b9565b61030061035d366004614fa8565b611291565b600854610341565b610300610378366004614ff4565b61156c565b6102ad61038b366004614fa8565b600b6020526000908152604090205460ff1681565b6103416103ae36600461511b565b61159d565b6103006103c136600461523c565b611633565b6103006103d4366004614ff4565b6116cd565b6103ec6103e7366004615144565b6116e8565b6040516102b99190615758565b6103416104073660046153ba565b6117aa565b61041f61041a3660046153d2565b61184b565b6040516102b991906156c0565b61030061043a3660046150f2565b6119c4565b61030061044d3660046151c8565b611bdb565b6017546102ad9060ff1681565b6017546102ad90610100900460ff1681565b6102d561047f3660046153ba565b611c1d565b6103006104923660046152d2565b611c94565b6103416104a536600461527e565b6120b8565b61030a6122b2565b6103006104c036600461523c565b6122c1565b6103416104d3366004614fa8565b612358565b6103006104e6366004615176565b6123df565b6103ec6104f9366004614fa8565b612421565b61030061050c36600461527e565b6124e0565b61034161051f3660046151fa565b81516020818401810180516013825292820194820194909420919093529091526000908152604090205481565b61055f61055a3660046153d2565b612751565b6040516102b991906156f8565b61030a612b55565b6103006105823660046150f2565b612b64565b6103006105953660046150f2565b612bbe565b6105ad6105a83660046151c8565b612bc9565b6040516102b9919061598c565b6105cd6105c83660046150a7565b612f5f565b6040516102b99291906156d3565b6103416105e936600461527e565b613597565b61030a6105fc3660046153ba565b613615565b61030061060f36600461502f565b6136af565b610300610622366004614fa8565b6136e7565b6011546102d5906001600160a01b031681565b61030a6106483660046153ba565b613738565b600c54610341565b610300610663366004615176565b613813565b6102ad610676366004614fc2565b6001600160a01b03918216600090815260056020908152604080832093909416825291909152205460ff1690565b6102ad6106b2366004614fa8565b60166020526000908152604090205460ff1681565b60006106d28261385c565b90505b919050565b600a81815481106106ea57600080fd5b6000918252602090912001546001600160a01b0316905081565b336000908152600b602052604090205460ff1661073c5760405162461bcd60e51b815260040161073390615861565b60405180910390fd5b845186511461075d5760405162461bcd60e51b81526004016107339061588d565b835185511461077e5760405162461bcd60e51b81526004016107339061588d565b825184511461079f5760405162461bcd60e51b81526004016107339061588d565b60018451116107c05760405162461bcd60e51b81526004016107339061577e565b604051600f906107d1908a9061559d565b9081526040519081900360200190205460ff166108005760405162461bcd60e51b815260040161073390615957565b600085516001600160401b0381111561082957634e487b7160e01b600052604160045260246000fd5b604051908082528060200260200182016040528015610852578160200160208202803683370190505b5090506000600c6001018a60405161086a919061559d565b90815260200160405180910390206040518061014001604052908160008201548152602001600182018054806020026020016040519081016040528092919081815260200182805480156108dd57602002820191906000526020600020905b8154815260200190600101908083116108c9575b5050505050815260200160028201805480602002602001604051908101604052809291908181526020016000905b828210156109b757838290600052602060002001805461092a90615a97565b80601f016020809104026020016040519081016040528092919081815260200182805461095690615a97565b80156109a35780601f10610978576101008083540402835291602001916109a3565b820191906000526020600020905b81548152906001019060200180831161098657829003601f168201915b50505050508152602001906001019061090b565b50505050815260200160038201805480602002602001604051908101604052809291908181526020016000905b82821015610a90578382906000526020600020018054610a0390615a97565b80601f0160208091040260200160405190810160405280929190818152602001828054610a2f90615a97565b8015610a7c5780601f10610a5157610100808354040283529160200191610a7c565b820191906000526020600020905b815481529060010190602001808311610a5f57829003601f168201915b5050505050815260200190600101906109e4565b50505050815260200160048201805480602002602001604051908101604052809291908181526020018280548015610ae757602002820191906000526020600020905b815481526020019060010190808311610ad3575b5050505050815260200160058201805480602002602001604051908101604052809291908181526020018280548015610b3f57602002820191906000526020600020905b815481526020019060010190808311610b2b575b50505050508152602001600682015481526020016007820154815260200160088201548152602001600982015481525050905060005b8751811015610cc75760005b826040015151811015610cb457610bea898381518110610bb157634e487b7160e01b600052603260045260246000fd5b602002602001015184604001518381518110610bdd57634e487b7160e01b600052603260045260246000fd5b6020026020010151613881565b8015610c405750610c40888381518110610c1457634e487b7160e01b600052603260045260246000fd5b602002602001015184606001518381518110610bdd57634e487b7160e01b600052603260045260246000fd5b15610ca25782608001518181518110610c6957634e487b7160e01b600052603260045260246000fd5b6020026020010151848381518110610c9157634e487b7160e01b600052603260045260246000fd5b602002602001018181525050610cb4565b80610cac81615ad2565b915050610b81565b5080610cbf81615ad2565b915050610b75565b50610d278a6040518061014001604052808c8152602001610ce78c6138da565b81526020018a81526020018981526020018581526020018881526020018460c0015181526020018460e00151815260200187815260200186815250613a2e565b611048600c6001018b604051610d3d919061559d565b9081526020016040518091039020604051806101400160405290816000820154815260200160018201805480602002602001604051908101604052809291908181526020018280548015610db057602002820191906000526020600020905b815481526020019060010190808311610d9c575b5050505050815260200160028201805480602002602001604051908101604052809291908181526020016000905b82821015610e8a578382906000526020600020018054610dfd90615a97565b80601f0160208091040260200160405190810160405280929190818152602001828054610e2990615a97565b8015610e765780601f10610e4b57610100808354040283529160200191610e76565b820191906000526020600020905b815481529060010190602001808311610e5957829003601f168201915b505050505081526020019060010190610dde565b50505050815260200160038201805480602002602001604051908101604052809291908181526020016000905b82821015610f63578382906000526020600020018054610ed690615a97565b80601f0160208091040260200160405190810160405280929190818152602001828054610f0290615a97565b8015610f4f5780601f10610f2457610100808354040283529160200191610f4f565b820191906000526020600020905b815481529060010190602001808311610f3257829003601f168201915b505050505081526020019060010190610eb7565b50505050815260200160048201805480602002602001604051908101604052809291908181526020018280548015610fba57602002820191906000526020600020905b815481526020019060010190808311610fa6575b505050505081526020016005820180548060200260200160405190810160405280929190818152602001828054801561101257602002820191906000526020600020905b815481526020019060010190808311610ffe575b50505050508152602001600682015481526020016007820154815260200160088201548152602001600982015481525050613cc3565b50505050505050505050565b60606000805461106390615a97565b80601f016020809104026020016040519081016040528092919081815260200182805461108f90615a97565b80156110dc5780601f106110b1576101008083540402835291602001916110dc565b820191906000526020600020905b8154815290600101906020018083116110bf57829003601f168201915b5050505050905090565b6000818152600260205260408120546001600160a01b031661115f5760405162461bcd60e51b815260206004820152602c60248201527f4552433732313a20617070726f76656420717565727920666f72206e6f6e657860448201526b34b9ba32b73a103a37b5b2b760a11b6064820152608401610733565b506000908152600460205260409020546001600160a01b031690565b600061118682611c1d565b9050806001600160a01b0316836001600160a01b031614156111f45760405162461bcd60e51b815260206004820152602160248201527f4552433732313a20617070726f76616c20746f2063757272656e74206f776e656044820152603960f91b6064820152608401610733565b336001600160a01b038216148061121057506112108133610676565b6112825760405162461bcd60e51b815260206004820152603860248201527f4552433732313a20617070726f76652063616c6c6572206973206e6f74206f7760448201527f6e6572206e6f7220617070726f76656420666f7220616c6c00000000000000006064820152608401610733565b61128c8383613e9a565b505050565b336001600160a01b0316600a6000815481106112bd57634e487b7160e01b600052603260045260246000fd5b6000918252602090912001546001600160a01b03161461131a5760405162461bcd60e51b815260206004820152601860248201527727bbb732b9399d1027b7363c9029bab832b91027bbb732b960411b6044820152606401610733565b6001600160a01b0381166000908152600b602052604090205460ff166113765760405162461bcd60e51b815260206004820152601160248201527027bbb732b9399d102737ba1037bbb732b960791b6044820152606401610733565b600a60008154811061139857634e487b7160e01b600052603260045260246000fd5b6000918252602090912001546001600160a01b03828116911614156114095760405162461bcd60e51b815260206004820152602160248201527f4f776e6572733a2043616e6e6f742072656d6f7665207375706572206f776e656044820152603960f91b6064820152608401610733565b60015b600a5481101561154a57816001600160a01b0316600a828154811061144157634e487b7160e01b600052603260045260246000fd5b6000918252602090912001546001600160a01b0316141561153857600a805461146c90600190615a3d565b8154811061148a57634e487b7160e01b600052603260045260246000fd5b600091825260209091200154600a80546001600160a01b0390921691839081106114c457634e487b7160e01b600052603260045260246000fd5b9060005260206000200160006101000a8154816001600160a01b0302191690836001600160a01b03160217905550600a80548061151157634e487b7160e01b600052603160045260246000fd5b600082815260209020810160001990810180546001600160a01b031916905501905561154a565b8061154281615ad2565b91505061140c565b506001600160a01b03166000908152600b60205260409020805460ff19169055565b6115763382613f08565b6115925760405162461bcd60e51b8152600401610733906158c4565b61128c838383613fff565b60006115a883612358565b821061160a5760405162461bcd60e51b815260206004820152602b60248201527f455243373231456e756d657261626c653a206f776e657220696e646578206f7560448201526a74206f6620626f756e647360a81b6064820152608401610733565b506001600160a01b03919091166000908152600660209081526040808320938352929052205490565b336000908152600b602052604090205460ff166116625760405162461bcd60e51b815260040161073390615861565b604051600f9061167390849061559d565b9081526040519081900360200190205460ff166116a25760405162461bcd60e51b815260040161073390615957565b80600c600101836040516116b6919061559d565b908152604051908190036020019020600901555050565b61128c838383604051806020016040528060008152506136af565b606060006116f68484615a3d565b6001600160401b0381111561171b57634e487b7160e01b600052604160045260246000fd5b604051908082528060200260200182016040528015611744578160200160208202803683370190505b509050835b838110156117a15761175b868261159d565b826117668784615a3d565b8151811061178457634e487b7160e01b600052603260045260246000fd5b60209081029190910101528061179981615ad2565b915050611749565b50949350505050565b60006117b560085490565b82106118185760405162461bcd60e51b815260206004820152602c60248201527f455243373231456e756d657261626c653a20676c6f62616c20696e646578206f60448201526b7574206f6620626f756e647360a01b6064820152608401610733565b6008828154811061183957634e487b7160e01b600052603260045260246000fd5b90600052602060002001549050919050565b606060006118598484615a3d565b6001600160401b0381111561187e57634e487b7160e01b600052604160045260246000fd5b6040519080825280602002602001820160405280156118b157816020015b606081526020019060019003908161189c5790505b509050835b838110156119bc57600c8054829081106118e057634e487b7160e01b600052603260045260246000fd5b9060005260206000200180546118f590615a97565b80601f016020809104026020016040519081016040528092919081815260200182805461192190615a97565b801561196e5780601f106119435761010080835404028352916020019161196e565b820191906000526020600020905b81548152906001019060200180831161195157829003601f168201915b50505050508286836119809190615a3d565b8151811061199e57634e487b7160e01b600052603260045260246000fd5b602002602001018190525080806119b490615ad2565b9150506118b6565b509392505050565b336001600160a01b0316600a6000815481106119f057634e487b7160e01b600052603260045260246000fd5b6000918252602090912001546001600160a01b031614611a4d5760405162461bcd60e51b815260206004820152601860248201527727bbb732b9399d1027b7363c9029bab832b91027bbb732b960411b6044820152606401610733565b6001600160a01b0382166000908152600b602052604090205460ff1615611aae5760405162461bcd60e51b815260206004820152601560248201527427bbb732b9399d1020b63932b0b23c9037bbb732b960591b6044820152606401610733565b6001600160a01b0382166000908152600b60205260409020805460ff191660011790558015611b8b57600a80600081548110611afa57634e487b7160e01b600052603260045260246000fd5b6000918252602080832090910154835460018101855593835290822090920180546001600160a01b0319166001600160a01b0390931692909217909155600a8054849290611b5857634e487b7160e01b600052603260045260246000fd5b9060005260206000200160006101000a8154816001600160a01b0302191690836001600160a01b03160217905550611bd7565b600a80546001810182556000919091527fc65a7bb8d6351c1cf70c95a316cc6a92839c986682d98bc35f958f4883f9d2a80180546001600160a01b0319166001600160a01b0384161790555b5050565b336000908152600b602052604090205460ff16611c0a5760405162461bcd60e51b815260040161073390615861565b8051611bd7906015906020840190614c6f565b6000818152600260205260408120546001600160a01b0316806106d25760405162461bcd60e51b815260206004820152602960248201527f4552433732313a206f776e657220717565727920666f72206e6f6e657869737460448201526832b73a103a37b5b2b760b91b6064820152608401610733565b336000908152600b602052604090205460ff16611cc35760405162461bcd60e51b815260040161073390615861565b8451865114611ce45760405162461bcd60e51b81526004016107339061588d565b8351855114611d055760405162461bcd60e51b81526004016107339061588d565b8251845114611d265760405162461bcd60e51b81526004016107339061588d565b6001845111611d475760405162461bcd60e51b81526004016107339061577e565b604051600f90611d58908a9061559d565b9081526040519081900360200190205460ff1615611dc35760405162461bcd60e51b815260206004820152602260248201527f506f6c61724c75636b79426f783a204e616d6520616c72656164792065786973604482015261747360f01b6064820152608401610733565b600085516001600160401b03811115611dec57634e487b7160e01b600052604160045260246000fd5b604051908082528060200260200182016040528015611e15578160200160208202803683370190505b509050611e71896040518061014001604052808b8152602001611e378b6138da565b8152602001898152602001888152602001848152602001878152602001600081526020016000815260200186815260200185815250613a2e565b6120ad600c6001018a604051611e87919061559d565b9081526020016040518091039020604051806101400160405290816000820154815260200160018201805480602002602001604051908101604052809291908181526020018280548015611efa57602002820191906000526020600020905b815481526020019060010190808311611ee6575b5050505050815260200160028201805480602002602001604051908101604052809291908181526020016000905b82821015611fd4578382906000526020600020018054611f4790615a97565b80601f0160208091040260200160405190810160405280929190818152602001828054611f7390615a97565b8015611fc05780601f10611f9557610100808354040283529160200191611fc0565b820191906000526020600020905b815481529060010190602001808311611fa357829003601f168201915b505050505081526020019060010190611f28565b50505050815260200160038201805480602002602001604051908101604052809291908181526020016000905b82821015610f6357838290600052602060002001805461202090615a97565b80601f016020809104026020016040519081016040528092919081815260200182805461204c90615a97565b80156120995780601f1061206e57610100808354040283529160200191612099565b820191906000526020600020905b81548152906001019060200180831161207c57829003601f168201915b505050505081526020019060010190612001565b505050505050505050565b6011546000906001600160a01b031633146120e55760405162461bcd60e51b81526004016107339061581c565b60175460ff166121315760405162461bcd60e51b81526020600482015260176024820152762837b630b9263ab1b5bca137bc1d102737ba1037b832b760491b6044820152606401610733565b61213c848385614068565b6000600c60010185604051612151919061559d565b908152602001604051809103902090508060080154816006015411156121b95760405162461bcd60e51b815260206004820152601b60248201527f506f6c61724c75636b79426f783a204f7574206f662073746f636b00000000006044820152606401610733565b604051600d906121ca90879061559d565b9081526020016040518091039020600901546013866040516121ec919061559d565b90815260408051602092819003830190206001600160a01b03871660009081529252902054111561227b5760405162461bcd60e51b815260206004820152603360248201527f506f6c61724c75636b79426f783a205573657220676f7420746f6f206d616e7960448201527220626f786573206f662074686973207479706560681b6064820152608401610733565b83600c6001018660405161228f919061559d565b908152604051908190036020019020546122a99190615a1e565b95945050505050565b60606122bc61420e565b905090565b336000908152600b602052604090205460ff166122f05760405162461bcd60e51b815260040161073390615861565b604051600f9061230190849061559d565b9081526040519081900360200190205460ff166123305760405162461bcd60e51b815260040161073390615957565b80600c60010183604051612344919061559d565b908152604051908190036020019020555050565b60006001600160a01b0382166123c35760405162461bcd60e51b815260206004820152602a60248201527f4552433732313a2062616c616e636520717565727920666f7220746865207a65604482015269726f206164647265737360b01b6064820152608401610733565b506001600160a01b031660009081526003602052604090205490565b336000908152600b602052604090205460ff1661240e5760405162461bcd60e51b815260040161073390615861565b6017805460ff1916911515919091179055565b6060600061242e83612358565b6001600160401b0381111561245357634e487b7160e01b600052604160045260246000fd5b60405190808252806020026020018201604052801561247c578160200160208202803683370190505b50905060005b61248b84612358565b8110156124d95761249c848261159d565b8282815181106124bc57634e487b7160e01b600052603260045260246000fd5b6020908102919091010152806124d181615ad2565b915050612482565b5092915050565b6011546001600160a01b0316331461250a5760405162461bcd60e51b81526004016107339061581c565b612515838284614068565b61128c600c6001018460405161252b919061559d565b908152602001604051809103902060405180610140016040529081600082015481526020016001820180548060200260200160405190810160405280929190818152602001828054801561259e57602002820191906000526020600020905b81548152602001906001019080831161258a575b5050505050815260200160028201805480602002602001604051908101604052809291908181526020016000905b828210156126785783829060005260206000200180546125eb90615a97565b80601f016020809104026020016040519081016040528092919081815260200182805461261790615a97565b80156126645780601f1061263957610100808354040283529160200191612664565b820191906000526020600020905b81548152906001019060200180831161264757829003601f168201915b5050505050815260200190600101906125cc565b50505050815260200160038201805480602002602001604051908101604052809291908181526020016000905b82821015610f635783829060005260206000200180546126c490615a97565b80601f01602080910402602001604051908101604052809291908181526020018280546126f090615a97565b801561273d5780601f106127125761010080835404028352916020019161273d565b820191906000526020600020905b81548152906001019060200180831161272057829003601f168201915b5050505050815260200190600101906126a5565b6060600061275f8484615a3d565b6001600160401b0381111561278457634e487b7160e01b600052604160045260246000fd5b6040519080825280602002602001820160405280156127bd57816020015b6127aa614cf3565b8152602001906001900390816127a25790505b509050835b838110156119bc57600c8054600d9190839081106127f057634e487b7160e01b600052603260045260246000fd5b9060005260206000200160405161280791906155e8565b908152602001604051809103902060405180610140016040529081600082015481526020016001820180548060200260200160405190810160405280929190818152602001828054801561287a57602002820191906000526020600020905b815481526020019060010190808311612866575b5050505050815260200160028201805480602002602001604051908101604052809291908181526020016000905b828210156129545783829060005260206000200180546128c790615a97565b80601f01602080910402602001604051908101604052809291908181526020018280546128f390615a97565b80156129405780601f1061291557610100808354040283529160200191612940565b820191906000526020600020905b81548152906001019060200180831161292357829003601f168201915b5050505050815260200190600101906128a8565b50505050815260200160038201805480602002602001604051908101604052809291908181526020016000905b82821015612a2d5783829060005260206000200180546129a090615a97565b80601f01602080910402602001604051908101604052809291908181526020018280546129cc90615a97565b8015612a195780601f106129ee57610100808354040283529160200191612a19565b820191906000526020600020905b8154815290600101906020018083116129fc57829003601f168201915b505050505081526020019060010190612981565b50505050815260200160048201805480602002602001604051908101604052809291908181526020018280548015612a8457602002820191906000526020600020905b815481526020019060010190808311612a70575b5050505050815260200160058201805480602002602001604051908101604052809291908181526020018280548015612adc57602002820191906000526020600020905b815481526020019060010190808311612ac8575b505050918352505060068201546020820152600782015460408201526008820154606082015260099091015460809091015282612b198784615a3d565b81518110612b3757634e487b7160e01b600052603260045260246000fd5b60200260200101819052508080612b4d90615ad2565b9150506127c2565b60606001805461106390615a97565b336000908152600b602052604090205460ff16612b935760405162461bcd60e51b815260040161073390615861565b6001600160a01b03919091166000908152601660205260409020805460ff1916911515919091179055565b611bd733838361421d565b612bd1614cf3565b604051600f90612be290849061559d565b9081526040519081900360200190205460ff16612c415760405162461bcd60e51b815260206004820152601f60248201527f506f6c61724c75636b79426f783a204b657920646f65736e74206578697374006044820152606401610733565b604051600d90612c5290849061559d565b9081526020016040518091039020604051806101400160405290816000820154815260200160018201805480602002602001604051908101604052809291908181526020018280548015612cc557602002820191906000526020600020905b815481526020019060010190808311612cb1575b5050505050815260200160028201805480602002602001604051908101604052809291908181526020016000905b82821015612d9f578382906000526020600020018054612d1290615a97565b80601f0160208091040260200160405190810160405280929190818152602001828054612d3e90615a97565b8015612d8b5780601f10612d6057610100808354040283529160200191612d8b565b820191906000526020600020905b815481529060010190602001808311612d6e57829003601f168201915b505050505081526020019060010190612cf3565b50505050815260200160038201805480602002602001604051908101604052809291908181526020016000905b82821015612e78578382906000526020600020018054612deb90615a97565b80601f0160208091040260200160405190810160405280929190818152602001828054612e1790615a97565b8015612e645780601f10612e3957610100808354040283529160200191612e64565b820191906000526020600020905b815481529060010190602001808311612e4757829003601f168201915b505050505081526020019060010190612dcc565b50505050815260200160048201805480602002602001604051908101604052809291908181526020018280548015612ecf57602002820191906000526020600020905b815481526020019060010190808311612ebb575b5050505050815260200160058201805480602002602001604051908101604052809291908181526020018280548015612f2757602002820191906000526020600020905b815481526020019060010190808311612f13575b505050505081526020016006820154815260200160078201548152602001600882015481526020016009820154815250509050919050565b60115460609081906001600160a01b03163314612f8e5760405162461bcd60e51b81526004016107339061581c565b600083516001600160401b03811115612fb757634e487b7160e01b600052604160045260246000fd5b604051908082528060200260200182016040528015612fea57816020015b6060815260200190600190039081612fd55790505b509050600084516001600160401b0381111561301657634e487b7160e01b600052604160045260246000fd5b60405190808252806020026020018201604052801561304957816020015b60608152602001906001900390816130345790505b50905060005b855181101561358b57600086828151811061307a57634e487b7160e01b600052603260045260246000fd5b60200260200101519050876001600160a01b031661309782611c1d565b6001600160a01b0316146130ed5760405162461bcd60e51b815260206004820152601c60248201527f506f6c61724c75636b79426f783a204e6f74206e6674206f776e6572000000006044820152606401610733565b6000818152601260205260408082209051600d9161310a916155e8565b908152604051908190036020019020600781018054919250600061312d83615ad2565b9190505550600061313d8a6142ec565b905060005b60018301548110156135745782600101818154811061317157634e487b7160e01b600052603260045260246000fd5b90600052602060002001548210156135025761318c84614356565b8260040181815481106131af57634e487b7160e01b600052603260045260246000fd5b600091825260208220018054916131c583615ad2565b91905055508260050181815481106131ed57634e487b7160e01b600052603260045260246000fd5b6000918252602082200180549161320383615a80565b919050555082600501818154811061322b57634e487b7160e01b600052603260045260246000fd5b90600052602060002001546000141561333b578015613309576000613251600183615a3d565b90505b83600101818154811061327757634e487b7160e01b600052603260045260246000fd5b90600052602060002001546000146132eb578360010182815481106132ac57634e487b7160e01b600052603260045260246000fd5b90600052602060002001548460010182815481106132da57634e487b7160e01b600052603260045260246000fd5b600091825260209091200155613307565b806132f557613307565b806132ff81615a80565b915050613254565b505b600083600101828154811061332e57634e487b7160e01b600052603260045260246000fd5b6000918252602090912001555b82600201818154811061335e57634e487b7160e01b600052603260045260246000fd5b90600052602060002001805461337390615a97565b80601f016020809104026020016040519081016040528092919081815260200182805461339f90615a97565b80156133ec5780601f106133c1576101008083540402835291602001916133ec565b820191906000526020600020905b8154815290600101906020018083116133cf57829003601f168201915b505050505087868151811061341157634e487b7160e01b600052603260045260246000fd5b602002602001018190525082600301818154811061343f57634e487b7160e01b600052603260045260246000fd5b90600052602060002001805461345490615a97565b80601f016020809104026020016040519081016040528092919081815260200182805461348090615a97565b80156134cd5780601f106134a2576101008083540402835291602001916134cd565b820191906000526020600020905b8154815290600101906020018083116134b057829003601f168201915b50505050508686815181106134f257634e487b7160e01b600052603260045260246000fd5b6020026020010181905250613574565b600180840154906135149083906159f2565b14156135625760405162461bcd60e51b815260206004820181905260248201527f506f6c61724c75636b79426f783a20556e6578706563746564206f75747075746044820152606401610733565b8061356c81615ad2565b915050613142565b50505050808061358390615ad2565b91505061304f565b50909590945092505050565b6011546000906001600160a01b031633146135c45760405162461bcd60e51b81526004016107339061581c565b601754610100900460ff166121315760405162461bcd60e51b81526020600482015260176024820152762837b630b9263ab1b5bca137bc1d102737ba1037b832b760491b6044820152606401610733565b6012602052600090815260409020805461362e90615a97565b80601f016020809104026020016040519081016040528092919081815260200182805461365a90615a97565b80156136a75780601f1061367c576101008083540402835291602001916136a7565b820191906000526020600020905b81548152906001019060200180831161368a57829003601f168201915b505050505081565b6136b93383613f08565b6136d55760405162461bcd60e51b8152600401610733906158c4565b6136e1848484846143fd565b50505050565b336000908152600b602052604090205460ff166137165760405162461bcd60e51b815260040161073390615861565b601180546001600160a01b0319166001600160a01b0392909216919091179055565b6000818152600260205260409020546060906001600160a01b03166137b75760405162461bcd60e51b815260206004820152602f60248201527f4552433732314d657461646174613a2055524920717565727920666f72206e6f60448201526e3732bc34b9ba32b73a103a37b5b2b760891b6064820152608401610733565b60006137c161420e565b905060008151116137e1576040518060200160405280600081525061380c565b806137eb84614430565b6040516020016137fc9291906155b9565b6040516020818303038152906040525b9392505050565b336000908152600b602052604090205460ff166138425760405162461bcd60e51b815260040161073390615861565b601780549115156101000261ff0019909216919091179055565b60006001600160e01b0319821663780e9d6360e01b14806106d257506106d28261454a565b600081604051602001613894919061559d565b60405160208183030381529060405280519060200120836040516020016138bb919061559d565b6040516020818303038152906040528051906020012014905092915050565b60606000826000815181106138ff57634e487b7160e01b600052603260045260246000fd5b602002602001015190506000600190505b83518110156139bf5783818151811061393957634e487b7160e01b600052603260045260246000fd5b60200260200101516000146139ad578184828151811061396957634e487b7160e01b600052603260045260246000fd5b6020026020010181815161397d91906159f2565b90525083518490829081106139a257634e487b7160e01b600052603260045260246000fd5b602002602001015191505b806139b781615ad2565b915050613910565b508061271014613a275760405162461bcd60e51b815260206004820152602d60248201527f506f6c61724c75636b79426f783a20546f74616c2070726f626162696c69747960448201526c206d757374206265203130302560981b6064820152608401610733565b5090919050565b604051600f90613a3f90849061559d565b9081526040519081900360200190205460ff1615613b415780600c60010183604051613a6b919061559d565b9081526020016040518091039020600082015181600001556020820151816001019080519060200190613a9f929190614d46565b5060408201518051613abb916002840191602090910190614d80565b5060608201518051613ad7916003840191602090910190614d80565b5060808201518051613af3916004840191602090910190614d46565b5060a08201518051613b0f916005840191602090910190614d46565b5060c0820151600682015560e08201516007820155610100820151600882015561012090910151600990910155611bd7565b6001600c60030183604051613b56919061559d565b908152604051908190036020018120805492151560ff19909316929092179091558190600d90613b8790859061559d565b9081526020016040518091039020600082015181600001556020820151816001019080519060200190613bbb929190614d46565b5060408201518051613bd7916002840191602090910190614d80565b5060608201518051613bf3916003840191602090910190614d80565b5060808201518051613c0f916004840191602090910190614d46565b5060a08201518051613c2b916005840191602090910190614d46565b5060c0820151600682015560e08201516007820155610100820151600882015561012090910151600990910155600c54604051600e90613c6c90859061559d565b9081526040516020918190038201902091909155600c8054600181018255600091909152835161128c927fdf6966c971051c3d54ec59162606531493a51404a002842f56009d7e5cf4a8c790920191850190614c6f565b6000805b8260a0015151811015613df557600083602001518281518110613cfa57634e487b7160e01b600052603260045260246000fd5b60200260200101511115613de35760008360a001518281518110613d2e57634e487b7160e01b600052603260045260246000fd5b602002602001015111613da95760405162461bcd60e51b815260206004820152603860248201527f506f6c61724c75636b79426f783a2050726f626162696c697479206d7573742060448201527f62652030206966206e6f20626f782072656d61696e696e6700000000000000006064820152608401610733565b8260a001518181518110613dcd57634e487b7160e01b600052603260045260246000fd5b602002602001015182613de091906159f2565b91505b80613ded81615ad2565b915050613cc7565b5060008260c001518361010001511015613e13578260c00151613e1a565b8261010001515b90508260e0015181613e2c9190615a3d565b82101561128c5760405162461bcd60e51b815260206004820152603660248201527f506f6c61724c75636b79426f783a2053756d2072656d61696e696e67206c6f776044820152750cae440e8d0c2dc40dac2f0405a40dee0cadc40c4def60531b6064820152608401610733565b600081815260046020526040902080546001600160a01b0319166001600160a01b0384169081179091558190613ecf82611c1d565b6001600160a01b03167f8c5be1e5ebec7d5bd14f71427d1e84f3dd0314c0f7b2291e5b200ac8c7c3b92560405160405180910390a45050565b6000818152600260205260408120546001600160a01b0316613f815760405162461bcd60e51b815260206004820152602c60248201527f4552433732313a206f70657261746f7220717565727920666f72206e6f6e657860448201526b34b9ba32b73a103a37b5b2b760a11b6064820152608401610733565b6000613f8c83611c1d565b9050806001600160a01b0316846001600160a01b03161480613fc75750836001600160a01b0316613fbc846110e6565b6001600160a01b0316145b80613ff757506001600160a01b0380821660009081526005602090815260408083209388168352929052205460ff165b949350505050565b6001600160a01b03831660009081526016602052604090205460ff1615801561404157506001600160a01b03821660009081526016602052604090205460ff16155b61405d5760405162461bcd60e51b815260040161073390615915565b61128c83838361459a565b6001600160a01b03821660009081526016602052604090205460ff16156140a15760405162461bcd60e51b815260040161073390615915565b604051600f906140b290859061559d565b9081526040519081900360200190205460ff166141115760405162461bcd60e51b815260206004820152601f60248201527f506f6c61724c75636b79426f783a20426f7820646f65736e74206578697374006044820152606401610733565b60005b8181101561417757600061412760145490565b6000818152601260209081526040909120875192935061414b929091880190614c6f565b506141568482614745565b614164601480546001019055565b508061416f81615ad2565b915050614114565b5080600c6001018460405161418c919061559d565b908152602001604051809103902060060160008282546141ac91906159f2565b92505081905550806013846040516141c4919061559d565b90815260200160405180910390206000846001600160a01b03166001600160a01b03168152602001908152602001600020600082825461420491906159f2565b9091555050505050565b60606015805461106390615a97565b816001600160a01b0316836001600160a01b0316141561427f5760405162461bcd60e51b815260206004820152601960248201527f4552433732313a20617070726f766520746f2063616c6c6572000000000000006044820152606401610733565b6001600160a01b03838116600081815260056020908152604080832094871680845294825291829020805460ff191686151590811790915591519182527f17307eab39ab6107e8899845ad3d59bd9653f200f220920489ca2b5937696c31910160405180910390a3505050565b6010546040805160208101929092526bffffffffffffffffffffffff19606084901b1690820152446054820152426074820152600090819060940160408051601f198184030181529190528051602090910120601080546001019055905061380c61271082615aed565b600061436182611c1d565b905061436f8160008461475f565b61437a600083613e9a565b6001600160a01b03811660009081526003602052604081208054600192906143a3908490615a3d565b909155505060008281526002602052604080822080546001600160a01b0319169055518391906001600160a01b038416907fddf252ad1be2c89b69c2b068fc378daa952ba7f163c4a11628f55a4df523b3ef908390a45050565b614408848484613fff565b6144148484848461476a565b6136e15760405162461bcd60e51b8152600401610733906157ca565b60608161445557506040805180820190915260018152600360fc1b60208201526106d5565b8160005b811561447f578061446981615ad2565b91506144789050600a83615a0a565b9150614459565b6000816001600160401b038111156144a757634e487b7160e01b600052604160045260246000fd5b6040519080825280601f01601f1916602001820160405280156144d1576020820181803683370190505b5090505b8415613ff7576144e6600183615a3d565b91506144f3600a86615aed565b6144fe9060306159f2565b60f81b81838151811061452157634e487b7160e01b600052603260045260246000fd5b60200101906001600160f81b031916908160001a905350614543600a86615a0a565b94506144d5565b60006001600160e01b031982166380ac58cd60e01b148061457b57506001600160e01b03198216635b5e139f60e01b145b806106d257506301ffc9a760e01b6001600160e01b03198316146106d2565b826001600160a01b03166145ad82611c1d565b6001600160a01b0316146146155760405162461bcd60e51b815260206004820152602960248201527f4552433732313a207472616e73666572206f6620746f6b656e2074686174206960448201526839903737ba1037bbb760b91b6064820152608401610733565b6001600160a01b0382166146775760405162461bcd60e51b8152602060048201526024808201527f4552433732313a207472616e7366657220746f20746865207a65726f206164646044820152637265737360e01b6064820152608401610733565b61468283838361475f565b61468d600082613e9a565b6001600160a01b03831660009081526003602052604081208054600192906146b6908490615a3d565b90915550506001600160a01b03821660009081526003602052604081208054600192906146e49084906159f2565b909155505060008181526002602052604080822080546001600160a01b0319166001600160a01b0386811691821790925591518493918716917fddf252ad1be2c89b69c2b068fc378daa952ba7f163c4a11628f55a4df523b3ef91a4505050565b611bd7828260405180602001604052806000815250614877565b61128c8383836148aa565b60006001600160a01b0384163b1561486c57604051630a85bd0160e11b81526001600160a01b0385169063150b7a02906147ae903390899088908890600401615683565b602060405180830381600087803b1580156147c857600080fd5b505af19250505080156147f8575060408051601f3d908101601f191682019092526147f5918101906151ac565b60015b614852573d808015614826576040519150601f19603f3d011682016040523d82523d6000602084013e61482b565b606091505b50805161484a5760405162461bcd60e51b8152600401610733906157ca565b805181602001fd5b6001600160e01b031916630a85bd0160e11b149050613ff7565b506001949350505050565b6148818383614967565b61488e600084848461476a565b61128c5760405162461bcd60e51b8152600401610733906157ca565b6001600160a01b0383166149055761490081600880546000838152600960205260408120829055600182018355919091527ff3f7a9fe364faab93b216da50a3214154f22a0a2b415b23a84c8169e8b636ee30155565b614928565b816001600160a01b0316836001600160a01b031614614928576149288382614ab5565b6001600160a01b0382166149445761493f81614b52565b61128c565b826001600160a01b0316826001600160a01b03161461128c5761128c8282614c2b565b6001600160a01b0382166149bd5760405162461bcd60e51b815260206004820181905260248201527f4552433732313a206d696e7420746f20746865207a65726f20616464726573736044820152606401610733565b6000818152600260205260409020546001600160a01b031615614a225760405162461bcd60e51b815260206004820152601c60248201527f4552433732313a20746f6b656e20616c7265616479206d696e746564000000006044820152606401610733565b614a2e6000838361475f565b6001600160a01b0382166000908152600360205260408120805460019290614a579084906159f2565b909155505060008181526002602052604080822080546001600160a01b0319166001600160a01b03861690811790915590518392907fddf252ad1be2c89b69c2b068fc378daa952ba7f163c4a11628f55a4df523b3ef908290a45050565b60006001614ac284612358565b614acc9190615a3d565b600083815260076020526040902054909150808214614b1f576001600160a01b03841660009081526006602090815260408083208584528252808320548484528184208190558352600790915290208190555b5060009182526007602090815260408084208490556001600160a01b039094168352600681528383209183525290812055565b600854600090614b6490600190615a3d565b60008381526009602052604081205460088054939450909284908110614b9a57634e487b7160e01b600052603260045260246000fd5b906000526020600020015490508060088381548110614bc957634e487b7160e01b600052603260045260246000fd5b6000918252602080832090910192909255828152600990915260408082208490558582528120556008805480614c0f57634e487b7160e01b600052603160045260246000fd5b6001900381819060005260206000200160009055905550505050565b6000614c3683612358565b6001600160a01b039093166000908152600660209081526040808320868452825280832085905593825260079052919091209190915550565b828054614c7b90615a97565b90600052602060002090601f016020900481019282614c9d5760008555614ce3565b82601f10614cb657805160ff1916838001178555614ce3565b82800160010185558215614ce3579182015b82811115614ce3578251825591602001919060010190614cc8565b50614cef929150614dd9565b5090565b604051806101400160405280600081526020016060815260200160608152602001606081526020016060815260200160608152602001600081526020016000815260200160008152602001600081525090565b828054828255906000526020600020908101928215614ce35791602002820182811115614ce3578251825591602001919060010190614cc8565b828054828255906000526020600020908101928215614dcd579160200282015b82811115614dcd5782518051614dbd918491602090910190614c6f565b5091602001919060010190614da0565b50614cef929150614dee565b5b80821115614cef5760008155600101614dda565b80821115614cef576000614e028282614e0b565b50600101614dee565b508054614e1790615a97565b6000825580601f10614e295750614e47565b601f016020900490600052602060002090810190614e479190614dd9565b50565b60006001600160401b03831115614e6357614e63615b2d565b614e76601f8401601f191660200161599f565b9050828152838383011115614e8a57600080fd5b828260208301376000602084830101529392505050565b80356001600160a01b03811681146106d557600080fd5b600082601f830112614ec8578081fd5b81356020614edd614ed8836159cf565b61599f565b82815281810190858301855b85811015614f1257614f00898684358b0101614f89565b84529284019290840190600101614ee9565b5090979650505050505050565b600082601f830112614f2f578081fd5b81356020614f3f614ed8836159cf565b8281528181019085830183850287018401881015614f5b578586fd5b855b85811015614f1257813584529284019290840190600101614f5d565b803580151581146106d557600080fd5b600082601f830112614f99578081fd5b61380c83833560208501614e4a565b600060208284031215614fb9578081fd5b61380c82614ea1565b60008060408385031215614fd4578081fd5b614fdd83614ea1565b9150614feb60208401614ea1565b90509250929050565b600080600060608486031215615008578081fd5b61501184614ea1565b925061501f60208501614ea1565b9150604084013590509250925092565b60008060008060808587031215615044578081fd5b61504d85614ea1565b935061505b60208601614ea1565b92506040850135915060608501356001600160401b0381111561507c578182fd5b8501601f8101871361508c578182fd5b61509b87823560208401614e4a565b91505092959194509250565b600080604083850312156150b9578182fd5b6150c283614ea1565b915060208301356001600160401b038111156150dc578182fd5b6150e885828601614f1f565b9150509250929050565b60008060408385031215615104578182fd5b61510d83614ea1565b9150614feb60208401614f79565b6000806040838503121561512d578182fd5b61513683614ea1565b946020939093013593505050565b600080600060608486031215615158578283fd5b61516184614ea1565b95602085013595506040909401359392505050565b600060208284031215615187578081fd5b61380c82614f79565b6000602082840312156151a1578081fd5b813561380c81615b43565b6000602082840312156151bd578081fd5b815161380c81615b43565b6000602082840312156151d9578081fd5b81356001600160401b038111156151ee578182fd5b613ff784828501614f89565b6000806040838503121561520c578182fd5b82356001600160401b03811115615221578283fd5b61522d85828601614f89565b925050614feb60208401614ea1565b6000806040838503121561524e578182fd5b82356001600160401b03811115615263578283fd5b61526f85828601614f89565b95602094909401359450505050565b600080600060608486031215615292578081fd5b83356001600160401b038111156152a7578182fd5b6152b386828701614f89565b935050602084013591506152c960408501614ea1565b90509250925092565b600080600080600080600080610100898b0312156152ee578586fd5b88356001600160401b0380821115615304578788fd5b6153108c838d01614f89565b995060208b0135985060408b013591508082111561532c578788fd5b6153388c838d01614f1f565b975060608b013591508082111561534d578586fd5b6153598c838d01614eb8565b965060808b013591508082111561536e578586fd5b61537a8c838d01614eb8565b955060a08b013591508082111561538f578485fd5b5061539c8b828c01614f1f565b93505060c0890135915060e089013590509295985092959890939650565b6000602082840312156153cb578081fd5b5035919050565b600080604083850312156153e4578182fd5b50508035926020909101359150565b6000815180845260208085019450848183028601828601855b85811015614f125783830389526154248383516154b3565b9885019892509084019060010161540c565b6000815180845260208085019450848183028601828601855b85811015614f125783830389526154678383516154b3565b9885019892509084019060010161544f565b6000815180845260208085019450808401835b838110156154a85781518752958201959082019060010161548c565b509495945050505050565b600081518084526154cb816020860160208601615a54565b601f01601f19169290920160200192915050565b60006101408251845260208301518160208601526154ff82860182615479565b9150506040830151848203604086015261551982826153f3565b9150506060830151848203606086015261553382826153f3565b9150506080830151848203608086015261554d8282615479565b91505060a083015184820360a08601526155678282615479565b60c0858101519087015260e080860151908701526101008086015190870152610120948501519490950193909352509192915050565b600082516155af818460208701615a54565b9190910192915050565b600083516155cb818460208801615a54565b8351908301906155df818360208801615a54565b01949350505050565b815460009081906002810460018083168061560457607f831692505b602080841082141561562457634e487b7160e01b87526022600452602487fd5b818015615638576001811461564957615675565b60ff19861689528489019650615675565b60008a815260209020885b8681101561566d5781548b820152908501908301615654565b505084890196505b509498975050505050505050565b6001600160a01b03858116825284166020820152604081018390526080606082018190526000906156b6908301846154b3565b9695505050505050565b60006020825261380c6020830184615436565b6000604082526156e66040830185615436565b82810360208401526122a98185615436565b6000602080830181845280855180835260408601915060408482028701019250838701855b8281101561574b57603f198886030184526157398583516154df565b9450928501929085019060010161571d565b5092979650505050505050565b60006020825261380c6020830184615479565b60006020825261380c60208301846154b3565b6020808252602c908201527f506f6c61724c75636b79426f783a204c656e677468206d75737420626520677260408201526b6561746572207468616e203160a01b606082015260800190565b60208082526032908201527f4552433732313a207472616e7366657220746f206e6f6e20455243373231526560408201527131b2b4bb32b91034b6b83632b6b2b73a32b960711b606082015260800190565b60208082526025908201527f506f6c61724c75636b79426f783a20476f64206d6f6465206e6f7420616374696040820152641d985d195960da1b606082015260800190565b60208082526012908201527127bbb732b9399d1027b7363c9027bbb732b960711b604082015260600190565b6020808252601e908201527f506f6c61724c75636b79426f783a204c656e677468206d69736d617463680000604082015260600190565b60208082526031908201527f4552433732313a207472616e736665722063616c6c6572206973206e6f74206f6040820152701ddb995c881b9bdc88185c1c1c9bdd9959607a1b606082015260800190565b60208082526022908201527f506f6c61724c75636b79426f783a20426c61636b6c6973746564206164647265604082015261737360f01b606082015260800190565b6020808252818101527f506f6c61724c75636b79426f783a204e616d6520646f65736e74206578697374604082015260600190565b60006020825261380c60208301846154df565b604051601f8201601f191681016001600160401b03811182821017156159c7576159c7615b2d565b604052919050565b60006001600160401b038211156159e8576159e8615b2d565b5060209081020190565b60008219821115615a0557615a05615b01565b500190565b600082615a1957615a19615b17565b500490565b6000816000190483118215151615615a3857615a38615b01565b500290565b600082821015615a4f57615a4f615b01565b500390565b60005b83811015615a6f578181015183820152602001615a57565b838111156136e15750506000910152565b600081615a8f57615a8f615b01565b506000190190565b600281046001821680615aab57607f821691505b60208210811415615acc57634e487b7160e01b600052602260045260246000fd5b50919050565b6000600019821415615ae657615ae6615b01565b5060010190565b600082615afc57615afc615b17565b500690565b634e487b7160e01b600052601160045260246000fd5b634e487b7160e01b600052601260045260246000fd5b634e487b7160e01b600052604160045260246000fd5b6001600160e01b031981168114614e4757600080fdfea264697066735822122059ed3eaf7cb2c19e7fb0ece8da406ec63ec20acffead106738e5f28f63f9fe0464736f6c63430008020033",
  "linkReferences": {},
  "deployedLinkReferences": {}
}