{
  "_format": "hh-sol-artifact-1",
  "contractName": "PolarNode",
  "sourceName": "contracts/PolarNode.sol",
  "abi": [
    {
      "inputs": [
        {
          "internalType": "string",
          "name": "uri",
          "type": "string"
        },
        {
          "internalType": "address",
          "name": "_handler",
          "type": "address"
        }
      ],
      "stateMutability": "nonpayable",
      "type": "constructor"
    },
    {
      "anonymous": false,
      "inputs": [
        {
          "indexed": true,
          "internalType": "address",
          "name": "owner",
          "type": "address"
        },
        {
          "indexed": true,
          "internalType": "address",
          "name": "approved",
          "type": "address"
        },
        {
          "indexed": true,
          "internalType": "uint256",
          "name": "tokenId",
          "type": "uint256"
        }
      ],
      "name": "Approval",
      "type": "event"
    },
    {
      "anonymous": false,
      "inputs": [
        {
          "indexed": true,
          "internalType": "address",
          "name": "owner",
          "type": "address"
        },
        {
          "indexed": true,
          "internalType": "address",
          "name": "operator",
          "type": "address"
        },
        {
          "indexed": false,
          "internalType": "bool",
          "name": "approved",
          "type": "bool"
        }
      ],
      "name": "ApprovalForAll",
      "type": "event"
    },
    {
      "anonymous": false,
      "inputs": [
        {
          "indexed": true,
          "internalType": "address",
          "name": "from",
          "type": "address"
        },
        {
          "indexed": true,
          "internalType": "address",
          "name": "to",
          "type": "address"
        },
        {
          "indexed": true,
          "internalType": "uint256",
          "name": "tokenId",
          "type": "uint256"
        }
      ],
      "name": "Transfer",
      "type": "event"
    },
    {
      "inputs": [
        {
          "internalType": "address",
          "name": "_new",
          "type": "address"
        },
        {
          "internalType": "bool",
          "name": "_change",
          "type": "bool"
        }
      ],
      "name": "addOwner",
      "outputs": [],
      "stateMutability": "nonpayable",
      "type": "function"
    },
    {
      "inputs": [
        {
          "internalType": "address",
          "name": "to",
          "type": "address"
        },
        {
          "internalType": "uint256",
          "name": "tokenId",
          "type": "uint256"
        }
      ],
      "name": "approve",
      "outputs": [],
      "stateMutability": "nonpayable",
      "type": "function"
    },
    {
      "inputs": [
        {
          "internalType": "address",
          "name": "owner",
          "type": "address"
        }
      ],
      "name": "balanceOf",
      "outputs": [
        {
          "internalType": "uint256",
          "name": "",
          "type": "uint256"
        }
      ],
      "stateMutability": "view",
      "type": "function"
    },
    {
      "inputs": [],
      "name": "baseURI",
      "outputs": [
        {
          "internalType": "string",
          "name": "",
          "type": "string"
        }
      ],
      "stateMutability": "view",
      "type": "function"
    },
    {
      "inputs": [
        {
          "internalType": "address",
          "name": "user",
          "type": "address"
        },
        {
          "internalType": "uint256[]",
          "name": "tokenIds",
          "type": "uint256[]"
        }
      ],
      "name": "burnBatch",
      "outputs": [],
      "stateMutability": "nonpayable",
      "type": "function"
    },
    {
      "inputs": [
        {
          "internalType": "string",
          "name": "name",
          "type": "string"
        },
        {
          "internalType": "address",
          "name": "user",
          "type": "address"
        },
        {
          "internalType": "uint256",
          "name": "count",
          "type": "uint256"
        }
      ],
      "name": "generateNfts",
      "outputs": [
        {
          "internalType": "uint256[]",
          "name": "",
          "type": "uint256[]"
        }
      ],
      "stateMutability": "nonpayable",
      "type": "function"
    },
    {
      "inputs": [
        {
          "internalType": "uint256",
          "name": "tokenId",
          "type": "uint256"
        }
      ],
      "name": "getApproved",
      "outputs": [
        {
          "internalType": "address",
          "name": "",
          "type": "address"
        }
      ],
      "stateMutability": "view",
      "type": "function"
    },
    {
      "inputs": [
        {
          "internalType": "uint256",
          "name": "iStart",
          "type": "uint256"
        },
        {
          "internalType": "uint256",
          "name": "iEnd",
          "type": "uint256"
        }
      ],
      "name": "getNodeOwnersBetweenIndexes",
      "outputs": [
        {
          "internalType": "address[]",
          "name": "",
          "type": "address[]"
        }
      ],
      "stateMutability": "view",
      "type": "function"
    },
    {
      "inputs": [],
      "name": "getNodeOwnersSize",
      "outputs": [
        {
          "internalType": "uint256",
          "name": "",
          "type": "uint256"
        }
      ],
      "stateMutability": "view",
      "type": "function"
    },
    {
      "inputs": [],
      "name": "getOwnersSize",
      "outputs": [
        {
          "internalType": "uint256",
          "name": "",
          "type": "uint256"
        }
      ],
      "stateMutability": "view",
      "type": "function"
    },
    {
      "inputs": [],
      "name": "handler",
      "outputs": [
        {
          "internalType": "address",
          "name": "",
          "type": "address"
        }
      ],
      "stateMutability": "view",
      "type": "function"
    },
    {
      "inputs": [
        {
          "internalType": "address",
          "name": "owner",
          "type": "address"
        },
        {
          "internalType": "address",
          "name": "operator",
          "type": "address"
        }
      ],
      "name": "isApprovedForAll",
      "outputs": [
        {
          "internalType": "bool",
          "name": "",
          "type": "bool"
        }
      ],
      "stateMutability": "view",
      "type": "function"
    },
    {
      "inputs": [
        {
          "internalType": "address",
          "name": "",
          "type": "address"
        }
      ],
      "name": "isBlacklisted",
      "outputs": [
        {
          "internalType": "bool",
          "name": "",
          "type": "bool"
        }
      ],
      "stateMutability": "view",
      "type": "function"
    },
    {
      "inputs": [
        {
          "internalType": "address",
          "name": "",
          "type": "address"
        }
      ],
      "name": "isOwner",
      "outputs": [
        {
          "internalType": "bool",
          "name": "",
          "type": "bool"
        }
      ],
      "stateMutability": "view",
      "type": "function"
    },
    {
      "inputs": [],
      "name": "name",
      "outputs": [
        {
          "internalType": "string",
          "name": "",
          "type": "string"
        }
      ],
      "stateMutability": "view",
      "type": "function"
    },
    {
      "inputs": [
        {
          "internalType": "uint256",
          "name": "",
          "type": "uint256"
        }
      ],
      "name": "nodeOwners",
      "outputs": [
        {
          "internalType": "address",
          "name": "",
          "type": "address"
        }
      ],
      "stateMutability": "view",
      "type": "function"
    },
    {
      "inputs": [
        {
          "internalType": "address",
          "name": "",
          "type": "address"
        }
      ],
      "name": "nodeOwnersInserted",
      "outputs": [
        {
          "internalType": "bool",
          "name": "",
          "type": "bool"
        }
      ],
      "stateMutability": "view",
      "type": "function"
    },
    {
      "inputs": [],
      "name": "openCreateNft",
      "outputs": [
        {
          "internalType": "bool",
          "name": "",
          "type": "bool"
        }
      ],
      "stateMutability": "view",
      "type": "function"
    },
    {
      "inputs": [
        {
          "internalType": "uint256",
          "name": "tokenId",
          "type": "uint256"
        }
      ],
      "name": "ownerOf",
      "outputs": [
        {
          "internalType": "address",
          "name": "",
          "type": "address"
        }
      ],
      "stateMutability": "view",
      "type": "function"
    },
    {
      "inputs": [
        {
          "internalType": "uint256",
          "name": "",
          "type": "uint256"
        }
      ],
      "name": "owners",
      "outputs": [
        {
          "internalType": "address",
          "name": "",
          "type": "address"
        }
      ],
      "stateMutability": "view",
      "type": "function"
    },
    {
      "inputs": [
        {
          "internalType": "address",
          "name": "_new",
          "type": "address"
        }
      ],
      "name": "removeOwner",
      "outputs": [],
      "stateMutability": "nonpayable",
      "type": "function"
    },
    {
      "inputs": [
        {
          "internalType": "address",
          "name": "from",
          "type": "address"
        },
        {
          "internalType": "address",
          "name": "to",
          "type": "address"
        },
        {
          "internalType": "uint256",
          "name": "tokenId",
          "type": "uint256"
        }
      ],
      "name": "safeTransferFrom",
      "outputs": [],
      "stateMutability": "nonpayable",
      "type": "function"
    },
    {
      "inputs": [
        {
          "internalType": "address",
          "name": "from",
          "type": "address"
        },
        {
          "internalType": "address",
          "name": "to",
          "type": "address"
        },
        {
          "internalType": "uint256",
          "name": "tokenId",
          "type": "uint256"
        },
        {
          "internalType": "bytes",
          "name": "_data",
          "type": "bytes"
        }
      ],
      "name": "safeTransferFrom",
      "outputs": [],
      "stateMutability": "nonpayable",
      "type": "function"
    },
    {
      "inputs": [
        {
          "internalType": "address",
          "name": "operator",
          "type": "address"
        },
        {
          "internalType": "bool",
          "name": "approved",
          "type": "bool"
        }
      ],
      "name": "setApprovalForAll",
      "outputs": [],
      "stateMutability": "nonpayable",
      "type": "function"
    },
    {
      "inputs": [
        {
          "internalType": "string",
          "name": "_new",
          "type": "string"
        }
      ],
      "name": "setBaseURI",
      "outputs": [],
      "stateMutability": "nonpayable",
      "type": "function"
    },
    {
      "inputs": [
        {
          "internalType": "address",
          "name": "_new",
          "type": "address"
        }
      ],
      "name": "setHandler",
      "outputs": [],
      "stateMutability": "nonpayable",
      "type": "function"
    },
    {
      "inputs": [
        {
          "internalType": "address",
          "name": "_new",
          "type": "address"
        },
        {
          "internalType": "bool",
          "name": "_value",
          "type": "bool"
        }
      ],
      "name": "setIsBlacklisted",
      "outputs": [],
      "stateMutability": "nonpayable",
      "type": "function"
    },
    {
      "inputs": [
        {
          "internalType": "bool",
          "name": "_new",
          "type": "bool"
        }
      ],
      "name": "setOpenCreateNft",
      "outputs": [],
      "stateMutability": "nonpayable",
      "type": "function"
    },
    {
      "inputs": [
        {
          "internalType": "uint256",
          "name": "tokenId",
          "type": "uint256"
        },
        {
          "internalType": "string",
          "name": "nodeType",
          "type": "string"
        }
      ],
      "name": "setTokenIdToNodeType",
      "outputs": [],
      "stateMutability": "nonpayable",
      "type": "function"
    },
    {
      "inputs": [
        {
          "internalType": "bytes4",
          "name": "interfaceId",
          "type": "bytes4"
        }
      ],
      "name": "supportsInterface",
      "outputs": [
        {
          "internalType": "bool",
          "name": "",
          "type": "bool"
        }
      ],
      "stateMutability": "view",
      "type": "function"
    },
    {
      "inputs": [],
      "name": "symbol",
      "outputs": [
        {
          "internalType": "string",
          "name": "",
          "type": "string"
        }
      ],
      "stateMutability": "view",
      "type": "function"
    },
    {
      "inputs": [
        {
          "internalType": "uint256",
          "name": "index",
          "type": "uint256"
        }
      ],
      "name": "tokenByIndex",
      "outputs": [
        {
          "internalType": "uint256",
          "name": "",
          "type": "uint256"
        }
      ],
      "stateMutability": "view",
      "type": "function"
    },
    {
      "inputs": [
        {
          "internalType": "uint256",
          "name": "",
          "type": "uint256"
        }
      ],
      "name": "tokenIdsToNodeType",
      "outputs": [
        {
          "internalType": "string",
          "name": "",
          "type": "string"
        }
      ],
      "stateMutability": "view",
      "type": "function"
    },
    {
      "inputs": [
        {
          "internalType": "address",
          "name": "owner",
          "type": "address"
        },
        {
          "internalType": "uint256",
          "name": "index",
          "type": "uint256"
        }
      ],
      "name": "tokenOfOwnerByIndex",
      "outputs": [
        {
          "internalType": "uint256",
          "name": "",
          "type": "uint256"
        }
      ],
      "stateMutability": "view",
      "type": "function"
    },
    {
      "inputs": [
        {
          "internalType": "uint256",
          "name": "tokenId",
          "type": "uint256"
        }
      ],
      "name": "tokenURI",
      "outputs": [
        {
          "internalType": "string",
          "name": "",
          "type": "string"
        }
      ],
      "stateMutability": "view",
      "type": "function"
    },
    {
      "inputs": [
        {
          "internalType": "address",
          "name": "user",
          "type": "address"
        }
      ],
      "name": "tokensOfOwner",
      "outputs": [
        {
          "internalType": "uint256[]",
          "name": "",
          "type": "uint256[]"
        }
      ],
      "stateMutability": "view",
      "type": "function"
    },
    {
      "inputs": [
        {
          "internalType": "address",
          "name": "user",
          "type": "address"
        },
        {
          "internalType": "uint256",
          "name": "iStart",
          "type": "uint256"
        },
        {
          "internalType": "uint256",
          "name": "iEnd",
          "type": "uint256"
        }
      ],
      "name": "tokensOfOwnerByIndexesBetween",
      "outputs": [
        {
          "internalType": "uint256[]",
          "name": "",
          "type": "uint256[]"
        }
      ],
      "stateMutability": "view",
      "type": "function"
    },
    {
      "inputs": [],
      "name": "totalSupply",
      "outputs": [
        {
          "internalType": "uint256",
          "name": "",
          "type": "uint256"
        }
      ],
      "stateMutability": "view",
      "type": "function"
    },
    {
      "inputs": [
        {
          "internalType": "address",
          "name": "from",
          "type": "address"
        },
        {
          "internalType": "address",
          "name": "to",
          "type": "address"
        },
        {
          "internalType": "uint256",
          "name": "tokenId",
          "type": "uint256"
        }
      ],
      "name": "transferFrom",
      "outputs": [],
      "stateMutability": "nonpayable",
      "type": "function"
    }
  ],
  "bytecode": "0x60806040526011805460ff191690553480156200001b57600080fd5b50604051620031a6380380620031a68339810160408190526200003e91620001ff565b604080518082018252600a815269506f6c6172204e6f646560b01b602080830191825283518085019094526002845261282760f11b9084015281519192916200008a916000916200013c565b508051620000a09060019060208401906200013c565b5050600a805460018181019092557fc65a7bb8d6351c1cf70c95a316cc6a92839c986682d98bc35f958f4883f9d2a80180546001600160a01b031916339081179091556000908152600b60209081526040909120805460ff19169092179091558351620001149250600f918501906200013c565b50600c80546001600160a01b0319166001600160a01b0392909216919091179055506200033d565b8280546200014a90620002ea565b90600052602060002090601f0160209004810192826200016e5760008555620001b9565b82601f106200018957805160ff1916838001178555620001b9565b82800160010185558215620001b9579182015b82811115620001b95782518255916020019190600101906200019c565b50620001c7929150620001cb565b5090565b5b80821115620001c75760008155600101620001cc565b80516001600160a01b0381168114620001fa57600080fd5b919050565b6000806040838503121562000212578182fd5b82516001600160401b038082111562000229578384fd5b818501915085601f8301126200023d578384fd5b81518181111562000252576200025262000327565b604051601f8201601f19908116603f011681019083821181831017156200027d576200027d62000327565b8160405282815260209350888484870101111562000299578687fd5b8691505b82821015620002bc57848201840151818301850152908301906200029d565b82821115620002cd57868484830101525b9550620002df915050858201620001e2565b925050509250929050565b600281046001821680620002ff57607f821691505b602082108114156200032157634e487b7160e01b600052602260045260246000fd5b50919050565b634e487b7160e01b600052604160045260246000fd5b612e59806200034d6000396000f3fe608060405234801561001057600080fd5b506004361061023d5760003560e01c806355f804b31161013b578063aff930e6116100b8578063c39501621161007c578063c395016214610506578063c80916d414610513578063c87b56dd14610526578063e985e9c514610539578063fe575a87146105755761023d565b8063aff930e61461049a578063b2dc5dc3146104ad578063b88d4fde146104c0578063bac426d0146104d3578063c23e6f93146104e65761023d565b8063842e7669116100ff578063842e7669146104365780638462151c1461045957806395d89b411461046c578063a0e3849214610474578063a22cb465146104875761023d565b806355f804b3146103e25780636352211e146103f55780636c0360eb146104085780636d2011ab1461041057806370a08231146104235761023d565b80632f54bf6e116101c95780634f6ccce71161018d5780634f6ccce71461038e5780635139839c146103a15780635181db2b146103b4578063518e32d3146103c7578063551a6d93146103da5761023d565b80632f54bf6e146103125780632f745c591461033557806333a481dd1461034857806342842e0e1461035b5780634cee1e3b1461036e5761023d565b8063095ea7b311610210578063095ea7b3146102bd5780630c7b1d7b146102d2578063173825d9146102e457806318160ddd146102f757806323b872dd146102ff5761023d565b806301ffc9a714610242578063025e7c271461026a57806306fdde0314610295578063081812fc146102aa575b600080fd5b610255610250366004612950565b610598565b60405190151581526020015b60405180910390f35b61027d610278366004612a00565b6105ab565b6040516001600160a01b039091168152602001610261565b61029d6105d5565b6040516102619190612b9b565b61027d6102b8366004612a00565b610667565b6102d06102cb3660046128db565b610701565b005b600a545b604051908152602001610261565b6102d06102f23660046126f8565b610817565b6008546102d6565b6102d061030d366004612744565b610af2565b6102556103203660046126f8565b600b6020526000908152604090205460ff1681565b6102d66103433660046128db565b610b23565b6102d0610356366004612936565b610bb9565b6102d0610369366004612744565b610bfb565b61038161037c366004612904565b610c16565b6040516102619190612b63565b6102d661039c366004612a00565b610cd9565b61027d6103af366004612a00565b610d7a565b6103816103c23660046129bb565b610d8a565b6102d06103d53660046128b2565b610fd0565b6012546102d6565b6102d06103f0366004612988565b6111e7565b61027d610403366004612a00565b611229565b61029d6112a0565b61029d61041e366004612a00565b6112af565b6102d66104313660046126f8565b611349565b6102556104443660046126f8565b60136020526000908152604090205460ff1681565b6103816104673660046126f8565b6113d0565b61029d611490565b6102d06104823660046128b2565b61149f565b6102d06104953660046128b2565b6114f9565b6102d06104a8366004612a18565b611504565b6102d06104bb3660046127f8565b61154d565b6102d06104ce36600461277f565b611655565b6102d06104e13660046126f8565b61168d565b6104f96104f4366004612a5d565b6116de565b6040516102619190612b16565b6011546102559060ff1681565b600c5461027d906001600160a01b031681565b61029d610534366004612a00565b6117d9565b610255610547366004612712565b6001600160a01b03918216600090815260056020908152604080832093909416825291909152205460ff1690565b6102556105833660046126f8565b60106020526000908152604090205460ff1681565b60006105a3826118b4565b90505b919050565b600a81815481106105bb57600080fd5b6000918252602090912001546001600160a01b0316905081565b6060600080546105e490612d5e565b80601f016020809104026020016040519081016040528092919081815260200182805461061090612d5e565b801561065d5780601f106106325761010080835404028352916020019161065d565b820191906000526020600020905b81548152906001019060200180831161064057829003601f168201915b5050505050905090565b6000818152600260205260408120546001600160a01b03166106e55760405162461bcd60e51b815260206004820152602c60248201527f4552433732313a20617070726f76656420717565727920666f72206e6f6e657860448201526b34b9ba32b73a103a37b5b2b760a11b60648201526084015b60405180910390fd5b506000908152600460205260409020546001600160a01b031690565b600061070c82611229565b9050806001600160a01b0316836001600160a01b0316141561077a5760405162461bcd60e51b815260206004820152602160248201527f4552433732313a20617070726f76616c20746f2063757272656e74206f776e656044820152603960f91b60648201526084016106dc565b336001600160a01b038216148061079657506107968133610547565b6108085760405162461bcd60e51b815260206004820152603860248201527f4552433732313a20617070726f76652063616c6c6572206973206e6f74206f7760448201527f6e6572206e6f7220617070726f76656420666f7220616c6c000000000000000060648201526084016106dc565b61081283836118d9565b505050565b336001600160a01b0316600a60008154811061084357634e487b7160e01b600052603260045260246000fd5b6000918252602090912001546001600160a01b0316146108a05760405162461bcd60e51b815260206004820152601860248201527727bbb732b9399d1027b7363c9029bab832b91027bbb732b960411b60448201526064016106dc565b6001600160a01b0381166000908152600b602052604090205460ff166108fc5760405162461bcd60e51b815260206004820152601160248201527027bbb732b9399d102737ba1037bbb732b960791b60448201526064016106dc565b600a60008154811061091e57634e487b7160e01b600052603260045260246000fd5b6000918252602090912001546001600160a01b038281169116141561098f5760405162461bcd60e51b815260206004820152602160248201527f4f776e6572733a2043616e6e6f742072656d6f7665207375706572206f776e656044820152603960f91b60648201526084016106dc565b60015b600a54811015610ad057816001600160a01b0316600a82815481106109c757634e487b7160e01b600052603260045260246000fd5b6000918252602090912001546001600160a01b03161415610abe57600a80546109f290600190612d1b565b81548110610a1057634e487b7160e01b600052603260045260246000fd5b600091825260209091200154600a80546001600160a01b039092169183908110610a4a57634e487b7160e01b600052603260045260246000fd5b9060005260206000200160006101000a8154816001600160a01b0302191690836001600160a01b03160217905550600a805480610a9757634e487b7160e01b600052603160045260246000fd5b600082815260209020810160001990810180546001600160a01b0319169055019055610ad0565b80610ac881612d99565b915050610992565b506001600160a01b03166000908152600b60205260409020805460ff19169055565b610afc3382611947565b610b185760405162461bcd60e51b81526004016106dc90612c6d565b610812838383611a3e565b6000610b2e83611349565b8210610b905760405162461bcd60e51b815260206004820152602b60248201527f455243373231456e756d657261626c653a206f776e657220696e646578206f7560448201526a74206f6620626f756e647360a81b60648201526084016106dc565b506001600160a01b03919091166000908152600660209081526040808320938352929052205490565b336000908152600b602052604090205460ff16610be85760405162461bcd60e51b81526004016106dc90612c00565b6011805460ff1916911515919091179055565b61081283838360405180602001604052806000815250611655565b60606000610c248484612d1b565b67ffffffffffffffff811115610c4a57634e487b7160e01b600052604160045260246000fd5b604051908082528060200260200182016040528015610c73578160200160208202803683370190505b509050835b83811015610cd057610c8a8682610b23565b82610c958784612d1b565b81518110610cb357634e487b7160e01b600052603260045260246000fd5b602090810291909101015280610cc881612d99565b915050610c78565b50949350505050565b6000610ce460085490565b8210610d475760405162461bcd60e51b815260206004820152602c60248201527f455243373231456e756d657261626c653a20676c6f62616c20696e646578206f60448201526b7574206f6620626f756e647360a01b60648201526084016106dc565b60088281548110610d6857634e487b7160e01b600052603260045260246000fd5b90600052602060002001549050919050565b601281815481106105bb57600080fd5b600c546060906001600160a01b03163314610db75760405162461bcd60e51b81526004016106dc90612c2c565b6001600160a01b03831660009081526010602052604090205460ff1615610e205760405162461bcd60e51b815260206004820152601e60248201527f506f6c61724e6f64653a20426c61636b6c69737465642061646472657373000060448201526064016106dc565b60115460ff16610e685760405162461bcd60e51b81526020600482015260136024820152722837b630b92737b2329d102737ba1037b832b760691b60448201526064016106dc565b6001600160a01b03831660009081526013602052604090205460ff16610eec576012805460018082019092557fbb8a6a4669ba250d26cd7a459eca9d215f8307e33aebe50379bc5a3617ec34440180546001600160a01b0319166001600160a01b0386169081179091556000908152601360205260409020805460ff191690911790555b60008267ffffffffffffffff811115610f1557634e487b7160e01b600052604160045260246000fd5b604051908082528060200260200182016040528015610f3e578160200160208202803683370190505b50905060005b83811015610cd0576000610f57600e5490565b905080838381518110610f7a57634e487b7160e01b600052603260045260246000fd5b6020908102919091018101919091526000828152600d8252604090208851610fa4928a01906125c1565b50610faf8682611bc9565b610fbd600e80546001019055565b5080610fc881612d99565b915050610f44565b336001600160a01b0316600a600081548110610ffc57634e487b7160e01b600052603260045260246000fd5b6000918252602090912001546001600160a01b0316146110595760405162461bcd60e51b815260206004820152601860248201527727bbb732b9399d1027b7363c9029bab832b91027bbb732b960411b60448201526064016106dc565b6001600160a01b0382166000908152600b602052604090205460ff16156110ba5760405162461bcd60e51b815260206004820152601560248201527427bbb732b9399d1020b63932b0b23c9037bbb732b960591b60448201526064016106dc565b6001600160a01b0382166000908152600b60205260409020805460ff19166001179055801561119757600a8060008154811061110657634e487b7160e01b600052603260045260246000fd5b6000918252602080832090910154835460018101855593835290822090920180546001600160a01b0319166001600160a01b0390931692909217909155600a805484929061116457634e487b7160e01b600052603260045260246000fd5b9060005260206000200160006101000a8154816001600160a01b0302191690836001600160a01b031602179055506111e3565b600a80546001810182556000919091527fc65a7bb8d6351c1cf70c95a316cc6a92839c986682d98bc35f958f4883f9d2a80180546001600160a01b0319166001600160a01b0384161790555b5050565b336000908152600b602052604090205460ff166112165760405162461bcd60e51b81526004016106dc90612c00565b80516111e390600f9060208401906125c1565b6000818152600260205260408120546001600160a01b0316806105a35760405162461bcd60e51b815260206004820152602960248201527f4552433732313a206f776e657220717565727920666f72206e6f6e657869737460448201526832b73a103a37b5b2b760b91b60648201526084016106dc565b60606112aa611be3565b905090565b600d60205260009081526040902080546112c890612d5e565b80601f01602080910402602001604051908101604052809291908181526020018280546112f490612d5e565b80156113415780601f1061131657610100808354040283529160200191611341565b820191906000526020600020905b81548152906001019060200180831161132457829003601f168201915b505050505081565b60006001600160a01b0382166113b45760405162461bcd60e51b815260206004820152602a60248201527f4552433732313a2062616c616e636520717565727920666f7220746865207a65604482015269726f206164647265737360b01b60648201526084016106dc565b506001600160a01b031660009081526003602052604090205490565b606060006113dd83611349565b67ffffffffffffffff81111561140357634e487b7160e01b600052604160045260246000fd5b60405190808252806020026020018201604052801561142c578160200160208202803683370190505b50905060005b61143b84611349565b8110156114895761144c8482610b23565b82828151811061146c57634e487b7160e01b600052603260045260246000fd5b60209081029190910101528061148181612d99565b915050611432565b5092915050565b6060600180546105e490612d5e565b336000908152600b602052604090205460ff166114ce5760405162461bcd60e51b81526004016106dc90612c00565b6001600160a01b03919091166000908152601060205260409020805460ff1916911515919091179055565b6111e3338383611bf2565b600c546001600160a01b0316331461152e5760405162461bcd60e51b81526004016106dc90612c2c565b6000828152600d602090815260409091208251610812928401906125c1565b600c546001600160a01b031633146115775760405162461bcd60e51b81526004016106dc90612c2c565b60005b815181101561081257826001600160a01b03166115bd8383815181106115b057634e487b7160e01b600052603260045260246000fd5b6020026020010151611229565b6001600160a01b0316146116135760405162461bcd60e51b815260206004820152601860248201527f506f6c61724e6f64653a204e6f74206e6674206f776e6572000000000000000060448201526064016106dc565b61164382828151811061163657634e487b7160e01b600052603260045260246000fd5b6020026020010151611cc1565b8061164d81612d99565b91505061157a565b61165f3383611947565b61167b5760405162461bcd60e51b81526004016106dc90612c6d565b61168784848484611d68565b50505050565b336000908152600b602052604090205460ff166116bc5760405162461bcd60e51b81526004016106dc90612c00565b600c80546001600160a01b0319166001600160a01b0392909216919091179055565b606060006116ec8484612d1b565b67ffffffffffffffff81111561171257634e487b7160e01b600052604160045260246000fd5b60405190808252806020026020018201604052801561173b578160200160208202803683370190505b509050835b838110156117d1576012818154811061176957634e487b7160e01b600052603260045260246000fd5b6000918252602090912001546001600160a01b0316826117898784612d1b565b815181106117a757634e487b7160e01b600052603260045260246000fd5b6001600160a01b0390921660209283029190910190910152806117c981612d99565b915050611740565b509392505050565b6000818152600260205260409020546060906001600160a01b03166118585760405162461bcd60e51b815260206004820152602f60248201527f4552433732314d657461646174613a2055524920717565727920666f72206e6f60448201526e3732bc34b9ba32b73a103a37b5b2b760891b60648201526084016106dc565b6000611862611be3565b9050600081511161188257604051806020016040528060008152506118ad565b8061188c84611d9b565b60405160200161189d929190612aaa565b6040516020818303038152906040525b9392505050565b60006001600160e01b0319821663780e9d6360e01b14806105a357506105a382611eb6565b600081815260046020526040902080546001600160a01b0319166001600160a01b038416908117909155819061190e82611229565b6001600160a01b03167f8c5be1e5ebec7d5bd14f71427d1e84f3dd0314c0f7b2291e5b200ac8c7c3b92560405160405180910390a45050565b6000818152600260205260408120546001600160a01b03166119c05760405162461bcd60e51b815260206004820152602c60248201527f4552433732313a206f70657261746f7220717565727920666f72206e6f6e657860448201526b34b9ba32b73a103a37b5b2b760a11b60648201526084016106dc565b60006119cb83611229565b9050806001600160a01b0316846001600160a01b03161480611a065750836001600160a01b03166119fb84610667565b6001600160a01b0316145b80611a3657506001600160a01b0380821660009081526005602090815260408083209388168352929052205460ff165b949350505050565b6001600160a01b03831660009081526010602052604090205460ff16158015611a8057506001600160a01b03821660009081526010602052604090205460ff16155b611acc5760405162461bcd60e51b815260206004820152601e60248201527f506f6c61724e6f64653a20426c61636b6c69737465642061646472657373000060448201526064016106dc565b6001600160a01b03821660009081526013602052604090205460ff16611b50576012805460018082019092557fbb8a6a4669ba250d26cd7a459eca9d215f8307e33aebe50379bc5a3617ec34440180546001600160a01b0319166001600160a01b0385169081179091556000908152601360205260409020805460ff191690911790555b600c546040516323b872dd60e01b81526001600160a01b038581166004830152848116602483015260448201849052909116906323b872dd90606401600060405180830381600087803b158015611ba657600080fd5b505af1158015611bba573d6000803e3d6000fd5b50505050610812838383611f06565b6111e38282604051806020016040528060008152506120b1565b6060600f80546105e490612d5e565b816001600160a01b0316836001600160a01b03161415611c545760405162461bcd60e51b815260206004820152601960248201527f4552433732313a20617070726f766520746f2063616c6c65720000000000000060448201526064016106dc565b6001600160a01b03838116600081815260056020908152604080832094871680845294825291829020805460ff191686151590811790915591519182527f17307eab39ab6107e8899845ad3d59bd9653f200f220920489ca2b5937696c31910160405180910390a3505050565b6000611ccc82611229565b9050611cda816000846120e4565b611ce56000836118d9565b6001600160a01b0381166000908152600360205260408120805460019290611d0e908490612d1b565b909155505060008281526002602052604080822080546001600160a01b0319169055518391906001600160a01b038416907fddf252ad1be2c89b69c2b068fc378daa952ba7f163c4a11628f55a4df523b3ef908390a45050565b611d73848484611a3e565b611d7f848484846120ef565b6116875760405162461bcd60e51b81526004016106dc90612bae565b606081611dc057506040805180820190915260018152600360fc1b60208201526105a6565b8160005b8115611dea5780611dd481612d99565b9150611de39050600a83612d07565b9150611dc4565b60008167ffffffffffffffff811115611e1357634e487b7160e01b600052604160045260246000fd5b6040519080825280601f01601f191660200182016040528015611e3d576020820181803683370190505b5090505b8415611a3657611e52600183612d1b565b9150611e5f600a86612db4565b611e6a906030612cef565b60f81b818381518110611e8d57634e487b7160e01b600052603260045260246000fd5b60200101906001600160f81b031916908160001a905350611eaf600a86612d07565b9450611e41565b60006001600160e01b031982166380ac58cd60e01b1480611ee757506001600160e01b03198216635b5e139f60e01b145b806105a357506301ffc9a760e01b6001600160e01b03198316146105a3565b826001600160a01b0316611f1982611229565b6001600160a01b031614611f815760405162461bcd60e51b815260206004820152602960248201527f4552433732313a207472616e73666572206f6620746f6b656e2074686174206960448201526839903737ba1037bbb760b91b60648201526084016106dc565b6001600160a01b038216611fe35760405162461bcd60e51b8152602060048201526024808201527f4552433732313a207472616e7366657220746f20746865207a65726f206164646044820152637265737360e01b60648201526084016106dc565b611fee8383836120e4565b611ff96000826118d9565b6001600160a01b0383166000908152600360205260408120805460019290612022908490612d1b565b90915550506001600160a01b0382166000908152600360205260408120805460019290612050908490612cef565b909155505060008181526002602052604080822080546001600160a01b0319166001600160a01b0386811691821790925591518493918716917fddf252ad1be2c89b69c2b068fc378daa952ba7f163c4a11628f55a4df523b3ef91a4505050565b6120bb83836121fc565b6120c860008484846120ef565b6108125760405162461bcd60e51b81526004016106dc90612bae565b61081283838361234a565b60006001600160a01b0384163b156121f157604051630a85bd0160e11b81526001600160a01b0385169063150b7a0290612133903390899088908890600401612ad9565b602060405180830381600087803b15801561214d57600080fd5b505af192505050801561217d575060408051601f3d908101601f1916820190925261217a9181019061296c565b60015b6121d7573d8080156121ab576040519150601f19603f3d011682016040523d82523d6000602084013e6121b0565b606091505b5080516121cf5760405162461bcd60e51b81526004016106dc90612bae565b805181602001fd5b6001600160e01b031916630a85bd0160e11b149050611a36565b506001949350505050565b6001600160a01b0382166122525760405162461bcd60e51b815260206004820181905260248201527f4552433732313a206d696e7420746f20746865207a65726f206164647265737360448201526064016106dc565b6000818152600260205260409020546001600160a01b0316156122b75760405162461bcd60e51b815260206004820152601c60248201527f4552433732313a20746f6b656e20616c7265616479206d696e7465640000000060448201526064016106dc565b6122c3600083836120e4565b6001600160a01b03821660009081526003602052604081208054600192906122ec908490612cef565b909155505060008181526002602052604080822080546001600160a01b0319166001600160a01b03861690811790915590518392907fddf252ad1be2c89b69c2b068fc378daa952ba7f163c4a11628f55a4df523b3ef908290a45050565b6001600160a01b0383166123a5576123a081600880546000838152600960205260408120829055600182018355919091527ff3f7a9fe364faab93b216da50a3214154f22a0a2b415b23a84c8169e8b636ee30155565b6123c8565b816001600160a01b0316836001600160a01b0316146123c8576123c88382612407565b6001600160a01b0382166123e4576123df816124a4565b610812565b826001600160a01b0316826001600160a01b03161461081257610812828261257d565b6000600161241484611349565b61241e9190612d1b565b600083815260076020526040902054909150808214612471576001600160a01b03841660009081526006602090815260408083208584528252808320548484528184208190558352600790915290208190555b5060009182526007602090815260408084208490556001600160a01b039094168352600681528383209183525290812055565b6008546000906124b690600190612d1b565b600083815260096020526040812054600880549394509092849081106124ec57634e487b7160e01b600052603260045260246000fd5b90600052602060002001549050806008838154811061251b57634e487b7160e01b600052603260045260246000fd5b600091825260208083209091019290925582815260099091526040808220849055858252812055600880548061256157634e487b7160e01b600052603160045260246000fd5b6001900381819060005260206000200160009055905550505050565b600061258883611349565b6001600160a01b039093166000908152600660209081526040808320868452825280832085905593825260079052919091209190915550565b8280546125cd90612d5e565b90600052602060002090601f0160209004810192826125ef5760008555612635565b82601f1061260857805160ff1916838001178555612635565b82800160010185558215612635579182015b8281111561263557825182559160200191906001019061261a565b50612641929150612645565b5090565b5b808211156126415760008155600101612646565b600067ffffffffffffffff83111561267457612674612df4565b612687601f8401601f1916602001612cbe565b905082815283838301111561269b57600080fd5b828260208301376000602084830101529392505050565b80356001600160a01b03811681146105a657600080fd5b803580151581146105a657600080fd5b600082601f8301126126e9578081fd5b6118ad8383356020850161265a565b600060208284031215612709578081fd5b6118ad826126b2565b60008060408385031215612724578081fd5b61272d836126b2565b915061273b602084016126b2565b90509250929050565b600080600060608486031215612758578081fd5b612761846126b2565b925061276f602085016126b2565b9150604084013590509250925092565b60008060008060808587031215612794578081fd5b61279d856126b2565b93506127ab602086016126b2565b925060408501359150606085013567ffffffffffffffff8111156127cd578182fd5b8501601f810187136127dd578182fd5b6127ec8782356020840161265a565b91505092959194509250565b6000806040838503121561280a578182fd5b612813836126b2565b915060208084013567ffffffffffffffff80821115612830578384fd5b818601915086601f830112612843578384fd5b81358181111561285557612855612df4565b8381029150612865848301612cbe565b8181528481019084860184860187018b101561287f578788fd5b8795505b838610156128a1578035835260019590950194918601918601612883565b508096505050505050509250929050565b600080604083850312156128c4578182fd5b6128cd836126b2565b915061273b602084016126c9565b600080604083850312156128ed578182fd5b6128f6836126b2565b946020939093013593505050565b600080600060608486031215612918578283fd5b612921846126b2565b95602085013595506040909401359392505050565b600060208284031215612947578081fd5b6118ad826126c9565b600060208284031215612961578081fd5b81356118ad81612e0a565b60006020828403121561297d578081fd5b81516118ad81612e0a565b600060208284031215612999578081fd5b813567ffffffffffffffff8111156129af578182fd5b611a36848285016126d9565b6000806000606084860312156129cf578081fd5b833567ffffffffffffffff8111156129e5578182fd5b6129f1868287016126d9565b93505061276f602085016126b2565b600060208284031215612a11578081fd5b5035919050565b60008060408385031215612a2a578182fd5b82359150602083013567ffffffffffffffff811115612a47578182fd5b612a53858286016126d9565b9150509250929050565b60008060408385031215612a6f578182fd5b50508035926020909101359150565b60008151808452612a96816020860160208601612d32565b601f01601f19169290920160200192915050565b60008351612abc818460208801612d32565b835190830190612ad0818360208801612d32565b01949350505050565b6001600160a01b0385811682528416602082015260408101839052608060608201819052600090612b0c90830184612a7e565b9695505050505050565b6020808252825182820181905260009190848201906040850190845b81811015612b575783516001600160a01b031683529284019291840191600101612b32565b50909695505050505050565b6020808252825182820181905260009190848201906040850190845b81811015612b5757835183529284019291840191600101612b7f565b6000602082526118ad6020830184612a7e565b60208082526032908201527f4552433732313a207472616e7366657220746f206e6f6e20455243373231526560408201527131b2b4bb32b91034b6b83632b6b2b73a32b960711b606082015260800190565b60208082526012908201527127bbb732b9399d1027b7363c9027bbb732b960711b604082015260600190565b60208082526021908201527f506f6c61724e6f64653a20476f64206d6f6465206e6f742061637469766174656040820152601960fa1b606082015260800190565b60208082526031908201527f4552433732313a207472616e736665722063616c6c6572206973206e6f74206f6040820152701ddb995c881b9bdc88185c1c1c9bdd9959607a1b606082015260800190565b604051601f8201601f1916810167ffffffffffffffff81118282101715612ce757612ce7612df4565b604052919050565b60008219821115612d0257612d02612dc8565b500190565b600082612d1657612d16612dde565b500490565b600082821015612d2d57612d2d612dc8565b500390565b60005b83811015612d4d578181015183820152602001612d35565b838111156116875750506000910152565b600281046001821680612d7257607f821691505b60208210811415612d9357634e487b7160e01b600052602260045260246000fd5b50919050565b6000600019821415612dad57612dad612dc8565b5060010190565b600082612dc357612dc3612dde565b500690565b634e487b7160e01b600052601160045260246000fd5b634e487b7160e01b600052601260045260246000fd5b634e487b7160e01b600052604160045260246000fd5b6001600160e01b031981168114612e2057600080fd5b5056fea2646970667358221220ee3acce0daa61a18cf370fd55f9261d3f573e5f6febb9d1d843b5e681607e34b64736f6c63430008020033",
  "linkReferences": {},
  "deployedLinkReferences": {}
}